:04000000BBEF2FF033
:0800080000C504F501C505F572
:1000100002C506F5076A03C508F50001F5C409F530
:10002000F6C40AF5F7C40BF5A8AE1AEF00F0B3BE9C
:10003000B1EF01F0A9A020EF00F0B4B0FBEF00F0A9
:10004000ABA626EF00F0B6B625EF01F0ABA82CEF7B
:1000500000F0B6B818EF01F0ACA032EF00F0B7B086
:1000600044EF01F009C5F5F40AC5F6F40BC5F7F441
:1000700004C500F505C501F506C502F5078E08C5DE
:1000800003F51100F76A940FF66E000EF7220900CF
:10009000F55012002B2B2B00F76AA80FF66E000EFE
:1000A000F7220900F550120041542B5645523F00EB
:1000B000F76AC00FF66E000EF7220900F550120025
:1000C00041542B524553544F52450000F76ADC0F00
:1000D000F66E000EF7220900F550120041542B5223
:1000E000455345540000F76AF60FF66E000EF722EE
:1000F0000900F550120041542B4D41433F00F76A6F
:100100000E0FF66E010EF7220900F5501200415451
:100110002B4E414D453D5445434E4944524F425468
:100120000000F76A320FF66E010EF7220900F55053
:10013000120041542B524F4C453D3000F76A4C0F92
:10014000F66E010EF7220900F550120041542B54AF
:1001500052414E4D443D3100F76A680FF66E010E74
:10016000F7220900F550120041542B4144563D310D
:100170000000F76A820FF66E010EF7220900F550B3
:10018000120041542B414456494E54563D313030B3
:100190003000F76AA20FF66E010EF7220900F55043
:1001A000120041542B4558495400F76ABA0FF66EB5
:1001B000010EF7220900F55012001F1C1F1E1F1E02
:1001C0001F1F1E1F1E1FF76AD60FF66E010EF722A5
:1001D0000900F5501200242020202020202020207B
:1001E000202020202020202020202020202020200F
:1001F0002020202300000001B4903F5040100EE06A
:100200003F50D8B440063F063F5208E1405206E155
:10021000010E476E0F0E3B6E040E3C6E0601F22B74
:10022000D8B4F32B010E486EB490000132EF00F009
:100230000001B490800E0301136F126B0000010ED9
:10024000286EB698000132EF00F0000103011C6B2C
:1002500007015E5305E1030E5E6F010E296E01D0AA
:100260005E07B696000132EF00F0B7A0FED702019C
:10027000B2C220F5A1C201F520A204D0AB99B0838F
:10028000B293AB89000112000901066B24507E086D
:100290002FE30001EADF01C506F9302C15D0215209
:1002A0000EE02250245C070B036A560FE96E070E1E
:1002B0000320EA6EEF500901061B05D0000107017B
:1002C00056510901061B0001036A24504A0FE96ECA
:1002D000050E0320EA6E06C9EFF4010E2424036A1A
:1002E0004A0FE96E050E0320EA6EEF6A04D0090199
:1002F000246A226A00010501D3510901065D04E167
:10030000010E216E24C522F50501D4510901065DB7
:1003100006E1212C04D0216A010E256EAB96242A19
:10032000B790000132EF00F0243939230000243F58
:100330002C4E4F4B2300424C45205645523A202527
:10034000730D0A0041542B4E414D453D5445434EDB
:100350004944524F425425782578257825782578C8
:100360000000000104010D9F0E9F0F9F006AD6BE82
:100370000080D69E550E0201006FAA0E006F0091FC
:1003800000B0D68E0F0E0E01A86F006AD6BE008098
:10039000D69E550E0201006FAA0E006F008100B0BC
:1003A000D68E216A246A226A256A000178510400E7
:1003B000296A2D6A0201AC8FAB89AB8BAC80C092ED
:1003C000000178510400B69678510400AB96030EF4
:1003D00007015E6F0301216B1F6B010E206FFE0E84
:1003E0001D6F1E691C6B296AAB86B39E000132EF3C
:1003F00000F02433302C25732C25752C254C752CBE
:10040000254C752C254C752C254C752C254C752CA4
:100410002575230030342E30302E3034000024393E
:10042000392C4E4F4B2300002425752C4E4F4B2367
:1004300000002425752C4F4B23002D2D2D2D2046FB
:1004400057202573202D2D2D2D0D0A0030342E30F0
:10045000302E303400002D2D2D2D204369636C6F1C
:100460002054657374202D2D2D2D0D0A000042613E
:100470007474657269613A205B257525255D2E20AF
:100480005B25312E32665D20566F6C747320286CAC
:100490006F7720426174746572793D25752C2076E2
:1004A000657279204C6F7720426174746572793D72
:1004B000256429200D0A0000426174746572696127
:1004C00020736361726963613A20736F6C6F20639C
:1004D00068697573757261207065726D657373619B
:1004E0000D0A000041706572747572612056616C6E
:1004F000766F6C613A20506173730D0A0000417091
:100500006572747572612056616C766F6C613A2009
:100510004E6F7420506173730D0A00004368697553
:10052000737572612056616C766F6C613A20506110
:1005300073730D0A00004368697573757261205604
:10054000616C766F6C613A204E6F742050617373EA
:100550000D0A000053656E736F726520556D6964F6
:10056000697461273A204F46460D0A0053656E7341
:100570006F726520556D6964697461273A204F4E2A
:100580000D0A0000546F74616C697A7A61746F723D
:10059000653A205B254C755D0D0A0000517561724E
:1005A0007A6F2065737465726E6F20506173730D7E
:1005B0000A00517561727A6F2065737465726E6F8F
:1005C000204E6F7420506173730D0A0054696D657D
:1005D0006F75742E205B25735D2070745F6D73677B
:1005E0005F42543D5B25645D20636E745F7365728A
:1005F000313D5B25645D0D0A000052455354415264
:10060000542043415553453A20254C750D0A0000AE
:10061000496E76696172652027542720286F7070B3
:100620007572652027742729207375207365726998
:10063000616C65206469206465627567207065720D
:1006400020656E747261726520696E2054657374E2
:100650000D0A0000457869742054657374206D6F2D
:1006600064652077616974696E670D0A0000B06B7C
:10067000AF6BB36B080EB16F600EAD6FB06BAF6B4D
:10068000B36B030EB16F600EAD6F050EC66E900EAC
:10069000C76E050EC86E0401096B096BBE6ABF6A9E
:1006A000C06AD016C06A000E0301F86F0401006F23
:1006B000086F106F0301429F699E789E879E00011C
:1006C000849F0301C09F0401469F0001D56BD79F03
:1006D000D66B010ED56FD79FD66B020ED56FD79F05
:1006E000D66B030ED56FD79FD66B0301106B116BC2
:1006F0000F6B0D6B0B690A6909690C6B00010E9396
:10070000AC9FAC6B716B070E726F736F706B756B18
:10071000766F776F746B0301D76B00017F6B0301FA
:10072000F39FC09CC09EBF9CC098C09A00017851A6
:100730000400BE80BE82BF8ABF8E67EF30F0080E15
:10074000EA6ED50EE96EEF500DE0020E016E006A02
:10075000002EFED7012EFBD7970E006E002EFED77F
:10076000EF2EF3D712003BC8EAF43AC8E9F40801C7
:10077000D9C8EFF4E92AD8B4EA2AEF6A3A2BD8B4F8
:100780003B2B000112000900F6C4D5F8F7C4D6F8D7
:10079000F5C4D9F8E8DFD5C8F6F4D6C8F7F40801EF
:1007A000D42F01D002D00001EED700011200EAC41C
:1007B000D8F8E9C4D7F80801D139F009D36FD327A5
:1007C000E20FD46F320FD66FD1510F0BD427D4273D
:1007D000D627E90FD56FD527D527D0390F0BD527C9
:1007E000D627D537D637D61FD637D0510F0BD627B9
:1007F000D337070ED26F0A0ED507D627FDE3D407ED
:10080000D527FDE3D307D427FDE3D207D327FDE3A4
:10081000080EEA6ED20EE96E070ED715D79DE926AF
:10082000000EEA22E950D60804E1EA50080801E186
:10083000D78DEF50006E08E1D7BD06D0D7B915D0DF
:10084000D7B702D0200E03D0D787D799300E002615
:10085000EAC4D1F8E9C4D0F800C5D9F8000183DFB3
:10086000D1C8EAF4D0C8E9F40801EE50D7ADDAD720
:1008700000011200BBA2FED7DAC8B6F202010001E5
:1008800012000801546B556B060E576FF60E566F2B
:1008900000017851040078510400080157C8EAF4B7
:1008A0005651562BD8B4572BE96EEFC455F8555313
:1008B0000FE055510A080CE055510D0809E054515C
:1008C0005F0806E355C8DAF80001D4DF0801542BAD
:1008D00055530CE055510A0809E055510D0806E042
:1008E00054515F08D8A002D00001D5D7000178513B
:1008F00004000A0E0801DA6F0001BCDF7851040021
:10090000420E006E002EFED700000D0E0801DA6FB9
:100910000001B0DF420E006E002EFED70000120074
:10092000016603D0026602D007D0022A00C5EEF4A9
:10093000012EFCD7022EFAD712000900F5520CE066
:10094000F6C4D0F8F7C4D1F8F5C4D9F80CDFD0C894
:10095000F6F4D1C8F7F4F1D71200BBA0FED702011C
:10096000C5C220F5B4C201F520A204D0BE99C3834C
:10097000C593BE8900011200070E0301176F270EF1
:10098000146F156B166B800E136F126B0000B69808
:10099000AB9800011200090E0801DB5F0CE3080EA2
:1009A000EA6EDB0EE96ED890EF32EF5004E001D032
:1009B0000000EF2EFDD7000112008E0E006EDBC886
:1009C00001F5DAC802F5036A015209E102C501F531
:1009D000026A080E005E015202E1006A08D0D89057
:1009E00001BE04D0023601360006F9D7019E12007E
:1009F0000801DA51D8B471D0006EDE51D8B46DD090
:100A0000002604E3810E002668E204D07F0E005E1B
:100A100064E363E0DBC8E2F8DF51E21BDB8FDF8FCA
:100A2000DD51E103F4C4E4F8DC51E003F4C403F560
:100A3000F3C4E3F8E103F350E427F450E323000E9A
:100A40000322DD51E003F350E427F450E323000ECA
:100A5000026A03220222DB51E103F350E327F45040
:100A60000322000E0222DB51E003F3500326F45070
:100A70000222000E016A0122DD51DF03F350E32759
:100A8000F4500322000E02220122DC51DF03F35056
:100A90000326F4500222000E0122DB51DF03F35043
:100AA0000226F4500122002A01BE05D0E3370336A6
:100AB000023601360006000EE3AF0AD0032A0222F6
:100AC0000122015005E1025003E1035001E1002A37
:100AD000E2BF018EE2AF019E04D0006A016A026AA1
:100AE000036A00011200800ED8A202D00801E31BA5
:100AF0000801E86BE96BDFC8E7F8E351E71BDE515B
:100B0000D8B4DFD0E66F006EE251D8B4E3D0E65F30
:100B1000D8B483D03EE3E3C8ECF8EC8FE4C8EBF83C
:100B2000E5C8EAF8E96BD890EC33EB33EA33E93304
:100B3000E62FF8D7E7AF03D0E881E0D0E891E6915F
:100B4000E889080EEA6EE10EE96EEBD0E899E7BF9E
:100B50000AD0E6A113D0EC33EB33EA33E933002AB1
:100B6000D8B4C7D00BD0ECBF0CD0D890E937EA3757
:100B7000EB37EC370006D8B4BCD0F5D7E88D6DD094
:100B8000E89DDFC8E7F8DFAF02D0EC8FABD0EC9F79
:100B9000A9D0E2C8E6F8E2C800F5DE51E65FDFC89A
:100BA000ECF8EC8FE0C8EBF8E1C8EAF8E96BD89014
:100BB000EC33EB33EA33E933E62FF8D7E7AF03D072
:100BC000E8839CD0E893E691E88B080EEA6EE50E88
:100BD000E96EA7D0E89BE7BF0AD0E6A113D0EC33BB
:100BE000EB33EA33E933002AD8B483D00BD0ECBF1F
:100BF0000CD0D890E937EA37EB37EC370006D8B499
:100C000078D0F5D7E88F29D0E89FE3C8E7F8E3AFBD
:100C100002D0EC8F67D0EC9F65D0E3C8ECF8EC8F86
:100C2000E4C8EBF8E5C8EAF8E7AF04D0EC9FE88544
:100C300065D0E895E96BE691080EEA6EE10EE96E83
:100C400070D0E7BF1CD0DFC8E7F8E6A106D0EC33D0
:100C5000EB33EA33E933002A4CE0E9AF0BD0EA2B5F
:100C600009E1EB2B07E1EC2B05E1EC33EB33EA3345
:100C7000002A3FE0E8BD84D7E8BFC6D71CD0800E6D
:100C8000EC1BECAF04D03AD0E3C8E7F80AD0DFC8D9
:100C9000E7F8EC5306E1EB5304E1EA5302E1006AA2
:100CA00021D0ECBF08D0D890E937EA37EB37EC37E2
:100CB000002EF7D71ED0E7AF02D0EC8F13D0EC9FF9
:100CC00011D0E2C800F5E3C8ECF8E4C8EBF8E5C8D9
:100CD000EAF808D0DEC800F5DFC8ECF8E0C8EBF8A9
:100CE000E1C8EAF8ECC801F5EBC802F5EAC803F57B
:100CF00034D0006A016A026A036A2FD0E96BEA1FE6
:100D0000EB1FEC1FE91FE92B05E1EA2B03E1EB2BBD
:100D100001E1EC2BE8B112D7E8B354D7E8B589D795
:100D2000B3D7EF50EA2705E3EB2B03E1EC2BD8B464
:100D3000E681ED52EF50EB2703E3EC2BD8B4E681CC
:100D4000ED52EF50EFBE01D0800AEC27D8B0E6811B
:100D5000E8B9FCD6E8BB3ED774D70001A8EF07F08E
:100D6000DBC8E2F80801DF51E21BE2AF05D0D894FE
:100D7000D890DBBFD8802FD0DBC8E2F8DEC8E3F81C
:100D8000DA51E35F06E0E2AF26D0D850010AD86E10
:100D900022D0DFC8E3F8DB51E35F06E0E2AF1BD00F
:100DA000D850010AD86E17D0E0C8E3F8DC51E35FF1
:100DB00006E0E2AF10D0D850010AD86E0CD0E1C8DE
:100DC000E3F8DD51E35F06E0E2AF05D0D850010A59
:100DD000D86E01D0D890000112000801D06BD16B01
:100DE000D26BD36BD56BD46B0001785104004A935E
:100DF0004A91F00E4B170801D26BD251080820E33C
:100E000000014A9FF00E4B170801D25100014B130D
:100E10004A8F4AB903D078510400FBD7130E006EF5
:100E2000002EFED700D04ABB03D0D2C8D3F803D0DF
:100E3000080106D00001785104000801D22BDDD74B
:100E4000C08C080E0301F56FF66BFA6BEF6B100E9A
:100E5000EE6FE76B900EF36F810ED76F030EF86F96
:100E6000040E0401006F020E0301EC6F0801D16B48
:100E7000D15107081AE3000178510400040E08015B
:100E8000DA6FC60EDB6F000186DD0801DA2FF9D7B5
:100E90000301F3810000F3B1FED7EB51036A0801AF
:100EA000D4270350D523D12BE3D70301F39F000EA2
:100EB000F86F0401006F086F106F0301D76BC09CBF
:100EC0000801D533D433D533D433D533D4331F0EBF
:100ED000D517D96BD86BD76BD66BD5C8DBF8D4C810
:100EE000DAF800016ADD03C5D9F802C5D8F801C5F2
:100EF000D7F800C5D6F8D9C8DDF8D8C8DCF8D7C807
:100F0000DBF8D6C8DAF8D70E0801E16FA30EE06F60
:100F1000200EDF6F800EDE6F00016ADD03C5DDF895
:100F200002C5DCF801C5DBF800C5DAF8D89203C5C4
:100F3000E1F802C5E0F801C5DFF800C5DEF80801F8
:100F4000E56BE46BFA0EE36F870EE26F0001CBD521
:100F500003C5D9F802C5D8F801C5D7F800C5D6F839
:100F60000801DD6BDC6BDB6BDA6BD9C8E1F8D8C844
:100F7000E0F8D7C8DFF8D6C8DEF80001F1DE09E3F3
:100F8000D6C800F5D7C801F5D8C802F5D9C803F509
:100F900004D0006A016A026A036A03C5D9F802C56F
:100FA000D8F801C5D7F800C5D6F8D9C8DDF8D8C833
:100FB000DCF8D7C8DBF8D6C8DAF80801E16BE06BDB
:100FC000480EDF6F850EDE6F0001CADE09E3D6C86A
:100FD00000F5D7C801F5D8C802F5D9C803F506D081
:100FE000850E006E480E016E026A036A03C5D9F8C9
:100FF00002C5D8F801C5D7F800C5D6F80801D35105
:10100000000A000111E0010A1DE0030A29E0010ABB
:1010100034E0070A3EE0010A4BE0030A57E0010A08
:1010200065E00F0A73E082D0330E386E376E730EB0
:10103000366E7F0E356E0801D06B0601F58D010E00
:101040003A6E81D0660E386E376E060E366E800EA2
:10105000356E0801D06B0601F58D010E3A6E73D026
:10106000386A376A100E366E800E356E0801D06B06
:101070000601F58D010E3A6E66D0386A376A200E89
:10108000366E800E356E0601F59D0801D06B0601A7
:101090005AD0660E386E376E260E366E800E356E5E
:1010A0003A6A0601F59D210E0801D06F06014BD06A
:1010B000386A376A300E366E800E356E3A6A06012F
:1010C000F59D420E0801D06F06013DD09A0E386E94
:1010D000990E376E390E366E800E356E3A6A0601FD
:1010E000F59D640E0801D06F06012DD09A0E386E62
:1010F000990E376E490E366E800E356E0601F59DDF
:101100003A6A640E0801D06F06011DD0660E386E73
:10111000376E560E366E800E356E0601F59D3A6AB4
:10112000640E0801D06F06010ED00001330E386E38
:10113000376E730E366E7F0E356E0801D06B010E62
:101140003A6E0601F58D0001785104003A5205E02F
:101150000801D06B0601F58D00010801D0C801F52A
:10116000000112000801E351016AE25D03E2E2C8F6
:1011700000F50CD0006A080EE46FE2370036E35148
:10118000005CD8B0006E0136E42FF7D700011200E2
:101190000150D4C8E2F8640E0801E36F0001E2DFF9
:1011A00000C5D4F80150300E08E10801D5A310D0D5
:1011B000D5B70ED0D5B9200E04D00801D597D59952
:1011C000D581012601C5D9F80001B3EC03F008016F
:1011D000D4C8E2F80A0EE36F0001C4DF00C5D4F8FA
:1011E0000150300E08E10801D5B70BD0D5A109D0C8
:1011F000D5B9200E0001012601C5D9F8B3EC03F0E2
:101200000801300ED427D4C8D9F80001B3EC03F09C
:10121000120008015751B608576F036A58C85BF8A7
:10122000588FD890583359335A330332023201322F
:101230000032572FF6D75BAF0BD0001E011E021EE7
:10124000031E002AD8B4012AD8B4022AD8B4032A2B
:101250000001A1EF09F0D8B204D0080EEA6E5F0ECB
:10126000E96E006A016A026A036A08015F6B606BDB
:10127000616B626B5E515D115C115B112CE0200EA5
:10128000636FD8905737583759375A375F376037B9
:10129000613762375E51625D08E15D51615D05E174
:1012A0005C51605D02E15B515F5D0FE35B515F5F2D
:1012B0005C51D8A05C3D605F5D51D8A05D3D615F31
:1012C0005E51D8A05E3D625FD8800036013602369E
:1012D0000336632FD6D75FC8EFF460C8ECF461C85B
:1012E000ECF462C8ECF400011200E95008014F6F01
:1012F0004E51516F1CE04DC8DDF84CC8DCF84BC8AE
:10130000DBF84AC8DAF8E16BE06B200EDF6F820E83
:10131000DE6F0001F8EC04F003C54DF802C54CF88F
:1013200001C54BF800C54AF80801512FE4D74DC854
:101330005AF84CC859F84BC858F84AC857F8000131
:1013400068D703C54DF802C54CF801C54BF800C578
:101350004AF808014DAF0DD04F074F8B4A1F4B1F66
:101360004C1F4D1F4A2BD8B44B2BD8B44C2BD8B4A0
:101370004D2B3B0E566F9A0E556FCA0E546F536B22
:101380000A0E516F4E51D8B44F2BD882080EEA6E18
:101390004A0EE96E4DC85AF84CC859F84BC858F86F
:1013A0004AC857F856C85EF855C85DF854C85CF886
:1013B00053C85BF800014FDF0150005213E10801F0
:1013C0004E29515DD8A402D000010CD04F510DE040
:1013D0000F0B515D01E044E24FBF42D04FBD05D03D
:1013E000200E37D0200E08014F174FAB0FD04F9B68
:1013F0004E51D8A44F0700504F6F2D0ED96F0001EA
:10140000B3EC03F008014F51006E4F6B4E51515D2C
:101410000DE100504F6F2E0ED96F0001B3EC03F0B9
:1014200008014F51006E200E4F17000E300E4FABCB
:1014300010D04F9B4E51D8A44F0700504F6F2D0E28
:10144000D96F0001B3EC03F008014F51006E4F6BF0
:10145000300E002600C5D9F80001B3EC03F00801F6
:10146000D89256C85AF855C859F854C858F853C8AD
:1014700057F85E6B5D6B5C6B0A0E5B6F0001EBDE19
:1014800003C556F802C555F801C554F800C553F810
:101490000801512F7AD700016BEF0CF0200E0801E4
:1014A0004BA9300E4C6F4AC800F500AE08D0001EA4
:1014B000002A00C54AF82D0E4C6F4B8F4B8101500E
:1014C0004AC8E2F8640EE36F00014CDE00C54AF83A
:1014D000300E012408014D6F4AC8E2F80A0EE36F8E
:1014E000000140DE300E002408014F6F300E012451
:1014F0004E6F4CC800F5300E4D5D04E04B834BBF82
:101500004B8512D04CC84DF8200E4C6F300E4E5DFE
:1015100004E04B814BBF4B8307D0D8A44B8104E13F
:101520004DC84EF8200E4D6F4BB505D04BB308D0CB
:101530004BB10BD00FD04CC8D9F80001B3EC03F07D
:101540004DC8D9F80001B3EC03F04EC8D9F800013A
:10155000B3EC03F04FC8D9F80001B3EC03F012006C
:1015600008014A6B496B080E0301F56FF66BFA6BC5
:10157000EF6B100EEE6FE76B900EF36F810ED76F6F
:10158000030EF86F100E0401086F0C0E0301EC6FD0
:10159000040E08014B6FC60EDB6F0001CBEC04F0AC
:1015A00008014B2FF8D70301F3810000F3B1FED7F8
:1015B00008014A6BEBC349F8040E4B6FC60EDB6F94
:1015C0000001CBEC04F008014B2FF8D70301F381A5
:1015D0000000F3B1FED7EB5108014927000E4A2362
:1015E0000301F39F000EF86F0401006F086F106F86
:1015F0000301D76BD89008014A31036E4931026E5E
:10160000016E00011CEF0BF078510400C08E0A0E31
:101610000801D56F00019FEC03F0EDEC06F03A52A3
:1016200008E0C09E0601F58B00000001040E016E6B
:101630003CD07851040094D701C539F50801DB6B23
:1016400039C5DAF80001DDEC04F0D70E0801DD6FD2
:10165000F40EDC6F4C0EDB6F860EDA6F03C5E1F81B
:1016600002C5E0F801C5DFF800C5DEF80001B0EC06
:1016700006F001E208E1C09E0601F59B00000001B2
:10168000010E016E12D0785104003B520AE03B2E4D
:1016900008D0C09E0601F58B00000001020E016E0D
:1016A00004D000000001000E016E120008014A6B18
:1016B00049514A5D10E2000178510400040E08010E
:1016C0004B6FFA0ED56F00019FEC03F008014B2F12
:1016D000F8D74A2BEDD70001785104001200785159
:1016E0000400C088500E0801D56F00019FEC03F084
:1016F00078510400C098C098C09A78510400010E37
:101700000501D26F0601F58300000001B9EF0BF06F
:1017100078510400C08A500E0801D56F00019FEC7B
:1017200003F078510400C09AC098C09A7851040020
:10173000785104000501D26B0601F5930000000109
:10174000C0EF0BF00601F5AD0CD00801492D01D01A
:1017500002D0060106D000000001000E016E14D078
:1017600006010001785104000801492D04D0000150
:10177000B6D706D008014951020803E10001C8D7D5
:101780000801010E016E000112000801D46BC08C2B
:10179000320ED56F00019FEC03F078510400D05059
:1017A000040B006E00300801D46FD4333F0ED41701
:1017B000C09C0001785104000801D4C801F5000163
:1017C00012000801436B446B456B466B476B00018D
:1017D00078510400060E08013B6FF60E3A6F3A0E80
:1017E000F66E040EF76E080ED46F0001C3EC03F022
:1017F0004C0EF66E040EF76E9DEC04F0440EF66E81
:10180000040EF76E070E0801D46F0001C3EC03F05D
:1018100041EC04F0BCEC04F0B490A980AB88C00E9D
:10182000D6120801486B060E3B6FF60E3A6F560E45
:10183000F66E040EF76E00019DEC04F041EC04F02E
:10184000040E0801496FFA0ED56F00019FEC03F0FA
:101850000801492FF8D7000178510400EDEC06F09B
:1018600001C545F8000E0601F5BD010E0801496FDE
:10187000060E3B6FF60E3A6F6E0EF66E040EF76EA6
:101880000B0ED46F0001C3EC03F045C8D4F81B0E57
:101890000801D56F00017CDC250E0801D96F00011D
:1018A000B3EC03F07D0EF66E040EF76E040E080125
:1018B000D46F0001C3EC03F0890EE96E38C54DF812
:1018C00037C54CF836C54BF835C54AF8020E080145
:1018D0004E6F00010AD5860EF66E040EF76E150ED9
:1018E0000801D46F0001C3EC03F049C8D4F81B0E03
:1018F0000801D56F00014CDC9D0EF66E040EF76EEC
:10190000130E0801D46F0001C3EC03F03AC54AF886
:10191000180E08014B6F0001C1DDB20EF66E040E09
:10192000F76E040E0801D46F0001C3EC03F041EC24
:1019300004F078510400040E0801496FFA0ED56FC7
:1019400000019FEC03F00801492FF8D700017851FE
:1019500004000601F5AD10D0060E08013B6FF60E2F
:101960003A6FB80EF66E040EF76E00019DEC04F0AF
:1019700041EC04F036D006013C0E3B6E000144DE23
:1019800001C548F8010E0801496F00018FDE08010A
:101990004853D8A402D00601F1D7482D12D0010E29
:1019A000496F0001CFDE060E08013B6FF60E3A6F5D
:1019B000E40EF66E040EF76E00019DEC04F00FD0FD
:1019C0000801060E3B6FF60E3A6FFE0EF66E040E21
:1019D000F76E00019DEC04F008014381000141EC29
:1019E00004F0030E0801496F000160DE3C0E3B6EFF
:1019F0000BDE01C548F8010E0801496F000156DEF3
:101A000008014853D8A402D00001F2D7482D12D0C3
:101A1000020E496F000196DE060E08013B6FF60EBE
:101A20003A6F1C0EF66E050EF76E00019DEC04F089
:101A30000FD00801060E3B6FF60E3A6F360EF66EAB
:101A4000050EF76E00019DEC04F0080143810001D2
:101A500041EC04F078510400060E08013B6FF60ECD
:101A60003A6F540EF66E050EF76E00019DEC04F011
:101A70008CDE01520CE0060E08013B6FF60E3A6F49
:101A80006C0EF66E050EF76E00019DEC04F041EC55
:101A900004F078510400040E0801496FFA0ED56F66
:101AA00000019FEC03F00801492FF8D7000178519D
:101AB0000400060E08013B6FF60E3A6F840EF66EB8
:101AC000050EF76E100ED46F0001C3EC03F0100E7C
:101AD000E96EF3C6D1F8F2C6D0F8D7EC03F0970E52
:101AE000F66E050EF76E030E0801D46F0001C3EC0D
:101AF00003F041EC04F078510400040E0801496F32
:101B0000FA0ED56F00019FEC03F00801492FF8D7BA
:101B1000000178510400282C06D078510400286A6E
:101B20000801462B000108014651475D0DE0060EF5
:101B30003B6FF60E3A6F9C0EF66E050EF76E0001C7
:101B40009DEC04F00CD00801060E3B6FF60E3A6FC8
:101B5000B20EF66E050EF76E00019DEC04F041EC3E
:101B600004F046C847F80801446B000EBBB0010EF4
:101B7000010806E10001ADEC04F001C544F80801DC
:101B80004451510803E04451710809E100017851C2
:101B90000400B490A990B698AB9807D00801050E40
:101BA000496F000183DD08013ED6000137EF31F0B7
:101BB0000801E46BE1C8E6F8E0C8E5F8E86BE76B1C
:101BC000E851E35D29E303E1E251E75D25E200012D
:101BD000785104000801E751E525016EE851E6213E
:101BE00001C5E9F4EA6EEF50E41BE96BE95107081F
:101BF0000FE30001785104000801E4AF05D0D8904C
:101C0000E435070AE46F02D0D890E437E92BEED729
:101C1000E72BD8B4E82BD4D7E4C801F500011200B3
:101C20000801466B456B476B486B4A6B496B44C870
:101C30004AF843C849F8466B456B4651010827E30B
:101C400003E145511C0823E3000178510400080119
:101C500045514925016E46514A21036E0150E96EF6
:101C600003C5EAF4D6C44DF8D69E46C844F045C82C
:101C700043F0380E0001456F416B40814651080129
:101C80004DBFD68EEF6E452BD8B4462BD6D7D6C4D3
:101C90004BF8D69E010E0001446F1D0E436F380EA7
:101CA000456F416B4081465108014BBFD68E486F4E
:101CB00044C8E1F843C8E0F8010EE36F1D0EE26F7F
:101CC000000176DF01C547F878510400080147514B
:101CD000485D03E1010E016E02D0000E016E0001AD
:101CE0006AEF31F044C8EAF443C8E9F4006A010E2F
:101CF000026E1D0E016E90EC04F078510400080194
:101D0000456B45510B0811E30F0E4525016E010E81
:101D1000036ED8B0032A01504325E96E44510320D5
:101D2000EA6E640EEF6E452BECD7000174EF31F0D4
:101D30000801D76BD66BD86BD96BDA6BD5C8DCF8DA
:101D4000D4C8DBF8D76BD66BD75101084BE303E15E
:101D5000D6511C0847E3000178510400D6C4DDF8D1
:101D6000D69ED7C844F0D6C843F0380E456F416BB5
:101D7000408146510801DDBFD68EDA6FD651DB2592
:101D8000016ED751DC21036E01C5E9F4EA6EEF5014
:101D9000DA5D24E0D651DB25016ED751DC2101C587
:101DA000E9F4EA6EEFC4DAF8D6C400F5D69ED7C8D7
:101DB00044F0D6C843F0380E0001456FDAC846F04B
:101DC000030E416F550E426FAA0E426F408140B123
:101DD000FED70050D612010E0801D96FD62BD8B409
:101DE000D72BB2D7D95323E0D5C8E1F8D4C8E0F84F
:101DF000010EE36F1D0EE26F0001DADE01C5D8F8B7
:101E0000D6C400F5D69ED7C844F0D6C843F0380EE5
:101E1000456FD8C846F0030E416F550E426FAA0EAB
:101E2000426F408140B1FED70050D6120801000138
:101E300078510400000E016E12000801E16BE06BA6
:101E4000E36BE26BE56BE46B000178510400010E7B
:101E50000801E16F1E0EE06FE151010823E300016C
:101E600078510400D6C4E6F8D69EE1C844F0E0C834
:101E700043F0380E456F416B408146510801E6BF83
:101E8000D68EAA0807E1E5C8E3F8E4C8E2F8E2C89C
:101E900001F50AD0E42BD8B4E52B040EE027000EA0
:101EA000E123DAD7000E016E000112000801466B33
:101EB000456B486B476B496B4A6B4B6B4D6B4C6B7F
:101EC000000178510400B9DF01C54BF844C84DF852
:101ED00043C84CF808014B51040DF3501E0F4E6FD0
:101EE000010E4F6FD8B04F2B010E4E25476F000EDD
:101EF0004F21486F466B456B46532CE14551010815
:101F000029E30001785104000801475145254E6F2F
:101F1000485146214F6FD6C450F8D69E4FC844F062
:101F20004EC843F0380E0001456F416B4081465169
:101F3000080150BFD68E4A6F45514C25016E46515F
:101F40004D2101C5E9F4EA6E4AC8EFF4452BD8B437
:101F5000462BD2D744C8E1F843C8E0F8E36B020E41
:101F6000E26F000125DE01C549F80801475145250A
:101F70004E6F485146214F6FD6C450F8D69E4FC879
:101F800044F04EC843F0380E0001456F416B40816C
:101F90004651080150BFD68E4A6F4A51495D03E150
:101FA000010E016E02D0000E016E000184EF31F0CF
:101FB0007851040044C8EAF443C8E9F4006A026AAC
:101FC000020E016E90EC04F08EEF31F00801D76B39
:101FD000D66BD96BD86BDA6BDB6BDC6BDD6BDF6BD5
:101FE000DE6B00017851040028DF01C5DDF808012F
:101FF000DD51040DF3501E0FE06F010EE16FD8B0FC
:10200000E12BD6C400F5D69EE1C844F0E0C843F009
:10201000380E0001456F4669030E416F550E426F41
:10202000AA0E426F408140B1FED70050D61208017F
:10203000DD51040DF3501E0FE06F010EE16FD8B0BB
:10204000E12B010EE025D86F000EE121D96F010EC2
:10205000DD25E16FE26F380EE36F0001B2EC08F0AE
:1020600000C5DDF80801DD51040DF3501E0FE06FCF
:10207000010EE16FD8B0E12BD6C400F5D69EE1C8C1
:1020800044F0E0C843F0380E0001456FAA0E466FD9
:10209000030E416F550E426FAA0E426F408140B150
:1020A000FED70050D612D5C8DFF8D4C8DEF8080134
:1020B000DD51040DF3501E0FE06F010EE16FD8B03B
:1020C000E12B010EE025D86F000EE121D96F000150
:1020D000785104000801D76BD66BD7534DE1D65128
:1020E00001084AE30001785104000801D651DE25B9
:1020F000016ED751DF2101C5E9F4EA6EEFC4DBF8C8
:10210000D851D625E06FD951D721E16FD6C4E2F876
:10211000D69EE1C844F0E0C843F0380E0001456F98
:10212000416B408146510801E2BFD68EDC6FDB5126
:10213000DC5D1EE0D851D625E06FD951D721E16F83
:10214000D6C400F5D69EE8C444F0E0C843F0380E8B
:102150000001456FDBC846F0030E416F550E426F1C
:10216000AA0E426F408140B1FED70050D61208013E
:10217000D62BD8B4D72BB1D7D5C8E1F8D4C8E0F85E
:10218000E36B020EE26F000113DD01C5DAF8020E07
:102190000801D825E06F000ED921E16FD6C400F503
:1021A000D69EE8C444F0E0C843F0380E0001456F05
:1021B000DAC846F0030E416F550E426FAA0E426F09
:1021C000408140B1FED70050D61278510400000E75
:1021D000016E120078510400050EEA6E4A0EE96E97
:1021E000006A026A800E016E90EC04F01200B7A241
:1021F000FED70201A36F000112000801556B566B58
:10220000576B586B5A6B596B0001785104000801E9
:10221000586B246A0001DEDF0801556B070E5A6F08
:10222000BA0E596F00017851040008015AC8EAF447
:102230005951592BD8B45A2BE96EEFC456F856535E
:102240000EE056510A080BE056510D0808E05551B2
:102250007F0805E356510001CADF0801552B56538C
:1022600009E056510A0806E056510D0803E05551A1
:102270007F08D8E2000178510400280E0801556F4C
:10228000576B140ED56F00019FEC03F078510400DA
:1022900008015507542D23D04A50650810E14B50D2
:1022A0006E080DE14C5074080AE14D50650807E1D5
:1022B0004E50720804E1010E576F586F0FD04A500C
:1022C0002B080CE14B50450809E14C50520806E13F
:1022D0004D50520803E1010E576F586B22D05451F4
:1022E000020803E0545103081CE14A502B080AE19C
:1022F0004B504F0807E14C504B0804E1010E576F5B
:10230000586F0FD04A502B080CE14B50450809E19B
:102310004C50520806E14D50520803E1010E576F30
:10232000586B555302E05753ACE00001785104005C
:1023300008015451030823E1640ED56F00019FEC9E
:1023400003F00701BA5141081BE1BB51540818E1E1
:10235000BC512B0815E1BD514D0812E1BE51410899
:102360000FE1BF5143080CE1C0513F0809E154504F
:102370000D0803E155500A0803E00801586B0701F6
:102380000001785104000000000108015851016E5D
:1023900000011200EF5210E0EAC455F8E9C454F805
:1023A000EFC4D9F8B3EC03F055C8EAF454C8E9F423
:1023B000E92AD8B4EA2AEED7120055C801F554C864
:1023C00000F50066012A0900F5C4EEF4002EFBD7E3
:1023D000012EF9D7F86A0EEF13F0080155BF12D09D
:1023E0000F0E006E543900160A0E005C03E2300E28
:1023F000002602D05551002600C5D9F80001B3ECE3
:1024000003F008010F0E54170A0E545D02E2300E5D
:1024100002D0559F5551542754C8D9F80001B3EC48
:1024200003F012000801446B4D6B4E6B4F6B506B09
:10243000516B526B536B00017851040078510400CA
:102440000801446B070EEA6EBA0EE96E006A026A72
:10245000800E016E000190EC04F0070EEA6EBA0ED9
:10246000E96E000E42EC00F00A000900F550EE6E35
:102470000009FBE1010E0801546F0001BEDE785136
:102480000400C80E0801D56F00019FEC03F07851DD
:102490000400070EEA6EBA0EE96E006A026A800E48
:1024A000016E90EC04F0070EEA6EBA0EE96E000EB3
:1024B0004CEC00F00A000900F550EE6E0009FBE15B
:1024C00078510400030E0801546F000196DE01529A
:1024D00004E1010E0801446F0001060E08013B6F84
:1024E000F60E3A6F360EF66E030EF76E090ED46FC7
:1024F0000001C3EC03F03BC8EAF43AC8E9F4EF6A20
:10250000050EEA6E4E0EE96E45DF0D0E0801D96F1D
:102510000001B3EC03F00A0E0801D96F0001B3EC1F
:1025200003F041EC04F0C80E0801D56F00019FECE8
:1025300003F07851040078510400070EEA6EBA0ED9
:10254000E96E006A026A800E016E90EC04F0070EDC
:10255000EA6EBA0EE96E000E58EC00F00A000900AF
:10256000F550EE6E0009FBE178510400020E0801FF
:10257000546F000142DE015204E1010E0801446F74
:102580000001C80E0801D56F00019FEC03F07851DF
:102590000400070EEA6EBA0EE96E000E66EC00F05B
:1025A0000A000900F550EE6E0009FBE1020E080179
:1025B000546F000122DE015204E1010E0801446F54
:1025C000000178510400C80E0801D56F00019FEC8E
:1025D00003F0070EEA6EBA0EE96E000E73EC00F01F
:1025E0000A000900F550EE6E0009FBE1030E080138
:1025F000546F000102DE01526CE1010E0801446FCC
:102600002C0E026EF86EF76AF66A070EEA6EA80ED6
:10261000E96E556B120E546F0001CFD6A9C746F86C
:10262000A8C745F8ABC748F8AAC747F8ADC74AF8E6
:10263000ACC749F8AFC74CF8AEC74BF808014951D1
:1026400045274A5146234B5147274C514823070EF3
:10265000EA6EBA0EE96E006A026A800E016E00012F
:1026600090EC04F0070EEA6EBA0EE96E000E7FECF5
:1026700000F00A000900F550EE6E0009FBE1070EBC
:1026800008013B6FCC0E3A6F46C854F8570E556F91
:102690000001A3DE45C854F8570E0801556F00012C
:1026A0009CDE070E08013B6FD00E3A6F48C854F805
:1026B000570E556F000191DE47C854F8570E0801B8
:1026C000556F00018ADE0701D46B000178510400C8
:1026D0004FD0785104003C0E0801D56F00019FECEB
:1026E00003F053C54DF852C54EF851C54FF850C5CB
:1026F00050F84FC551F84EC552F8070EEA6EBA0EA3
:10270000E96E006A026A800E016E90EC04F0070E1A
:1027100008013B6FBA0E3A6F440EF66E030EF76E69
:10272000120ED46F0001C3EC03F04EC854F8570EDC
:102730000801556F000151DE4FC854F8570E0801CB
:10274000556F00014ADE50C854F8570E0801556F06
:10275000000143DE51C854F8570E0801556F0001BF
:102760003CDE52C854F8570E0801556F000135DEA3
:1027700078510400C80E0801D56F00019FEC03F0EA
:10278000020E0801546F000138DD015204E1010E10
:102790000801446F000178510400070EEA6EBA0E7A
:1027A000E96E000E91EC00F00A000900F550EE6EA3
:1027B0000009FBE1020E0801546F00011EDD015209
:1027C00004E1010E0801446F000178510400C80EB5
:1027D0000801D56F00019FEC03F0070EEA6EBA0EF8
:1027E000E96E006A026A800E016E90EC04F0070E3A
:1027F000EA6EBA0EE96E000E9EEC00F00A000900C7
:10280000F550EE6E0009FBE1020E0801546F000165
:10281000F4DC015204E1010E0801446F000178511B
:102820000400070EEA6EBA0EE96E006A026A800EB4
:10283000016E90EC04F0070EEA6EBA0EE96E000E1F
:10284000ACEC00F00A000900F550EE6E0009FBE167
:10285000020E0801546F0001D0DC015204E1010EA8
:102860000801446F000178510400070EEA6EBA0EA9
:10287000E96E006A026A800E016E90EC04F0070EA9
:10288000EA6EBA0EE96E000EB9EC00F00A0009001B
:10289000F550EE6E0009FBE1020E0801546F0001D5
:1028A000ACDC015204E1010E0801446F00017851D3
:1028B0000400070EEA6EBA0EE96E000E66EC00F038
:1028C0000A000900F550EE6E0009FBE1020E080156
:1028D000546F000192DC015204E1010E0801446FC3
:1028E000000178510400C80E0801D56F00019FEC6B
:1028F00003F008014307435303E0442D01D0A1D561
:10290000070EEA6EBA0EE96E006A026A800E016E68
:10291000000190EC04F0070EEA6EBA0EE96E000EAC
:10292000C9EC00F00A000900F550EE6E0009FBE169
:10293000020E0801546F000160DC015204E1010E37
:102940000801446F000178510400C80E0801D56FDA
:1029500000019FEC03F0785104000801442D03D0DE
:10296000000E016E02D0010E016E0001F7EF31F092
:1029700078510400AB96B69603011C6B030E070159
:102980005E6FAC90060E08013B6FF60E3A6FCC0EF0
:10299000F66E050EF76E0A0ED46F0001C3EC03F05D
:1029A0003BC8EAF43AC8E9F4EF6A050EEA6E4A0E4B
:1029B000E96EF0DCD80EF66E050EF76E0D0E08010E
:1029C000D46F0001C3EC03F022C54AF8180E0801C9
:1029D0004B6F00014EEC0AF0E70EF66E050EF76E37
:1029E0000C0E0801D46F0001C3EC03F024C54AF8B3
:1029F000180E08014B6F00014EEC0AF0F50EF66E52
:102A0000050EF76E030E0801D46F0001C3EC03F04E
:102A100041EC04F0000EB7B0010E010809E1785155
:102A2000040035EC01F001C523F578510400F2D71C
:102A30000201AC9FAB99AB9B006AD6BE0080D69ECC
:102A4000550E006FAA0E006F009100B0D68E106B6D
:102A5000006AD6BE0080D69E550E006FAA0E006F8B
:102A6000008100B0D68EAC900001EAEC10F0216A33
:102A7000246A226A2C6A010E2D6E04010F9FA88E13
:102A80000D8F0E8FC08200017851040064EF32F088
:102A9000006A016A08017051D89071B100260032B5
:102AA000013271B300260032013271B500260032C6
:102AB000013271B700260032013271B900260032AE
:102AC000013271BB00260032013271BD0026003296
:102AD000013271BF0026003201320001D8EF15F03B
:102AE00008016E6B6C6B0A0E6D6F6B6B69516A112E
:102AF00003E1000E016EBBD06E516E2B6925E96EAD
:102B0000000E6A21EA6EEFC46FF86F512D080CE1D8
:102B1000010E6C6F6E516E2B6925E96E000E6A21F5
:102B2000EA6EEFC46FF80CD06F512B0809E16E51BB
:102B30006E2B6925E96E000E6A21EA6EEFC46FF80C
:102B40006F512F08D8B08BD06F513908D8A087D0DB
:102B50006F5130081EE16E516925E96E000E6A2141
:102B6000EA6EEF50780809E06E516925E96E000EB3
:102B70006A21EA6EEF5058080CE1100E6D6F6E2B53
:102B80006E516E2B6925E96E000E6A21EA6EEFC464
:102B90006FF86D510A081CE16F512F0818E26F5150
:102BA000390815E30A0E706F6BC871F8000170D711
:102BB000300E08016F5D01246B6F6E516E2B69251D
:102BC000E96E000E6A21EA6EEFC46FF8E5D747D0D0
:102BD0006D51100844E16F51600806E26F517A08A8
:102BE00003E36F51DF0B01D06F516F6F6F512F08EF
:102BF00003E26F51390806E26F51400830E26F512D
:102C000046082DE36F512F080CE26F51390809E394
:102C10006B39706FF00E7017300E6F5D70256B6F33
:102C200009D06B39706FF00E7017410E6F5D0A0F8F
:102C300070256B6F6E516E2B6925E96E000E6A214F
:102C4000EA6EEFC46FF86F51600806E26F517A08C0
:102C500003E36F51DF0B01D06F516F6FC7D76C2D3E
:102C600004D06D510A0801E16B6D6BC801F50001DC
:102C7000C9EF17F00801D76BD86BD96B00017851F9
:102C800004000801D76BD751D525E96E000ED62177
:102C9000EA6EEFC4D9F8D9C8D8F8302C0AD0D75189
:102CA000070B036A560FE96E070E0320EA6EEF501A
:102CB000D81BD42D06D0D8510001F7EC10F006D067
:102CC0000801D8C8DAF800013AEC04F078510400A1
:102CD0000801D72B0501D4510801D95D03E0D75174
:102CE0007F08D1E2850E006E002EFED700017851DC
:102CF000040012000801736B716B0A0E726F706B27
:102D00006F6B6E6B6D6B6B516C1105E1006A016A44
:102D1000026A036A25D17351732B6B25E96E000E8D
:102D20006C21EA6EEFC474F874512D080CE1010EA9
:102D3000716F7351732B6B25E96E000E6C21EA6E77
:102D4000EFC474F80CD074512B0809E17351732B44
:102D50006B25E96E000E6C21EA6EEFC474F87451B5
:102D60002F08D8B0E5D074513908D8A0E1D07451FB
:102D700030081EE173516B25E96E000E6C21EA6E7E
:102D8000EF50780809E073516B25E96E000E6C2155
:102D9000EA6EEF5058080CE1100E726F732B7351EE
:102DA000732B6B25E96E000E6C21EA6EEFC474F88C
:102DB00072510A083FE174512F083BE274513908FF
:102DC00038E3D8906D35766F6E35776F6F35786FE5
:102DD0007035796F6D35006E6E35016E6F35026E30
:102DE0007035036E00360136023603360036013682
:102DF00002360336F80E0016005076256D6F01502E
:102E000077216E6F025078216F6F03507921706FB8
:102E1000300E745D6D27000E6E236F237023735187
:102E2000732B6B25E96E000E6C21EA6EEFC474F80B
:102E3000C2D77ED072511008D8A47AD074516008DD
:102E400006E274517A0803E37451DF0B01D0745128
:102E5000746F74512F0803E27451390806E27451FB
:102E6000400866E27451460863E374512F0827E274
:102E70007451390824E36D35766F6E35776F6F3591
:102E8000786F7035796F7637773778377937763767
:102E90007737783779377637773778377937F00E6D
:102EA0007617300E745D76256D6F000E77216E6F8C
:102EB000000E78216F6F000E7921706F24D06D3570
:102EC000766F6E35776F6F35786F7035796F7637CF
:102ED000773778377937763777377837793776377E
:102EE000773778377937F00E7617410E745D0A0F11
:102EF00076256D6F000E77216E6F000E78216F6F53
:102F0000000E7921706F7351732B6B25E96E000EE3
:102F10006C21EA6EEFC474F87451600806E27451D3
:102F20007A0803E37451DF0B01D07451746F91D7A9
:102F300072510A080DE1712D0BD06D1F6E1F6F1FAE
:102F4000701F6D2BD8B46E2BD8B46F2BD8B4702BE8
:102F50006DC800F56EC801F56FC802F570C803F5BD
:102F60000001E4EF18F00801496B4A6B4B6B4C6BA6
:102F70004D6B4E6B4F6B506B516B526B010E462578
:102F8000676F000E4721686F6A6F67C869F80001B4
:102F9000A7D501C54DF878510400080146C8E9F4E9
:102FA00047C8EAF4EF5024083BE1010E4625E96EDC
:102FB000000E4721EA6EEF50390832E1020E462535
:102FC000E96E000E4721EA6EEF50390829E1030E41
:102FD0004625E96E000E4721EA6EEF50230820E1F6
:102FE000080E3B6F530E3A6F280EF66E030EF76E07
:102FF00000019DEC04F0010E0801D56F00019FEC6B
:1030000003F048C8D4F8080E0801D66F530ED56FE8
:10301000000130DE00000001000E016E61D10801E8
:103020004D51090813E3020E4625016E000E47219B
:10303000036E01C5E9F4EA6EEF502C0802E1496B1A
:1030400002D0010E496F020E4B6F12D0030E4625BF
:10305000016E000E4721036E01C5E9F4EA6EEF50E0
:103060002C0802E1496B02D0010E496F030E4B6F31
:103070004B514625676F000E4721686F010E67258B
:10308000016E000E6821036E01C5E9F4EA6EEF508F
:103090003F0814E14B514625676F000E4721686FCA
:1030A000020E6725016E000E6821036E01C5E9F46A
:1030B000EA6EEF50230802E1010E526F4E694D5146
:1030C000180803E3070E4E6F3CD04D51190803E179
:1030D000160E4E6F36D04D511A0803E1010E4E6F99
:1030E00030D04D511B0803E1030E4E6F2AD04D51D5
:1030F0001C0803E1020E4E6F24D04D511C0806E25D
:103100004D51200803E3010E4E6F1BD04D51210895
:1031100003E10C0E4E6F15D04D51220803E1010E54
:103120004E6F0FD04D51230803E10D0E4E6F09D0A5
:103130004D51240803E1050E4E6F03D0010E496F77
:10314000526B070EEA6E5F0EE96E006A026A900E1D
:10315000016E000190EC04F00801495361E1010E99
:103160004F6F4A6B506B800E516F4BC84CF8070184
:10317000606B4DC85FF708014C514625016E000E8B
:103180004721036E01C5E9F4EA6EEF502C0835E1E2
:103190004A2BD8904A35036A5F0F016E070E03224F
:1031A00001C567F803C568F84C514625696F000EE4
:1031B00047216A6F010E6927000E6A236AC86CF8FE
:1031C00069C86BF8000196D568C8EAF467C8E9F4E5
:1031D00001C5ECF4ED5200C5EFF4010E08014A25DB
:1031E000006ED89000360050036A5F0FE96E070E3C
:1031F0000320EA6EEC6AED52EF6A4C514625016EEF
:10320000000E4721036E01C5E9F4EA6EEF50230872
:1032100002E1010E506F4C2B515302E05053ACE0D1
:103220004E514A5D04E1502D02D0496B02D0010E8F
:10323000496F492D25D04D511B080FE14A2D0DD066
:1032400007016153D8B402D0080107D06253D8B443
:1032500002D0080102D00801496B4D51230810E14A
:103260004A5105080DE107016153D8B402D00801A5
:1032700007D06253D8B402D0080102D00801496BCC
:103280000001785104000801525306E0010E016E5E
:10329000000126D025D00801495306E1020E016E37
:1032A00000011ED01DD00801080E3B6F5D0E3A6F65
:1032B0002E0EF66E030EF76E00019DEC04F0010E6B
:1032C0000801D56F00019FEC03F048C8D4F8080E40
:1032D0000801D66F5D0ED56F0001CCDC000E016ECB
:1032E000EDEF2AF00801D451D603F3C401F5F4C47C
:1032F00000F5D703F3500026D551D603F350002034
:10330000026E00011200016A026A006A036A090182
:10331000045102E1035118E0100E056FD8900137F7
:103320000237003603360451035C02E10351005CAE
:1033300007E30351005ED8A003060451035ED88062
:1033400001360236052FEAD7000112000801FE53AC
:1033500003E0FE510C0803E2000E016E4AD0FE515C
:1033600002083EE1FF51030B0901016F026B01539B
:10337000D8B402D0080134D00253D8B402D0080126
:103380002FD000C902F9FFC801F9046B640E036F66
:103390000001B9DF00C501F9090103C502F90153B4
:1033A0001BE1025319E100C902F9FFC801F9010E3E
:1033B000046F900E036F0001A6DF00C501F909013B
:1033C00003C502F90153D8B402D0080109D0025351
:1033D000D8B402D0080104D01D0E016E080109D036
:1033E000010EFE5D036A0001D5EC00F0016E016E76
:1033F0000801000112000801F86BF76B070EFA6F65
:10340000E80EF96FFA51F45D41E303E1F351F95D20
:103410003DE2F951030BFC6FFD6BFC532DE1FD53B5
:103420002BE1FAC802F9F9C801F90901046B640E2D
:10343000036F000168DF00C5FCF8080103C5FDF853
:10344000FC5316E1FD5314E1FAC802F9F9C801F979
:10345000010E0901046F900E036F000154DF00C5D7
:10346000FCF8080103C5FDF8FC5306E1FD5304E137
:10347000010E036E6E0E03D0010E036E6D0EF72764
:103480000350F823F92BD8B4FA2BBCD7010EFB6FED
:10349000F551FB5D0FE2FBC8FEF8F4C800F9F3C874
:1034A000FFF8000153DF01500801F727000EF82351
:1034B000FB2BEED7010EF65DF727000EF823F7C8B9
:1034C00001F5F8C802F500011200010E0801F35DD4
:1034D000006EF5C8F7F8F4C8F6F8005205E0D89089
:1034E000F733F633002EFBD7F651010B006E036A5B
:1034F000016E00011200F6C8EAF40801F5C8E9F40B
:10350000070EEC6EED52E80EEF6EF6C8EAF4F5C861
:10351000E9F4ECC4FCF8ED52EFC4FBF8030EFB1722
:10352000FC6BFB533BE1FC5339E1F6C803F5F5C8EE
:10353000E9F403C5EAF4ECC402F9ED52EFC401F971
:103540000901046B640E036F0001DDDE00C5FBF8AA
:10355000080103C5FCF8FB531DE1FC531BE1F6C851
:1035600003F5F5C8E9F403C5EAF4ECC402F9ED5239
:10357000EFC401F9010E0901046F900E036F000101
:10358000C2DE00C5FBF8080103C5FCF8FB5306E1E9
:10359000FC5304E1010E036E6E0E03D0010E036EA8
:1035A0006D0E016E0350F45D5CE303E10150F35DC9
:1035B00058E3F6C8EAF4F5C8E9F4ECC4FCF8ED52B7
:1035C000EFC4FBF8030EFB17FC6BFB533BE1FC5312
:1035D00039E1F6C803F5F5C8E9F403C5EAF4ECC42B
:1035E00002F9ED52EFC401F90901046B640E036F97
:1035F000000189DE00C5FBF8080103C5FCF8FB5398
:103600001DE1FC531BE1F6C803F5F5C8E9F403C559
:10361000EAF4ECC402F9ED52EFC401F9010E09011C
:10362000046F900E036F00016EDE00C5FBF8080109
:1036300003C5FCF8FB5306E1FC5304E1010E036EE5
:103640006E0E03D0010E036E6D0EF35F0350F45B3C
:10365000F6C8EAF4F5C8E9F4010EEE2601E3EF2A14
:1036600054D7F8C8EAF4F7C8E9F4010EEF6EF8C8C9
:10367000EAF4F7C8E9F4EFC4FEF8F6C8EAF4F5C8CE
:10368000E9F4ECC400F9ED52EFC4FFF800015EDE8E
:103690000801F45303E10150F35D1CE3F8C8EAF4B8
:1036A000F7C8E9F4EFC4FEF8F6C8EAF4F5C8E9F49F
:1036B000ECC400F9ED52EFC4FFF8000147DE015001
:1036C0000801F35F000EF45BF8C8EAF4F7C8E9F408
:1036D000EF2ACDD7FAC8EAF4F9C8E9F4010EF325C8
:1036E000EF6E00011200D9C8F4F8D8C8F3F8DAC8B0
:1036F000F5F8DBC8F6F87FDE02C5E4F801C5E3F8AB
:10370000DDC8F4F8DCC8F3F8DEC8F5F8DFC8F6F871
:1037100072DE02C5E6F801C5E5F80801E86BE76B63
:10372000EA6BE96BEB6BEC6BE451E65D0BE303E1F9
:10373000E551E35D07E2E351E55DE76FE451E659EA
:10374000E86F83D0E551E35DED6FE651E459EE6F2C
:10375000EEC802F9EDC801F90901046BE0C803F9EC
:103760000001D1DD00C5F3F8080103C5F4F8F353F7
:103770001BE1F45319E1DAC8F3F8E2C8F5F8E1C83F
:10378000F4F80001A2DE0152D8A402D008010CD046
:10379000D9C8EAF8D8C8E9F8DAC8EBF8DBC8ECF819
:1037A0000801E86BE76B51D0EEC802F9EDC801F9EA
:1037B0000901046BE0C803F90001A5DD0050080110
:1037C000E05DEF6F000E0354F06FEF51E325F16FF2
:1037D000F051E421F26FF2C8F4F8F1C8F3F8080EE2
:1037E000F66FE90EF56F080EF86FEB0EF76F080E27
:1037F000FA6FEC0EF96F00017EDEEBC8F3F8E2C859
:10380000F5F8E1C8F4F861DE015218E10801E05171
:10381000F127000EF223F2C8F4F8F1C8F3F8080E0D
:10382000F66FE90EF56F080EF86FEB0EF76F080EE6
:10383000FA6FEC0EF96F00015EDEDFD70801E3518D
:10384000F15DE76FE451F259E86FE7C801F5E8C8A8
:1038500002F5000112000801456B466B476B5FC71C
:1038600047F8D06BD16BD26B4751000A0001D8B436
:1038700079D0010AD8B4F1D0030AD8B4EED0010A45
:10388000D8B4EBD0070AD8B4E8D0010AD8B4E5D050
:10389000030AD8B4E2D0010AD8B4DFD00F0AD8B4F2
:1038A000DCD0010AD8B4D9D0030AD8B4D6D0010AE2
:1038B000D8B4D3D0070AD8B4D0D0010AD8B4CDD068
:1038C000030AD8B4CAD0010AD8B4C7D01F0AD8B4E2
:1038D000C4D0010AD8B4C1D0030AD8B4BED0010AFA
:1038E000D8B4BBD0070AD8B4B8D0010AD8B4B5D080
:1038F000030AD8B4B2D0010AD8B4AFD00F0AD8B4F2
:10390000ACD0010AD8B4EFD1030AD8B42CEF20F020
:10391000010AD8B461EF20F0070AD8B4A8EF20F06C
:10392000010AD8B4ECEF20F0030AD8B41BEF21F061
:10393000010AD8B41FEF21F03F0AD8B433EF21F0C9
:10394000010AD8B44BEF21F0030AD8B4DAEF21F022
:10395000010AD8B404EF22F0070AD8B46AEF22F0C3
:10396000A4EF22F00701625304E161510008D8B0CE
:103970006FD06253D8A46CD061510C08D8A068D025
:10398000645304E163510008D8B062D06453D8A4F2
:103990005FD063511F08D8A05BD0665303E1655127
:1039A000170856E2665354E16551630851E36853C2
:1039B00003E1675100084CE268534AE16751070888
:1039C00047E36A5345E16951170842E36C5340E10C
:1039D0006B513B083DE36E533BE16D513B0838E3CF
:1039E000AB9861C7CEF563C7CDF565C7CFF567C79F
:1039F000D0F5010E0501D05D016E010ED16F0152AF
:103A000004E0D890D137012EFCD769C7CCF56BC73D
:103A1000CBF56DC7CAF5800E0301136F126B000062
:103A2000AB880501CE530AE0010ECE5DE40FE96ECE
:103A3000060EEA6ED8B0EA2AEFC449F5CA5303E18C
:103A4000010E286E336E010E0801D26F04D00701FB
:103A5000010E0801466FA7EF22F0010E07015F5D1E
:103A60000801456F0701635161250801D46F070103
:103A7000645162210801D56F070165510801D427FF
:103A8000070166510801D523070167510801D427B2
:103A9000070168510801D523070169510801D4279E
:103AA00007016A510801D52307016B510801D4278A
:103AB00007016C510801D52307016D510801D42776
:103AC00007016E510801D523D45302E1D55343E0D9
:103AD00007016253D8A400D161511708D8A0FCD0C7
:103AE0006453D8A4F9D063513B08D8A0F5D06653ED
:103AF00004E165510008D8B0EFD066510508D8A0A0
:103B0000EBD004E16551A008D8A0E6D068512708A1
:103B1000D8A0E2D004E167510F08D8A0DDD06A53E5
:103B200004E169510008D8B0D7D06A53D8A4D4D0E2
:103B300069517F08D8A0D0D06C5304E16B510008C4
:103B4000D8B0CAD06C510F08D8A0C6D06E510008AA
:103B5000D8A0C2D00801D56B45C8D4F8D76B0A0EDF
:103B6000D66F000172EC19F0D50E08010124E96E40
:103B7000050E0220EA6E61C7EFF4D56B45C8D4F894
:103B8000D76B0A0ED66F000172EC19F001C5D4F89C
:103B9000010E08010124016E000E0220036E015087
:103BA000D50FE96E050E0320EA6E63C7EFF4D56BFF
:103BB00045C8D4F8D76B0A0ED66F000172EC19F025
:103BC00001C5D4F8020E08010124016E000E022086
:103BD000036E0150D50FE96E050E0320EA6E66C72D
:103BE000ECF4ED5265C7EFF4D56B45C8D4F8D76B4C
:103BF0000A0ED66F000172EC19F001C5D4F8040E5C
:103C000008010124016E000E0220036E0150D50F41
:103C1000E96E050E0320EA6E68C7ECF4ED5267C743
:103C2000EFF4D56B45C8D4F8D76B0A0ED66F0001F8
:103C300072EC19F001C5D4F8060E08010124016EDA
:103C4000000E0220036E0150D50FE96E050E032011
:103C5000EA6E69C7EFF4D56B45C8D4F8D76B0A0E86
:103C6000D66F000172EC19F001C5D4F8070E0801F7
:103C70000124016E000E0220036E0150D50FE96E83
:103C8000050E0320EA6E6CC7ECF4ED526BC7EFF43F
:103C9000D56B45C8D4F8D76B0A0ED66F000172EC0D
:103CA00019F001C5D4F8090E08010124016E000EB7
:103CB0000220036E0150D50FE96E050E0320EA6E57
:103CC0006DC7EFF4050ED56FD50ED46F000198ECDB
:103CD0000EF0342A05D00701010E0801466F0001DD
:103CE0000801A7EF22F00701635161250801D46F95
:103CF0000701645162210801D56F07016551080170
:103D0000D427070166510801D5230701675108012F
:103D1000D427070168510801D5230701695108011B
:103D2000D42707016A510801D52307016B51080107
:103D3000D42707016C510801D52307016D510801F3
:103D4000D42707016E510801D52307016F510801DF
:103D5000D427070170510801D523070171510801CB
:103D6000D427070172510801D523070173510801B7
:103D7000D427070174510801D523070175510801A3
:103D8000D427070176510801D5230701775108018F
:103D9000D427070178510801D5230701795108017B
:103DA000D42707017A510801D52307017B51080167
:103DB000D42707017C510801D52307017D51080153
:103DC000D42707017E510801D52307017F5108013F
:103DD000D427070180510801D5230701815108012B
:103DE000D427070182510801D52307018351080117
:103DF000D427070184510801D52307018551080103
:103E0000D427070186510801D523070187510801EE
:103E1000D427070188510801D523070189510801DA
:103E2000D42707018A510801D52307018B510801C6
:103E3000D42707018C510801D523D45303E1D5536E
:103E4000D8B4BBD00701625304E161510008D8B077
:103E5000FFD06253D8A4FCD061510C08D8A0F8D090
:103E6000645304E163510008D8B0F2D06453D8A47D
:103E7000EFD063511F08D8A0EBD0665304E1655121
:103E80001708D8B0E5D06653D8A4E2D065516308CE
:103E9000D8A0DED0685304E167510008D8B0D8D06C
:103EA00068510008D8A0D4D06A53D8A4D1D06951A1
:103EB0001708D8A0CDD06C53D8A4CAD06B513B08FA
:103EC000D8A0C6D06E5304E16D510008D8B0C0D060
:103ED0006E510508D8A0BCD004E16D51A008D8A04F
:103EE000B7D070512708D8A0B3D004E16F510F08A4
:103EF000D8A0AED07253D8A4ABD071511708D8A0B7
:103F0000A7D07453D8A4A4D073513B08D8A0A0D094
:103F100076510508D8A09CD004E17551A008D8A01E
:103F200097D078512708D8A093D004E177510F0893
:103F3000D8A08ED07A53D8A48BD079511708D8A0A6
:103F400087D07C53D8A484D07B513B08D8A080D0A4
:103F50007E510508D8A07CD004E17D51A008D8A0EE
:103F600077D080512708D8A073D004E17F510F0883
:103F7000D8A06ED08253D8A46BD081511708D8A096
:103F800067D0845365E183513B0862E3865105089D
:103F90005FE303E18551A0085BE38851270858E3FC
:103FA00003E187510F0854E38A5303E18951000864
:103FB0004FE28A510F084CE3080161C7C6F663C798
:103FC000C7F665C7C5F667C7C8F669C7CCF66BC73D
:103FD000CDF66EC7CFF66DC7CEF670C7D1F66FC7F8
:103FE000D0F671C7D2F673C7D3F676C7D5F675C7C4
:103FF000D4F678C7D7F677C7D6F679C7D8F67BC791
:10400000D9F67EC7DBF67DC7DAF680C7DDF67FC757
:10401000DCF681C7DEF683C7DFF686C7E1F685C723
:10402000E0F688C7E3F687C7E2F68AC7CAF689C70B
:10403000C9F68BC7CBF6050ED56FD50ED46F000130
:1040400098EC0EF0010E0801D26F342A04D007015B
:10405000010E0801466F7BD20701615321E16253D3
:104060001FE10601F4970501D22D05D00F0E3B6E1E
:10407000040E3C6E02D0050E3C6E0601F4A909D078
:10408000F4993E6A3D6A406A3F6A426A416A446AFC
:10409000436AF80EF415F46F266A276A10D00701F8
:1040A000612D09D0625307E10601F487010E080172
:1040B000D26F04D00701010E0801466F0601080106
:1040C00046D20701612D25D0625323E1635302E1FB
:1040D00064531FE064C73EF563C73DF566C740F50E
:1040E00065C73FF53EC542F53DC541F540C544F5C0
:1040F0003FC543F50601F4890F0E3B6E030E3C6E7F
:10410000266AF80EF415F46F276ACAC546F51ED064
:104110000701615317E1625315E13E6A3D6A406A47
:104120003F6A426A416A446A436A0F0E3B6E040E5C
:104130003C6E0601F499266A276AF80EF415F46FAE
:1041400005D00701010E0801466F06010801FFD1E5
:104150000701612D1DD062531BE10601F581F18538
:1041600063C7F0F6F051070B006ED89000360036AA
:10417000E30EF5150010F56FB490A980050E080147
:10418000D56FD50ED46F000198EC0EF023D0070147
:1041900061531CE162531AE10601F591F195F06B50
:1041A000F051070B006ED89000360036E30EF5157F
:1041B0000010F56FA990B490050E0801D56FD50ECB
:1041C000D46F000198EC0EF005D00701010E080134
:1041D000466F00010801BBD107016151621113E074
:1041E0000601F181F48D050E0801D56FD50ED46F4F
:1041F000000198EC0EF0C5EC0BF00601F49F01B045
:10420000F48F17D00701615310E162530EE10601EC
:10421000F191F49DF49F050E0801D56FD50ED46F72
:10422000000198EC0EF004D00701010E0801466F62
:10423000060108018CD1010E0801466F88D10701E3
:10424000612D05D0625303E1010E2F6E0AD0615338
:1042500004E1625302E12F6A04D0010E0801466FA7
:104260000701080174D10701612D0FD062530DE1E0
:104270000601F36BF26B060E0801D56FF20ED46FD8
:104280000001E6EC0FF005D00701010E0801466FB2
:10429000000108015CD107016253D8A485D06151A7
:1042A000C808D8A081D06453D8A47ED06351C80870
:1042B000D8A07AD06653D8A477D06551C808D8A0C2
:1042C00073D06853D8A470D06751C808D8A06CD0F8
:1042D0006A53D8A469D06951C808D8A065D06C5376
:1042E000D8A462D06B51C8085FE36E535DE16D5195
:1042F000C8085AE3705358E16F51C80855E3725328
:1043000053E17151C80850E374534EE17351C8082A
:104310004BE3765349E17551C80846E3785344E1CD
:104320007751C80841E30801D36BD3510B0824E34C
:10433000E40ED325016E060E036ED8B0032A01C524
:10434000D4F803C5D5F8010ED325006ED8900036F9
:104350000050036A5F0FE96E070E0320EA6EECC49B
:10436000D7F8ED52EFC4D6F8D5C8EAF401C5E9F4A0
:10437000D6C8EFF4D32BD9D70501CE530AE0010EEE
:10438000CE5DE40FE96E060EEA6ED8B0EA2AEFC4FD
:1043900049F5050E0801D56FD50ED46F000198ECD4
:1043A0000EF0342A05D00701010E0801466F000106
:1043B0000801CDD00701625321E1615101081EE3DC
:1043C0000601F193070161A103D00601F183070102
:1043D0000601F49B070161A103D00601F48B0701DC
:1043E00061C7D2F8050E0801D56FD50ED46F000154
:1043F00098EC0EF00000000105D00701010E080145
:10440000466F00010801A3D00701612D40D062531F
:104410003EE16351565D36E1645334E16551575DC9
:1044200031E166532FE16751585D2CE168532AE171
:104430006951595D27E16A5325E173516B5D21E1B3
:1044400074516C5D1EE175516D5D1BE176516E5DC1
:1044500018E177516F5D15E17851705D12E1795186
:10446000715D0FE17A51725D0CE16BC7C8F86DC7E1
:10447000C9F86FC7CAF871C7CBF8010E0801D06F31
:10448000070104D0010E0801466F070121D06153D6
:104490001BE1625319E16351565D11E164530FE171
:1044A0006551575D0CE166530AE16751585D07E1BC
:1044B000685305E16951595D02E16A5304E0010E58
:1044C0000801466F070104D0010E0801466F07017D
:1044D00008013DD00701625330E1615101082DE32D
:1044E000645100082AE36651000827E36851000878
:1044F00024E36A51000821E3612D11D062530FE1DA
:1045000063C7C8F865C7C9F867C7CAF869C7CBF8F1
:10451000010E0801D16F080E316E0DD007016153F5
:104520000BE1625309E10801C86BC96BCA6BCB6B25
:10453000010ED16F316A070104D0010E0801466FE8
:104540000701080104D00001010E0801466FD25393
:104550003FE02E6A326A0601F4AB37D0F4A735D0BB
:10456000CB51080B32E0D00E0501CF250801D46FE6
:10457000070ED56FD8B0D52BD00E0601C525080182
:10458000D66F070ED76FD8B0D72BD5C8D9F8D4C8F7
:10459000D8F8CEC5DAF8CDC5DBF8D7C8DDF8D6C86F
:1045A000DCF8C6C6DEF8C7C6DFF8C8C6E0F8CAC67B
:1045B000E2F8C9C6E1F8000173EC1BF001C532F561
:1045C000325202E1010E2E6E0601000000010801C8
:1045D000462D1DD0080E3B6F480E3A6F240ED96F42
:1045E0000001B3EC03F047C8D4F81B0E0801D56FE7
:1045F0000001C8EC08F02B0EF66E040EF76E050EE7
:104600000801D46F0001C3EC03F01CD00801080EB0
:104610003B6F480E3A6F240ED96F0001B3EC03F0E4
:1046200047C8D4F81B0E0801D56F0001C8EC08F08C
:10463000350EF66E040EF76E040E0801D46F0001FD
:10464000C3EC03F000000001010E0801D56F00016A
:104650009FEC03F044C8D4F8080E0801D66F480E4A
:10466000D56F00013AEC16F00801D05308E0C8C835
:1046700056F7C9C857F7CAC858F7CBC859F7D15326
:1046800008E0C8C85AF7C9C85BF7CAC85CF7CBC806
:104690005DF7D15302E1D05300E0000104EF2BF0AD
:1046A0000801F36BF46B010EF56F050EDA6ED96A33
:1046B000080EF86FEB0EF76F080EEA6EEF0EE96E5C
:1046C000F8C8E2F4F7C8E1F4F5C8F6F8D890E55078
:1046D000EE02F350F323F450F423F62FF7D7F3C888
:1046E000DEF4F4C8F3F8F46BD8B0F42BF72BD8B49D
:1046F000F82BF52BF5510508DFE1000112EF24F04E
:10470000D8B204D0080EEA6EFB0EE96E0801F6512D
:10471000FA19800B0901006F0801F6AF0BD0F31FE7
:10472000F41FF51FF61FF32BD8B4F42BD8B4F52BD8
:10473000D8B4F62BFAAF0BD0F71FF81FF91FFA1FEA
:10474000F72BD8B4F82BD8B4F92BD8B4FA2B006ACD
:10475000016A026A036AFB6BFC6BFD6BFE6BFA512C
:10476000F911F811F7112CE0200EFF6FD890F337F4
:10477000F437F537F637FB37FC37FD37FE37FA519C
:10478000FE5D08E1F951FD5D05E1F851FC5D02E1D6
:10479000F751FB5D0FE3F751FB5FF851D8A0F83DEF
:1047A000FC5FF951D8A0F93DFD5FFA51D8A0FA3D60
:1047B000FE5FD8800036013602360336FF2FD6D78B
:1047C000090100AF0BD0001E011E021E031E002AAD
:1047D000D8B4012AD8B4022AD8B4032AFBC8EFF40B
:1047E000FCC8ECF4FDC8ECF4FEC8ECF400011200C7
:1047F0000801E66BE56BE46B010EE36FE86BE96BB8
:10480000DFAF19D0010EE86FDFC8EEF8DEC8EDF8B3
:10481000DDC8ECF8DCC8EBF8F269F169F069EF6922
:1048200000013ED703C5DFF802C5DEF801C5DDF89B
:1048300000C5DCF80801E35306E1E45304E1E55365
:1048400002E1E6536AE0D892DFC8F6F8DEC8F5F870
:10485000DDC8F4F8DCC8F3F8FA6BF96BF86BE0C864
:10486000F7F800014DDF03C5E6F802C5E5F801C51C
:10487000E4F800C5E3F80801E951E125016E000EF6
:10488000E221036E01C5EBF8EC6FEAC4EEF8E9C46F
:10489000EDF8D882080EEA6EEF0EE96EDFC8F6F882
:1048A000DEC8F5F8DDC8F4F8DCC8F3F8FA6BF96B8C
:1048B000F86BE0C8F7F8000123DFEEC8EAF4EDC8B2
:1048C000E9F4300E0801EF25006E000EF021000E15
:1048D000F121000EF221ECC8EAF4EBC8E9F400C5BE
:1048E000EFF4E951E125E96E000EE221EA6EEF50A6
:1048F000390809E2E951E125E96E000EE221EA6E8C
:10490000070EEF24EF6EE92BE6C8DFF8E5C8DEF806
:10491000E4C8DDF8E3C8DCF88ED7E82D09D0E9510A
:10492000E125E96E000EE221EA6E2D0EEF6EE92B15
:10493000E76BD890E931E75D2AE2E751E125E96EBE
:10494000000EE221EA6EEFC4EAF8E751E125016EBC
:10495000000EE221036EE751E95DFF0FE125E96EEC
:10496000000EE221EA6EEFC4EDF803C5EAF401C5DA
:10497000E9F4EDC8EFF4E751E95DFF0FE125E96ED9
:10498000000EE221EA6EEAC8EFF4E72BD2D7E95134
:10499000E125E96E000EE221EA6EEF6AE1C801F559
:1049A000E2C802F50001F1EF24F00701A751080168
:1049B000D325DA6F000ED421DB6F010EDA27000E4B
:1049C000DB23D8C8DFF8D7C8DEF8D6C8DDF8D5C8ED
:1049D000DCF80A0EE06FDBC8E2F8DAC8E1F80001A3
:1049E00007D70701A72BA7510801D325016E000E99
:1049F000D421036E01C5E9F4EA6EEF52D8B402D0B7
:104A00000001EFD7D92D1ED00701A7510801D325EA
:104A1000016E000ED42101C5E9F4EA6E230EEF6E9B
:104A20000701A7510801D325DA6F000ED421DB6FEF
:104A3000010EDA25016E000EDB2101C5E9F4EA6EF4
:104A4000EF6A0CD00701A7510801D325016E000EB3
:104A5000D42101C5E9F4EA6E2C0EEF6E000E016E52
:104A6000000112000801456B466B476B486B496BB0
:104A70004A6B4B6B4C6B4D6BCF6BCE6B5FC74DF87E
:104A8000080EEA6E4E0EE96E000E0001E3EC00F037
:104A90000A000900F550EE6E0009FBE10701A76B63
:104AA00008014D51000A0001D8B46CD0010AD8B4F5
:104AB000E6D0030AD8B4E3D0010AD8B4E0D0070A9C
:104AC000D8B4DDD0010AD8B4DAD0030AD8B4D7D02C
:104AD000010AD8B4D4D00F0AD8B4D1D0010AD8B4BE
:104AE000CED0030AD8B4CBD0010AD8B4C8D0070AB4
:104AF000D8B4C5D0010AD8B4C2D0030AD8B4BFD044
:104B0000010AD8B4BCD01F0AD8B4B9D0010AD8B4AD
:104B1000B6D0030AD8B4B3D0010AD8B4B0D0070ACB
:104B2000D8B4ADD0010AD8B4AAD0030AD8B4A7D05B
:104B3000010AD8B4A4D00F0AD8B4A1D0010AD8B4BD
:104B4000BDD1030AD8B4F2D2010AD8B412D3070AED
:104B5000D8B46FD3010AD8B49FD3030AD8B4C1D351
:104B6000010AD8B40FEF2AF03F0AD8B42FEF2AF089
:104B7000010AD8B44EEF2AF0030AD8B489EF2AF01C
:104B8000AEEF2AF0AB98CAC546F8CBC547F8CCC5FE
:104B900048F8CDC549F8D0C54AF8CEC54BF8CFC5C1
:104BA0004CF8AB88080E0801D46F4E0ED36FD86B4B
:104BB000D76BD66B4DC8D5F8D96B0001F6DE080E61
:104BC0000801D46F4E0ED36FD86BD76BD66B4BC822
:104BD000D5F8D96B0001E9DE080E0801D46F4E0E3E
:104BE000D36FD86BD76BD66B49C8D5F8D96B00019A
:104BF000DCDE080E0801D46F4E0ED36FD86BD76B76
:104C0000D66B4CC8D5F8D96B0001CFDE080E080171
:104C1000D46F4E0ED36FD86BD76BD66B4AC8D5F80E
:104C2000D96B0001C2DE080E0801D46F4E0ED36F9F
:104C3000D86BD76BD66B48C8D5F8D96B0001B5DEF9
:104C4000080E0801D46F4E0ED36FD86BD76BD66B9E
:104C500047C8D5F8D96B0001A8DE080E0801D46F4B
:104C60004E0ED36FD86BD76BD66B46C8D5F8010EF6
:104C7000D96F00019ADE78510400BAEF2AF0010ED4
:104C800008014D5D456F080ED46F4E0ED36FD86B83
:104C9000D76BD66B4DC8D5F8D96B000186DE0801FD
:104CA000D56B45C8D4F8D76B0A0ED66F000172ECED
:104CB00019F002C5D1F801C5D0F8D50E08010124BC
:104CC000E96E050E0220EA6EEFC4D5F8080ED46F27
:104CD0004E0ED36FD86BD76BD66BD96B000165DEE8
:104CE0000801D56B45C8D4F8D76B0A0ED66F000102
:104CF00072EC19F002C5D1F801C5D0F8010E080117
:104D00000124016E000E0220036E0150D50FE96EE2
:104D1000050E0320EA6EEFC4D5F8080ED46F4E0ED0
:104D2000D36FD86BD76BD66BD96B00013EDE080111
:104D3000D56B45C8D4F8D76B0A0ED66F000172EC5C
:104D400019F001C5D0F8020E08010124016E000E11
:104D50000220036E0150D50FE96E050E0320EA6EA6
:104D6000ECC4D6F8ED52EFC4D5F8080ED46F4E0E51
:104D7000D36FD86BD76BD96B000117DE0801D56BE9
:104D800045C8D4F8D76B0A0ED66F000172EC19F043
:104D900001C5D0F8040E08010124016E000E0220A6
:104DA000036E0150D50FE96E050E0320EA6EECC4C8
:104DB000D6F8ED52EFC4D5F8080ED46F4E0ED36F6F
:104DC000D86BD76BD96B0001F0DD0801D56B45C8F6
:104DD000D4F8D76B0A0ED66F000172EC19F002C539
:104DE000D1F801C5D0F8060E08010124016E000EAD
:104DF0000220036E0150D50FE96E050E0320EA6E06
:104E0000EFC4D5F8080ED46F4E0ED36FD86BD76BA6
:104E1000D66BD96B0001C9DD0801D56B45C8D4F844
:104E2000D76B0A0ED66F000172EC19F001C5D0F8ED
:104E3000070E08010124016E000E0220036E0150CE
:104E4000D50FE96E050E0320EA6EECC4D6F8ED52DC
:104E5000EFC4D5F8080ED46F4E0ED36FD86BD76B56
:104E6000D96B0001A2DD0801D56B45C8D4F8D76B1A
:104E70000A0ED66F000172EC19F002C5D1F801C517
:104E8000D0F8090E08010124016E000E0220036E05
:104E90000150D50FE96E050E0320EA6EEFC4D5F878
:104EA000080ED46F4E0ED36FD86BD76BD66B010E36
:104EB000D96F00017ADD785104005CD3080E080137
:104EC000D46F4E0ED36FD86BD76BD66B4DC8D5F859
:104ED000D96B00016ADD080E0801D46F4E0ED36F46
:104EE000D86BD76BD66BC6C6D5F8D96B00015DDD24
:104EF000080E0801D46F4E0ED36FD86BD76BD66BEC
:104F0000C7C6D5F8D96B000150DD080E0801D46F73
:104F10004E0ED36FD86BD76BD66BC5C6D5F8D96B91
:104F2000000143DD080E0801D46F4E0ED36FD86B1D
:104F3000D76BD66BC8C6D5F8D96B000136DD080E25
:104F40000801D46F4E0ED36FD86BD76BD66BCCC61F
:104F5000D5F8D96B000129DD080E0801D46F4E0E7B
:104F6000D36FD86BD76BD66BCDC6D5F8D96B000194
:104F70001CDD080E0801D46F4E0ED36FD86BD76BB3
:104F8000CFC6D6F8CEC6D5F8D96B00010EDD080E17
:104F90000801D46F4E0ED36FD86BD76BD1C6D6F83D
:104FA000D0C6D5F8D96B000100DD080E0801D46F1A
:104FB0004E0ED36FD86BD76BD66BD2C6D5F8D96BE4
:104FC0000001F3DC080E0801D46F4E0ED36FD86BCE
:104FD000D76BD66BD3C6D5F8D96B0001E6DC080ECB
:104FE0000801D46F4E0ED36FD86BD76BD5C6D6F8E9
:104FF000D4C6D5F8D96B0001D8DC080E0801D46FEF
:105000004E0ED36FD86BD76BD7C6D6F8D6C6D5F8A9
:10501000D96B0001CADC080E0801D46F4E0ED36FA5
:10502000D86BD76BD66BD8C6D5F8D96B0001BDDC71
:10503000080E0801D46F4E0ED36FD86BD76BD66BAA
:10504000D9C6D5F8D96B0001B0DC080E0801D46FC1
:105050004E0ED36FD86BD76BDBC6D6F8DAC6D5F851
:10506000D96B0001A2DC080E0801D46F4E0ED36F7D
:10507000D86BD76BDDC6D6F8DCC6D5F8D96B000186
:1050800094DC080E0801D46F4E0ED36FD86BD76B2B
:10509000D66BDEC6D5F8D96B000187DC080E080197
:1050A000D46F4E0ED36FD86BD76BD66BDFC6D5F8E7
:1050B000D96B00017ADC080E0801D46F4E0ED36F55
:1050C000D86BD76BE1C6D6F8E0C6D5F8D96B00012E
:1050D0006CDC080E0801D46F4E0ED36FD86BD76B03
:1050E000E3C6D6F8E2C6D5F8D96B00015EDC080E3F
:1050F0000801D46F4E0ED36FD86BD76BCAC6D6F8E3
:10510000C9C6D5F8D96B000150DC080E0801D46F70
:105110004E0ED36FD86BD76BD66BCBC6D5F8010EBE
:10512000D96F000142DC7851040024D2080E080136
:10513000D46F4E0ED36FD86BD76BD66B4DC8D5F8E6
:10514000D96B000132DC000E0601F4B7010E080134
:10515000D06F080ED46F4E0ED36FD86BD76BD66B53
:10516000D0C8D5F8010ED96F00011FDC78510400BA
:1051700001D2080E0801D46F4E0ED36FD86BD76BD7
:10518000D66B4DC8D5F8D96B00010FDC000E0601B7
:10519000F4B9010E0801D06F080ED46F4E0ED36F14
:1051A000D86BD76BD66BD0C8D5F8D96B0001D5ECCE
:1051B00024F0080E0801D46F4E0ED36FD86BD76B56
:1051C00042C5D6F841C5D5F8D96B0001D5EC24F01D
:1051D000080E0801D46F4E0ED36FD86BD76B44C541
:1051E000D6F843C5D5F8D96B0001D5EC24F0080EEC
:1051F0000801D46F4E0ED36FD86BD76B3EC5D6F86F
:105200003DC5D5F8D96B0001D5EC24F0080E080196
:10521000D46F4E0ED36FD86BD76B40C5D6F83FC551
:10522000D5F8010ED96F0001D5EC24F078510400B7
:10523000A1D1080E0801D46F4E0ED36FD86BD76B77
:10524000D66B4DC8D5F8D96B0001D5EC24F0000E13
:105250000601F5B1010E0801D06F080ED46F4E0E95
:10526000D36FD86BD76BD66BD0C8D5F8D96B00018C
:10527000D5EC24F0080E0801D46F4E0ED36FD86B16
:10528000D76BD66BF0C6D5F8010ED96F0001D5ECFF
:1052900024F0785104006ED1080E0801D46F4E0E30
:1052A000D36FD86BD76BD66B4DC8D5F8D96B0001CF
:1052B000D5EC24F0000E0601F4BD010E0801D06FFC
:1052C000080ED46F4E0ED36FD86BD76BD66BD0C889
:1052D000D5F8010ED96F0001D5EC24F07851040007
:1052E00049D10601F4AD07D00001C5EC0BF0060171
:1052F000F49F01B0F48F0801CF6BCE6B0601F4ABC5
:105300000AD0F4A708D0CB51080B05E00801CF6BF9
:1053100032C5CEF806010001EDEC06F001C545F8F6
:10532000080E08013B6F4E0E3A6FF20EF66E030E3A
:10533000F76E040ED46F0001C3EC03F0140EF66E8A
:10534000040EF76E9DEC04F02C0E0801D96F0001DD
:10535000B3EC03F045C8D4F81B0E0801D56F00016B
:10536000C8EC08F02C0E0801D96F0001B3EC03F073
:10537000100EE96EF3C6D1F8F2C6D0F8D7EC03F000
:105380002C0E0801D96F0001B3EC03F0100EE96E8A
:105390003EC5D1F83DC5D0F8D7EC03F02C0E08017E
:1053A000D96F0001B3EC03F0100EE96E40C5D1F8DF
:1053B0003FC5D0F8D7EC03F02C0E0801D96F0001DF
:1053C000B3EC03F0100EE96ECFC8D1F8CEC8D0F818
:1053D000D7EC03F02C0E0801D96F0001B3EC03F0F9
:1053E000100EE96EF5C6D1F8F4C6D0F8D7EC03F08C
:1053F0002C0E0801D96F0001B3EC03F034C5D4F8CA
:105400001B0E0801D56F0001C8EC08F0230E08013F
:10541000D96F0001B3EC03F078510400ABD0080E53
:105420000801D46F4E0ED36FD86BD76BD66B4DC8B7
:10543000D5F8D96B0001D5EC24F0080E0801D46F23
:105440004E0ED36FD86BD76BD66B2FC5D5F8010E28
:10545000D96F0001D5EC24F0785104008BD0080EF0
:105460000801D46F4E0ED36FD86BD76BD66B4DC877
:10547000D5F8D96B0001D5EC24F0080E0801D46FE3
:105480004E0ED36FD86BD76BD66BD56B010ED96F21
:105490000001D5EC24F0785104006CD0080E08010E
:1054A000D46F4E0ED36FD86BD76BD66B4DC8D5F873
:1054B000D96B0001D5EC24F00801456B45510A0871
:1054C00017E3E40E4525E96E060EEA6ED8B0EA2A27
:1054D000EFC4D5F8080ED46F4E0ED36FD86BD76BD0
:1054E000D66BD96B0001D5EC24F00801452BE6D72B
:1054F000080ED46F4E0ED36FD86BD76BD66BEFC63A
:10550000D5F8010ED96F0001D5EC24F078510400D4
:1055100031D0080E0801D46F4E0ED36FD86BD76B05
:10552000D66B4DC8D5F8D96B0001D5EC24F0000E30
:105530000601F4BB010E0801D06F080ED46F4E0EA9
:10554000D36FD86BD76BD66BD0C8D5F8010ED96F97
:105550000001D5EC24F0785104000CD0080E0801AD
:105560003B6F4E0E3A6F1E0EF66E040EF76E000184
:105570009DEC04F0010E0801D56F00019FEC03F0D3
:1055800044C8D4F8080E0801D66F4E0ED56F00013E
:105590003AEC16F00000000104EF2BF07851040003
:1055A000315202E0080E316EAB96B6960000000153
:1055B0000801436B036A22504A0F016E050E032255
:1055C00001C544F803C545F803C547F801C546F8C9
:1055D000010E486F0001B3EF17F001C543F8785191
:1055E000040008014351020808E1010E446F000164
:1055F0002BEF1CF0000108D00801432D06D0010E4E
:10560000446F000132EF25F008010201AC9FAB9915
:10561000AB9B006AD6BE0080D69E550E006FAA0EC8
:10562000006F009100B0D68E106B006AD6BE00806D
:10563000D69E550E006FAA0E006F008100B0D68E68
:10564000AC900001EAEC10F0216A246A226A2C6A0C
:10565000010E2D6E04010F9FA88E0D8F0E8FC0823C
:105660000001785104006AEF32F00501CA6BCB2BC0
:10567000CB513C08D8A48AD0CC2BCB6BCC5118088A
:10568000D8A484D0CC6BCD2BD02BD051070802E20C
:10569000010ED06F010ED05D016E010ED16F01526F
:1056A00004E0D890D137012EFCD7CD511D0806E17A
:1056B000CE51020803E1CF51030B18E1CD511E0872
:1056C00003E1CE51020812E0CD511F080CE1CE518A
:1056D00004080CE0CE51060809E0CE51090806E0A6
:1056E000CE510B0803E0CD51200813E1CE2B010E63
:1056F000CD6FCE510D0803E1CF2B010ECE6F010E01
:10570000CE5DE40FE96E060EEA6ED8B0EA2AEFC469
:1057100049F52E6A326A0601F4AB37D0F4A735D0CA
:10572000CB51080B32E0D00E0501CF250801436FA5
:10573000070E446FD8B0442BD00E0601C5250801D2
:10574000456F070E466FD8B0462B44C8D9F843C8FA
:10575000D8F8CEC5DAF8CDC5DBF846C8DDF845C8BF
:10576000DCF8C6C6DEF8C7C6DFF8C8C6E0F8CAC6A9
:10577000E2F8C9C6E1F8000173EC1BF001C532F58F
:10578000325202E1010E2E6E06010501000189EF81
:1057900032F00801D56B52C8D4F8D76B3C0ED66FE7
:1057A000000172EC19F0036A080153510124586F8B
:1057B00003500220596FD56B54C8D4F8D76B3C0EF8
:1057C000D66F000172EC19F0036A080155510124EB
:1057D0005A6F035002205B6F56515A255C6F575128
:1057E0005B215D6F5F6B5E6B5D51050819E303E143
:1057F0005C51A00815E359515D5D11E303E15C5173
:10580000585D0DE25B51595D0AE303E15A51585D61
:1058100006E358515C5D5E6F59515D595F6F1BD057
:105820005D51040818E2FF0A03E15C51A00813E28D
:105830005B51595D10E303E15A51585D0CE35A5135
:10584000585D006E5B515959036E0050565D5E6F96
:10585000035057595F6F5EC801F55FC802F500013C
:1058600012008E0E006E08015251005E53C802F500
:1058700054C801F5028E005209E0D890025202E1AC
:10588000015204E002320132002EF7D753AF05D0A7
:10589000011E021E012AD8B4022A000112000801CA
:1058A000436B446B456B476B466B496B486B43518D
:1058B0001708D8A0DFD14553D8A4DCD10001785116
:1058C00004000801D56B43C8D4F8D76B0A0ED66F15
:1058D000000172EC19F002C54BF801C54AF8090E37
:1058E00008010124016E000E0220036E0150D50F45
:1058F000E96E050E0320EA6EEF50080BD8B4B5D15F
:10590000D56B43C8D4F8D76B0A0ED66F000172EC82
:1059100019F002C54BF801C54AF8060E0124016EC4
:10592000000E0220036E0150D50FE96E050E032014
:10593000EA6EEF500501D115D8B499D1CE530FE0DE
:10594000010ECE5D006E010E0801486F496B0052DA
:1059500005E0D89048374937002EFBD705010801EC
:10596000D56B43C8D4F8D76B0A0ED66F000172EC22
:1059700019F001C54AF8070E08010124016E000E56
:105980000220036E0150D50FE96E050E0320EA6E6A
:10599000ECC44BF8ED52EFC44AF848514A1749514C
:1059A0004B174A5303E14B53D8B45FD1D56B43C86F
:1059B000D4F8D76B0A0ED66F000172EC19F002C54D
:1059C0004BF801C54AF8D50E08010124E96E050E11
:1059D0000220EA6EEFC44CF8D56B43C8D4F8D76BFD
:1059E0000A0ED66F000172EC19F002C54EF801C51F
:1059F0004DF8010E08010124016E000E0220036E15
:105A00000150D50FE96E050E0320EA6EEFC44DF884
:105A1000D56B43C8D4F8D76B0A0ED66F000172EC71
:105A200019F001C54EF8020E0124016E000E02208D
:105A3000036E0150D50FE96E050E0320EA6EECC42B
:105A400057F8ED52EFC456F8CCC552F8CBC553F811
:105A50004CC854F84DC855F800019BDE02C54DF8FE
:105A600001C54CF80801DB6B49C5DAF80001DDEC33
:105A700004F003C551F802C550F801C54FF800C540
:105A80004EF84DC8DBF84CC8DAF8DDEC04F003C57D
:105A9000DDF802C5DCF801C5DBF800C5DAF851C84D
:105AA000E1F850C8E0F84FC8DFF84EC8DEF8F8EC6F
:105AB00004F003C54FF802C54EF801C54DF800C506
:105AC0004CF803C5DDF802C5DCF801C5DBF800C5FC
:105AD000DAF80A0E0801E16FD70EE06F230EDF6FD0
