:020000040000fa
:080000000001040000000000f3
:020000040000fa
:04000800f8020000fa
:020000040000fa
:04000c003a030000b3
:020000040000fa
:040010007a0300006f
:020000040000fa
:0400140018030000cd
:020000040000fa
:040018005a03000087
:020000040000fa
:04001c00ec060000ee
:020000040000fa
:040020009a0300003f
:020000040000fa
:04002400ec060000e6
:020000040000fa
:04002800b00600001e
:020000040000fa
:04002c00ec060000de
:020000040000fa
:04003000ec060000da
:020000040000fa
:04003400f2030000d3
:020000040000fa
:04003800ec060000d2
:020000040000fa
:04003c00ec060000ce
:020000040000fa
:04004000ec060000ca
:020000040000fa
:04004400280400008c
:020000040000fa
:04004800ec060000c2
:020000040000fa
:04004c00ec060000be
:020000040000fa
:04005000ec060000ba
:020000040000fa
:040054007c0200002a
:020000040000fa
:040058002002000082
:020000040000fa
:04005c00ec060000ae
:020000040000fa
:04006000ec060000aa
:020000040000fa
:04006400ec060000a6
:020000040000fa
:04006800ec060000a2
:020000040000fa
:04006c005e0400002e
:020000040000fa
:04007000ec0600009a
:020000040000fa
:04007400ba030000cb
:020000040000fa
:04007800ce060000b0
:020000040000fa
:04007c00ec0600008e
:020000040000fa
:04008000ec0600008a
:020000040000fa
:04008400ec06000086
:020000040000fa
:04008800ec06000082
:020000040000fa
:04008c00ec0600007e
:020000040000fa
:04009000ec0600007a
:020000040000fa
:04009400ec06000076
:020000040000fa
:04009800ec06000072
:020000040000fa
:04009c00ec0600006e
:020000040000fa
:0400a000ec0600006a
:020000040000fa
:0400a400ec06000066
:020000040000fa
:0400a800ec06000062
:020000040000fa
:0400ac00ec0600005e
:020000040000fa
:0400b000ec0600005a
:020000040000fa
:0400b400ec06000056
:020000040000fa
:0400b800ec06000052
:020000040000fa
:0400bc00ec0600004e
:020000040000fa
:0400c000ec0600004a
:020000040000fa
:0400c400ec06000046
:020000040000fa
:0400c800ec06000042
:020000040000fa
:0400cc00ec0600003e
:020000040000fa
:0400d000ec0600003a
:020000040000fa
:0400d400ec06000036
:020000040000fa
:0400d800ec06000032
:020000040000fa
:0400dc00ec0600002e
:020000040000fa
:0400e000ec0600002a
:020000040000fa
:0400e400ec06000026
:020000040000fa
:0400e800ec06000022
:020000040000fa
:0400ec00ec0600001e
:020000040000fa
:0400f000ec0600001a
:020000040000fa
:0400f400ec06000016
:020000040000fa
:0400f800ec06000012
:020000040000fa
:0400fc00ec0600000e
:020000040000fa
:04010000ec06000009
:020000040000fa
:04010400ec06000005
:020000040000fa
:04010800ec06000001
:020000040000fa
:04010c00ec060000fd
:020000040000fa
:04011000ec060000f9
:020000040000fa
:04011400ec060000f5
:020000040000fa
:04011800ec060000f1
:020000040000fa
:04011c00ec060000ed
:020000040000fa
:04012000ec060000e9
:020000040000fa
:04012400ec060000e5
:020000040000fa
:04012800ec060000e1
:020000040000fa
:04012c00e2020000eb
:020000040000fa
:04013000ec060000d9
:020000040000fa
:04013400ec060000d5
:020000040000fa
:04013800ec060000d1
:020000040000fa
:04013c00ec060000cd
:020000040000fa
:04014000ec060000c9
:020000040000fa
:04014400ec060000c5
:020000040000fa
:04014800ec060000c1
:020000040000fa
:04014c00ec060000bd
:020000040000fa
:04015000ec060000b9
:020000040000fa
:04015400ec060000b5
:020000040000fa
:04015800ec060000b1
:020000040000fa
:04015c00ec060000ad
:020000040000fa
:04016000ec060000a9
:020000040000fa
:04016400ec060000a5
:020000040000fa
:04016800ec060000a1
:020000040000fa
:04016c00ec0600009d
:020000040000fa
:04017000ec06000099
:020000040000fa
:04017400ec06000095
:020000040000fa
:04017800ec06000091
:020000040000fa
:04017c00ec0600008d
:020000040000fa
:04018000ec06000089
:020000040000fa
:04018400ec06000085
:020000040000fa
:04018800ec06000081
:020000040000fa
:04018c00ec0600007d
:020000040000fa
:04019000ec06000079
:020000040000fa
:04019400ec06000075
:020000040000fa
:04019800ec06000071
:020000040000fa
:04019c00ec0600006d
:020000040000fa
:0401a000ec06000069
:020000040000fa
:0401a400ec06000065
:020000040000fa
:0401a800ec06000061
:020000040000fa
:0401ac00ec0600005d
:020000040000fa
:0401b000ec06000059
:020000040000fa
:0401b400ec06000055
:020000040000fa
:0401b800ec06000051
:020000040000fa
:0401bc00ec0600004d
:020000040000fa
:0401c000ec06000049
:020000040000fa
:0401c400ec06000045
:020000040000fa
:0401c800ec06000041
:020000040000fa
:0401cc00ec0600003d
:020000040000fa
:0401d000ec06000039
:020000040000fa
:0401d400ec06000035
:020000040000fa
:0401d800ec06000031
:020000040000fa
:0401dc00ec0600002d
:020000040000fa
:0401e000ec06000029
:020000040000fa
:0401e400ec06000025
:020000040000fa
:0401e800ec06000021
:020000040000fa
:0401ec00ec0600001d
:020000040000fa
:0401f000ec06000019
:020000040000fa
:0401f400ec06000015
:020000040000fa
:0401f800ec06000011
:020000040000fa
:0401fc00ec0600000d
:020000040000fa
:10020000ef2b21000e7f22000e018800000000006d
:10021000000020000000e000020032000001200089
:100220002002880014000700ed0207000000e00033
:1002300003003a0080c32b000100200002003700b9
:100240000000200001002000810f7000010032003a
:1002500014000700000020000000e000020032004f
:10026000000002000000000068880200000000009a
:100270000040da000000fe004440a9000084220093
:100280000000e00003003200002020009001880000
:100290004440a800000006008a1f78008b1f7800e9
:1002a00000000600a1028800800478000000eb0036
:1002b0001f003700e284440054a0b4009905ba003e
:1002c000e284440054a0b4009906ba00e2844400d9
:1002d00054a0b4000006eb00476fde00fd07b2003b
:1002e000ae018800636ce10003003a00eaff0700fa
:1002f0000000eb000e003700606ce10008003a00df
:10030000004deb000a05e800020039003420ec0043
:100310000af0a0008b05e900f9ff3e000400370059
:100320006168e100010032000086eb000b0007006d
:1003300019c7ba001905ba000e04e00003003a001c
:100340000a00e000dbff3a0000000600fe07b200f2
:10035000ae0288008a047800f5ff37000cd0a300b5
:10036000e20f4d001c00390089027800354dba00bb
:100370000a05e800020039003420ec000af0a00071
:100380008b05e9000f003200254dba000a05e80090
:10039000020039003420ec000af0a0008b05e900cf
:1003a000080032000c00e0000600320015cdba0053
:1003b0000a05e800020039003420ec000af0a00031
:1003c0008b05e9008984e80054a0b4000b00e0002c
:1003d000e2ff3a00000006009902ba00055d7800cd
:1003e0008b05e900f7ff3200c82ade00055d7800c2
:1003f0008b05e900f3ff32000c00e000f1ff320052
:1004000019ddba00eeff37004eb504000000000011
:100410006cb50400000000008457040000000000d8
:100420006ec004000000000032bf040000000000a5
:10043000eabf0400000000000657040000000000ae
:100440003600f800809fbe00829fbe00849fbe00e1
:10045000869fbe000000fa004043800000000100bb
:100460002143800010438000808f500002003a003a
:100470009980a900190037008980a9001000370071
:1004800020438000904078008180fb00e11c8800c0
:100490000000e8002043880021438000c0db2000ea
:1004a000808f500002003a00e0cb200020438800fb
:1004b0002143800010438000808f500006003200ee
:1004c000d11c800000202000008060000000e000bf
:1004d000ebff320001003700000000000080fa004e
:1004e0004f03be004f02be004f01be004f00be00d2
:1004f0003600f900004006003600f800809fbe007c
:10050000829fbe00849fbe00869fbe000000fa004e
:1005100050438000000001008960a9001e003700e0
:10052000f0428000f11c8000814078000148780092
:10053000f142800090eb2000808f500009003200d3
:10054000f04280008000e80000438000808f50006f
:1005500004003200f04280000000e800f042880011
:100560000d003700f142800090eb2000808f50009a
:1005700007003a0001438000c0db2000808f50005c
:1005800003003200c0db2000f04288000200370088
:1005900010c0b30066e8b700d01c800061006000a6
:1005a0000000e000deff3a000080fa004f03be00ca
:1005b0004f02be004f01be004f00be003600f900e2
:1005c00000400600801f78000000fa00d01c800068
:1005d000620060000000e000010032009a23a900e0
:1005e0009020a9000080fa004f007800004006002b
:1005f0003600f800809fbe00829fbe00849fbe0030
:10060000869fbe000000fa008020a9000000eb00d9
:10061000425f07000080fa004f03be004f02be0099
:100620004f01be004f00be003600f900004006003a
:100630003600f800809fbe00829fbe00849fbe00ef
:10064000869fbe000000fa003b5f07008040a900c3
:1006500010002000315f07000080fa004f03be0049
:100660004f02be004f01be004f00be003600f90031
:10067000004006003600f800809fbe00829fbe004a
:10068000849fbe00869fbe000000fa008060a90023
:1006900020002000215f07000080fa004f03be0009
:1006a0004f02be004f01be004f00be003600f900f1
:1006b000004006003600f800809fbe00829fbe000a
:1006c000849fbe00869fbe000000fa008080a900c3
:1006d00030002000115f07000080fa004f03be00c9
:1006e0004f02be004f01be004f00be003600f900b1
:1006f000004006003600f800809fbe00829fbe00ca
:10070000849fbe00869fbe000000fa008600a900fc
:1007100070002000015f07000080fa004f03be0058
:100720004f02be004f01be004f00be003600f90070
:10073000004006003600f800809fbe00829fbe0089
:10074000849fbe00869fbe000000fa0085e0a900dd
:1007500080002000f15e07000080fa004f03be0019
:100760004f02be004f01be004f00be003600f90030
:10077000004006003600f800809fbe00829fbe0049
:10078000849fbe00869fbe000000fa0050048000d7
:10079000680060000000e0000b003200f0358000cf
:1007a000640060000000e000060032005044800059
:1007b0000000e00002003200504480000000010010
:1007c000be46a9008a60a9000080fa004f03be005f
:1007d0004f02be004f01be004f00be003600f900c0
:1007e000004006003600f800809fbe00829fbe00d9
:1007f000849fbe00869fbe000000fa007044800007
:100800000000e0000200320070448000000001009f
:10081000902b2100104078008040e800902b2100b0
:1008200001487800802b210011c0b30001487800f6
:100830008860a9000080fa004f03be004f02be008e
:100840004f01be004f00be003600f9000040060018
:100850003600f800809fbe00829fbe00849fbe00cd
:10086000869fbe000000fa00804480000000e00087
:10087000020032008044800000000100b02b210003
:10088000104078008040e800b02b2100014878003b
:10089000a02b210011c0b3000148780088e0a90016
:1008a0000080fa004f03be004f02be004f01be00a1
:1008b0004f00be003600f900004006003600f80088
:1008c000809fbe00829fbe00849fbe00869fbe00a8
:1008d0000000fa008a20a900f1248000000820000e
:1008e000008060000000e000080032009ee4a900e3
:1008f0004e28ef00a0428000200090008000eb0016
:10090000010878005428ef000e0137007042800083
:100910008000eb00b200200003002000820f500096
:10092000838f5800fd003e00006001000b0037007f
:100930003a003700760037009d003700f40037009a
:10094000c9003700da003700f1003700dc0037005b
:10095000f200370035003700510037006084200076
:1009600020009000620060000000e000f4003a0007
:100970006084200010009000a04288006084200065
:10098000100090001040780050e8b700608420000c
:1009900010009000100090009042880060842000b9
:1009a00010009000e60040006084200011009800d4
:1009b000608420001000900080007800c028210092
:1009c000808f500003003a006084200061282100dd
:1009d0001100980060842000a00090000100a10098
:1009e0002100980060842000900090006084200026
:1009f00010007800808f500004003a0060842000ce
:100a0000a00090000110a000210098009a04a80006
:100a10002000200070428800ca0037009a24a800f5
:100a20002000200070428800c6003700f1248000ba
:100a300000002800008060000000e0000800320094
:100a400060842000604090008040e80060842000c6
:100a50006140980040002000a7590700b900370006
:100a6000b04280008000d100f00f200000806000c4
:100a7000b0248800b042800061006000004078002f
:100a80000004e00003003200b00020007042880043
:100a9000ac0037003000200070428800a900370009
:100aa000f124800000002800008060000000e000c9
:100ab0000800320060842000604090008040e80020
:100ac0006084200061409800400020008a5907009f
:100ad0009c0037009a24a800b04280004800de0045
:100ae000e6006000000f200001007000b0428800a6
:100af000b04280000000a000b042880010c0b300e7
:100b000058e8b70020002000704288008d003700b0
:100b100058c8bf00e14f50000a00320090428000e8
:100b200010007800b04288009042800020009000c1
:100b3000d042880090428000204090005ce8b700de
:100b4000010037005868ef00b1428000f00f20002c
:100b5000808f500009003600b04280004800de005f
:100b6000e6006000000f200001007000b024880043
:100b7000a00020007042880072003700b042800060
:100b8000b0248800b042800061006000004078001e
:100b90000004e00003003200500020007042880092
:100ba0006800370030002000704288006500370080
:100bb000f124800000002800008060000000e000b8
:100bc0000900320060842000604090008040e8000e
:100bd00060842000614098009fe4a900500020003c
:100be00045590700570037005cc8bf008080fb00f4
:100bf0008100e900cf08de00814078000040e90074
:100c00005ce8b7000104e000100032009042800070
:100c1000660040009042880050c8bf000040e900d4
:100c200050e8b70050c8bf000004e00003003a00dd
:100c30002000200030590700420037009a24a80005
:100c400020002000704288003e003700d042800023
:100c5000904078008180fb00b12488000000e8000b
:100c6000d042880037003700f124800000002800bf
:100c7000008060000000e000090032006084200075
:100c8000604090008040e80060842000614098004f
:100c900040002000185907009fe4a90029003700f0
:100ca0009a64a80080002000704288002500370068
:100cb00080002000704288009a64a800210037005c
:100cc000d0428000a1248000814078000148780053
:100cd0000000e800d04288005cc8bf000040e90086
:100ce0005ce8b7005cc8bf000004e000040032000c
:100cf0009aa4a9006000200070428800020037001a
:100d00009aa4a800eb5807009a84a8000d003700a9
:100d100020002000f85807000a00370060842000f7
:100d2000604090008040e8006084200061409800ae
:100d300060002000f05807000000000001003700ac
:100d4000000000000080fa004f03be004f02be000a
:100d50004f01be004f00be003600f9000040060003
:100d60003600f800809fbe00829fbe00849fbe00b8
:100d7000869fbe000000fa00702807008800a900c6
:100d80000080fa004f03be004f02be004f01be00bc
:100d90004f00be003600f900004006003600f800a3
:100da000809fbe00829fbe00849fbe00869fbe00c3
:100db0000000fa004e2807008a80a9000080fa008f
:100dc0004f03be004f02be004f01be004f00be00e9
:100dd0003600f900004006000040da000000fe0086
:100de0000000050014002000c40337000001be000d
:100df0001b0007000470a70003f0a10003f8a30084
:100e000013003a006509b1001000320009003500f6
:100e10006928e100020035000100280000000500fb
:100e200000004000818048008502e900fcff3a0094
:100e300000000600f88f4200050035008100d10057
:100e40000080d3008502e800fcff3a0000000600a5
:100e50008000eb00000005006011b800c2033700fd
:100e6000c70ade00f107b200f50fb2000800320039
:100e7000e1cf4200020032000170a0002400050012
:100e8000810f7000010032000408050044000500d5
:100e9000810f700002003a00140005008502e9008d
:100ea0000000400081c04800fcff3b000170a00032
:100eb00024000500889fbe008a9fbe008c9fbe0054
:100ec0001b0020000202be00058668000600280004
:100ed000060666004709de00f20fb200820032000b
:100ee0000243e80080003200c729de00f30fb200a1
:100ef0007d0032000343e8007b003200f107b200be
:100f00000170a000f507b2000570a000c708dd0061
:100f10004903de00868070004700dd00c72add003f
:100f20004923de00868272004722dd00030551005e
:100f30000403500085835800030031000000400086
:100f4000818048000a05e9008c1f78008a9fbe0056
:100f500004005000858058000402420085824a0047
:100f600000004000818048000005eb000004be0046
:100f70006033b8000406be000d48e10056003100a1
:100f8000110009004dccd8000c01b8000d02b800ca
:100f90008481410060824a008283530003045c0024
:100fa00084845c0060055d000a00e00025003a00d2
:100fb000800578000d40e10049003100880078008c
:100fc00007007800110009004d88d8000c01b80016
:100fd0000d02b8008481410060824a006003110064
:100fe00083835b0004045c00e0845c000900e00093
:100ff00021003a004f01be000300e0002b00320048
:10100000e3016000070673008c817100010032006b
:10101000640070004200de004e5edd000c007000d7
:10102000c258de0001e0a00083010700cf01780074
:10103000818071004f06be004f05be004f04be0008
:10104000000006008c8343000d044c00e0844c003b
:1010500060054d000000e9000a00e000d4ff320006
:101060008c8343000d044c00e0844c0060054d006f
:101070000000e900ceff37000c0343008d834b00d6
:1010800060044c00e0844c000000e9000900e0002e
:10109000d8ff32000c0343008d834b0060044c00ea
:1010a000e0844c000000e900d2ff37004200de007f
:1010b0004e5edd000c007000c258de0001e0a000b2
:1010c000cf0178000300e000daff3200600010007a
:1010d000e0801800d7ff3700f0ff2f00aaff37008d
:1010e000f0ff2f00b9ff37000404be002f010700f6
:1010f000870678000004fd008104fd002b01070035
:10110000078366000678a300030032000960a70089
:101110000800be002c0037000d78a300020032004a
:101120000800be00280037000778a30026003a0018
:1011300001f0a10009f0a1000668a300030032003d
:10114000f1ff2700f0ff2f00baff37000d68a30062
:10115000030032000800be008c807000b5ff37002d
:101160000768a30007003a000648a3000300320006
:10117000f1ff2700f0ff2f00aeff37000d48a3005e
:10118000030032006000b8008c807000a9ff3700b7
:101190000748a3000400320001f8270000002000e7
:1011a0008c807000a3ff3700760107000004fd006b
:1011b0008104fd0002057800720107000802be00ec
:1011c0008a01780059ff37000160a0001202200058
:1011d000a244880097ff37000100e00012003200af
:1011e0000500e00010003200889fbe008a9fbe000c
:1011f0008c9fbe000006eb0001f8a3000300320044
:1012000060001000e08018000cf0a00005f8a300ba
:101210000300320060021200e0821a000cf0a2000b
:101220008005eb0041ff37006000b80002000500b8
:10123000038368000700280007036300470ade00f5
:101240000480a100c71ade000580a100f70f20006e
:101250000720e100420032000728e1004000320090
:10126000889fbe008a9fbe008c1f7800f107b200e5
:10127000f307b2000400e000640032000170a00037
:101280000500e000680032000370a0008505420000
:10129000eb07b1000204b8000302b80084844400e4
:1012a00060854a00020ab800848444000a854a0026
:1012b000030ab80004054500040033000804d00008
:1012c0008984d2000a85d2008b05e9006158e100cb
:1012d0003d003500021020000901610003082000d4
:1012e00089816100f7072000878364000886730006
:1012f000c84cde00c853dd00878474004855de000a
:101300000300e00006003200820376000400320091
:101310008904e80060054d000a88a3000c003a002b
:10132000f70f20000758e10044003d000a70a100bb
:10133000c75ddd000a8575008a007300090078002a
:101340004f0678004f05be004f04be0000000600a7
:101350000a05d1008984d3008b05e800f0ff37002f
:10136000881f7800060478009000070007027800c4
:101370000001fd008101fd008c000700870278005c
:10138000850372000778a300050032000001fd000c
:101390008101fd009f0007004f0478000000060057
:1013a000850372000748a30003003200f0ff2f00fe
:1013b000f1ff2700f8ff37000000200001f82700a8
:1013c00088807000f4ff3700880178004848dd000d
:1013d000808171004848de00c850dd0001007000c7
:1013e000c850de00060478000b01780016000700e4
:1013f00088807000d2ff37000500e0000500320051
:10140000170020003a0007009dff3700810370009d
:10141000f9ff3a00860078004f0678004f05be00bd
:101420004f04be000000050083037100f9ff320085
:10143000270020002e00070094ff370001f8270046
:1014400086807000f4ff37000100e00026003200c3
:10145000610111007810e10023003c006022b80017
:101460007010e1000400350080027800010078006f
:101470008000eb00700151000200e0000900340020
:1014800070031100062add00822ade008603dd00db
:10149000878272000200de00860bdd00070070000c
:1014a0008208de0084817100f4ff2700048262005c
:1014b000848171000400280084826200610260005f
:1014c00005f0a6000000060004827100070032004b
:1014d0000000e800e0804800000006000002be00b6
:1014e0006000b800efff37006000b80000000600a1
:1014f000889fbe000004eb006138e10016003a004e
:101500000100e00008003a00c800de004800dd00ed
:10151000880020000100e00003003a00c800de005f
:101520004800dd00680444008184cf00e984540051
:10153000060034008908dd00f08314008703de0014
:10154000878070000900dd00090444006102140076
:101550004f04be00000006000300e00008003a004f
:10156000c811de004811dd00880020000300e00003
:1015700003003a00c811de004811dd006804440091
:101580008384cf00e9845400060034008919dd000b
:10159000f08314008713de00878171000911dd00dc
:1015a00009044400e1021400e9ff3700270020008d
:1015b00001f0a70017002000470bde00f60fb20075
:1015c000040032000643e8000a0032004702b3007c
:1015d0000000060001037800f607b2000603700061
:1015e00002003a000703b300000006008702b300c0
:1015f0000000060001037800f607b2000603700041
:10160000020032000770a000000006000760a00082
:10161000000006000478a300040032000578a3004f
:10162000030032000168a30001003a000200be007e
:101630000160a00000000600810170002700320058
:101640008002eb0001f8a3000300320060001000ec
:10165000e080180015002000f4072000020242007c
:1016600020003400f70320008703600006042000f8
:101670000003630002082000000161004700de0053
:10168000c909dd0000807100c708de000600e00027
:101690000800320087037100060032001000b0001d
:1016a0000180b0000188a30002003200c108de0002
:1016b0000402e800f107b200f30f20000320e1006c
:1016c00003003d004722dd00810072002900370041
:1016d00001f827000000eb00260037006000b8008a
:1016e00000000600680212007f20e10002003400c2
:1016f0006000b8001f0037006011b8007020e100e2
:101700000400350080017800010078008000eb00c3
:10171000700252000400e00009003400f0031200df
:101720000719dd008419de000703dd0086817100e2
:101730000400de00070bdd00060070008408de00f8
:10174000f7ff2700838363008703710006002800ea
:1017500003036300070032000700e00003003a00c3
:101760006101600002817300020032001000b000cd
:101770000180b0000500a6000000060001f0a000f6
:10178000000006004f0ade004709de00f107b20044
:10179000f20fb2000b003200f207b1000170a0009e
:1017a000c708dd00c901de00838070004700dd004e
:1017b0000400a6000000060060001000e080180091
:1017c00000000600810f700001003a0000000600d2
:1017d0008182cf000500e00010003e008082cf0033
:1017e000ee8242007028e1000400390007003e004c
:1017f000800078000000eb000e00370070831200bc
:101800008600de000500dd000a003700708352000c
:101810008600dd000000eb0006003700e282520087
:101820008508dd00708312000603de0086807000ec
:101830000500dd007507b0000501ea000400a60000
:101840000000060060001000e080180000000600a4
:10185000889fbe008a9fbe0030044200b0844a00c8
:1018600030054b0090854b006000b1000898be0029
:101870000a90be000440e10005c8e10006d0e10086
:1018800007d8e10002003100680040001008e800bd
:101890004f05be004f04be0000000600889fbe003a
:1018a0008a9fbe003004be002005be00041854000c
:1018b00005985c0006185d0007985d001100200087
:1018c0000440e10005c8e10006d0e10007d8e100ce
:1018d000010039008000eb00108810004f05be00a9
:1018e0004f04be00000006001200fa00889fbe00f0
:1018f0008a9fbe008c9fbe00e0b79f00f1b79f009b
:1019000082bf9f0093bf9f000605be000404be0077
:101910000000eb00d0b79f00c0b79f00b0b79f009a
:10192000a0b79f0090b79f00000678005fb19700b6
:10193000cfb09700820141003fb097000200e00065
:1019400004003d00370007007e805700c0ff0700fd
:1019500003003700330007007e805700cfff0700e9
:10196000dfb697000d00e0000c0035006fb2970065
:10197000ffb297000fbb97009fbb9700100020009d
:10198000010020006011b800000272008182720024
:1019900002037300838373001b0007000c06e8003a
:1019a00001042000810f5600e0ff3a000d00e00026
:1019b00004003d000802be000a03be007e805700fe
:1019c000a3ff07005fa897000000e00005003a00b1
:1019d0001fb29700afb297003fb39700cfb3970005
:1019e000090007006fb09700ffb097000fb997008c
:1019f0009fb997004f06be004f05be004f04be00c2
:101a00000080fa0000000600010007000000060048
:101a1000a4b79f00b5b79f00c6b79f00d7b79f0078
:101a2000000006004f09de0082817100b3b79f00fd
:101a30004f01de008180400082807000a1b79f00ce
:101a40008fb097004f09de000000400002007000d8
:101a500090b79f007fa897004f01de008180400073
:101a60008280700081b79f000d0007004f3ade00b2
:101a70000000400004007000f0af9f000800070065
:101a80000402420085824a0006034b0087834b0014
:101a9000dfff07000802be000a03be0000000600c8
:101aa0002fb29700bfb297004fb39700dfb39700f4
:101ab00000000600881f780018002000881f7800aa
:101ac00089ff07008f87e9004f04780000000600b7
:101ad000801feb0084ff07008f87e90000000600ed
:101ae000889fbe008a9fbe00e00f5000e08f580024
:101af000e00f5900e08f59000c003d006044b80031
:101b00006055b8000000540081805c0002015d0057
:101b100083815d00180020001500070008003d00cb
:101b2000180007000004eb00050037000004eb007c
:101b30000f00070002003d001200070018002000ff
:101b4000dcff07000800e000060032006022b80059
:101b50006033b8000000520081805a0002015b002f
:101b600083815b004f05be004f04be0000000600ed
:101b7000e00f5200e08f5a00e00f5b00e08f5b0047
:101b8000000006006044b8006055b800040254002c
:101b900085825c0006035d0087835d00000006000f
:101ba000889fbe008a9fbe008c1f7800e00f500007
:101bb000e08f5800e00f5900e08f59000d003d0004
:101bc0006044b8006055b8000000540081805c009b
:101bd00002015d0083815d001c0020000820e100ff
:101be00009a8e1000ab0e1000bb8e1000d003d00da
:101bf000080037000006eb00e00f5200e08f5a00ab
:101c0000e00f5b00e08f5b0006003d006044b80021
:101c10006055b8000402540085825c0006035d0034
:101c200087835d00aaff07000c00e0000600320079
:101c30006022b8006033b8000000520081805a0072
:101c400002015b0083815b004f0678004f05be00f8
:101c50004f04be0000000600889fbe008a9fbe00a1
:101c60008c1f78000006eb00e00f5000e08f58005a
:101c7000e00f5900e08f590007003d006044b800b4
:101c80006055b8000000540081805c0002015d00d6
:101c900083815d001c002000e00f5200e08f5a009d
:101ca000e00f5b00e08f5b0007003d006044b80080
:101cb0006055b8000402540085825c0006035d0094
:101cc00087835d000c00a200840007000c00e00088
:101cd000060032006022b8006033b80000005200f5
:101ce00081805a0002015b0083815b004f0678000f
:101cf0004f05be004f04be0000000600889fbe00d6
:101d00008a9fbe00841f78006c0007004f00780097
:101d100011003300f0ff2f00838f6c0006003b00a2
:101d2000040565000a00a7000800370009f0a600b6
:101d30001000200008003700820f5400838f5c00e1
:101d4000030039001000200001003e0000002000c8
:101d500009f0a7000000ea004f05be004f04be00d6
:101d60000000e00000000600889fbe008a9fbe00c1
:101d700000827000040271000482710026003200ab
:101d80000004be000200be006011b8006b09200014
:101d9000950220000182cf000a0039000541b10000
:101da0000082cf00070039000541b1000982cf0051
:101db000040039000541b1000882cf00010039005c
:101dc0000541b10005425200120032000a003b00fa
:101dd00082817100610164008100d1000080d30024
:101de0008984d3000884d3008b05e8000442e8000e
:101df000f7ff3a00070037000804440089844c00cc
:101e000000004800818048008b05e9000442e90099
:101e1000f9ff3a00030007004f05be004f04be0063
:101e20000000060081002000618055000b003d008d
:101e30000b00200061fe2f000100e1001d003400b6
:101e400082817100610164008904d1000884d3009b
:101e50000000e800faff3a00710020006100640011
:101e600003007000020060000900320061044400b9
:101e7000e0844c000988a500050032008b05e800cd
:101e80006808e10002003a008904d1000884d30008
:101e9000f20f20000258e10005003d00c75ddd00a3
:101ea000f907b2008980750008007800000006007c
:101eb0000bf827008b007800000005000004be002e
:101ec000e7fb07000003be000405be000200be00e1
:101ed000e3fb0700844f750000000600889fbe00ea
:101ee0008a9fbe008c9fbe000404b8000506b8009f
:101ef0008904460060854e000606b8000a054600c3
:101f0000e0854e000706b8008b054600040eb800b9
:101f1000890446000a854e00e0854d00050eb80094
:101f20000a0546008b854e00060eb8008b0546005c
:101f30000416b8000a0546008b854e000516b80049
:101f40008b054600041eb8008b0546000800be0045
:101f50000a01be004f06be004f05be004f04be0082
:101f6000000006000000fa0068815700cfb8970013
:101f7000190307000080fa00000006003d01070079
:101f800095010700c9010700450207006d0207001f
:101f900069030700140337000000fa006881570046
:101fa000cfb897000c0307000080fa00000006007d
:101fb00030010700880107003902070061020700ad
:101fc000ba0107005c030700070337000000fa00ae
:101fd00068815700cfb89700ff0207000080fa0021
:101fe00000000600b10137008000780010002000da
:101ff00002022000828f500004003200e98050006d
:10200000e48f5000010036000000eb0000000600e5
:10201000889fbe008a1f7800000578000a047800b7
:10202000984478000805e8000900fb00eeff07006f
:102030000000e000f9ff3a00b0c2b30080cf5400c6
:1020400005003200d0c2b3008000eb0080cf540006
:1020500005003a00020037008000eb000100370065
:10206000110020000804e8000000eb000300370026
:102070006a02b900020052000003b0003801fb0000
:1020800003fd2f0082814100e98f5100f8ff3600e7
:102090000100e00001003a000000ea004f0578006e
:1020a0004f04be00000006008000780010002000f1
:1020b00002022000828f500004003200e9805000ac
:1020c000e48f5000010036000000eb000000060025
:1020d000889fbe008a9fbe00000578008a047800b1
:1020e000194478000905e8000800fb00eeff07002e
:1020f0000000e000f9ff3a00b0c2b300804f540086
:1021000004003200d0c2b300804f540006003a00f1
:10211000020037000004eb00010037001800200027
:102120008904e800010037000004eb006000b800fb
:1021300006003700a200200003002000e70b070084
:10214000cfd5de000a0050008b8058003905fb0017
:102150000a03b100e90f5500f6ff36000800e00061
:1021600002003a0060001000e08018004f05be0039
:102170004f04be0000000600800178000200370016
:10218000b15978000201e9000200e000fcff3a00ca
:1021900000000600889fbe008a9fbe008004780071
:1021a0000200e0005b00320001407800814c7800c2
:1021b00082814400f1f99f00e20f51005500360082
:1021c00091449800a1449800e1f99f00d1f99f0043
:1021d000e60f51004f003600b1449800c1f99f004e
:1021e000e80f51004b0036000905ea006305650061
:1021f0000a8444000a055100c1ff2f000105650053
:102200000080fb008000eb00121020001310200063
:10221000b20b0700008cbe000a01440060b99f00a9
:1022200071b99f00e80f55003a003600200498006d
:1022300031049800400498005104980020b99f0090
:1022400031b99f0040b99f0051b99f00f80f550068
:10225000300036006004980071049800000c98006b
:10226000110c9800200c9800310c9800400c98003c
:10227000510c980020b19f0031b19f0040b19f00e8
:1022800051b19f0060b19f0071b19f0000b99f00e4
:1022900011b99f0064016400780141000204440008
:1022a000020555006011b8000203be000002be0026
:1022b0000403be006022b80000007200818072003a
:1022c000020173008381730010003700009cbe0080
:1022d0000294be00400498005104980062049800e3
:1022e00073049800000c9800110c9800220c9800c0
:1022f000330c9800400c9800510c9800620c980028
:10230000730c98000a02b1000802b000ff0f5500dc
:10231000eeff3e00090078004f05be004f04be00ee
:1023200000000600889fbe000004be000800780080
:102330001800070000004400890078000e00070024
:10234000080078004f04be000000060081017800fc
:102350000002780030417800b14f510002003a008d
:102360000204e000f9ff3a009480fb001380fb00b8
:102370000080500000000600881f780000047800ec
:102380000800780096040700080078004f047800e1
:102390000000060080007800040037003104e000ef
:1023a00002003a0000005100000006000101780020
:1023b0000108a300f9ff3a0081017800310178009b
:1023c000f4ef2f00020242000281ea0002016200e3
:1023d0000408280004016100f7ff32008300780040
:1023e000010178003104e000fdff3a0000005100d7
:1023f000000006008001eb000200e0001000320047
:102400000002780001037800b44178000304e00082
:1024100008003200b14278000504e00005003200f7
:1024200082034000848f53000200320085cf5100a8
:10243000f4ff32008381fb001680fb008081510095
:102440000300780000000600881f78000004780070
:102450000800780082040700080078004f04780024
:10246000000006008201780001017800f1ff2700da
:10247000be043700ec874700889fbe008a9fbe00dd
:102480008c9fbe008e1f7800000678000104780043
:10249000180790002805900098067800cdb79f0097
:1024a000b80590003202be002203be000400be0048
:1024b0000601be004f18de006011b8008000eb007e
:1024c000d0b79f00e1b79f00f2b79f0083bf9f0086
:1024d000800478000900e000060032006000b800c7
:1024e0006011b800040250008582580006035900ac
:1024f000878359000e00e000020035000d10a10096
:10250000cdb79f000900e00005003a004fb09700ea
:102510000028a30002003a000038a30002003200a5
:102520008a00e900010037008a007800f88157002e
:10253000a200200008007800860007000900e000e3
:1025400003003a00cfb097000128a3000800320032
:102550000000e90000814500b1c2b3000900e000bd
:1025600001003200d1c2b3000149780005003700f4
:102570000138a300030032000000e90001c2b300eb
:1025800081757800480190000201e90000015100c6
:10259000808045004fb297008a0178000c007800d7
:1025a000300207009c0090000188a3000400320064
:1025b00098009000810f500001003d00010078005c
:1025c0004f0778004f06be004f05be004f04be0007
:1025d000cf00b100000006000200fa00889fbe0094
:1025e0008a9fbe0080057800010478000200780010
:1025f000180190002805900098007800b1bf9f0056
:10260000b80490000200e000020035000110a100b3
:10261000b1bf9f00ea815700820020008a00780045
:102620003002be002003be00080078004900070009
:102630003fb99700f0006100030032000000e9009c
:1026400001c3b300817478003fb99700e8006100ce
:10265000030032000000e90001c2b3008174780079
:10266000480190000201e90000015100808044000f
:102670003fba97008a0178000b007800f901070043
:102680009b0090000188a300040032009800900095
:10269000810f500001003d00010078004f05be0091
:1026a0004f04be000080fa0000000600ea874700e1
:1026b000889fbe008a9fbe008e1f780000047800ad
:1026c000030078007287570084e2260055c7260071
:1026d000049fbe00c3962200030f78006c8757004a
:1026e000004feb0011059000a104900091057800c7
:1026f0000200e0000200320002077800010037000b
:10270000728757000000e00002003a000e007800d7
:1027100020ff07000a00e000030035008a0f500088
:10272000010036000a0078000b0278008901780069
:10273000000178008e00780008007800c9010700c9
:102740004f0778004f05be004f04be00af00b10038
:1027500000000600f4874700889fbe008a9fbe00e5
:102760008c9fbe008e1f78000605be000404be00cc
:1027700081bf9f0082b79f00f3b79f00b000900019
:10278000e1b79f001301780092b79f009006900078
:10279000400090000000e900000678000d00e00015
:1027a00001003d001d0020008040eb00efb19700cc
:1027b000817178001e0020001f0037000c06e90020
:1027c0000fb09700cf80de006109b900a0b79f006d
:1027d000b1b79f00c2b79f00d3b79f000203be00ee
:1027e0000002be000800be000a01be00b8fc0700df
:1027f000000778000e4078000043b000efb097006b
:1028000080707e008d06e9000fb997000201e90093
:1028100082bf9f002fb29700bfb297004fb39700bf
:10282000dfb397000800be000a01be00a1fc07004c
:102830000205be000004be000c00e0000d003400e4
:10284000e00f5400e08f5c00e00f5d00e08f5d0062
:10285000daff3a000d00e000d8ff3c008fb9970086
:102860000300e000030034001fb097000018a3002d
:10287000d2ff3a000e00e00002003a00ffb09700dd
:102880001140a1000c0078004f0778004f06be00f1
:102890004f05be004f04be004f01b100000006000e
:1028a0000200fa00889fbe008a9fbe0000057800e3
:1028b000010478000200780018019000a80490003c
:1028c00098007800b1bf9f00b80590000200e000ba
:1028d000020035000110a100b1bf9f00ea8157003e
:1028e000a2002000890078003002be002003be0054
:1028f0000800780097ff0700480190000201e900f6
:1029000000015100808045003fba9700890178009e
:102910000a007800530107009a0090000188a30084
:102920000400320098009000810f500001003d002b
:10293000010078004f05be004f04be000080fa0081
:1029400000000600fa874700889fbe008a9fbe00ed
:102950008c9fbe008e1f78008004780001047800f0
:10296000820578001801900028059000180778006b
:10297000b80090000200e000020035000e10a10037
:10298000010037001200200070006700e0b79f00d0
:10299000090032003b02be002b03be00e00f5200d4
:1029a000e08f5a00e00f5b00e08f5b000200320016
:1029b0008a86e900010037008a067800e80267008d
:1029c000f5b79f00010032008d06e9003b02be0012
:1029d0002b03be00e4af9f00f5af9f0086b79f00ba
:1029e00097b79f00480690000c06e9000040eb00f6
:1029f00080707e00efb297007fb297008903780065
:102a000081047800d8af9f00020478008bbf9f003c
:102a10008a057800034578002a0037000c06e90093
:102a20006fab97006f006300e90f500002003c009d
:102a30000003b000010037007005b0000a03fb007e
:102a40001604b100f90f53000c003e00000378009b
:102a50000650a0001606b100f90f530007003e0013
:102a6000b4b79f00a5b79f00c7b79f003803070002
:102a7000cfb39700afb297003fb2970080747e004b
:102a80000804e9008d06e9006fa89700ffa89700e9
:102a90000fb197009fb19700460020008301d1003d
:102aa0000281d3008180d3000080d3000603e900b7
:102ab000faff3a00e0af9f00f1af9f0082b79f009e
:102ac00093b79f00e10f56000f0034006fa89700e6
:102ad000ffa897000fb197009fb19700e00f50003b
:102ae000e08f5800e00f5900e08f5900cbff3a000b
:102af0000800e000c9ff3c000d00e00002003400c7
:102b00000e18a300c5ff3a0089007800f4b79f00b3
:102b1000870478005fac97008a4178000b05780045
:102b20008fbd97000500e000100032003b02be00a0
:102b30002b03be00e4af9f00f5af9f0086b79f0058
:102b400097b79f00e00f5200e08f5a00e00f5b0044
:102b5000e08f5b00050032000c06e90083707e0008
:102b60000c06e90000c3b30080707e00ffb297003e
:102b70000500e000030032000c06e90000c2b300cb
:102b800080707e00480190000201e9000c015100b4
:102b90008c8040000e0278008a01780009007800dd
:102ba000b0000700990090000188a30004003200e3
:102bb00098009000810f500001003d000100780056
:102bc0004f0778004f06be004f05be004f04be0001
:102bd000af01b10000000600820178000101780019
:102be000f1ff27000903370084082000848f50007c
:102bf0001d0032000d003c0014082000848f50009e
:102c00002700320002003c000408200004003700c6
:102c100024082000848f5000340032004408200033
:102c2000848f500043003a0036003700040a200029
:102c3000848f50002700320004003c00040920006b
:102c4000848f50003b003a0028003700020c20001f
:102c5000828f50002f003200020f2000828f500020
:102c600034003a002b0037009380e9000200e000b6
:102c700005003200810978001102fb00cfa2de00be
:102c8000612bb900280037008109780011427800d3
:102c90000482fb008002eb006033b80022003700a2
:102ca00013027800e40052000200e0000500320048
:102cb000810978001102be004fabde008603780068
:102cc00019003700810978001102be006033b80096
:102cd000150037009380e90081097800110278001f
:102ce000cfa2de00612bb9000f00370093027800fd
:102cf000e8805200810978003102be002103be0045
:102d0000090037009380e9000200e0000200320071
:102d1000f1ff37009380e900810978001102780003
:102d20008002eb006033b8000498be000690be003d
:102d3000100005000000050044082000848f5000aa
:102d40002500320008003c0014082000848f500049
:102d50001400320024082000848f50002400320028
:102d6000040820000c00370004092000848f500064
:102d70001f00320004003c0084082000848f5000b3
:102d800024003a000e003700040a2000848f50000f
:102d900011003200040c2000848f50001d003a0006
:102da0000d0037009380e9008109780091007800d8
:102db00001087800cf91de008288be001400370041
:102dc0009380e9008109780091007800010878007b
:102dd000824878000e0037009380e900810978006e
:102de0009100780001087800820878000800370018
:102df0009380e9008109780091007800010878004b
:102e00006112b900612bb9008498be008690be00a3
:102e10001000050000000500889fbe000004780037
:102e20004800900082047800808f54000100360032
:102e3000800478000901780058009000cefc07005b
:102e4000580090000900400050049800c80090000d
:102e500089845000490498000048eb004f04be00ec
:102e600000000600f2874700889fbe008a9fbe00d0
:102e70008c9fbe008e1f78008004780001057800ca
:102e800002047800830578006107620002003a00be
:102e90008b0f540008003900080178008a00780080
:102ea00009007800dcff07008b0f54000200390096
:102eb000880578001e003700088655000c01780050
:102ec000f00f560001003600020120000102200030
:102ed0007e805700affc07008c06780005003700a5
:102ee00002012000fe80570009007800caff070099
:102ef000f0865600ef8f5600f9ff3e004461de0079
:102f000000ff2f000091b90002014600fe8057002b
:102f100009007800c0ff07000e00e00004003a003e
:102f2000080178008a00780009007800baff0700dd
:102f30000b0078004f0778004f06be004f05be001b
:102f40004f04be002f01b100000006000000050084
:102f50000000050000000500000178000040eb00c3
:102f60008080fb00818040004325210063c27800ff
:102f70000404e00003003a005025210060c07800fe
:102f80000000060092017800934f520004003a00be
:102f90005025210060c078000309e80001003700d7
:102fa0000040e800ea4f5000edff36000000060048
:102fb000f6874700889fbe008a9fbe008c9fbe0098
:102fc0008e1f7800000578000104780083057800e2
:102fd000040678000000eb00c0b79f008080eb0083
:102fe000d1b79f00e0b79f00f2b79f000008200014
:102ff00080bf9f0098007800010078008004eb00fb
:10300000010037008904e800304178000204e00044
:103010000300320053c2b300834f5100f9ff3a005e
:103020000900e00004003200090178000a0078007d
:1030300079ff0700188c44001807780050c2b300cd
:103040009e4f10003f013a000e07e8000e0c78007a
:1030500010003700cfb097000100a0000b00370030
:10306000cfb097000110a00008003700cfb0970044
:103070000120a00005003700cfb097000130a0006c
:1030800002003700cfb097000140a000c1b79f00f9
:10309000000ce8001800780090407800b2c2b3003d
:1030a00082cf5000f1ff320007003c0002c2b300a3
:1030b00082cf5000f0ff320032c2b30082cf500006
:1030c00007003a00efff3700d2c2b30082cf5000b2
:1030d000e0ff320002c3b30082cf5000e0ff3200b5
:1030e000a2c2b30082cf50000d003a00000ce800ed
:1030f0001c80e900000e780010007800e0b79f0007
:103100000000e0000f003d00cfb097000100a200da
:10311000c1b79f000000ea00e0b79f000900370038
:10312000bbfb0700e0b79f0001003700000ce80080
:10313000180078009000fb000103b100e98f5000f7
:10314000faff36004fb097000008a30002003200db
:103150000010a100c0b79f0018007800e1c2b300c2
:1031600090cf100016003a008000eb00d1b79f000e
:103170000000e800000c7800a1c2b30090cf10005e
:1031800006003a00000ce8001c80e900000e780000
:1031900010007800d0b79f00090037009cfb0700a3
:1031a000d0b79f0001003700000ce800180078003d
:1031b0009000fb000103b100e98f5000faff3600d8
:1031c0000800780064ff0700804678001800780047
:1031d0001000fb005701070091062000810f5000ee
:1031e0003800320012003c0041062000810f5000e0
:1031f000340032000a003c0011062000810f50000c
:103200002000320031062000810f5000a000320063
:1032100051022000810f5000bc003a00b40037007a
:1032200071062000810f5000b8003c008800370074
:1032300001072000810f50005c00320007003c00b5
:10324000e1062000810f50007a003200f1062000d4
:10325000810f5000ad003a003900370051072000bf
:10326000810f50002700320081072000810f50009d
:103270004200320031072000810f5000a3003a00c5
:103280008f0037008d80fb000c01780000fe2f00be
:103290000f004000820107000000e000a80032009b
:1032a00018007800000ce8009041780002fe2f0022
:1032b0000f014100f88057000a007800b4010700b0
:1032c0000e0037008d80fb008c017800120020007a
:1032d00000fe2f000f00400043fe07000000e0004a
:1032e00097003200180ce80002fe2f000f01410089
:1032f000f88057000a0078005efc070080844400d4
:10330000900037008d80fb008c0178000001eb00fd
:1033100000fe2f000f00400033fe07000000e00019
:1033200087003200180ce80002fe2f000f01410058
:10333000f88057000a00780059fd0700efff3700ba
:103340008d80fb008c0178000001eb0000fe2f0057
:103350000f00400024fe07000000e000780032006b
:10336000180ce80002fe2f000f014100f880570002
:103370000a00780098fc0700e0ff37008d80fb0012
:103380008c0178000001eb0000fe2f000f004000d0
:1033900015fe07000000e000690032001800780008
:1033a000000ce800904178001c0037008c01780088
:1033b0000001eb00010f200000fe2f000f00400075
:1033c00009fe07000000e0005d003200180ce80074
:1033d0000fb097009fb097002fb19700bfb1970033
:1033e000e00f5000e08f5800e00f5900e08f5900c7
:1033f00009003a00cfb597006fb49700c0242100b0
:10340000e4fb07000b0278008801780000017800d7
:10341000c12421004700370083c7b30002fe2f00fc
:103420000f014100f88057000a00780045fd0700b1
:10343000b2ff37000b8144008d80fb008c017800c7
:1034400000fe2f000f0040003bfe07003c0037004d
:103450008d80fb000c01780000fe2f000f00400063
:103460000f0107000000e00035003200180078006e
:10347000000ce8009041780002fe2f000f0141008f
:10348000f88057000a007800e40307009bff37002c
:1034900000c8b30080cf560029003a00180ce8009d
:1034a0001c80e900000e780010407800e0df9f00eb
:1034b00013002000e2fd2f000f014100080037003b
:1034c00000c8b30080cf56001d003a00180ce80079
:1034d0001c80e900000e78008001eb0010017800ec
:1034e000f88057000a00780070fc070083ff37005f
:1034f00000c8b30080cf560011003a00180ce80055
:103500004fb29700efb19700080037000e0c78001b
:103510000000eb00c0b79f00e0b79f000080eb0009
:10352000d0b79f000002eb00840178001200200059
:10353000212521000a0078004afe07006fff3700ae
:10354000180ce800090078004f0778004f06be000d
:103550004f05be004f04be006f01b1000000060021
:103560008200fa00889fbe008a1f7800000578005c
:1035700082047800c13f9f000004eb001000370078
:103580000902780088017800a2f72f000f0141009e
:1035900081f72f008f8040000a00780084fe07002a
:1035a00008004000880f500004003d00b0042000d7
:1035b000e09588000084eb000400370000047800e8
:1035c0004f3897001004e000edff3a000800780043
:1035d0004f0578004f04be000080fa00000006008e
:1035e0000101780080017800008268000408a300cf
:1035f000050032001300370032407800805978000f
:103600000004e00014003200030278000208a30066
:10361000f9ff3a0003007800010037000318780032
:1036200082007800b2017800f5ef2f00838242001b
:103630000382ea0004826200050828000502620095
:10364000f6ff32000002780031417800025878001d
:103650000204e000fbff3a000400780000000600ce
:10366000881f78008101780000027800808268005d
:103670000508a30002003200210037000201e90022
:1036800003007800040478000308a3000700320058
:103690000200e00021003200b3407800015a7800b7
:1036a0000104e000f5ff3a00020037000200e000ec
:1036b0001a0032001004e00003003a00170037003f
:1036c000031c78000281e90080007800e10f5100be
:1036d00008003600b0017800f5ef2f008382420029
:1036e0000382ea00048262000508280005026200e5
:1036f000f3ff320008007800010037000201e90002
:10370000000478000200e00004003200b1417800bb
:10371000035878000304e000f8ff3a008000eb0053
:10372000080078009bfa0700080078004f04780032
:1037300000000600f1fb2f0080804000f98f500050
:1037400001003e000050a00000000600f9ff370015
:10375000f1f92f0080804000f98f500001003e00f9
:10376000f005b20000000600f9ff37000f04b000ba
:103770008e1f780002027800030178000000e0004c
:103780000200320000077800020037000efc2f0014
:103790000f0747008002eb000100e000010032004b
:1037a0008102e9000f007800e003b1001d0009006c
:1037b0000018eb000080eb0090a79f002310200072
:1037c000a3a79f00bea79f00c1a79f00d5a79f00ea
:1037d0000100e00003003d00b1042000e1958800f5
:1037e00007003700004feb00fea79f00eea79f00e9
:1037f0008400780020fc2f000f00400047000700e5
:103800004f0778000f04b10000000600f287470060
:103810008e1f780002027800030178000000e000ab
:10382000020032000007780001003700728757005d
:103830008002eb000100e000010032008102e9009b
:1038400070805700060009000018eb000080eb00b4
:1038500080bf9f002310200093bf9f00aebf9f003a
:10386000b1bf9f00c5bf9f000100e00003003d0005
:10387000b1042000e195880006003700004feb00fe
:10388000eebf9f00debf9f0084007800708057006d
:10389000300007004f0778002f01b100000006003c
:1038a000881f78000004780000082000808f5000f6
:1038b0001700350010082000808f50000b003400e6
:1038c00030082000808f500011003a0092007800ec
:1038d00068805000000978003002be002003be005e
:1038e000049cbe000694be000700370092027800d8
:1038f00064805200000978001000be00ac0507008b
:10390000009cbe000294be001000200001003700a1
:103910000000eb004f047800000006000200fa00ef
:10392000881f780000047800e2bf9f006481570080
:10393000080078000aff0700980090000148a300e3
:10394000010032000080eb004f0478000080fa0094
:10395000000006000200fa00881f780000047800ca
:10396000e2bf9f006481570008007800fcfe07005a
:10397000980090000148a300010032000080eb0095
:103980004f0478000080fa000000060000000600e6
:103990003e00fa00889fbe008a9fbe008c9fbe003a
:1039a000100798008346780011007800400f9800b7
:1039b000910190004307980021029000240f980085
:1039c000c1029000050f7800b1009000611f9800bf
:1039d0003204be002205be00281f9800391f98003f
:1039e0004a1f98005b1f98006022b8006033b8003f
:1039f0000800be000a01be00630507000000e000e9
:103a000009003d000800be000a01be0003f0a2004c
:103a1000201f9800311f9800421f9800531f9800e4
:103a2000d0c2b30004003700ce0890000128a300e4
:103a300009003200b0c2b3006e199000004978004e
:103a4000ae0990008301e900330f980014002000b4
:103a5000540f980010003700ce0a90000538a300dc
:103a60000900320000c2b3006e1b9000004b7800ca
:103a7000ae0b90008703e900370f98001800200074
:103a8000580f980004003700ae0c9000390f9800d2
:103a90000005eb005a0f98002e189000be189000f9
:103aa0004e199000de199000b8ff0700f4ff2f00b8
:103ab000f5ff2f00f6ff2f00f7ff2700040260003c
:103ac0008582600006036100878361006000b800a2
:103ad0000200200003ff27000020e10001a8e10010
:103ae00002b0e10003b8e1000c003a008d06fb00d3
:103af0001d04b100ee1d9000de089000018045001d
:103b000081292100f98f560001003600c1292100ca
:103b100019fa0700c02921002f0237000020e10018
:103b200001a8e10002b0e10003b8e1000c0036009a
:103b30008d06fb001d04b1006e199000de09900097
:103b400003004100012a2100f98f560001003600d0
:103b5000412a210008fa0700402a21001e023700ee
:103b600000c3b3006e1a9000de0a900000f27a00e3
:103b70000500e800000142008d00fb00f6fb2f006d
:103b8000068340002607980081c7b300f90f530051
:103b900001003e0081c5b300014978000000e80043
:103ba000500f98006022b8006033b8002e189000c3
:103bb000be1890004e199000de199000f204070024
:103bc0000000e0005e0032008003eb006044b800bb
:103bd0000a0020000bff230068079800790798006f
:103be0000a0f98001b0f98000706780005003700a1
:103bf0000c06e8006e0c9000fe0c90000e15900074
:103c00009e1590000802be000a03be000800be0018
:103c10000a01be003d0507000002be000203be000f
:103c2000640f9800750f98000617980017179800f2
:103c30002e189000be1890004e199000de199000ca
:103c4000d10407000000e000e9ff3d006c0f980080
:103c50002a0037006022b8000600200007fe23007b
:103c60000800be000a01be00220607006022b8005c
:103c70006033b800c40407000000e00016003a00fa
:103c80006022b80006002000073524000800be00ae
:103c90000a01be00170607000004be000205be00b0
:103ca0006022b80006002000073524002e1890007e
:103cb000be1890004e199000de1990000d06070006
:103cc0000002be000203be00241f9800351f9800aa
:103cd000461f9800571f98006022b8000600200079
:103ce00007fe23000800be000a01be00010607000f
:103cf0000004be000205be000c06e9000802be007a
:103d00000a03be002e189000be1890004e199000b5
:103d1000de1990009c0407000000e000cdff350094
:103d20000800be000a01be006007980071079800f5
:103d3000020f9800130f98006c0f980009003700cd
:103d40008000eb00610f98006022b80006002000a0
:103d500007ff23006407980075079800060f980076
:103d6000170f9800ce029000800120000500e000af
:103d7000010035004e0090000000e8003007980078
:103d80006e049000fe0490000e0d90009e0d9000b9
:103d900068179800791798000a1f98001b1f980051
:103da0002e1c9000be1c90004e1d9000de1d900049
:103db0000006eb003a0037006e129000fe129000f1
:103dc0000e1b90009e1b90000800be000a01be0062
:103dd00019050700710707000002be000203be00bc
:103de0002417980035179800461798005717980021
:103df0008e04070080027800550798006e1290002c
:103e0000fe1290000e1b90009e1b90002e10900042
:103e1000be1090004e119000de119000b505070015
:103e20000002be000203be000800be000a01be0080
:103e3000b00407000004be000205be006022b80006
:103e40000600200007fb23006e109000fe1090007b
:103e50000e1990009e199000a60507000002be00f2
:103e60000203be006417980075179800061f98009b
:103e7000171f98000c06e800ce0290000500e00035
:103e800007003d006022b8006033b8000800be00a3
:103e90000a01be003c0407000000e00004003200fc
:103ea0003e039000860f5600c3ff35000100370027
:103eb0003c0798006022b80006002000070224009a
:103ec0006e109000fe1090000e1990009e19900048
:103ed000880507000002be000203be0064179800b8
:103ee00075179800061f9800171f98000800be005d
:103ef0000a01be00240407000000e0000d003500a8
:103f00006e129000fe1290000e1b90009e1b9000ff
:103f10000800be000a01be001b0407000000e0000c
:103f200011003a00de0290000508a30008003200ec
:103f30000d0037006044b8006055b800681798005d
:103f4000791798000a1f98001b1f98000600370079
:103f50006000b8006011b8006017980071179800f1
:103f6000021f9800131f98006e129000fe1290001e
:103f70000e1b90009e1b90002e189000be18900003
:103f80004e199000de199000600407000002be0088
:103f90000203be006417980075179800061f98006a
:103fa000171f980079fe07000203be000002be0042
:103fb000f0ff2f00f1ff2f00f2ff2f00f3ff27008b
:103fc000000462008184620002056300838563004f
:103fd000281f9800391f98004a1f98005b1f9800ff
:103fe0006000b8000200200003ff27000040e1004d
:103ff00001c8e10002d0e10003d8e100bbfe3200bd
:10400000be0c90008984e900291f98005e0e900084
:104010008006eb005d0798002d1798006f003700b1
:104020006e029000fe0290000e0b90009e0b90001e
:104030006e109000fe1090000e1990009e199000d6
:104040007d040700d50607000004be000205be007f
:10405000f6030700800078000100e00006003a0047
:104060002e1090000000e000030032008d06e800f2
:104070003d0f9800330037005e0190000200e00021
:104080000c003a00ae1190000300e000090032007d
:10409000e0c2b3006e1a900000727e000c06e800c9
:1040a000ae1a90008502e900251f98001600200036
:1040b00056079800ee1b90000c8143000d0078001d
:1040c000070278000300370003c3b30003597800e8
:1040d0000000e9000000e000fbff3a00300f98000c
:1040e000641f98000d064600e98f500003003c0055
:1040f000000320000100400002003700700520008e
:1041000001004000ae009000f98f500006003e0014
:10411000800078000150a0001106b100f98f500016
:1041200001003e008afd07006e19900000717e00bc
:104130000c06e8008d86ea00ae1990008d814100e2
:10414000231f98006e029000fe0290000e0b90005c
:104150009e0b90000800be000a01be00e5040700a7
:104160000002be000203be006e109000fe10900020
:104170000e1990009e199000de0307000002be0099
:104180000203be006417980075179800061f980078
:10419000171f98006022b8000600200007fb2300cc
:1041a0006e009000fe0090000e0990009e099000a5
:1041b000d00407000004be000205be006807980096
:1041c000790798000a0f98001b0f9800ae14900012
:1041d0008904e90029179800be0e90002e15900062
:1041e0000a00ea00be0590008b0f500004003d005d
:1041f0009e00780065805000800f560088ff3900cf
:104200005e0190000200e0001e003a000d00e00098
:104210007d003400ce0190000300e0007a003400fd
:104220004e0a90000408a30077003a00ee1a9000ae
:104230008c804200e0c2b300804878000d00780016
:104240008501780002c3b300826878000000e900ad
:10425000fcff3a00631f98000c8646000c06e8003d
:104260002e1b90000600e9000d005000201f980052
:1042700004003700e0c2b300ee1b900080737e00a4
:104280000c06e8006e1c90000c0044000048eb0097
:104290009e0478008900e9000041eb0002f47800f8
:1042a0008001eb006e0d90000a00e00003003d006d
:1042b0000a05ea006a0f980013002000120020008f
:1042c0006e0a9000810378002e1b90006e1c9000f7
:1042d000800678000900370081037800a5002000df
:1042e000110009000502d8000002be000543b0001d
:1042f00005f47b000201e9000603e9008700e900fc
:104300000400e000f4ff3a00e10f5100f2ff320038
:10431000261f9800681f98000d00780001024400d5
:10432000b2c2b3000300e00001003200d2c2b30009
:10433000024a78000101e900ee19900082804100f4
:1043400003c7b3002e029000f90f520001003e0097
:1043500003c5b30083487800820f560001003d007a
:1043600005f80700ce0a900063806200e20f50005b
:1043700018003a002e1b90000684e9004240a90074
:10438000140034006e18900002f80700800044000a
:104390008100e800ee1b90008180430087017800d7
:1043a00002003700e36078000000e900de0c9000b6
:1043b000890f5000fbff3d00631f980009804100fa
:1043c000080178000103200072f707000005eb00e8
:1043d0002a0f98006e189000eef707004e0a900022
:1043e000ae09900000017800ee1890001e009000c9
:1043f0009cfa07004f06be004f05be004f04be00ea
:104400000080fa0000000600ce0d90000b48a300cb
:1044100098ff3a009bff3700000006004200fa00b8
:10442000889fbe008a9fbe008c9fbe002007980018
:10443000110f9800034f980011007800400f98006a
:1044400091009000610f98009e099000a3019000d8
:10445000330f98001e0a9000440290001407980041
:104460009e0a9000b5029000052798003204be0015
:104470002205be006022b8006033b8000800be000c
:104480000a01be00c00207000000e00003003d007a
:104490000bf0a200d0c2b300040037004e0b900016
:1044a0000628a30009003200b0c2b3008e2390009a
:1044b000804b78003e0890000000e900700f9800e3
:1044c00011002000510f9800100037004e09900095
:1044d0000238a3000900320000c2b3008e21900010
:1044e000804978003e0a90000402e900740f9800a9
:1044f00015002000550f9800040037003e0b900077
:10450000760f98008003eb00570f98000800be005c
:104510000a01be00c0ff0700f4ff2f00f5ff2f00c7
:10452000f6ff2f00f7ff270004026000858260007d
:1045300006036100878361006000b800020020006c
:1045400003ff27000020e10001a8e10002b0e10024
:1045500003b8e10011003a000e4890008000fb0013
:104560001104b1000e219000de099000030041000b
:10457000f98f500002003e00812a2100010037001f
:10458000c12a21007cf70700c02a210081f707001b
:104590005e0a900004014000150037000020e10091
:1045a00001a8e10002b0e10003b8e1001300360009
:1045b0008e4a90008500fb001104b1000e2390008c
:1045c000de0b900007004300f98f500002003e0010
:1045d000012b210001003700412b210066f7070065
:1045e000402b21006bf70700de089000010140001e
:1045f0004e0a9000be099000500237006022b800b9
:104600006033b8000800be000a01be005e02070069
:104610000000e0006a0032006022b80006002000be
:1046200007ff230044179800551798006617980055
:10463000771798008006eb000800be000a01be0054
:10464000001f9800111f9800221f9800331f980028
:104650000e269000070037008d06e8000802be0015
:104660000a03be0044179800551798006617980073
:10467000771798006022b800060020004702240047
:104680004e109000de1090006e119000fe11900010
:10469000980307000004be000205be000002be0031
:1046a0000203be000e1890009e1890002e19900074
:1046b000be199000340207000000e000e6ff3d0054
:1046c0000c2798000006eb004e149000de149000ba
:1046d0006e159000fe1590002500370040ed2f006c
:1046e000808f560019003d000c00e00016003a00d3
:1046f0006022b80006002000073524000e18900044
:104700009e1890002e199000be19900079030700a2
:104710000002be000203be00041f9800151f98008f
:10472000261f9800371f98006022b800060020005e
:10473000073524000800be000a01be006d03070013
:104740000004be000205be001c0020006022b8006c
:1047500006002000470224000800be000a01be0037
:10476000b50207000004be000205be008d06e90088
:104770000802be000a03be000e1890009e189000aa
:104780002e199000be199000ff0107000000e00004
:10479000d2ff35000800be000a01be004017980095
:1047a0005117980062179800731798000e1c90001c
:1047b0009e1c90002e1d9000be1d9000080037002a
:1047c0006022b8000600200007ff2300441798006d
:1047d0005517980066179800771798008006eb0029
:1047e0008e4a90000500fb00d2fb0700104f980096
:1047f0006e0b9000600020000600e0000100350014
:104800006e08900071c6b3009e4b900081cf53009c
:104810000a003a00ee0890000100e000cf013200eb
:10482000cf0137008d0f5000d3013c00001f9800ce
:1048300052c6b300425f98001e0037009e499000a8
:10484000435f98000200370064c6b300445f9800dd
:104850000000e800001f980060c6b300ce5a900028
:1048600080cf520013003a000d00e00008003d0028
:104870006000b8000200200003ff230040179800ea
:104880005117980062179800731798008006eb0084
:1048900061c6b300415f980070c6b3001e49900026
:1048a000804f5100030032008e1990008d8141002d
:1048b000031f98004e129000de1290006e139000bd
:1048c000fe139000441f9800551f9800661f980023
:1048d000771f98000800be000a01be00001798006c
:1048e0001117980022179800331798000006eb0064
:1048f0000802be000a03be0054079800650798002e
:1049000076079800070f9800310037004e1a900084
:10491000de1a90006e1b9000fe1b90000e1090009f
:104920009e1090002e119000be11900042020700d0
:104930009a0407000004be000205be00bb01070088
:1049400080027800250f98004e1a9000de1a900021
:104950006e1b9000fe1b90000800be000a01be0006
:10496000e40207000e1290009e1290002e13900099
:10497000be139000df0107000002be000203be006c
:1049800007f0a20004179800151798002617980042
:10499000371798006022b800060020004702240064
:1049a0004e189000de1890006e199000fe199000cd
:1049b000210207000002be000203be00441f98004f
:1049c000551f9800661f9800771f98000c06e80096
:1049d0008e1a9000850f5600ccff35005e049000c3
:1049e000ee0490007e0590008e0d90006022b800cd
:1049f00006002000470124004e189000de189000a9
:104a00006e199000fe199000ba0207000002be0065
:104a10000203be00441f9800551f9800661f9800af
:104a2000771f98000e1090009e1090002e1190009d
:104a3000be119000540107000000e0000f00350097
:104a40004e1a9000de1a90006e1b9000fe1b900024
:104a50000e1090009e1090002e119000be1190003c
:104a6000490107000000e00011003a00ae0a900082
:104a70000508a300080032000d0037006000b800f0
:104a80006011b800401f9800511f9800621f9800e5
:104a9000731f9800060037006022b8006033b8002a
:104aa000441f9800551f9800661f9800771f9800b4
:104ab0004e1a9000de1a90006e1b9000fe1b9000b4
:104ac0000800be000a01be00900107000002be00ff
:104ad0000203be00041798001517980026179800c7
:104ae000371798006022b800060020004702240013
:104af0004e109000de1090006e119000fe1190009c
:104b00007c0207000004be000205be000002be00d9
:104b10000203be000e1090009e1090002e11900017
:104b2000be1190001d0107000000e00009003500e3
:104b30008d06e80060c6b300ce5a900080cf5200c8
:104b400008003a000e1b90000603e800061f9800bc
:104b5000110037004e149000de1490006e15900086
:104b6000fe15900050c6b3004e599000804f510082
:104b700009003a000802be000a03be00441f980064
:104b8000551f9800661f9800771f98008002eb0061
:104b900045179800070037000800be000a01be0054
:104ba000401f9800511f9800621f9800731f9800c3
:104bb0004d1798005e0e90000001eb00220f980048
:104bc00032079800520798000d0f78006a003700ee
:104bd0004e1a9000de1a90006e1b9000fe1b900093
:104be0000e1090009e1090002e119000be119000ab
:104bf00091010700e90307000004be000205be00a2
:104c00000a010700e90f5000010034009000200065
:104c1000ce0990000348a3000c003a000000e00019
:104c20000a003a0071c6b3001e4a9000814f52003c
:104c300006003a00ce1290000500e00003003d009f
:104c40002e0b90008606e80023003700be0390007c
:104c50000700e0000c003a00ce1090000100e000d8
:104c600009003d00e1c2b3000e21900001717e00f9
:104c70000c06e800fe0990008301e900730f98001c
:104c800014002000340798008e2290000c8142000e
:104c9000ae0e9000850178000300370001c3b30019
:104ca000015978008d06e9000d00e000fbff3a0095
:104cb000032798002e0b9000060646000043b00024
:104cc00080717e000c06e8000680ea00fe0b900072
:104cd00080834300770f98004e1a9000de1a9000f0
:104ce0006e1b9000fe1b90000800be000a01be0073
:104cf000000207000e1290009e1290002e139000ea
:104d0000be139000fb0007000002be000203be00bd
:104d100007f0a200041798001517980026179800ae
:104d2000371798006022b8000600200047022400d0
:104d30004e189000de1890006e199000fe19900039
:104d40003d0107000002be000203be00441f9800a0
:104d5000551f9800661f9800771f9800ce1290008c
:104d60008502e900451798005e0390000603e800fd
:104d7000560798002d0f9800de0390000e18900043
:104d8000808f530005003d009e0890004100900078
:104d900065005000800f56008dff39009e06780098
:104da0003e0190000200e00007003a00ce099000aa
:104db0000348a30004003200e0c2b3000e229000ba
:104dc00000727e000c06e8008e2290000c804200eb
:104dd0000048eb0051c6b3004e5b9000814f53007a
:104de00038003a009e0390008700e9000041eb0084
:104df00082f278008001eb000d00e00002003d002f
:104e00008d06ea0013002000220020000103780034
:104e1000fe0a90008e239000000478000a003700fc
:104e200001037800a4002000110009008406d800c6
:104e300001027800800678000443b00084737b0090
:104e40000201e9008502e9008600e9000d00e000aa
:104e5000f3ff3a000200e000f1ff3c00750f9800fc
:104e6000072798000800780001824300b2c2b3000f
:104e70000300e00001003200d2c2b300024a780011
:104e80000101e9008e219000828041008e4a90004d
:104e90000502fb001404b10053c6b300f90f520021
:104ea00001003e0053c4b300834878007e0b90009d
:104eb0000683e900760f9800820f560001003d003e
:104ec0002df50700ce0b900063806300e20f5000c9
:104ed00015003a007e0890000000e0001200340047
:104ee0000e2090002bf507008e2190000400370063
:104ef0007e09900082804100e37078000000e900a4
:104f0000de0a9000850f5000f9ff3d00032798004e
:104f1000058041007e099000010320009df40700f8
:104f20000003eb00360f98000e20900019f50700e3
:104f30004e0a9000be099000000178008e2090007b
:104f40002e009000c7f707004f06be004f05be00b9
:104f50004f04be000080fa00000006001000200090
:104f6000e48f46002ffe3d00001f980057c6b30097
:104f7000475f98004ffe37000d00e00032fe35001d
:104f8000001f980042fe37008f1fd1007a020700f1
:104f90008f87e9000000e00000000600809feb0022
:104fa000750207008f87e9000000e000000006009e
:104fb00081037800aaef07000001be006000b8007e
:104fc0000478a30013003a006220e10015003e00bf
:104fd0000d0039008301d1000281d3008180d3000c
:104fe0008301d1000281d3008180d3008301d100ed
:104ff0000281d3008180d3000538b000c42add00cf
:10500000f300b2008381720007f0a70003f0a00054
:105010000000060083ff2700020020006110b90095
:10502000f9ff370003ff2700f7ff37001400fa00ed
:10503000889fbe008a9fbe008c9fbe000004be00f9
:105040000205be00680047000a90be000890be003e
:10505000840207000070a7000bf0a100304320007d
:105060009e02900080825200b0fe2f000028e100d6
:1050700011003d00b0fc2f000028e10015003400b5
:105080001e0990008e0890007e0090000501b0007f
:105090000201d1008180d3000080d3008502e800a6
:1050a000fbff3a000b00e000a9023b00600010008b
:1050b000e0801800a6023700f0ff2f00f1ff270064
:1050c0000b00e000a2023b000100280000002000cd
:1050d0009f0237006000b8009d023700020ab90045
:1050e000001bb9000200b8008100420081004300ab
:1050f000000006008c9fbe008a9fbe00889fbe00f5
:10510000ca0107000bf0a200040037008c9fbe000c
:105110008a9fbe00889fbe00c40107000c48e100c2
:105120000b003a000c40e100020032008b01070046
:10513000400037008b066d003e0032000af0a100ef
:10514000f3012000f2ff2f006110b9003900370091
:105150000c40e100370032000940e1000100360058
:105160007e0107008a856d00cf5dde000b057500ae
:105170000006eb008804fd008904540001003200a1
:105180007d0107000a04e00011003a000800e00079
:1051900028003200040040008580480006014900d4
:1051a000878149000358a300180032008301d10011
:1051b0000281d3008180d3000080d3000c86d3000d
:1051c00001003900610676000804e8001800370085
:1051d000040050008580580006015900878159005d
:1051e000060031000af0a2000c06ea006000180078
:1051f000e080180060011900e081190003003a0006
:105200000004eb000005eb000a0037000348a30090
:1052100007003a000c064600000048008180480064
:1052200002014900838149000804e900f7ff3700c3
:10523000af013700c90137008c9fbe008a9fbe00b6
:10524000889fbe00790107000b056d000940e10051
:105250000a003a000800e000020032000c40e100c1
:1052600006003a000af0a1000c047800f3012000c7
:10527000f2ff2f006110b9009d0037000c40e100e3
:105280009b0032000800e000990032000c48e10069
:1052900002003a000004eb00030037000900e000c0
:1052a00004003a000c0478006000b8006011b800f7
:1052b0008f0037000348a30006003a0000004000ba
:1052c0008180480002014900838149000804e90007
:1052d000f8ff37000748a30006003a000402420026
:1052e00085824a0006034b0087834b008904e9004e
:1052f000f8ff3700fd3f20008d845400090454005e
:105300008a1f7800881f78000004780081047800e4
:1053100002057800830578006000b8006011b800cd
:105320000d042000050037000804440089844c0067
:105330000a054d008b854d0008003100040454001f
:1053400085845c0006055d0087855d008381d20051
:105350008d06d300f4ff3b0007003700040444002f
:1053600085844c0006054d0087854d008381d20061
:105370008d06d300ecff3b000804440089844c00f8
:105380000a054d008b854d000800310004045400cf
:1053900085845c0006055d0087855d000281d20082
:1053a0008d06d300f4ff3b000700370004044400df
:1053b00085844c0006054d0087854d000281d20092
:1053c0008d06d300ecff3b000804440089844c00a8
:1053d0000a054d008b854d0008003100040454007f
:1053e00085845c0006055d0087855d008180d200b4
:1053f0008d06d300f4ff3b0007003700040444008f
:1054000085844c0006054d0087854d008180d200c3
:105410008d06d300ecff3b000804440089844c0057
:105420000a054d008b854d0008003100040454002e
:1054300085845c0006055d0087855d000080d200e4
:105440008d06d300f4ff3b0007003700040444003e
:1054500085844c0006054d0087854d000080d200f4
:105460008d06d300ecff3b000b00e00004003d0084
:105470000404440085844c0006054d0087854d00da
:105480000006eb008301d1000281d3008180d300ac
:105490000080d3000c86d3008301d1000281d300a9
:1054a0008180d3000080d3000c86d300890474006f
:1054b0008b0575008b847400010032006106760054
:1054c0004f0478004f0578000348a30007003a0016
:1054d0000c06460000004800818048000201490097
:1054e000838149000804e900f7ff37000001370015
:1054f0001a0137008c9fbe008a9fbe00889fbe00a5
:10550000ca0007000b056d008a0578000c40e10019
:1055100008003a000900e00082003a000af0a10009
:105520000c047800f3012000f2ff2f006110b90095
:105530007c0037000c48e10004003a0087000700b7
:105540000900e00077003a00f4ff37000800e000af
:10555000740032000900e00002003a007f000700fa
:1055600070003700ed3f20008d8454000904440092
:105570008a1f7800881f7800871f7800861f7800b0
:10558000851f7800841f7800cb19dd00c515de006b
:105590008b8571004b11dd00450dde000a057100a1
:1055a000cb08dd00c504de00898470004b04dd00fb
:1055b0000440b8000546b8008c80400060814e0071
:1055c000044eb8008c8040000d0149008001eb00c2
:1055d0000318ad000456b8000c0141008d8149004c
:1055e0000002eb000420ad000646b8000c014100ab
:1055f0008d81490060024a00054eb8000c0141004f
:105600008d81490060024a000556b8008c81410036
:105610000d024a008002eb000528ad000746b800e5
:105620008c8141000d024a00e0824a00064eb8001b
:105630008c8141000d024a00e0824a004f0678004a
:105640000c5eb8008c8141000d024a00e0824a00e5
:105650000656b8000c0242008d824a000003eb009f
