:0400000069EF0FF0A5
:08000800046ED8CF05F0E0CF33
:1000100006F00001E9CF0CF0EACF07F0E1CF08F0DD
:10002000E2CF09F0D9CF0AF0DACF0BF0F3CF12F01C
:10003000F4CF13F0FACF14F0F5CF15F0F6CF16F099
:10004000F7CF17F000C00EF001C00FF002C010F0A3
:1000500003C011F09DA030EF00F09EB075EF00F0EE
:10006000A0A236EF00F0A1B2BCEF00F0F2A83CEF86
:1000700000F0F2B26FEF00F09DAA42EF00F09EBADE
:100080008EEF00F0A3A048EF00F0A4B07EEF00F0E8
:100090000EC000F00FC001F010C002F011C003F05C
:1000A0000CC0E9FF07C0EAFF078E08C0E1FF09C0E6
:1000B000E2FF0AC0D9FF0BC0DAFF12C0F3FF13C082
:1000C000F4FF14C0FAFF15C0F5FF16C0F6FF17C005
:1000D000F7FF045006C0E0FF05C0D8FF1000F29201
:1000E000212A218EF29248EF00F0800ECF6ECE6A68
:1000F000010E24262B6E9E9048EF00F0010E806FBB
:10010000A49048EF00F09EAAFED7ABCF1CF0AECF74
:1001100001F01CA202D0AB98AB8812007C5309E11D
:10012000A192920EB36E7C0EB26E040E7F6FA0820F
:100130007E6B7C517C2B036A3F0FE96E000E03201F
:10014000EA6EEACFC4F0E9CFC3F0DDDFC4C0EAFF56
:10015000C3C0E9FF01C0EFFF7C513B0803E2020E80
:100160007D6F7C6B7C51040802E1010E7D6F000005
:1001700000009E9A48EF00F07F5301E07F077F5315
:1001800002E1010E7E6FA19248EF00F0EA6AB40E20
:10019000E96EEF5011E0020E016EBF0E006E04001A
:1001A000002EFDD7012EF9D7960E006E002EFED739
:1001B00000D00400EF2EEFD712000E01F56BF59F73
:1001C000F59DF597F599F597F585F583F591F66920
:1001D000EF0EF76FFC0EF86FA70EF96FFA6B8B0E30
:1001E000F46FA198570EFC6FFD6BFD8FFD9DFD8791
:1001F000F48F00013CEF10F00E01F48F000143EF8B
:1002000010F0666A676A686A696A6A6A6C6A6D6A27
:100210006E6A6F6A706A726A736A746A756A766AFD
:10022000786A7A6A7B6A7C6A4FEF10F0036AB7518A
:10023000860FE96E000E0320EA6EEFCFB8F0010ED4
:10024000B65DF40FD8B00AD10C0F2FEF02F07A9CF4
:10025000B8BF7A8C749CB8BD748C6E9CB8BB6E8C25
:10026000689CB8B9688C6E9AB8B76E8A7A9AB8B535
:100270007A8A749AB8B3748AF1D07B90B8BF7B80C5
:100280007590B8BD75806F90B8BB6F806990B8B934
:1002900069806E9EB8B76E8E7A9EB8B57A8E749E5F
:1002A000B8B3748EDBD07B94B8BF7B847594B8BD33
:1002B00075846F94B8BB6F846994B8B969846F9280
:1002C000B8B76F827B92B8B57B827592B8B37582EE
:1002D000C5D07A94B8BF7A847494B8BD74846E948F
:1002E000B8BB6E846894B8B968846F9EB8B76F8ED7
:1002F0007B9EB8B57B8E759EB8B3758EAFD0799E58
:10030000B8BF798E739EB8BD738E6D9EB8BB6D8E6F
:10031000679EB8B9678E6D9CB8B76D8C799CB8B57F
:10032000798C739CB8B3738C99D07990B8BF79806D
:100330007390B8BD73806D90B8BB6D806790B8B98D
:1003400067806D9AB8B76D8A799AB8B5798A739AC9
:10035000B8B3738A83D07994B8BF79847394B8BDE5
:1003600073846D94B8BB6D846794B8B967846D92DB
:10037000B8B76D827992B8B579827392B8B3738247
:100380006DD07B9AB8BF7B8A759AB8BD758A6F9A13
:10039000B8BB6F8A699AB8B9698A6D96B8B76D8625
:1003A0007996B8B579867396B8B3738657D0669C3C
:1003B000B8BF668C6C9CB8BD6C8C729CB8BB728CE0
:1003C000789CB8B9788C729EB8B7728E669EB8B5B4
:1003D000668E6C9EB8B36C8E41D06698B8BF668846
:1003E0006C98B8BD6C887298B8BB72887898B8B9A8
:1003F0007888729AB8B7728A669AB8B5668A6C9A23
:10040000B8B36C8A2BD06694B8BF66846C94B8BDC0
:100410006C847294B8BB72847894B8B978847296FC
:10042000B8B772866696B8B566866C96B8B36C86B1
:1004300015D06690B8BF66806C90B8BD6C80729025
:10044000B8BB72807890B8B978807292B8B772826F
:100450006692B8B566826C92B8B36C821200E824DA
:10046000F76AF736790FF66E040EF7220A00F55098
:10047000FA6E0800F550F96E4E027A02A602D20218
:10048000FE022A0356038203AE03DA030604320493
:10049000080E966F956F946F936F926F976F986F2A
:1004A000996F9A6F9B6F9C6F9D6F9E6F0C0EB66FCE
:1004B00096C0B7F0BBDE0B0EB66F95C0B7F0B6DED8
:1004C0000A0EB66F94C0B7F0B1DE090EB66F93C0D6
:1004D000B7F0ACDE080EB66F97C0B7F0A7DE070E18
:1004E000B66F98C0B7F0A2DE060EB66F99C0B7F02F
:1004F0009DDE050EB66F9AC0B7F098DE040EB66F9B
:100500009BC0B7F093DE030EB66F9CC0B7F08EDED3
:10051000020EB66F9DC0B7F089DE010EB66F9EC0A9
:10052000B7F084DE7A88748868866E8674867A86E8
:10053000688A788E688E6982698E678C678A67821E
:100540006786788A7886788251EF10F0966B956B83
:10055000946B936B926B976B986B996B9A6B9B6B8D
:100560009C6B9D6B9E6B0C0EB66F96C0B7F05EDEFB
:100570000B0EB66F95C0B7F059DE0A0EB66F94C079
:10058000B7F054DE090EB66F93C0B7F04FDE080E19
:10059000B66F97C0B7F04ADE070EB66F98C0B7F0D7
:1005A00045DE060EB66F99C0B7F040DE050EB66F99
:1005B0009AC0B7F03BDE040EB66F9BC0B7F036DED4
:1005C000030EB66F9CC0B7F031DE020EB66F9DC051
:1005D000B7F02CDE010EB66F9EC0B7F027DE7A981A
:1005E000749868966E9674967A96689A789E689EC5
:1005F0006992699E679C679A67926796789A7896DF
:1006000078925FEF10F0B46B0400010EB35DF70F4A
:10061000D8B053D3090F66EF06F0F2CFB5F0F29ED3
:10062000636A626A7F9C7F9E7F806150B5BFF28E55
:10063000816FF2CFB5F0F29E636A010E626E7F9C0D
:100640007F9E7F806150B5BFF28E826FF2CFB5F092
:10065000F29E636A020E626E7F9C7F9E7F80615075
:10066000B5BFF28E836FF2CFB5F0F29E636A030ED0
:10067000626E7F9C7F9E7F806150B5BFF28E846FDB
:10068000815111080CE18251220809E1835133089C
:1006900006E18451440803E1010EB46F01D0B46B4C
:1006A0000CD3F250006EF29E636A626A110E616EA4
:1006B0007F9C7F9E7F840F01550E7E6EAA0E7E6EFC
:1006C0007F827FB2FED77F940050F212F2CF00F00B
:1006D000F29E636A010E626E220E616E7F9C7F9EA7
:1006E0007F84550E7E6EAA0E7E6E7F827FB2FED70D
:1006F0007F940050F212F2CF00F0F29E636A020E75
:10070000626E330E616E7F9C7F9E7F84550E7E6E7F
:10071000AA0E7E6E7F827FB2FED77F940050F212C7
:10072000F2CF00F0F29E636A030E626E440E616EB9
:100730007F9C7F9E7F84550E7E6EAA0E7E6E7F828A
:100740007FB2FED77F940050F212010E0001B46F09
:10075000B4D2F2CFB5F0F29E636A040E626E7F9C53
:100760007F9E7F806150B5BFF28E1D6E010EB46F0B
:10077000A4D2F250006EF29E636A040E626E1DC037
:1007800061FF7F9C7F9E7F840F01550E7E6EAA0EB7
:100790007E6E7F827FB2FED77F940050F212010EF0
:1007A0000001B46F8AD2F2CFB5F0F29E636A050EF3
:1007B000626E7F9C7F9E7F806150B5BFF28E856F99
:1007C000010EB46F7AD2F250006EF29E636A050E8B
:1007D000626E85C061FF7F9C7F9E7F840F01550EF6
:1007E0007E6EAA0E7E6E7F827FB2FED77F9400500F
:1007F000F212010E0001B46F60D2F2CFB5F0F29E9A
:10080000636A050E626E7F9C7F9E7F806150B5BFDC
:10081000F28E856F8551080DF350060F9F6FF2CF52
:10082000B5F0F29E636A9FC062FF7F9C7F9E7F80CF
:100830006150B5BFF28E976F010E9F25B56FF2CF55
:10084000B6F0F29E636AB5C062FF7F9C7F9E7F8098
:100850006150B6BFF28E986F020E9F25B56FF2CF32
:10086000B6F0F29E636AB5C062FF7F9C7F9E7F8078
:100870006150B6BFF28E996F030E9F25B56FF2CF10
:10088000B6F0F29E636AB5C062FF7F9C7F9E7F8058
:100890006150B6BFF28E9A6F040E9F25B56FF2CFEE
:1008A000B6F0F29E636AB5C062FF7F9C7F9E7F8038
:1008B0006150B6BFF28E9B6F050E9F25B56FF2CFCC
:1008C000B6F0F29E636AB5C062FF7F9C7F9E7F8018
:1008D0006150B6BFF28E9C6F060E9F25B56FF2CFAA
:1008E000B6F0F29E636AB5C062FF7F9C7F9E7F80F8
:1008F0006150B6BFF28E9D6F070E9F25B56FF2CF88
:10090000B6F0F29E636AB5C062FF7F9C7F9E7F80D7
:100910006150B6BFF28E9E6F010EB46FCED1F2CF92
:10092000B5F0F29E636A050E626E7F9C7F9E7F80AB
:100930006150B5BFF28E856F8551080DF350060FDB
:100940009F6FF250006EF29E636A9FC062FF97C075
:1009500061FF7F9C7F9E7F840F01550E7E6EAA0EE5
:100960007E6E7F827FB2FED77F940050F212010E1E
:1009700000019F25B56FF250006EF29E636AB5C00C
:1009800062FF98C061FF7F9C7F9E7F840F01550EA0
:100990007E6EAA0E7E6E7F827FB2FED77F9400505D
:1009A000F212020E00019F25B56FF250006EF29E0A
:1009B000636AB5C062FF99C061FF7F9C7F9E7F84A0
:1009C0000F01550E7E6EAA0E7E6E7F827FB2FED71D
:1009D0007F940050F212030E00019F25B56FF25074
:1009E000006EF29E636AB5C062FF9AC061FF7F9C91
:1009F0007F9E7F840F01550E7E6EAA0E7E6E7F82D3
:100A00007FB2FED77F940050F212040E00019F25A2
:100A1000B56FF250006EF29E636AB5C062FF9BC074
:100A200061FF7F9C7F9E7F840F01550E7E6EAA0E14
:100A30007E6E7F827FB2FED77F940050F212050E49
:100A400000019F25B56FF250006EF29E636AB5C03B
:100A500062FF9CC061FF7F9C7F9E7F840F01550ECB
:100A60007E6EAA0E7E6E7F827FB2FED77F9400508C
:100A7000F212060E00019F25B56FF250006EF29E35
:100A8000636AB5C062FF9DC061FF7F9C7F9E7F84CB
:100A90000F01550E7E6EAA0E7E6E7F827FB2FED74C
:100AA0007F940050F212070E00019F25B56FF2509F
:100AB000006EF29E636AB5C062FF9EC061FF7F9CBC
:100AC0007F9E7F840F01550E7E6EAA0E7E6E7F8202
:100AD0007FB2FED77F940050F212010E0001B46F76
:100AE000ECD0856BF250006EF29E636A050E626E6A
:100AF00085C061FF7F9C7F9E7F840F01550E7E6EB7
:100B0000AA0E7E6E7F827FB2FED77F940050F212D3
:100B100000018551080DF350060F9F6FF250006ED3
:100B2000F29E636A9FC062FF616A7F9C7F9E7F84A2
:100B30000F01550E7E6EAA0E7E6E7F827FB2FED7AB
:100B40007F940050F212010E00019F25B56FF25004
:100B5000006EF29E636AB5C062FF616A7F9C7F9EF1
:100B60007F840F01550E7E6EAA0E7E6E7F827FB24D
:100B7000FED77F940050F212020E00019F25B56F40
:100B8000F250006EF29E636AB5C062FF616A7F9C9C
:100B90007F9E7F840F01550E7E6EAA0E7E6E7F8231
:100BA0007FB2FED77F940050F212030E00019F2502
:100BB000B56FF250006EF29E636AB5C062FF616A63
:100BC0007F9C7F9E7F840F01550E7E6EAA0E7E6EE7
:100BD0007F827FB2FED77F940050F212040E000194
:100BE0009F25B56FF250006EF29E636AB5C062FF3A
:100BF000616A7F9C7F9E7F840F01550E7E6EAA0ED8
:100C00007E6E7F827FB2FED77F940050F212050E77
:100C100000019F25B56FF250006EF29E636AB5C069
:100C200062FF616A7F9C7F9E7F840F01550E7E6EFE
:100C3000AA0E7E6E7F827FB2FED77F940050F212A2
:100C4000060E00019F25B56FF250006EF29E636A9A
:100C5000B5C062FF616A7F9C7F9E7F840F01550E45
:100C60007E6EAA0E7E6E7F827FB2FED77F9400508A
:100C7000F212070E00019F25B56FF250006EF29E32
:100C8000636AB5C062FF616A7F9C7F9E7F840F01AB
:100C9000550E7E6EAA0E7E6E7F827FB2FED77F9447
:100CA0000050F2120001976B986B996B9A6B9B6BDB
:100CB0009C6B9D6B9E6B010EB46FB42D04D0010E26
:100CC000016E03D002D0000E016E1200E824F76A14
:100CD000F736E70FF66E0C0EF7220A00F550FA6EA3
:100CE0000800F550F96E1A06A20652077207A60709
:100CF000C607FA071E09E20A0400010EB36F83DC7F
:100D0000012C37D0030EB36F7EDC070EB36F7BDC94
:100D1000080EB66F97C0B7F016EC01F0070EB66F6D
:100D200098C0B7F016EC01F0060EB66F99C0B7F098
:100D300016EC01F0050EB66F9AC0B7F016EC01F094
:100D4000040EB66F9BC0B7F016EC01F0030EB66F41
:100D50009CC0B7F016EC01F0020EB66F9DC0B7F064
:100D600016EC01F0010EB66F9EC0B7F016EC01F064
:100D700013D0020EB36F47DC010E1D6E040EB36F6D
:100D800042DC976B986B996B9A6B9B6B9C6B9D6B22
:100D90009E6B090EB36F37DC73EF10F0010EB35D7D
:100DA000FA0FD8B058D1060F2CEF08F07A9C748C4B
:100DB0006E8C689C6E9A7A9A749A7B8075806F802C
:100DC00069806E8E7A8E749E7B8475846F8469844C
:100DD0006F827B8275927A8474846E8468846F8E4D
:100DE0007B8E759E799E739E6D9E678E6D8C798CC1
:100DF000739C799073906D9067906D9A799A739ABD
:100E0000799473946D9467946D92799273927B9AAE
:100E1000759A6F9A699A6D96799673961CD17A9C99
:100E2000748C6E8C689C6E9A7A9A749A7B807580AA
:100E30006F8069806E8E7A8E749E7B8475846F84D9
:100E400069846F827B8275927A9474946E946884BC
:100E50006F8E7B8E759E799E739E6D9E679E6D9C38
:100E6000799C739C799073906D9067906D9A799A44
:100E7000739A799473946D9467946D927992739246
:100E80007B9A759A6F9A699A6D9679967396E3D064
:100E90007A9C748C6E8C689C6E9A7A9A749A7B8019
:100EA00075806F8069806E8E7A8E749E7B84758467
:100EB0006F8469846F827B8275927A9474946E9445
:100EC00068946F9E7B9E759E798E739E6D8E678EE5
:100ED0006D8C798C738C798073806D8067906D8A4E
:100EE000798A738A799473946D9467846D82798218
:100EF00073927B9A759A6F9A698A6D8679867396D2
:100F0000AAD07A8C749C6E8C688C6E8A7A8A748A69
:100F10007B8075806F8069906E8E7A8E748E7B94E4
:100F200075946F9469846F827B8275927A947494BD
:100F30006E9468846F8E7B8E759E799E739E6D9E77
:100F4000679E6D9C799C739C799073906D9067906F
:100F50006D9A799A739A799473946D9467946D925B
:100F6000799273927B9A759A6F9A699A6D9679962F
:100F7000739671D07A8C748C6E8C689C6E8A7A8A27
:100F8000748A7B8075906F9069806E8E7A8E748E75
:100F90007B8475946F8469846F927B8275827A9466
:100FA00074946E9468946F9E7B9E759E799E738EEA
:100FB0006D8E678E6D8C798C739C798073806D805B
:100FC00067906D8A798A738A799473946D94678433
:100FD0006D82798273927B9A759A6F9A699A6D96EF
:100FE0007996739638D07A9C749C6E9C689C6E8AB5
:100FF0007A8A749A7B8075906F9069906E8E7A8EE3
:10100000748E7B8475846F8469946F827B82758211
:101010007A9474946E9468946F9E7B9E759E799E6C
:10102000739E6D9E679E6D9C799C739C7990739066
:101030006D9067906D9A799A739A799473946D9480
:1010400067946D92799273927B9A759A6F9A699A66
:101050006D96799673961200E824F76AF736730F47
:10106000F66E100EF7220A00F550FA6E0800F550E1
:10107000F96EAC0D1E0E900E020F740FE60F1D5090
:10108000010A05E0030A1DE0010A34E04ED0A96B15
:10109000A86B7A0EA76F970EA66FAD6B400EAC6F64
:1010A0001C0EAB6F9B0EAA6F010E1E6E74986E968F
:1010B00074967A96689A789E7A8868866786788227
:1010C00034D0A96BA86B7A0EA76F970EA66FAD6B85
:1010D000400EAC6F1C0EAB6F9B0EAA6F1E6A74980D
:1010E0006E9674967A96689A789E7A8868866796DD
:1010F00078921BD0A96B800EA86F3B0EA76F9A0E3B
:10110000A66FAD6B600EAC6F6A0EAB6F9D0EAA6FD3
:10111000020E1E6E7A98748868966E9674867A9619
:10112000689A789E6796789200D012008D82969287
:10113000010E7B6FB06A270EB16E920EB36E7C0EFD
:10114000B26EA0929EAA06D083EC00F001C0B1F06E
:101150000400F8D71C50040B04E083EC00F001C03D
:10116000B1F09D8AC00EF2127D6B7C6B7E6BAF6B13
:10117000060EB36F13DE280EAE6F04007E2D04D072
:10118000A0927D6B7C6B7E6B7D2D87D0140EAE6F35
:101190007D6BA092020E7D6F7C6B7E6B37503F5C47
:1011A00011E13850405C0EE13950415C0BE13A509E
:1011B000425C08E1010E1D6E020EB36FEFDD5FDFD2
:1011C000010EB06F33503F5C11E13450405C0EE1D2
:1011D0003550415C0BE13650425C08E1020E1D6E59
:1011E000010EB36FDBDD4BDF010EB06F2F503F5CA4
:1011F00010E13050405C0DE13150415C0AE1325069
:10120000425C07E1030E1D6EB36FC8DD38DF010ECF
:10121000B06F3B503F5C41E13C50405C3EE13D5093
:10122000415C3BE13E50425C38E1010EAF1BAF2D0B
:1012300004D0050EB36FB2DD30D0080EB66F97C084
:10124000B7F016EC01F0070EB66F98C0B7F016ECC9
:1012500001F0060EB66F99C0B7F016EC01F0050E5E
:10126000B66F9AC0B7F016EC01F0040EB66F9BC0D3
:10127000B7F016EC01F0030EB66F9CC0B7F016EC99
:1012800001F0020EB66F9DC0B7F016EC01F0010E32
:10129000B66F9EC0B7F016EC01F00400020EB36FFB
:1012A000C80EB46FC6EC00F0B32FFAD7AE07AE533A
:1012B000D8A463D70400A0929D9A8D929692B02DE7
:1012C00005D0B06B040EB36F03EC03F0AF2D01D06B
:1012D00002D0B02D0DD0AF6B976B986B996B9A6B5A
:1012E0009B6B9C6B9D6B9E6B090EB36F03EC03F0C5
:1012F000080EB66F97C0B7F016EC01F0070EB66F88
:1013000098C0B7F016EC01F0060EB66F99C0B7F0B2
:1013100016EC01F0050EB66F9AC0B7F016EC01F0AE
:10132000040EB66F9BC0B7F016EC01F0030EB66F5B
:101330009CC0B7F016EC01F0020EB66F9DC0B7F07E
:1013400016EC01F0010EB66F9EC0B7F016EC01F07E
:1013500075EF10F0010E926E8D809690C050C00B0C
:101360000709C06EC09EC280000E0F01236F246F5C
:10137000010E256FC196C198C18A000E016EC25040
:10138000830B0110C26E000E016EC150F80B0110EC
:10139000C16E0F0E0001B46FC6EC00F0C282C2B283
:1013A000FED7A16BC4CFA0F08D909690000E0F01D8
:1013B000236F246F256FC196C198C19A0001A15374
:1013C00004E1A051950801E37A861200BC51016A3C
:1013D000BB5D03E2BBC000F00CD0006A080EBD6F1D
:1013E000BB370036BC51005CD8B0006E0136BD2F53
:1013F000F7D71200B7C0B9F0B6C0B8F0B8510F0BAC
:10140000966FB931BC6FB831BB6FBC33BB33BC33E3
:10141000BB33BC33BB330F0EBC17BB510F0B956FE7
:10142000B9510F0B946FB939BB6F0F0EBB17BB517E
:101430000F0B936F945193259525060DF350962726
:1014400096C0BBF00A0EBC6FC1DF01C0BAF096C0F7
:10145000BBF00A0EBC6FBADF00C096F09351090DC5
:10146000F350BA25BB6F9451050DF350BB2595275A
:1014700095C0BBF00A0EBC6FA9DF01C0BAF095C0E1
:10148000BBF00A0EBC6FA2DF00C095F0D890943577
:10149000BA25946F94C0BBF00A0EBC6F97DF01C0F1
:1014A000BAF094C0BBF00A0EBC6F90DF00C094F09D
:1014B0009351040DF350BA25936F93C0BBF00A0EFD
:1014C000BC6F84DF01C0BAF093C0BBF00A0EBC6FE2
:1014D0007DDF00C093F0BAC092F076EF0AF0B5530A
:1014E00005E0B4C0B7F0B3C0B6F084D70C0EB66F49
:1014F00096C0B7F016EC01F00B0EB66F95C0B7F0C2
:1015000016EC01F00A0EB66F94C0B7F016EC01F0BD
:10151000935308E1669C6C9C729C789C729E669EBC
:101520006C9E06D0090EB66F93C0B7F016EC01F0B2
:101530001200B3510208D8B489D0972B97510908EB
:1015400020E3080EB66F97C0B7F016EC01F0F2502A
:10155000006EF29E636A9FC062FF97C061FF7F9C2E
:101560007F9E7F840F01550E7E6EAA0E7E6E7F8257
:101570007FB2FED77F940050F21284EF0EF01ED09F
:101580000001976B080EB66F97C0B7F016EC01F02C
:10159000F250006EF29E636A9FC062FF97C061FFC7
:1015A0007F9C7F9E7F840F01550E7E6EAA0E7E6EFD
:1015B0007F827FB2FED77F940050F2120001982BF9
:1015C0009851090822E3070EB66F98C0B7F016ECE1
:1015D00001F0010E9F25B46FF250006EF29E636A17
:1015E000B4C062FF98C061FF7F9C7F9E7F840F0123
:1015F000550E7E6EAA0E7E6E7F827FB2FED77F94DE
:101600000050F21281D321D00001986B070EB66F03
:1016100098C0B7F016EC01F0010E9F25B46FF250A0
:10162000006EF29E636AB4C062FF98C061FF7F9C47
:101630007F9E7F840F01550E7E6EAA0E7E6E7F8286
:101640007FB2FED77F940050F2120001992B99517E
:10165000090822E3060EB66F99C0B7F016EC01F048
:10166000020E9F25B46FF250006EF29E636AB4C002
:1016700062FF99C061FF7F9C7F9E7F840F01550EA2
:101680007E6EAA0E7E6E7F827FB2FED77F94005060
:10169000F2123AD321D00001996B060EB66F99C0B1
:1016A000B7F016EC01F0020E9F25B46FF250006EF9
:1016B000F29E636AB4C062FF99C061FF7F9C7F9E07
:1016C0007F840F01550E7E6EAA0E7E6E7F827FB2E2
:1016D000FED77F940050F21200019A2B9A5109080C
:1016E00022E3050EB66F9AC0B7F016EC01F0030EB8
:1016F0009F25B46FF250006EF29E636AB4C062FF21
:101700009AC061FF7F9C7F9E7F840F01550E7E6E85
:10171000AA0E7E6E7F827FB2FED77F940050F212B7
:10172000F3D221D000019A6B050EB66F9AC0B7F0C4
:1017300016EC01F0030E9F25B46FF250006EF29E7E
:10174000636AB4C062FF9AC061FF7F9C7F9E7F8402
:101750000F01550E7E6EAA0E7E6E7F827FB2FED77F
:101760007F940050F21200019B2B9B51090822E349
:10177000040EB66F9BC0B7F016EC01F0040E9F2567
:10178000B46FF250006EF29E636AB4C062FF9BC0F9
:1017900061FF7F9C7F9E7F840F01550E7E6EAA0E97
:1017A0007E6E7F827FB2FED77F940050F212ACD261
:1017B00021D000019B6B040EB66F9BC0B7F016ECF6
:1017C00001F0040E9F25B46FF250006EF29E636A22
:1017D000B4C062FF9BC061FF7F9C7F9E7F840F012E
:1017E000550E7E6EAA0E7E6E7F827FB2FED77F94EC
:1017F0000050F21200019C2B9C51090822E3030EB9
:10180000B66F9CC0B7F016EC01F0050E9F25B46FC3
:10181000F250006EF29E636AB4C062FF9CC061FF2A
:101820007F9C7F9E7F840F01550E7E6EAA0E7E6E7A
:101830007F827FB2FED77F940050F21265D221D012
:1018400000019C6B030EB66F9CC0B7F016EC01F064
:10185000050E9F25B46FF250006EF29E636AB4C00D
:1018600062FF9CC061FF7F9C7F9E7F840F01550EAD
:101870007E6EAA0E7E6E7F827FB2FED77F9400506E
:10188000F21200019D2B9D51090822E3020EB66F52
:101890009DC0B7F016EC01F0060E9F25B46FF25014
:1018A000006EF29E636AB4C062FF9DC061FF7F9CC0
:1018B0007F9E7F840F01550E7E6EAA0E7E6E7F8204
:1018C0007FB2FED77F940050F2121ED221D00001C9
:1018D0009D6B020EB66F9DC0B7F016EC01F0060EC0
:1018E0009F25B46FF250006EF29E636AB4C062FF2F
:1018F0009DC061FF7F9C7F9E7F840F01550E7E6E91
:10190000AA0E7E6E7F827FB2FED77F940050F212C5
:101910000001852BF250006EF29E636A050E626E26
:1019200085C061FF7F9C7F9E7F840F01550E7E6E78
:10193000AA0E7E6E7F827FB2FED77F940050F21295
:1019400000018551080DF350060F9F6F9E2B9E518D
:101950000908D8A0D5D0010EB66F9EC0B7F016EC1E
:1019600001F0F250006EF29E636A9FC062FF97C062
:1019700061FF7F9C7F9E7F840F01550E7E6EAA0EB5
:101980007E6E7F827FB2FED77F940050F212010EEE
:1019900000019F25B46FF250006EF29E636AB4C0DE
:1019A00062FF98C061FF7F9C7F9E7F840F01550E70
:1019B0007E6EAA0E7E6E7F827FB2FED77F9400502D
:1019C000F212020E00019F25B46FF250006EF29EDB
:1019D000636AB4C062FF99C061FF7F9C7F9E7F8471
:1019E0000F01550E7E6EAA0E7E6E7F827FB2FED7ED
:1019F0007F940050F212030E00019F25B46FF25045
:101A0000006EF29E636AB4C062FF9AC061FF7F9C61
:101A10007F9E7F840F01550E7E6EAA0E7E6E7F82A2
:101A20007FB2FED77F940050F212040E00019F2572
:101A3000B46FF250006EF29E636AB4C062FF9BC046
:101A400061FF7F9C7F9E7F840F01550E7E6EAA0EE4
:101A50007E6E7F827FB2FED77F940050F212050E19
:101A600000019F25B46FF250006EF29E636AB4C00D
:101A700062FF9CC061FF7F9C7F9E7F840F01550E9B
:101A80007E6EAA0E7E6E7F827FB2FED77F9400505C
:101A9000F212060E00019F25B46FF250006EF29E06
:101AA000636AB4C062FF9DC061FF7F9C7F9E7F849C
:101AB0000F01550E7E6EAA0E7E6E7F827FB2FED71C
:101AC0007F940050F212070E00019F25B46FF25070
:101AD000006EF29E636AB4C062FF9EC061FF7F9C8D
:101AE0007F9E7F840F01550E7E6EAA0E7E6E7F82D2
:101AF0007FB2FED77F940050F21206D105D10001CB
:101B0000976B986B996B9A6B9B6B9C6B9D6B9E6BA9
:101B1000080EB66F97C0B7F016EC01F0070EB66F5F
:101B200098C0B7F016EC01F0060EB66F99C0B7F08A
:101B300016EC01F0050EB66F9AC0B7F016EC01F086
:101B4000040EB66F9BC0B7F016EC01F0030EB66F33
:101B50009CC0B7F016EC01F0020EB66F9DC0B7F056
:101B600016EC01F0010EB66F9EC0B7F016EC01F056
:101B7000F250006EF29E636A9FC062FF97C061FFE1
:101B80007F9C7F9E7F840F01550E7E6EAA0E7E6E17
:101B90007F827FB2FED77F940050F212010E0001C7
:101BA0009F25B46FF250006EF29E636AB4C062FF6C
:101BB00098C061FF7F9C7F9E7F840F01550E7E6ED3
:101BC000AA0E7E6E7F827FB2FED77F940050F21203
:101BD000020E00019F25B46FF250006EF29E636A00
:101BE000B4C062FF99C061FF7F9C7F9E7F840F011C
:101BF000550E7E6EAA0E7E6E7F827FB2FED77F94D8
:101C00000050F212030E00019F25B46FF250006ED7
:101C1000F29E636AB4C062FF9AC061FF7F9C7F9EA0
:101C20007F840F01550E7E6EAA0E7E6E7F827FB27C
:101C3000FED77F940050F212040E00019F25B46F6E
:101C4000F250006EF29E636AB4C062FF9BC061FFF7
:101C50007F9C7F9E7F840F01550E7E6EAA0E7E6E46
:101C60007F827FB2FED77F940050F212050E0001F2
:101C70009F25B46FF250006EF29E636AB4C062FF9B
:101C80009CC061FF7F9C7F9E7F840F01550E7E6EFE
:101C9000AA0E7E6E7F827FB2FED77F940050F21232
:101CA000060E00019F25B46FF250006EF29E636A2B
:101CB000B4C062FF9DC061FF7F9C7F9E7F840F0147
:101CC000550E7E6EAA0E7E6E7F827FB2FED77F9407
:101CD0000050F212070E00019F25B46FF250006E03
:101CE000F29E636AB4C062FF9EC061FF7F9C7F9ECC
:101CF0007F840F01550E7E6EAA0E7E6E7F827FB2AC
:101D0000FED77F940050F21200011200B60E006E52
:101D1000036A026A016AB351B411B511B61102E146
:101D2000006A0DD0D89001BE09D0B337B437B537AB
:101D3000B637033602360136002EF4D7019E120064
:101D4000B351D8B4A5D0BF6FB751D8B4A1D0BF5F3D
:101D500005E37F0EBF27D8B09BD006D0810EBF5FB2
:101D6000D8A096D0D8B494D0BFC000F0016A026A5F
:101D7000036ABE6BB4C0BDF0BD8FB5C0BCF0B6C0C9
:101D8000BBF0190EBF6FBA51BB5F0DE2010EBC5F15
:101D90000AE2BD5F08E2BE5F06E2BE2BBD2BBC2B94
:101DA000BA51BB2728D0B951BC5F12E2010EBD5F0A
:101DB0000FE2BE5F0DE2BE2BBD2BB951BC27BA515D
:101DC000BB2719E3BC2B17E1BD2B15E1BE2B13D0AC
:101DD000B8518009BD5F0EE2010EBE5F0BE2BE2B63
:101DE000B8518009BD27B951BC27E9E3BD2BE7E114
:101DF000BE2BE5D70380BF2F01D00BD0D890BB37C7
:101E0000BC37BD37BE37D890033602360136C037EF
:101E1000BAD7C0A106D0D890013202320332C03303
:101E200002D0000635E0C0BF1ED0D890BB37BC370B
:101E3000BD37BE37BA51BB5F07E2010EBC5F04E29B
:101E4000BD5F02E2BE5F1AE3B951BC5F05E2010E5D
:101E5000BD5F02E2BE5F12E3B8518009BD5F03E2DD
:101E6000010EBE5F0BE3032A09E1022A07E1012A02
:101E700005E1002A0DE0013202320332B4C0BFF0A6
:101E8000B851BF1BBFAF02D0018E06D0019E04D057
:101E9000006A016A026A036A12008E0E006EB35174
:101EA000005EB4C002F0B5C001F0028E005209E03D
:101EB000D890025202E1015204E002320132002EB7
:101EC000F7D7B4AF05D0011E021E012AD8B4022AEA
:101ED0001200F86AD09E078E620ED36E9B6A646A07
:101EE0001C6A65860A0EAF6E1A0ED46EA60EAC6E14
:101EF000900EAB6E1D6A1E6A2B6A2D6A2C6A2E6AC2
:101F00007E6B7F6B806B856B976B986B996B9A6B15
:101F10009B6B9C6B9D6B9E6B9F6BAE6BAF6BB06B4B
:101F2000B16B0E01F46BF56B000E0F01236F246F84
:101F3000256FC196C198C19A0101886B0F012E6B64
:101F40002F6B546B18D002001A000006401F0010BF
:101F5000002F737D8791535D677177818B95616BDE
:101F6000757F0C0086FC60DAF266B6BEE0FEF69E77
:101F70009205C0000000000EF86E1F0EF76E460EB0
:101F8000F66E0900F550006E000A13E00900F550E6
:101F9000016EE8BE05D00F0BEA6E0900F5CFE9FF30
:101FA00001BC090001AC0900F5CFEEFF004EE9D7F6
:101FB000F9D7F86A040E2E6F2F6F546F000E236F3F
:101FC000246F256FC196C198C19AF00EBB164E17AB
:101FD00049170F170C17C26AC16AC06A256B246BB8
:101FE000236B896A8A6A8B6A8C6A8D6A8E6A8F6AA9
:101FF000010E926EC10E936E946A956A966A976A04
:10200000986AAB8E948E949C04002D6A2C6A540EB0
:102010002A6E600E296E0001B26BB251310808E3DE
:102020000400640EB46FC6EC00F00400B22BF5D7C8
:102030008F0ECD6EAA6A800ECF6ECE6AF292F19CA0
:10204000F2880F010F01550E7E6EAA0E7E6E5F8B19
:102050005E6B800E5F6F5F9B6486016E5A69180E1F
:10206000011201C05BFFA3809D9AF2989D90C00E63
:10207000F2120001DDEF00F00E01FD51C70BFD6F04
:102080000001FCEF00F0679C216A226A236A806BE2
:102090002E6A640EB46FC6EC00F001EF01F048EF59
:1020A00002F0B26BB251310808E30400640EB46F61
:1020B000C6EC00F00400B22BF5D7A6EF02F07A9838
:1020C000749868966E9674967A96689A789E689ECA
:1020D0006992699E679C679A67926796789A7896E4
:1020E00078927CEF06F096EF08F0AB9EAB98AC9A36
:1020F000946A3FEC08F02A6A296A2D6A2C6A216AE0
:10210000286A276AAAEC09F0F2889D800400802DD5
:1021100003D0806BAAEC09F02B2C24D02C2AD8B445
:102120002D2A2B6A2D50020810E2FF0A03E12C50E1
:10213000E8080BE2216A206A1F6A20C0B4F01FC0C1
:10214000B3F0010EB56F6FEC0AF02D50A7080AE24C
:10215000FF0A03E12C50C00805E2216AA80E2D6E8B
:10216000C00E2C6E215081080DE19D90800ECF6E27
:10217000CE6A9D80010E216E2D6A2C6A1EC0B3F0BE
:1021800099EC0AF021508208D8A45FD19D900400F8
:10219000CECF26F0CFCF25F025C0A3F026C0A2F0E9
:1021A000A46BA56B010E216E800ECF6ECE6A9D8052
:1021B000010E216E000EA25F800EA35B000EA45BD9
:1021C000A55BB56B006A2C34016E2D34026EB535FB
:1021D000036E013602360336013602360336013607
:1021E000023603360136023603360136023603362E
:1021F000013602360336800E01160050A227015028
:10220000A3230250A4230350A5231D50010A06E076
:10221000030A5DE0010AD8B4B2D009D12D522DE1F4
:102220002C5009082AE3A5C0B6F0A4C0B5F0A3C09D
:10223000B4F0A2C0B3F06ADDA9C0B6F0A8C0B5F092
:10224000A7C0B4F0A6C0B3F003C0BAF002C0B9F0A2
:1022500001C0B8F000C0B7F073DD03C0B6F002C033
:10226000B5F001C0B4F000C0B3F017DE02C020F03A
:1022700001C01FF07896788229D0A5C0B6F0A4C01E
:10228000B5F0A3C0B4F0A2C0B3F040DDADC0B6F06D
:10229000ACC0B5F0ABC0B4F0AAC0B3F003C0BAF0A4
:1022A00002C0B9F001C0B8F000C0B7F049DD03C00A
:1022B000B6F002C0B5F001C0B4F000C0B3F0EDDD7F
:1022C00002C020F001C01FF078867892B0D02C5266
:1022D0002CE12D522AE1A5C0B6F0A4C0B5F0A3C0F0
:1022E000B4F0A2C0B3F012DDA9C0B6F0A8C0B5F03A
:1022F000A7C0B4F0A6C0B3F003C0BAF002C0B9F0F2
:1023000001C0B8F000C0B7F01BDD03C0B6F002C0DA
:10231000B5F001C0B4F000C0B3F0BFDD02C020F0E2
:1023200001C01FF07896789229D0A5C0B6F0A4C05D
:10233000B5F0A3C0B4F0A2C0B3F0E8DCADC0B6F015
:10234000ACC0B5F0ABC0B4F0AAC0B3F003C0BAF0F3
:1023500002C0B9F001C0B8F000C0B7F0F1DC03C0B2
:10236000B6F002C0B5F001C0B4F000C0B3F095DD26
:1023700002C020F001C01FF07896788258D02D520C
:102380002DE12C5009082AE3A5C0B6F0A4C0B5F091
:10239000A3C0B4F0A2C0B3F0B9DCA9C0B6F0A8C025
:1023A000B5F0A7C0B4F0A6C0B3F003C0BAF002C045
:1023B000B9F001C0B8F000C0B7F0C2DC03C0B6F09D
:1023C00002C0B5F001C0B4F000C0B3F066DD02C0D9
:1023D00020F001C01FF07896789229D0A5C0B6F001
:1023E000A4C0B5F0A3C0B4F0A2C0B3F08FDCADC000
:1023F000B6F0ACC0B5F0ABC0B4F0AAC0B3F003C047
:10240000BAF002C0B9F001C0B8F000C0B7F098DC73
:1024100003C0B6F002C0B5F001C0B4F000C0B3F024
:102420003CDD02C020F001C01FF0789678822D6A52
:102430002C6A20C0B4F01FC0B3F0010EB56F6FEC72
:102440000AF01EC0B3F099EC0AF0D3CF00F0D19E91
:10245000D39E030000C0D3FF000000000000000076
:06246000040054D6030045
:020000040030CA
:0E0000000D881631018991000FC00FE00F40EE
:00000001FF
;PIC18F65K90
;CRC=1292  CREATED="20-gen-18 20:15"
