:0600000080316C2B0000B2
:0800080083018031200077081C
:10001000A0007808A1007908A2007A08A3000B1EAE
:1000200013288B182328850191308400001C1A287E
:10003000111825282008F7002108F8002208F900E7
:100040002308FA00090080312728803139283A181E
:1000500033289601F33097003330960021001114B5
:1000600020003A143628BA141708B9008B108031D2
:100070001A289601F330970033309600BB0A031913
:10008000BC0A111080311A282030850025308400E8
:100090000008031952282830F700F70B4D28640098
:1000A000800B4B288031052C6400FE30230091002A
:1000B0009513151413082000BD003D08FA3C031CDD
:1000C00065283D08093C031CA4280B30BD00FD3009
:1000D000230091009513151413082000BE003E085C
:1000E000FA3C03188B280130BE000B08F7008B1375
:1000F000FC3023009100AA3093009513151555305C
:100100009600AA3096009514951884281511770842
:100110008B048D282000BE0A23000B08F7008B13E8
:10012000FD30910020003E08230093009513151523
:1001300055309600AA309600951495189D281511F3
:1001400077088B04A6282000BD0A23000B08F700BF
:100150008B13FE30910020003D082300930095137F
:10016000151555309600AA30960095149518B628A6
:10017000151177088B042000080064002F009201FD
:10018000921312139211121292111215921412104C
:1001900098010E309900FF309A00910191171113C8
:1001A00091121116911111159114111420001212AF
:1001B00057302F0095009301931713139315911740
:1001C000803120006D2C2F00911780312000742C7D
:1001D0006400043046078400203085000318850A37
:1001E0000008C70001304502FC3E0318DC29043E2C
:1001F000DD292F00AB102000C71F01292F00AB14F1
:1002000020002F00A8102000471F09292F00A81444
:1002100020002F00A5102000C71E11292F00A514B3
:1002200020002F00A2102000471E19292F00A21421
:1002300020002F0025102000C71D21292F00251484
:1002400020002F002B102000471D29292F002B14E0
:1002500020002F0028102000C71C31292F0028144F
:100260002000DC292F00AB112000C71F3A292F00E6
:10027000AB1520002F00A8112000471F42292F0096
:10028000A81520002F00A5112000C71E4A292F0005
:10029000A51520002F00A2112000471E52292F0073
:1002A000A21520002F0025112000C71D5A292F005C
:1002B000251520002F002B112000471D62292F003B
:1002C0002B1520002F0028112000C71C6A292F00A1
:1002D00028152000DC292F00AB122000C71F73292E
:1002E0002F00AB1620002F00A8122000471F7B29EB
:1002F0002F00A81620002F00A5122000C71E83295A
:100300002F00A51620002F00A2122000471E8B29C7
:100310002F00A21620002F0025122000C71D9329B0
:100320002F00251620002F002B122000471D9B298F
:100330002F002B1620002F0028122000C71CA329F5
:100340002F0028162000DC292F00AB132000C71F28
:10035000AC292F00AB1720002F00A8132000471F47
:10036000B4292F00A81720002F00A5132000C71EB6
:10037000BC292F00A51720002F00A2132000471E24
:10038000C4292F00A21720002F0025132000C71D0D
:10039000CC292F00251720002F002B132000471DEC
:1003A000D4292F002B1720002F0028132000C71C52
:1003B000DC292F002817200008000A148A100A11CF
:1003C0008207F92832296B29A4292F08003A03193A
:1003D000F329013A0319022A033A0319112A013AAF
:1003E0000319202A2F2A2F002217A411AA152A1533
:1003F000AA10A710A41427302000B8001030B700AE
:100400003A15342A2F002213A411AA152A15AA146A
:10041000A710A41027302000B8001030B7003A1100
:10042000342A2F002217A415AA112A11AA10A710E6
:10043000A4143D302000B800EA30B7003A15342A41
:100440002F002213A415AA112A11AA14A710A41070
:100450003D302000B800EA30B7003A11342A2F00AE
:10046000AA14A714A41420000130C5000A30C60045
:10047000E8200230C5000A30C600E8202F00221F05
:10048000482A03302000C500C601E8204E2A2F006C
:1004900003302000C5000A30C600E8200430C50043
:1004A000C601E8200800F801F901F701FA0148083F
:1004B000031D5D2A47080319772A1030C90003106D
:1004C000C50DC60DF70DFA0D48087A02031D6A2AFC
:1004D00047087702031C732A4708F702031CFA0334
:1004E0004808FA020314F80DF90DC90B5F2A803190
:1004F000C32CF701F8014B0803104C18F707F70C51
:10050000F80CCC18F707F70CF80C4C19F707F70C98
:10051000F80CCC19F707F70CF80C4C1AF707F70C86
:10052000F80CCC1AF707F70CF80C4C1BF707F70C74
:10053000F80CCC1BF707F70CF80C08004B08F80177
:100540004A020318A62A4A08F700B22AF70108301F
:10055000CC00CA0DF70D4B0877020318F700F80D11
:10056000CC0BA92A08004608C8004508C700470860
:100570000F39B400480CCB00470CCA00CB0CCA0C96
:10058000CB0CCA0CCB0CCA0C0F30CB054A080F3968
:10059000B300CB0148080F39B200480ECA00CB01A6
:1005A0000F30CA054A080F39B10032083107330746
:1005B000CA000630CB004A08CC0079227808B4077C
:1005C0003408CA000A30CB009E227808C9003408DB
:1005D000CA000A30CB009E227708B4000930CB0055
:1005E0003108CC00792278084907CA000530CB00D1
:1005F0003208CC00792278084A07B3073308CA00CA
:100600000A30CB009E227808C9003308CA000A309D
:10061000CB009E227708B3000310320D4907B200C9
:100620003208CA000A30CB009E227808C90032087E
:10063000CA000A30CB009E227708B200310DF700C5
:10064000F70DFC30F70577084907B1003108CA00FB
:100650000A30CB009E227808C9003108CA000A304F
:10066000CB009E227708B1004908B0000800360888
:10067000C6003508C500B3220130C5003008C600E9
:10068000E8200230C5003108C600E8200330C5006C
:100690003208C600E8200430C5003308C600E82050
:1006A0008031D12C3608C6003508C500B322013090
:1006B000C5003108C600E8200230C5003208C60077
:1006C000E8200330C5003308C600E8200430C50028
:1006D0003408C600E82008003A30210099000130B3
:1006E0002000AF00B601B501B801B7013A10BA1049
:1006F0003A11BC01BB012F009101920198019901AF
:100700009A0123008C018D018F019001220092013A
:10071000910194019301FC302000A4006030A500F9
:10072000DA30A600F230A7006630A800B630A90083
:10073000BE30AA00E030AB00FE30AC00F630AD00B9
:10074000AE010B138B138B1BA22B2200160820006B
:10075000BF000308C000210016082000C1002100CE
:1007600017082000C20021001614961415309700B7
:1007700064000B138B138B1BBA2B383099002300AA
:100780008C0122008C012100951724008D0190011D
:100790002200920191019401930121001D101E106D
:1007A0009E101E11003023008C0090008D008F00E1
:1007B000F030250093059A05260093059A059E05BD
:1007C00064008D3020009800013021008C00C13081
:1007D0008D008E018F01900195171D107E30220033
:1007E00091059305980597019E012000C401C3015E
:1007F0004408013C031C0A2C031D022C43082B3C1B
:10080000031C0A2C6430C50044286400C30A031981
:10081000C40AF82B54200B08F7008B133D08230063
:10082000910020003F0823009300951315155530C3
:100830009600AA309600951495181C2C151177086F
:100840008B04200054200B08F7008B133D08230075
:100850009100200040082300930095131515553092
:100860009600AA30960095149518342C1511770827
:100870008B04200054200B08F7008B133D08230045
:100880009100200041082300930095131515553061
:100890009600AA309600951495184C2C15117708DF
:1008A0008B04200054200B08F7008B133D08230015
:1008B0009100200042082300930095131515553030
:1008C0009600AA30960095149518642C1511770897
:1008D0008B04200054206400BD28640007302F00E2
:1008E000940064002000E3282F00A001A101A201D0
:1008F000A301A401A501A601A701A901AA01AB01B9
:1009000001302000AF006400E521640021001513D0
:1009100007088B1011100B1607088B101513C03029
:100920008B0420003A102F009401640020003C0842
:100930000D3C0318B02CFF3A031DA22C3B08103CC1
:100940000318B02C0B138B138B1BA32C210011103D
:100950002000E521BC01BB013A10BA10C0308B0465
:10096000BA1CEE2C64003908FD3C0318BA2CBB0AF3
:100970000319BC0A3808C6003708C5003C08C8007F
:100980003B08C700532A7908B6007808B5003A1D1D
:10099000D82CB0080319D22C2F0022136400200099
:1009A000372BD72C2F002217640020005223EB2C6A
:1009B0002F0022132000B0080319E42C2F00AA14E2
:1009C000A710A414E82C20002F00AA14A710A4102C
:1009D000640020005223BC01BB01BA10F9308B0522
:1009E00000000000630000000000640001302100EE
:1009F0008C00C1308D008E018F01900195171D1064
:100A00007E30220091059305980597019E012F00E5
:040A1000952C6300BE
:020000040001F9
:04000E00D42DFF1ED0
:00000001FF
;PIC16LF1937
;CRC=4789  CREATED="18-apr-15 12:58"
