:0600000080316B2B0000B3
:0800080083018031200077081C
:10001000A0007808A1007908A2007A08A3000B1EAE
:1000200013288B182328850191308400001C1A287E
:10003000111825282008F7002108F8002208F900E7
:100040002308FA00090080312728803139283A181E
:1000500033289601F33097003330960021001114B5
:1000600020003A143628BA141708B9008B108031D2
:100070001A289601F330970033309600BB0A031913
:10008000BC0A111080311A282030850025308400E8
:100090000008031952282830F700F70B4D28640098
:1000A000800B4B2808006400FE302300910095135C
:1000B000151413082000BD003D08FA3C031C6428F9
:1000C0003D08093C031CA3280B30BD00FD30230074
:1000D00091009513151413082000BE003E08FA3C49
:1000E00003188A280130BE000B08F7008B13FC3080
:1000F00023009100AA3093009513151555309600F2
:10010000AA309600951495188328151177088B044A
:100110008C282000BE0A23000B08F7008B13FD304B
:10012000910020003E0823009300951315155530CB
:100130009600AA309600951495189C2815117708FA
:100140008B04A5282000BD0A23000B08F7008B13A1
:10015000FE30910020003D082300930095131515F3
:1001600055309600AA30960095149518B5281511AB
:1001700077088B042000080064002F00920192137E
:100180001213921112129211121592141210980158
:100190000E309900FF309A009101911711139112BE
:1001A00011169111111591141114200012125730CB
:1001B0002F00950093019317131393159117803116
:1001C00020006D2C2F00911780312000742C6400CA
:1001D000043046078400203085000318850A000893
:1001E000C70001304502FC3E0318DB29043EDC2930
:1001F0002F00AB102000C71F00292F00AB142000D8
:100200002F00A8102000471F08292F00A814200045
:100210002F00A5102000C71E10292F00A5142000B4
:100220002F00A2102000471E18292F00A214200022
:100230002F0025102000C71D20292F002514200085
:100240002F002B102000471D28292F002B142000E1
:100250002F0028102000C71C30292F002814200050
:10026000DB292F00AB112000C71F39292F00AB1548
:1002700020002F00A8112000471F41292F00A8159A
:1002800020002F00A5112000C71E49292F00A51509
:1002900020002F00A2112000471E51292F00A21577
:1002A00020002F0025112000C71D59292F002515DA
:1002B00020002F002B112000471D61292F002B1536
:1002C00020002F0028112000C71C69292F002815A5
:1002D0002000DB292F00AB122000C71F72292F003E
:1002E000AB1620002F00A8122000471F7A292F00EC
:1002F000A81620002F00A5122000C71E82292F005B
:10030000A51620002F00A2122000471E8A292F00C8
:10031000A21620002F0025122000C71D92292F00B1
:10032000251620002F002B122000471D9A292F0090
:100330002B1620002F0028122000C71CA2292F00F6
:1003400028162000DB292F00AB132000C71FAB2984
:100350002F00AB1720002F00A8132000471FB32940
:100360002F00A81720002F00A5132000C71EBB29AF
:100370002F00A51720002F00A2132000471EC3291D
:100380002F00A21720002F0025132000C71DCB2906
:100390002F00251720002F002B132000471DD329E5
:1003A0002F002B1720002F0028132000C71CDB294B
:1003B0002F002817200008000A148A100A1182074B
:1003C000F82831296A29A3292F08003A0319F229AC
:1003D000013A0319012A033A0319102A013A0319B1
:1003E0001F2A2E2A2F002217A411AA152A15AA1097
:1003F000A710A41427302000B8001030B7003A1519
:10040000332A2F002213A411AA152A15AA14A71003
:10041000A41027302000B8001030B7003A11332A5A
:100420002F002217A415AA112A11AA10A710A4148C
:100430003D302000B800EA30B7003A15332A2F00CB
:100440002213A415AA112A11AA14A710A4103D3032
:100450002000B800EA30B7003A11332A2F00AA145E
:10046000A714A41420000130C5000A30C600E720FC
:100470000230C5000A30C600E7202F00221F472A9D
:1004800003302000C500C601E7204D2A2F000330AD
:100490002000C5000A30C600E7200430C500C601B0
:1004A000E7200800F801F901F701FA014808031DE7
:1004B0005C2A47080319762A1030C9000310C50DBD
:1004C000C60DF70DFA0D48087A02031D692A470880
:1004D0007702031C722A4708F702031CFA03480834
:1004E000FA020314F80DF90DC90B5E2A8031C22CF3
:1004F000F701F8014B0803104C18F707F70CF80C3C
:10050000CC18F707F70CF80C4C19F707F70CF80C98
:10051000CC19F707F70CF80C4C1AF707F70CF80C86
:10052000CC1AF707F70CF80C4C1BF707F70CF80C74
:10053000CC1BF707F70CF80C08004B08F8014A022F
:100540000318A52A4A08F700B12AF7010830CC00A1
:10055000CA0DF70D4B0877020318F700F80DCC0B06
:10056000A82A08004608C8004508C70047080F39F0
:10057000B400480CCB00470CCA00CB0CCA0CCB0C07
:10058000CA0CCB0CCA0C0F30CB054A080F39B3008C
:10059000CB0148080F39B200480ECA00CB010F301A
:1005A000CA054A080F39B100320831073307CA00BB
:1005B0000630CB004A08CC0078227808B40734080B
:1005C000CA000A30CB009D227808C9003408CA004E
:1005D0000A30CB009D227708B4000930CB003108E7
:1005E000CC00782278084907CA000530CB003208D1
:1005F000CC00782278084A07B3073308CA000A30CB
:10060000CB009D227808C9003308CA000A30CB000D
:100610009D227708B3000310320D4907B20032085B
:10062000CA000A30CB009D227808C9003208CA00EF
:100630000A30CB009D227708B200310DF700F70D8C
:10064000FC30F70577084907B1003108CA000A30C5
:10065000CB009D227808C9003108CA000A30CB00BF
:100660009D227708B1004908B00008003608C6008E
:100670003508C500B2220130C5003008C600E720A9
:100680000230C5003108C600E7200330C50032083B
:10069000C600E7200430C5003308C600E7208031DB
:1006A000D02C3608C6003508C500B2220130C5007E
:1006B0003108C600E7200230C5003208C600E72036
:1006C0000330C5003308C600E7200430C5003408F5
:1006D000C600E72008003A302100990001302000D0
:1006E000AF00B601B501B801B7013A10BA103A111E
:1006F000BC01BB012F0091019201980199019A015F
:1007000023008C018D018F01900122009201910143
:1007100094019301FC302000A4006030A500DA3081
:10072000A600F230A7006630A800B630A900BE309F
:10073000AA00E030AB00FE30AC00F630AD00AE01F8
:100740000B138B138B1BA12B220016082000BF005C
:100750000308C000210016082000C100210017086E
:100760002000C20021001614961415309700640072
:100770000B138B138B1BB92B3830990023008C0182
:1007800022008C012100951724008D019001220088
:10079000920191019401930121001D101E109E10E1
:1007A0001E11003023008C0090008D008F00F0306F
:1007B000250093059A05260093059A059E05640079
:1007C0008D3020009800013021008C00C1308D0058
:1007D0008E018F01900195171D107E30220091052A
:1007E0009305980597019E012000C401C301C40828
:1007F000031D0A2C4308633C031C0A2C6430C5000B
:10080000442064006430C50044206400C30A031916
:10081000C40AF72B53200B08F7008B133D08230065
:10082000910020003F0823009300951315155530C3
:100830009600AA309600951495181C2C151177086F
:100840008B04200053200B08F7008B133D08230076
:100850009100200040082300930095131515553092
:100860009600AA30960095149518342C1511770827
:100870008B04200053200B08F7008B133D08230046
:100880009100200041082300930095131515553061
:100890009600AA309600951495184C2C15117708DF
:1008A0008B04200053200B08F7008B133D08230016
:1008B0009100200042082300930095131515553030
:1008C0009600AA30960095149518642C1511770897
:1008D0008B04200053206400BC28640007302F00E4
:1008E000940064002000E2282F00A001A101A201D1
:1008F000A301A401A501A601A701A901AA01AB01B9
:100900002000AF016400E4216400210015130708F2
:100910008B1011100B1607088B101513C0308B04A9
:1009200020003A102F009401640020003C080D3C88
:100930000318AF2CFF3A031DA12C3B08103C0318F1
:10094000AF2C0B138B138B1BA22C2100111020003A
:10095000E421BC01BB013A10BA10C0308B04BA1CB0
:10096000ED2C64003908FD3C0318B92CBB0A0319AF
:10097000BC0A3808C6003708C5003C08C8003B0858
:10098000C700522A7908B6007808B5003A1DD72C5E
:10099000B0080319D12C2F00221364002000362B3D
:1009A000D62C2F002217640020005123EA2C2F00A0
:1009B00022132000B0080319E32C2F00AA14A7105B
:1009C000A414E72C20002F00AA14A710A410640080
:1009D00020005123BC01BB01BA10F9308B05000087
:1009E00000006300000000006400013021008C0062
:1009F000C1308D008E018F01900195171D107E3042
:100A0000220091059305980597019E012F00942CD3
:020A1000630081
:020000040001F9
:04000E00D42DFF1ED0
:00000001FF
;PIC16LF1937
;CRC=63B4  CREATED="28-set-14 21:53"
