:060000008031962C000087
:080008008301803140017708FB
:10001000A0007808A1007908A2007A08A3000730A0
:10002000850019308400001C1B28073085000F3024
:10003000840000183C280730850019308400801E99
:100040002728073085000F308400801A3E280730AB
:1000500085001A308400001C3328073085001030DA
:100060008400001840282008F7002108F800220822
:10007000F9002308FA000900803164288031422801
:1000800080314B2850010C0864004E018F12400152
:10009000803140013328AA0A0319AB0A44018C01BC
:1000A00027308D0010308C0000004001981E5A2827
:1000B00098125B28981650010C0864004E0110102D
:1000C00040018031400133284101B601B701B80138
:1000D00050010C08640043018F1A7128F0010F19B8
:1000E000F0177008F00A4101B6003608803C031C86
:1000F000AD283608803A400103198828803A031950
:100100008E28013A03199828033A0319A128AC282C
:1001100043010C084101B7004001AC284301101312
:100120000F1C90280C0810164101B7004001AC28A4
:10013000430110130F1C9A280C0810164001AC0044
:10014000AC28430110130F1CA3280C081016410102
:10015000B80001304001AF0041013608803A40014B
:10016000031DC5282D084101B90043010C084101B8
:10017000390843018C0010164E010F1043010F186F
:10018000BF28F801111FF80A40014E010F1040016D
:10019000803140013328203085005630840000082B
:1001A0000319D8285230F700F70BD428800BD22837
:1001B00008008E30F70041012D08F8002C08F900E6
:1001C000FA01F808031DEE287908F800F901083053
:1001D000F702F808031DEE28F701F6280310F81BB4
:1001E000F528F90DF80DF703EE28F8134001080083
:1001F00041012D08B4003108B406B41F04290311CD
:100200000310AD1B031437292D08B4003008B500C6
:100210002C08B50203191229B41F37290308013A23
:10022000830037293108B5002D08B50203191E29AE
:10023000B41F37290308013A830037293208B50073
:100240002E08B50203192A29B41F37290308013AD9
:10025000830037293308B5002F08B5020319362962
:10026000B41F37290308013A8300372903104001DE
:1002700008004101A2010130A300A401A601A501CB
:10028000A801A701AA01A90150010C0864004101BD
:10029000A40124081F3C031C5B290310240D103EFD
:1002A0008400203085000318850A80010131800117
:1002B0003F31A40A49291E109E1004307E01B80067
:1002C0000030CE0041011E169E161E139E171D14EF
:1002D0000830F8001D08033978049D0050010C080F
:1002E00064004101A40124081F3C031C9029500113
:1002F0000C0864000230F700F70B7C290310410161
:10030000240D103E8400203085000318850A9D14BA
:100310009D1888291B0880001C08813FA40A7329A6
:100320001E109E1000307E01B800CE0041011D104D
:1003300052018C014101A3080319172AA301A4014A
:1003400024081E3C031C162A0310240D103E8400B2
:10035000203085000318850A0008AC000131000830
:10036000AD003F3101302407F7000310F70D770887
:10037000103E8400203085000318850A01310008F2
:10038000FA003F310008F8007A082D02031C142AF5
:10039000031DCE292C0878020318142A0310240DFB
:1003A000103E8400203085000318850A0008A7004D
:1003B000013FA8000310240D103EF8002030FA0081
:1003C0000318FA0A7808AC007A08AD000130240757
:1003D000F7000310F70D7708103E840020308500E9
:1003E0000318850A01310008FA003F310008AE0009
:1003F0007A08AF002D0885002C0884002E088000A4
:100400002F08813F01302407F7000310F70D77080C
:10041000103E8400203085000318850A27088000DC
:100420002808813F0130A300A40AA0299B29AA0122
:10043000A9010830A4002408173C031C332A5001EA
:100440000C08640003104101240D103E840020308C
:1004500085000318850A013FFA00003FA9077A08C2
:10046000AA3DA40A1B2A2A0CA600290CA500A60C4A
:10047000A50CA60CA50CA60CA50C0F30A6055001CA
:100480000C08640041012608AD002508AC004001BD
:10049000D920B1304101AF002630AE006030AD0050
:1004A0008830AC007A08B3007908B2007808B1004F
:1004B0007708B0004001F8200318602A031D652A60
:1004C00011304101A200382C400141012608AD0045
:1004D0002508AC004001D92016304101AF00C630DC
:1004E000AE004B30AD008830AC007A08B30079081C
:1004F000B2007808B1007708B0004001F820031876
:10050000832A031D882A12304101A200382C4001A1
:1005100041012608AD002508AC004001D920B130CA
:100520004101AF005030AE003930AD008830AC0032
:100530007A08B3007908B2007808B1007708B000F3
:100540004001F8200318A62A031DAB2A13304101ED
:10055000A200382C400141012608AD002508AC005E
:100560004001D9200C304101AF002730AE002830C7
:10057000AD008830AC007A08B3007908B200780882
:10058000B1007708B0004001F8200318C92A031D04
:10059000CE2A14304101A200382C40014101260826
:1005A000AD002508AC004001D920F6304101AF0074
:1005B0006330AE001630AD008830AC007A08B3006E
:1005C0007908B2007808B1007708B0004001F8203F
:1005D0000318EC2A031DF12A15304101A200382C22
:1005E000400141012608AD002508AC004001D9209A
:1005F0001B304101AF00A430AE000430AD008830A4
:10060000AC007A08B3007908B2007808B100770826
:10061000B0004001F82003180F2B031D142B1630D7
:100620004101A200382C400141012608AD002508F7
:10063000AC004001D92014304101AF00FC30AE00C5
:100640006630AD008730AC007A08B3007908B2009C
:100650007808B1007708B0004001F8200318322B69
:10066000031D372B17304101A200382C40014101F6
:100670002608AD002508AC004001D92052304101C8
:10068000AF000E30AE004530AD008730AC007A08C8
:10069000B3007908B2007808B1007708B0004001D3
:1006A000F8200318552B031D5A2B18304101A200C6
:1006B000382C400141012608AD002508AC0040015E
:1006C000D9203B304101AF00B330AE002330AD0044
:1006D0008730AC007A08B3007908B2007808B1001E
:1006E0007708B0004001F8200318782B031D7D2BFC
:1006F00019304101A200382C400141012608AD000B
:100700002508AC004001D920CD304101AF001630A2
:10071000AE000430AD008730AC007A08B300790831
:10072000B2007808B1007708B0004001F820031843
:100730009B2B031DA02B20304101A200382C40012F
:1007400041012608AD002508AC004001D9209430B5
:100750004101AF000630AE004E30AD008630AC0037
:100760007A08B3007908B2007808B1007708B000C1
:100770004001F8200318BE2B031DC32B213041017B
:10078000A200382C400141012608AD002508AC002C
:100790004001D92022304101AF00D330AE001430E7
:1007A000AD008630AC007A08B3007908B200780852
:1007B000B1007708B0004001F8200318E12B031DB9
:1007C000E62B22304101A200382C400141012608CD
:1007D000AD002508AC004001D92014304101AF0024
:1007E0008430AE003B30AD008530AC007A08B300F9
:1007F0007908B2007808B1007708B0004001F8200D
:100800000318042C031D092C23304101A200382CAD
:10081000400141012608AD002508AC004001D92067
:100820006C304101AF006930AE002130AD00843042
:10083000AC007A08B3007908B2007808B1007708F4
:10084000B0004001F8200318272C031D2C2C243065
:100850004101A200382C40014101A608031D342C9F
:100860002508023C0318372C2530A200382CA201A1
:100870002208F80080314001442D50010C0864002A
:100880004101240B632C250B502C40011A155030CC
:100890004101A6004001CB201A112D145A2C410110
:1008A00040011A1650304101A6004001CB201A1217
:1008B0000A30AD05981614304101A6004001CB2046
:1008C0009812922C41012408023C031D932C250B05
:1008D000752C40019A1550304101A6004001CB20F3
:1008E0009A110A30AD047F2C410140019A16503014
:1008F0004101A6004001CB209A120130AD059816A7
:1009000014304101A6004001CB20981296304101DD
:10091000A6004001CB20981614304101A6004001EA
:10092000CB209812410180314001B62D55307D0118
:100930008F00AA308F000F101130C5001030C60094
:1009400016307E01A0001530A10055307D018F00CA
:10095000AA308F000F144001941414144301121094
:100960009210921110308D00FF308E0036309000C2
:1009700011149117510192018F019101930160307F
:100980008D004001AB01AA0144010E10013091001D
:1009900033308E008F0190018C018D018C0100009D
:1009A0004E0110101A144001AC01AD01AE01AF01AF
:1009B0000330F0007E01B801CE0153019101920194
:1009C000930190019501960197019401F12C023455
:1009D00020340434003400344034603410340034A3
:1009E000003404308500E730840085171200F700DA
:1009F000003A03190B2D1200F800F81B032D3F39A4
:100A0000870012008600781B1200781F12001E005B
:100A1000F70B052DF62C4101A001A1011E109E101F
:100A200000307E01B800CE0046018E1392135301B0
:100A30009101073092009300900195019600970074
:100A4000940141011D104E011A101910043040018B
:100A500092000330940098019A00AF01AE0150015A
:100A60000C0864004101A1012108093C031C422D2E
:100A70006430A6004001CB2050010C086400410105
:100A8000A10A342D4001392978084101A000A008AD
:100A9000031D632D50010C086400400198160530B9
:100AA0004101A6004001CB20981250010C086400BF
:100AB00004304101A200FA30A6004001CB204101E0
:100AC000A20B5B2D4A2D0310200DA20043018D00C7
:100AD000000000000000000040019816963041011F
:100AE000A6004001CB2050010C0864004001981280
:100AF00096304101A6004001CB2050010C08640053
:100B00004001981696304101A6004001CB205001CB
:100B10000C0864004001981296304101A600400183
:100B2000CB2050010C08640044018C0127308D005B
:100B300010308C0000004E011914C0308B0450019D
:100B40000C08640040012F0BBB2DAF012C083F396E
:100B50004101A200003040012C1B01304101A300E3
:100B60002208A4002308A50040013D2CAC0150013F
:100B70000C08640040016300000000000000000059
:080B800040014E019F2D6300AE
:020000040001F9
:0A000E00EC1F9F3FCB3FFF1FFF3F99
:00000001FF
;PIC16F15324
;CRC=8E7F  CREATED="17-Nov-24 12:00"
