:04000000E2EF45F0F6
:0800080000C504F501C505F572
:1000100002C506F5076A03C508F50001F5C409F530
:10002000F6C40AF5F7C40BF5F8C40CF59FA01CEF55
:1000300000F0AFB0F8EF04F0A1A822EF00F0B1B8E3
:1000400036EF04F0A2A028EF00F0B2B01DEF05F0EB
:10005000A6A02EEF00F0B6B06CEF05F0A8A034EF2C
:1000600000F0B8B008EF05F009C5F5F40AC5F6F4DC
:100070000BC5F7F40CC5F8F404C500F505C501F58A
:1000800006C502F5078E08C503F511009E0FF66E32
:10009000000EF722000EF86E0900F55012004641DE
:1000A0004B45434D440000000000000000000000EC
:1000B00000000000000000000000000041540000AB
:1000C0000000000000000000000000000000000030
:1000D0000000000000000000000041544C530000EC
:1000E0000000000000000000000000000000000010
:1000F00000000000000000004154524553455400E8
:1001000000000000000000000000000000000000EF
:1001100000000000000041542B42544C45000000F8
:1001200000000000000000000000000000000000CF
:100130000000000041542B464C5553485F494E5433
:10014000455256414C5F54494D45000000000000A7
:10015000000041542B464C5553485F54494D4500CF
:10016000000000000000000000000000000000008F
:1001700041542B56414C56455F44454C4159000073
:1001800000000000000000000000000000004154DA
:100190002B44505F53455400000000000000000055
:1001A00000000000000000000000000041542B4C43
:1001B0004F4F505F44454C41590000000000000083
:1001C0000000000000000000000041542B44505F7C
:1001D0004D4541535552455F44454C41590000003F
:1001E000000000000000000041542B5345545449C6
:1001F0004E47530000000000000000000000000017
:1002000000000000000041542B454E41424C455F28
:10021000464C555348494E54455256414C000000F7
:100220000000000041542B5353544F500000000075
:1002300000000000000000000000000000000000BE
:10024000000041542B4558545F5349474E414C5F81
:10025000454E41424C4500000000000000000000F7
:1002600041542B4C4F475F4C4556454C0000000015
:1002700000000000000000000000000000004154E9
:100280002B4E524F5F4C41564147474900000000FA
:1002900000000000000000000000000041542B4E50
:1002A000524F5F4C4156414747495F534F56524169
:1002B0005052455353000000000041542B4E524F02
:1002C0005F4C4156414747495F41425F45585400A2
:1002D000000000000000000041542B43454E5449EB
:1002E0004E4149415F4C4954524900000000000012
:1002F00000000000000041542B4E554D56414C5615
:100300004553000000000000000000000000000055
:100310000000000041542B465756455253494F4E5A
:100320000000F76A360FF66E030EF722000EF86E25
:100330000900F5501200000000000F001E003C00F4
:100340007800B400F000E0015802D002A005F76A7E
:10035000620FF66E030EF722000EF86E0900F550DC
:100360001200000000000000000000010102F76A16
:10037000820FF66E030EF722000EF86E0900F5509C
:100380001200000000000102030408000204F76AE2
:10039000A20FF66E030EF722000EF86E0900F5505C
:1003A0001200000001030000000000000000F76AD6
:1003B000C20FF66E030EF722000EF86E0900F5501C
:1003C0001200000005000000000000000000F76AB5
:1003D000E20FF66E030EF722000EF86E0900F550DC
:1003E0001200070000000F0000001E0000003C008B
:1003F000000078000000B4000000F0000000680178
:100400000000E00100005802000084030000B00476
:100410000000F76A260FF66E040EF722000EF86E43
:100420000900F55012000000000002030406080055
:100430000500F76A460FF66E040EF722000EF86EFE
:100440000900F55012000001030600000000000042
:100450000000F76A660FF66E040EF722000EF86EC3
:100460000900F55012000705000000000000000020
:100470000000F76A860FF66E040EF722000EF86E83
:100480000900F550120000000200040006000800F8
:100490000A000C000E001000120014001600F76A8B
:1004A000B20FF66E040EF722000EF86E0900F5503A
:1004B000120000000300060009000C000F001100EC
:1004C000140017001A001D002000F76ADE0FF66EF8
:1004D000040EF722000EF86E0900F550120003001A
:1004E000060009000C000F001200150018001B0088
:1004F0001E00F76A060FF66E050EF722000EF86E64
:100500000900F5501200000A141E28323C46505AC9
:10051000F76A240FF66E050EF722000EF86E09003A
:10052000F5501200050A0F14191E2328323C4F4BB8
:100530000D0A000042544C453A25640D0A00466CF1
:1005400075736820496E74657276616C2054696DAC
:10055000653A2025352E356C640D0A00466C75739E
:10056000682054696D653A2025352E356C640D0A76
:10057000000056616C76652044656C61793A2025EF
:10058000352E35640D0A00004450205365743A201E
:1005900025352E356C640D0A00004C6F6F702044B9
:1005A000656C61793A2025352E356C640D0A0000A2
:1005B0004450206D6561737572652044656C617986
:1005C0003A2025352E35640D0A00444950205357F2
:1005D0002053657474696E673A2025332E33750D88
:1005E0000A0046772056657273696F6E3A2025358A
:1005F0002E35730D0A0030322E30302E303200008E
:10060000456E61626C6520666C75736820496E7416
:10061000657276616C3A2025312E31640D0A000036
:10062000456E61626C6520657874207369676E61E0
:100630006C3A2025312E31640D0A0000466C75732A
:10064000683A2025352E356C640D0A004F766572A8
:1006500020445020466C7573683A2025352E356C41
:10066000640D0A0041422045787420466C75736819
:100670003A2025352E356C640D0A00004C697472E1
:100680006573202878313030293A2025352E356C95
:10069000640D0A004F4B0D0A000052455345543A71
:1006A000204F4B0D0A0042544C453A25640D0A4F29
:1006B0004B0D0A00466C75736820496E746572763E
:1006C000616C2054696D653A2025352E356C640DBA
:1006D0000A4F4B0D0A0025352E356C640D0A4F4B21
:1006E0000D0A0000466C7573682054696D653A20E8
:1006F00025352E356C640D0A4F4B0D0A000025354B
:100700002E356C640D0A4F4B0D0A000056616C7655
:10071000652044656C61793A2025352E35640D0AD3
:100720004F4B0D0A000025352E35640D0A4F4B0D39
:100730000A004450205365743A2025352E356C64E8
:100740000D0A4F4B0D0A000025352E356C640D0A3D
:100750004F4B0D0A00004C6F6F702044656C61793F
:100760003A2025352E356C640D0A4F4B0D0A0000DA
:1007700025352E356C640D0A4F4B0D0A0000445090
:10078000206D6561737572652044656C61793A20EE
:1007900025352E35640D0A4F4B0D0A0025352E35B3
:1007A000640D0A4F4B0D0A00467720566572736937
:1007B0006F6E3A2025352E35730D0A4F4B0D0A000A
:1007C00030322E30302E3032000044495020535702
:1007D0002053657474696E673A2025332E33750D86
:1007E0000A4F4B0D0A0025332E33750D0A4F4B0D62
:1007F0000A00456E61626C6520666C7573682049FD
:100800006E74657276616C3A2025312E31640D0A62
:100810004F4B0D0A000025312E31750D0A4F4B0D3F
:100820000A0053544F503A2025312E31640D0A4F9F
:100830004B0D0A0025312E31750D0A4F4B0D0A0064
:10084000456E61626C6520657874207369676E61BE
:100850006C3A2025312E31640D0A4F4B0D0A0000F1
:1008600025312E31750D0A4F4B0D0A000001800E07
:1008700003011D6F1C6B00000901842B08010D533F
:1008800007E0090184510A0801E1846B06D00801E0
:1008900009018451050801E1846B845319E1C18E7B
:1008A000C99E0A01126B116B125107080EE303E196
:1008B0001151CF080AE30000000000000000000111
:1008C0000A01112BD8B4122BEFD7C19EC99E090182
:1008D000C98C816BD1AC812B8251815D02E0832B6D
:1008E00001D0836B8351020819E2836B81C982F9BD
:1008F000815310E0010E08017D6F0E8562C810F86B
:100900005CC814F85BC813F85AC812F859C811F833
:1009100004D00901010E08017E6F09010801622D52
:1009200012D0CA84D2B404D00901802B03D00801AC
:100930000901806B8051040805E2010E08010F6F68
:100940000901806B08010501A851A9110AE0A8510D
:10095000D8B4A907A807A85304E1A95302E1AC6BD6
:10096000A66BAA51AB110CE0AA51D8B4AB07AA07E9
:10097000AA5306E1AB5304E10601D86B0501A76B4E
:100980000801065306E1075304E1085302E1095345
:1009900012E0FF0E0627D8A00727D8A00827D8A066
:1009A0000927065308E1075306E1085304E10953F8
:1009B00002E1010E806F615304E06251020801E11F
:1009C0006107665301E06607675301E067076853F4
:1009D00003E0725301E168070C5302E0000E01D0FE
:1009E000010E0C6F010E0A6FB198000134EF00F098
:1009F0000001AF90010E08017C6F4527D8B0462B4F
:100A0000D8B4472BD8B4482BAF90000134EF00F096
:100A10000001B890B89034EF00F0B2A0FED7020108
:100A2000B2C221F5A1C201F521A204D0AB99B083D5
:100A3000B293AB89000133EF05F000010501A96B0A
:100A4000050EA86FA651950801E2A66B036AA65190
:100A5000AC0FE96E050E0320EA6EEAC414FAE9C48D
:100A600013FA0001DAD714CAEAF413CAE9F401C58B
:100A7000EFF40501A6531BE0036AA651AC0FE96E23
:100A8000050E0320EA6EEF500A0811E1010EA65D83
:100A9000036AAC0FE96E050E0320EA6EEF500D08F5
:100AA00006E1010E0801046F0501A66B01D0A62B1B
:100AB000B290000134EF00F0B6A0FED70201C5C22B
:100AC00021F5B4C201F521A204D0BE99C383C59318
:100AD000BE89000182EF05F000010501AB6B050E38
:100AE000AA6FA751950801E2A76B036AA751D80F17
:100AF000E96E060E0320EA6EEAC414FAE9C413FA9A
:100B00000001DAD714CAEAF413CAE9F401C5EFF414
:100B10000501A7531BE0036AA751D80FE96E060E23
:100B20000320EA6EEF500A0811E1010EA75D036A87
:100B3000D80FE96E060E0320EA6EEF500D0806E1AD
:100B4000010E0801056F0501A76B01D0A72BB69018
:100B5000000134EF00F0016603D0026602D007D036
:100B6000022A00C5EEF4012EFCD7022EFAD712009D
:100B7000785104000801726B736B806B826B040EFA
:100B8000666F696B746B686B636B646B020E656F89
:100B9000616B4C6B4B6B4A6B496B506B4F6B4E6B85
:100BA0004D6B516B536B526B556B546B566B579926
:100BB000579B796B786B776B766B756B7A6B7B6F0A
:100BC0007C6B080EEA6E490EE96E006A026A100E2E
:100BD000016E0001C0DF080EEA6E390EE96E006A90
:100BE000026A100E016EB7DF050EEA6EAC0EE96EFA
:100BF000006A026A960E016EAEDF060EEA6E420EC3
:100C0000E96E006A026A960E016EA5DF060EEA6EB4
:100C1000D80EE96E006A026A960E016E9CDF070E1E
:100C2000EA6E6E0EE96E006A026A960E016E93DF3E
:100C30009CEF47F002019799999F9985D3C9EAF4EF
:100C4000D2C9E9F40901D1A103D00201948D0901AF
:100C5000D1B102D00201949D02018C5102E0EEC498
:100C60008BF2948B94BBFED797B907D099ABFCD786
:100C70008C5103E0EEC48BF2F7D70901D1B104D057
:100C8000020198BBFAD703D0020194A7FED7016AEC
:100C900095BB012A000112000901A26B020196997D
:100CA0008C6B7C0E8F6F0901D16B090ED36FA20E76
:100CB000D26F0001BFDF01C5A1F90901A15302E014
:100CC000000E01D0010E016E0001A2EF47F0090EE7
:100CD000EA6ED50EE96EEF500DE0020E016E006A6D
:100CE000002EFED7012EFBD7970E006E002EFED7EA
:100CF000EF2EF3D71200820E0801946F020E956F4B
:100D0000020196998C6F7C0E8F6F0901D16B080ED2
:100D1000D36F940ED26F00018DDF01C5A2F9010ED1
:100D20000901D56F0001D3DF785104000901A153F7
:100D300007E1840E0801946F020E956F08D0090137
:100D4000A12D06D0840E0801946F030E956F090142
:100D500002019699020E8C6F7C0E8F6F0901D16B88
:100D6000080ED36F940ED26F000164DF01C5A2F9A3
:100D700078510400860E0801946F956B02019699D4
:100D8000020E8C6F7C0E8F6F0901D16B080ED36F32
:100D9000940ED26F00014EDF01C5A2F9080EEA6E73
:100DA000960EE96E006A026A340E016ED4DE02010C
:100DB0009699360E8C6F7C0E8F6F0901D16B080EE1
:100DC000D36F940ED26F000135DF01C5A2F97851BF
:100DD0000400080EEA6EE40EE96E006A026A1A0E5A
:100DE000016EB9DE785104000901A2C901F50001C4
:100DF0001200080EEA6EE40EE96E006A026A1A0E2C
:100E0000016EA9DE78510400800E0801E46FE56BE5
:100E1000020196991A0E8C6F7C0E8F6F0901D16BAF
:100E2000080ED36FE40ED26F000104DF01C5B4F9E0
:100E30000901B4C901F50001120008017453D8B4C6
:100E4000C3D10901C151010BC76FC86BC96BCA6B14
:100E5000C72D0FD0C8530DE1C9530BE1CA5309E1A7
:100E6000C52D04D00801F88103D009010801F891CB
:100E70000901C151020BC76FC86BC96BCA6BC7515F
:100E800002080FE1C8530DE1C9530BE1CA5309E150
:100E9000C52D04D00801E88F03D009010801E89F9F
:100EA0000901C151040BC76FC86BC96BCA6BC7512D
:100EB00004080FE1C8530DE1C9530BE1CA5309E11E
:100EC000C52D04D00801EB8F03D009010801EB9F69
:100ED0000901C151080BC76FC86BC96BCA6BC751F9
:100EE00008080FE1C8530DE1C9530BE1CA5309E1EA
:100EF000C52D04D00801E68F03D009010801E69F43
:100F00000901C151100BC76FC86BC96BCA6BC751C0
:100F100010080FE1C8530DE1C9530BE1CA5309E1B1
:100F2000C52D04D00801F78103D009010801F7910C
:100F30000901C151200BC76FC86BC96BCA6BC75180
:100F400020080FE1C8530DE1C9530BE1CA5309E171
:100F5000C52D04D00801E68103D009010801E691FE
:100F60000901C151400BC76FC86BC96BCA6BC75130
:100F700040080FE1C8530DE1C9530BE1CA5309E121
:100F8000C52D04D00801E68303D009010801E693CA
:100F90000901C151800BC76FC86BC96BCA6BC751C0
:100FA00080080FE1C8530DE1C9530BE1CA5309E1B1
:100FB000C52D04D00801E78103D009010801E7919C
:100FC0000901C76BC251010BC86FC96BCA6BC7530C
:100FD0000FE1C82D0DD0C9530BE1CA5309E1C52D4E
:100FE00004D00801E78303D009010801E793090150
:100FF000C76BC86BC351020BC96FCA6BC75310E1F3
:10100000C8530EE1C95102080BE1CA5309E1C52DCD
:1010100004D00801E68503D009010801E69509011D
:10102000C76BC251020BC86FC96BCA6BC75310E1C3
:10103000C85102080DE1C9530BE1CA5309E1C52D9E
:1010400004D00801E68703D009010801E6970901E9
:10105000C76BC251040BC86FC96BCA6BC75310E191
:10106000C85104080DE1C9530BE1CA5309E1C52D6C
:1010700004D00801F98103D009010801F99109019F
:10108000C76BC251080BC86FC96BCA6BC75310E15D
:10109000C85108080DE1C9530BE1CA5309E1C52D38
:1010A00004D00801E78703D009010801E797090187
:1010B000C76BC251100BC86FC96BCA6BC75310E125
:1010C000C85110080DE1C9530BE1CA5309E1C52D00
:1010D00004D00801FA8103D009010801FA9109013D
:1010E000C76BC251200BC86FC96BCA6BC75310E1E5
:1010F000C85120080DE1C9530BE1CA5309E1C52DC0
:1011000004D00801EA8903D009010801EA9909011C
:10111000C76BC251400BC86FC96BCA6BC75310E194
:10112000C85140080DE1C9530BE1CA5309E1C52D6F
:1011300004D00801EA8B03D009010801EA9B0901E8
:10114000C76BC251800BC86FC96BCA6BC75310E124
:10115000C85180080DE1C9530BE1CA5309E1C52DFF
:1011600004D00801EA8D03D009010801EA9D0901B4
:10117000C76BC86BC351010BC96FCA6BC7530FE173
:10118000C8530DE1C92D0BD0CA5309E1C52D04D0B8
:101190000801EA8F03D009010801EA9F0901800EC6
:1011A0000801E46FE56B020196991A0E8C6F7C0EB4
:1011B0008F6F0901D16B080ED36FE40ED26F00015F
:1011C00039DD01C5C6F90801000112000901A26B51
:1011D000A16BBE8A080E0301F56FF66BFA6BEF6B1D
:1011E000100EEE6FE76B940EF36F820ED76F030E47
:1011F000F86F820ED76F940EF36F020EEC6F040E31
:101200000401006F050E0901D56F000160DD0301C7
:10121000F3810000F3B1FED7EBC3A2F9EAC3A1F951
:101220000001785104000301F39F000EF86F0401E0
:10123000006F086F106F186F206F0301D76BBE9A95
:101240000001785104000901A1C901F5A2C902F504
:10125000000112000901A251080809E2FF0A03E196
:10126000A151570804E2040E016E2AD027D0A251E2
:10127000070809E2FF0A03E1A151B20804E2030EE4
:10128000016E1ED01BD0A251070809E2FF0A03E13C
:10129000A1510D0804E2020E016E12D00FD0A2512E
:1012A000060809E2FF0A03E1A151690804E2010E00
:1012B000016E06D003D0000E016E02D0000E016E4A
:1012C000000112000801742D5DD00901A15104082C
:1012D0000BE1C46BC36BC26B100EC16F010EC56F07
:1012E0000001ABDD09D00901C46BC36BC26B100EEA
:1012F000C16FC56B0001A1DD0901A15102080BE21C
:10130000C46BC36BC26B080EC16F010EC56F0001C9
:1013100094DD09D00901C46BC36BC26B080EC16FA9
:10132000C56B00018ADD0901A15101080BE2C46B04
:10133000C36BC26B040EC16F010EC56F00017DDD72
:1013400009D00901C46BC36BC26B040EC16FC56BBE
:10135000000173DD0901A15100080BE2C46BC36BEE
:10136000C26B020EC16F010EC56F000166DD09D0B0
:101370000901C46BC36BC26B020EC16FC56B000168
:101380005CDD08010001120078510400080174536B
:10139000D8B4FBD1E3C8A7F9E9990901A7AF03D0F5
:1013A0000801E98909010801E99B0901A7AD03D0FA
:1013B0000801E98B09010801E99D0901A7AB03D0E8
:1013C0000801E98D09010801E99F0901A7A903D0D6
:1013D0000801E98F09010801E89D0901A7A703D0C9
:1013E0000801E88D09010801E8990901A7A503D0C2
:1013F0000801E88909010801E89B0901A7A303D0B6
:101400000801E88B0901036AA151D40FE96E080EA7
:101410000320EA6EEFC4A7F90801EC990901A7AF10
:1014200003D00801EC8909010801EC9B0901A7AD73
:1014300003D00801EC8B09010801EC9D0901A7AB61
:1014400003D00801EC8D09010801EC9F0901A7A94F
:1014500003D00801EC8F09010801EB9D0901A7A742
:1014600003D00801EB8D09010801EB990901A7A53B
:1014700003D00801EB8909010801EB9B0901A7A32F
:1014800003D00801EB8B0901036AA251D40FE96E66
:10149000080E0320EA6EEFC4A7F90801EE990901CE
:1014A000A7AF03D00801EE8909010801EE9B0901ED
:1014B000A7AD03D00801EE8B09010801EE9D0901DB
:1014C000A7AB03D00801EE8D09010801EE9F0901C9
:1014D000A7A903D00801EE8F09010801ED9D0901BC
:1014E000A7A703D00801ED8D09010801ED990901B5
:1014F000A7A503D00801ED8909010801ED9B0901A9
:10150000A7A303D00801ED8B0901036AA351D40FEF
:10151000E96E080E0320EA6EEFC4A7F90801F099FE
:101520000901A7AF03D00801F08909010801F09B68
:101530000901A7AD03D00801F08B09010801F09D56
:101540000901A7AB03D00801F08D09010801F09F44
:101550000901A7A903D00801F08F09010801EF9D37
:101560000901A7A703D00801EF8D09010801EF9930
:101570000901A7A503D00801EF8909010801EF9B24
:101580000901A7A303D00801EF8B0901036AA45145
:10159000D40FE96E080E0320EA6EEFC4A7F9080124
:1015A000F2990901A7AF03D00801F28909010801E6
:1015B000F29B0901A7AD03D00801F28B09010801D4
:1015C000F29D0901A7AB03D00801F28D09010801C2
:1015D000F29F0901A7A903D00801F28F09010801B0
:1015E000F19D0901A7A703D00801F18D09010801A8
:1015F000F1990901A7A503D00801F18909010801A2
:10160000F19B0901A7A303D00801F18B0901036A2B
:10161000A551D40FE96E080E0320EA6EEFC4A7F9B6
:101620000801F4990901A7AF03D00801F489090161
:101630000801F49B0901A7AD03D00801F48B09014F
:101640000801F49D0901A7AB03D00801F48D09013D
:101650000801F49F0901A7A903D00801F48F09012B
:101660000801F39D0901A7A703D00801F38D090123
:101670000801F3990901A7A503D00801F38909011D
:101680000801F39B0901A7A303D00801F38B09010B
:10169000036AA651D40FE96E080E0320EA6EEFC468
:1016A000A7F90801F6990901A7AF03D00801F68947
:1016B00009010801F69B0901A7AD03D00801F68BCB
:1016C00009010801F69D0901A7AB03D00801F68DB9
:1016D00009010801F69F0901A7A903D00801F68FA7
:1016E00009010801F59D0901A7A703D00801F58D9F
:1016F00009010801F5990901A7A503D00801F58999
:1017000009010801F59B0901A7A303D00801F58B86
:1017100009010801ED9FEF8FF19FF38FF59F800E78
:10172000946F020E956FE8C896F8E9C897F8EAC872
:1017300098F8EBC899F8ECC89AF8EDC89BF8EEC891
:101740009CF8EFC89DF8F0C89EF8F1C89FF8F2C861
:10175000A0F8F3C8A1F8F4C8A2F8F5C8A3F8F6C831
:10176000A4F802019699110E8C6F7C0E8F6F0901FF
:10177000D16B080ED36F940ED26F00011AEC06F0F5
:1017800001C5A8F97851040008010001F4EF47F001
:10179000070E0301216F1E6F1F6B206B800E1D6FE4
:1017A0001C6B0000B198A18800010FEF48F00901FF
:1017B000D96BD86BDA6BDC6BDB6BD5C9DCF9D4C9C0
:1017C000DBF9D96BD86BD951D75D12E303E1D65160
:1017D000D85D0EE2D851DB25016ED951DC2101C55F
:1017E000E9F4EA6EEF50DA27D82BD8B4D92BEBD72F
:1017F000DAC901F5000112000901A46BA36BA56B06
:10180000A66BA86BA76BA2C9A8F9A1C9A7F9A46B7D
:10181000A36BA45322E1A3510F081FE3A351A725F3
:10182000016EA451A821036E0150E96E03C5EAF4CC
:10183000D6C4ABF9D69EA4C944F0A3C943F0380E70
:101840000001456F416B408146510901ABBFD68E07
:10185000EF6EA32BD8B4A42BDCD7A2C9D5F9A1C9AC
:10186000D4F9D76B100ED66F0001A1DF01C5A5F921
:10187000D6C4A9F9D69EA4C944F0A3C943F0380E32
:10188000456F416B408146510901A9BFD68EA66FB5
:10189000A551A65D03E1010E016E02D0000E016E9E
:1018A00000011EEF48F00901A1C9E9F4A2C9EAF458
:1018B0001E0EEF6EEC6AEC6AEC6A040EA125E96E6E
:1018C000000EA221EA6E1E0EEF6EEC6AEC6AEC6A64
:1018D000080EA125E96E000EA221EA6E0A0EEF6E37
:1018E000090EA125E96E000EA221EA6EEC6AED5206
:1018F0000A0EEF6E0B0EA125E96E000EA221EA6E14
:10190000EC6AED52640EEF6E0D0EA125E96E000E2D
:10191000A221EA6E080EEF6E0E0EA125E96E000EF2
:10192000A221EA6EF10EEF14EF6E0E0EA125E96E04
:10193000000EA221EA6EF10EEF140809EF6E0E0EF2
:10194000A125E96E000EA221EA6EEF980E0EA125E8
:10195000E96E000EA221EA6EEF8C0E0EA125E96E53
:10196000000EA221EA6EEF9A0F0EA125E96E000E7D
:10197000A221EA6EEF800F0EA125E96E000EA221D2
:10198000EA6EEF840F0EA125E96E000EA221EA6E29
:10199000EF82000128EF48F00901CE6BCD6BCF6BD1
:1019A000D06BD16BD36BD26BCCC9D3F9CBC9D2F985
:1019B000CE6BCD6BCE5348E1CD510F0845E3D6C475
:1019C000D4F9D69ECEC944F0CDC943F0380E0001FB
:1019D000456F416B408146510901D4BFD68ED16F0E
:1019E000CD51D225016ECE51D321036E01C5E9F44C
:1019F000EA6EEF50D15D24E0CD51D225016ECE517B
:101A0000D32101C5E9F4EA6EEFC4D1F9D6C400F5DB
:101A1000D69ECEC944F0CDC943F0380E0001456FC3
:101A2000D1C946F0030E416F550E426FAA0E426FA8
:101A3000408140B1FED70050D612010E0901D06F8F
:101A4000CD2BD8B4CE2BB6D7D05322E0CCC9D5F904
:101A5000CBC9D4F9D76B100ED66F0001A8DE01C533
:101A6000CFF9D6C400F5D69ECEC944F0CDC943F017
:101A7000380E456FCFC946F0030E416F550E426FC9
:101A8000AA0E426F408140B1FED70050D612090124
:101A9000000E016E000112000901F42D04D0020EA7
:101AA000016E4FD04CD0F451050804E1030E016ED5
:101AB00048D045D0F451070804E1040E016E41D02E
:101AC0003ED0F451030804E1050E016E3AD037D040
:101AD000F4510B0804E1060E016E33D030D0F451FE
:101AE0000F0804E1070E016E2CD029D0F4510D0827
:101AF00004E1080E016E25D022D0F4510C0804E157
:101B0000090E016E1ED01BD0F4510E0804E10A0E1E
:101B1000016E17D014D0F4510A0804E10B0E016EC7
:101B200010D00DD0F451080804E1000E016E09D068
:101B300006D0F451090803E1010E016E02D0000E37
:101B4000016E000112000A01046B056B010E066FA5
:101B5000050EDA6ED96A090E096FFC0E086F0A0EBF
:101B6000EA6EE96A09CAE2F408CAE1F406CA07FAA9
:101B7000D890E550EE02F3500423F4500523072FCC
:101B8000F7D704CADEF405CA04FA056BD8B0052BF2
:101B9000082BD8B4092B062B06510508E0E10001FB
:101BA00012000901F26BF36B000178510400F80E8A
:101BB000C116010E0901EF5D070BC112C1960001AC
:101BC00078510400210E006E002EFED7CFC4F2F92A
:101BD0003C0E0901F217F233F2333F0EF217000107
:101BE00078510400C1860901EF51010A000116E095
:101BF000030AD8B4AAD0010AD8B4F5D0070AD8B4D9
:101C00003CD1010AD8B456D1030AD8B46AD1010A2A
:101C1000D8B485D10F0AD8B42AD27DD20901215176
:101C2000F25DD8B491D0F2C9F4F9000135DF01C5F5
:101C3000F3F90901F35316E10F0EF025E96E000EDA
:101C4000F121EA6EEF820F0EF025E96E000EF12110
:101C5000EA6EEF900F0EF025E96E000EF121EA6EAC
:101C6000EF941FD0F32D08D00F0EF025E96E000E73
:101C7000F121EA6EEF9007D00F0EF025E96E000E0D
:101C8000F121EA6EEF800F0EF025E96E000EF121D2
:101C9000EA6EEF920F0EF025E96E000EF121EA6E6A
:101CA000EF84F0C9E9F4F1C9EAF4D890F335036A96
:101CB000000191EC01F00900F5C403F50901F66F8C
:101CC00003C5F7F9EAC4FBF9E9C4FAF9FF6BFE6B47
:101CD00003C5FDF9FC6F0A01036B026B016B3C0E3F
:101CE000006F000130DFFBC9EAF4FAC9E9F400C56E
:101CF000EFF401C5ECF402C5ECF403C5ECF4036A9F
:101D00000901F3510001A7EC01F0E8C415F9036AD9
:101D10000901F3510001B7EC01F0E8C416F9036AB8
:101D20000901F3510001C7EC01F0E8C417F9036A97
:101D30000901F3510001D7EC01F0E8C418F90901D9
:101D40001A6B196BF2C921F9E7D109012251F25D31
:101D500049E0F2C9F4F900019FDE01C5F3F9040E70
:101D60000901F025E96E000EF121EA6EF351040D30
:101D7000F350036A0001E7EC01F00900F5C401F536
:101D80000900F5C402F50900F5C403F5EF6E01C5BD
:101D9000ECF402C5ECF403C5ECF409011B6B1C6BFD
:101DA000036AF3510001A7EC01F0E8C41DF9036ACE
:101DB0000901F351000109EC02F0E8C41EF9036ABD
:101DC0000901F351000119EC02F0E8C41FF9036A9C
:101DD0000901F351000129EC02F0E8C420F9F2C92D
:101DE00022F9090199D109012351F25D45E0F2C9B7
:101DF000F4F9000151DE01C5F3F90E0E0901F025D9
:101E0000016E000EF121036E01C5E9F4EA6EEFB038
:101E100013D0090EF025E96E000EF121EA6ED8907C
:101E2000F335036A000139EC02F00900F5C403F54B
:101E3000EF6E03C5ECF409010E0EF025016E000EE5
:101E4000F121036E01C5E9F4EA6EEFA013D0090E8B
:101E5000F025E96E000EF121EA6ED890F335036AA1
:101E600000014FEC02F00900F5C403F5EF6E03C565
:101E7000ECF40901F2C923F94FD109012451F25DB3
:101E800018E0080EF025E96E000EF121EA6E0F0E43
:101E9000D880F255006ED89000360050036A0001D9
:101EA00065EC02F00900F5C403F5EF6EF2C924F900
:101EB000090132D109012551F25D12E00B0EF02526
:101EC000E96E000EF121EA6E0F0ED880F255036A1A
:101ED000000179EC02F0EF6EEC6AF2C925F9090114
:101EE0001BD109012651F25D19E00D0EF025E96EB6
:101EF000000EF121EA6E0F0ED880F255036A000140
:101F000088EC02F0EF6E0D0E0901F025E96E000E6F
:101F1000F121EA6EEFC461F8F2C926F9FDD009019A
:101F20002751F25DD8B4A2D0F251010B010822E191
:101F30000E0EF025E96E000EF121EA6EEF8023C946
:101F4000F4F90001A9DD01C5F3F9090E0901F02535
:101F5000E96E000EF121EA6ED890F335036A0001B4
:101F60004FEC02F00900F5C403F5EF6E03C5ECF485
:101F700021D009010E0EF025E96E000EF121EA6E66
:101F8000EF9023C9F4F9000187DD01C5F3F9090ECB
:101F90000901F025E96E000EF121EA6ED890F335C3
:101FA000036A000139EC02F00900F5C403F5EF6E95
:101FB00003C5ECF40901F251020B02080BE10E0E0D
:101FC000F025E96E000EF121EA6EF10EEF1408091A
:101FD000EF6E4AD0F251040B04080EE1F251080BE7
:101FE00008080AE10E0EF025E96E000EF121EA6EF6
:101FF000F10EEF14EF6E38D0F251040B04080FE12C
:10200000F251080B08080BE00E0EF025E96E000EE9
:10201000F121EA6EF10EEF140209EF6E25D0F251B4
:10202000040B04080FE0F251080B08080BE10E0E38
:10203000F025E96E000EF121EA6EF10EEF140409AD
:10204000EF6E12D0F251040B04080EE0F251080BAF
:1020500008080AE00E0EF025E96E000EF121EA6E86
:10206000F10EEF140609EF6EF2C927F955D00901F8
:102070002851F25D4EE0F251010B010808E10E0E0D
:10208000F025E96E000EF121EA6EEF9807D00E0EF2
:10209000F025E96E000EF121EA6EEF88F251020B95
:1020A000020808E10E0EF025E96E000EF121EA6E3D
:1020B000EF9A07D00E0EF025E96E000EF121EA6EC0
:1020C000EF8AF251040B040808E10E0EF025E96EC8
:1020D000000EF121EA6EEF9C07D00E0EF025E96E9E
:1020E000000EF121EA6EEF8CF251080B080808E1AE
:1020F0000E0EF025E96E000EF121EA6EEF9E07D07C
:102100000E0EF025E96E000EF121EA6EEF8EF2C997
:1021100028F902D000010901F2C901F500011200FD
:1021200078510400080E0901EF6FEEC9F1F9EDC90D
:10213000F0F9000136DD070E0901EF6FEEC9F1F984
:10214000EDC9F0F900012DDD010E0901EF6FEEC9B7
:10215000F1F9EDC9F0F9000124DD020E0901EF6F7C
:10216000EEC9F1F9EDC9F0F900011BDD030E09011B
:10217000EF6FEEC9F1F9EDC9F0F9000112DD040EBF
:102180000901EF6FEEC9F1F9EDC9F0F9000109DDC0
:10219000050E0901EF6FEEC9F1F9EDC9F0F9000183
:1021A00000DD060E0901EF6FEEC9F1F9EDC9F0F996
:1021B0000001F7DC78510400090E0901ED25E96EF4
:1021C000000EEE21EA6EECC4F0F9ED52EFC4EFF927
:1021D000EF5302E1F0530FE00E0EED25016E000EFD
:1021E000EE21036E01C5E9F4EA6EEFAC04D0010EF6
:1021F00008017A6F02D008017A6B000E016E0001AF
:102200001200420E006E002EFED70000C69CBE8C4F
:10221000420E006E002EFED70000CA92C282850ECA
:10222000006E002EFED7C69CBE9C420E006E002E95
:10223000FED70000CA92C292420E006E002EFED758
:10224000000012000901DD6B800EDD6FDD5321E01F
:10225000420E006E002EFED70000000178510400EF
:102260000901DD51DC1503E0C69CBE8C02D0C69C82
:10227000BE9C420E006E002EFED70000CA92C282A3
:10228000850E006E002EFED7CA92C292D890DD3322
:10229000DDD7420E006E002EFED7000000017851FF
:1022A00004001200090E0901DF5F0CE3090EEA6E5B
:1022B000DF0EE96ED890EF32EF5004E001D000005D
:1022C000EF2EFDD700011200010E0901DB6FDD6B5F
:1022D000C80EDC6FC69CBE8CC68C420E006E002EF3
:1022E000FED70000CA92C28200D0DB6BCEBCDB2BD3
:1022F000DC51D8B4DD07DC07DB5303E0DC51DD1132
:10230000F3E1DDC9DEF9DE2BDE07D8B405D0DF69E5
:102310000001C8DF0901F8D7DCC9DFF90001C2DF1D
:10232000CA92C292420E006E002EFED70000C69CDA
:10233000BE9C420E006E002EFED700000901DB534A
:1023400003E0000E016E02D0010E016E00011200CA
:10235000420E006E002EFED70000C69CBE9C420EB0
:10236000006E002EFED70000CA92C282420E006E9E
:10237000002EFED70000C69CBE8C850E006E002E7F
:10238000FED71200785104003CDFD8900901A13536
:10239000A26FDC6F000156DF97DF015204E1D8DF46
:1023A000000E016E03D0D4DF010E016E1200080191
:1023B0007453D8B42FD1036A0901CC51D40FE96EFC
:1023C000080E0320EA6EEFC4CFF9CB51010A0001D9
:1023D00008E0030A3FE0010A76E0070AD8B4ACD06F
:1023E000E5D00801F0910901CFAF03D00801F081D9
:1023F00009010801F0930901CFAD03D00801F08372
:1024000009010801F0950901CFAB03D00801F0855F
:1024100009010801F0970901CFA903D00801F0874D
:1024200009010801EF950901CFA703D00801EF8545
:1024300009010801EF910901CFA503D00801EF813F
:1024400009010801EF930901CFA303D00801EF832D
:102450000901ADD00801F2910901CFAF03D0080105
:10246000F28109010801F2930901CFAD03D00801FF
:10247000F28309010801F2950901CFAB03D00801ED
:10248000F28509010801F2970901CFA903D00801DB
:10249000F28709010801F1950901CFA703D00801CE
:1024A000F18509010801F1910901CFA503D00801C7
:1024B000F18109010801F1930901CFA303D00801BB
:1024C000F183090174D00801F4910901CFAF03D061
:1024D0000801F48109010801F4930901CFAD03D08B
:1024E0000801F48309010801F4950901CFAB03D079
:1024F0000801F48509010801F4970901CFA903D067
:102500000801F48709010801F3950901CFA703D059
:102510000801F38509010801F3910901CFA503D052
:102520000801F38109010801F3930901CFA303D046
:102530000801F38309013BD00801F6910901CFAFEF
:1025400003D00801F68109010801F6930901CFAD16
:1025500003D00801F68309010801F6950901CFAB04
:1025600003D00801F68509010801F6970901CFA9F2
:1025700003D00801F68709010801F5950901CFA7E5
:1025800003D00801F58509010801F5910901CFA5DE
:1025900003D00801F58109010801F5930901CFA3D2
:1025A00003D00801F583090102D000010901CD2DF6
:1025B0002DD0800E0801946F060E956FECC896F82A
:1025C000EDC897F8EEC898F8EFC899F8F0C89AF8EF
:1025D000F1C89BF8F2C89CF8F3C89DF8F4C89EF8BF
:1025E000F5C89FF8F6C8A0F8020196990D0E8C6FF9
:1025F0007C0E8F6F0901D16B080ED36F940ED26FD2
:1026000000011AEC06F001C5D0F90901000178516A
:10261000040008010001120008017453D8B4BBD0B3
:102620000901A25303E10801B6D009010801EE93A4
:10263000EC91ED93EE95EC95EC97ED97EE97EC938E
:10264000ED95F3870901A35327E1010ECB6F0B0E24
:10265000CC6FCD6BCE6B0001AADE020E0901CB6FF1
:102660000B0ECC6FCD6BCE6B0001A1DE030E09010A
:10267000CB6F0B0ECC6FCD6BCE6B000198DE040ED2
:102680000901CB6F0B0ECC6FA1C9CDF9CE6B000148
:102690008EDE080180D009010801F081F083F08509
:1026A000F097EF85EF81EF83F291F293F295F28745
:1026B000F185F181F1930901A251040A000105E0BD
:1026C000060A14E0030A23E032D00801F491F493DF
:1026D000F495F487F385F381F393F681F683F69509
:1026E000F697F585F581F583000121D00801F49175
:1026F000F483F485F487F385F381F393F681F6830D
:10270000F685F697F585F581F583000110D008016F
:10271000F481F493F495F487F385F381F383F681E0
:10272000F693F695F697F585F581F5830001090195
:10273000A12D2DD0800E0801946F060E956FECC868
:1027400096F8EDC897F8EEC898F8EFC899F8F0C871
:102750009AF8F1C89BF8F2C89CF8F3C89DF8F4C841
:102760009EF8F5C89FF8F6C8A0F8020196990D0EDC
:102770008C6F7C0E8F6F0901D16B080ED36F940E96
:10278000D26F00011AEC06F001C5A4F9090100019D
:10279000785104000801000112000901A16BA26B2D
:1027A000CA84D2B41CD0A198010EA26FA16BA15112
:1027B0001D0814E3000178510400640E0901D56F6F
:1027C000000167EC06F0800EC11ACA84D2A403D0BF
:1027D0000901A26B00010901A12BE9D7A188CA84D4
:1027E000D2A4FDD7A2C901F50001E8EF48F0090124
:1027F000D951DB03F3C401F5F4C400F5DC03F35055
:102800000026DA51DB03F3500020026E00011200B3
:102810000901D36BD26BD16BD36B010ED26FD25146
:10282000CB25E96E000ECC21EA6EEFC4D5F9DA6B48
:10283000D1C9D9F9DC6B1E0EDB6F0001D8DF02C5F0
:10284000D7F901C5D6F90901D2510124016E000E54
:102850000220036E015003C5F7F4000146EC00F0BE
:10286000016E0901D55D03E0010ED36F01D0D22BBB
:10287000DA6BD1C9D9F9DC6B1E0EDB6F0001B7DF53
:1028800002C5D6F901C5D5F90901D2510124016E5D
:10289000000E0220036E015003C5F7F4000146EC60
:1028A00000F0000A04E00901D32DB9D700010901A5
:1028B000D353D8A4B5D0D251CB25E96E000ECC218C
:1028C000EA6EEF500D0818E1010ED225CB25E96E16
:1028D000000ECC21EA6EEF500A080EE1CEC9EAF4F0
:1028E000CDC9E9F4EF6ACFC9E9F4D0C9EAF4EF6AD7
:1028F000D1C901F5A0D094D0D251CB25E96E000EFC
:10290000CC21EA6EEF503D08D8A488D0D22BD2510A
:10291000CB25E96E000ECC21EA6EEF503F080FE1A7
:10292000CEC9EAF4CDC9E9F4010EEF6ECFC9E9F4DE
:10293000D0C9EAF4EF6AD1C901F57DD06BD0D46B70
:10294000CEC9EAF4CDC9E9F4020EEF6ED46BD251D0
:10295000D425CB25E96E000ECC21EA6EEF500D0890
:1029600052E0D251D425010FCB25E96E000ECC21C7
:10297000EA6EEF500A0847E0D251D425CB25E96E24
:10298000000ECC21EA6EEF523EE0D251D425CB2589
:10299000E96E000ECC21EA6EEF502F080AE2D25108
:1029A000D425CB25E96E000ECC21EA6EEF50390814
:1029B00013E2D251D425CB25E96E000ECC21EA6E6C
:1029C000EF502E0809E0CFC9E9F4D0C9EAF4EF6A64
:1029D000000E016E30D015D0D451CF25016E000EFF
:1029E000D021036ED251D425CB25E96E000ECC2127
:1029F000EA6EEFC4D7F903C5EAF401C5E9F4D7C913
:102A0000EFF4D42BA4D7D451CF25E96E000ED021FA
:102A1000EA6EEF6AD1C901F50ED002D0010ED36F74
:102A2000D32D01D0D12BD151150803E3D32D01D0E3
:102A3000F3D6000E016E000112003AC9EAF439C95A
:102A4000E9F40901FDC9EFF4E92AD8B4EA2AEF6AEA
:102A5000392BD8B43A2B000112000900F55210E0CE
:102A6000F6C4EDF9F7C4EEF9F8C4EFF9F5C4FDF9D1
:102A7000E4DFEDC9F6F4EEC9F7F4EFC9F8F4EDD7E9
:102A800012000900F6C4F2F9F7C4F3F9F8C4F4F936
:102A9000F5C4FDF9D2DFF2C9F6F4F3C9F7F4F4C9CD
:102AA000F8F40901F12F01D002D00001EAD70001AA
:102AB00012000901F551016AF45D03E2F4C900F561
:102AC0000CD0006A080EF66FF4370036F551005C42
:102AD000D8B0006E0136F62FF7D700011200200E95
:102AE0000901EFA9300EF06FEEC900F500AE08D075
:102AF000001E002A00C5EEF92D0EF06FEF8FEF815A
:102B00000150EEC9F4F9640EF56F0001D2DF00C583
:102B1000EEF9300E01240901F16FEEC9F4F90A0E45
:102B2000F56F0001C6DF300E00240901F36F300E8F
:102B30000124F26FF0C900F5300EF15D04E0EF837F
:102B4000EFBFEF8512D0F0C9F1F9200EF06F300E13
:102B5000F25D04E0EF81EFBFEF8307D0D8A4EF81EF
:102B600004E1F1C9F2F9200EF16FEFB505D0EFB332
:102B700007D0EFB109D00CD0F0C9FDF900015DDF3D
:102B8000F1C9FDF9000159DFF2C9FDF9000155DF76
:102B9000F3C9FDF9000151DF1200EF5212E0EAC45F
:102BA000EEF9E9C4EDF9EF50B2A2FED70201A36F2E
:102BB000EEC9EAF4EDC9E9F4E92AD8B4EA2A000139
:102BC000ECD71200EF5212E0EAC4EEF9E9C4EDF9D5
:102BD000EF50B6A2FED70201B66FEEC9EAF4EDC916
:102BE000E9F4E92AD8B4EA2A0001ECD71200D8B2F5
:102BF00004D00A0EEA6E050EE96E006A016A026AE6
:102C0000036A0A01056B066B076B086B045103111D
:102C1000021101112EE0200E096FD8900901FD3735
:102C2000FE37FF370A010037053706370737083701
:102C30000451085D08E10351075D05E10251065D9D
:102C400002E10151055D0FE30151055F0251D8A07A
:102C5000023D065F0351D8A0033D075F0451D8A091
:102C6000043D085FD8800036013602360336092F4E
:102C7000D4D705CAEFF406CAECF407CAECF408CAC4
:102C8000ECF400011200E9500901F56FF4AF0DD02A
:102C9000F507F58BF11FF21FF31FF41FF12BD8B4CA
:102CA000F22BD8B4F32BD8B4F42B3B0EFC6F9A0E56
:102CB000FB6FCA0EFA6FF96B0A0EF76FD882090E16
:102CC000EA6EF10EE96EF4C900FAF3C9FFF9F2C930
:102CD000FEF9F1C9FDF9FCC904FAFBC903FAFAC906
:102CE00002FAF9C901FA000182DF0150005213E132
:102CF0000901F751010AD8A402D000010CD0F55106
:102D00000DE00F0BF75D01E02BE2F5BF29D0F5BD1B
:102D100005D0200E1FD0200E0901F517F5AB0BD002
:102D2000F59B00C5F5F92D0EFD6F000186DE09014A
:102D3000F5C900F5F56B300EF5AB0CD0F59B00C571
:102D4000F5F92D0EFD6F000178DE0901F5C900F5DA
:102D5000F56B300E002600C5FDF900016EDE09019D
:102D6000D892FCC900FAFBC9FFF9FAC9FEF9F9C902
:102D7000FDF90A01046B036B026B0A0E016F00017F
:102D800036DF03C5FCF902C5FBF901C5FAF900C538
:102D9000F9F90901F72F92D700011200EAC4F7F9F7
:102DA000E9C4F6F90901F0AF08D0F68FF6A9F62BC1
:102DB000EF1FF01FEF2BD8B4F02BF039F009F26FB2
:102DC000F227E20FF36F320FF56FF0510F0BF3277D
:102DD000F327F527E90FF46FF427F427EF390F0BEA
:102DE000F427F527F437F537F51FF537EF510F0BBB
:102DF000F527F237070EF16F0A0EF407F527FDE30A
:102E0000F307F427FDE3F207F327FDE3F107F227C9
:102E1000FDE3090EEA6EF10EE96E070EF615F69D5A
:102E2000ED52F61507E1F6B9EE52F6B903D0200ED1
:102E3000006E21D0E926000EEA22E950F50804E1EF
:102E4000EA50090801E1F68DEF50006E08E1F6BD89
:102E500006D0F6B91DD0F6B702D0200E0BD0F6AFD3
:102E600006D02D0E006EED50F69DF69F04D0F6872D
:102E7000F699300E0026EAC4F0F9E9C4EFF900C56E
:102E8000FDF90001DADDF0C9EAF4EFC9E9F409015E
:102E9000EE50F6ADD2D7000112000150EEC9F4F9A0
:102EA000640E0901F56F000104DE00C5EEF9015062
:102EB000300E08E10901EFA30FD0EFB70DD0EFB945
:102EC000200E04D00901EF97EF99EF81012601C58B
:102ED000FDF90001B2DD0901EEC9F4F90A0EF56F42
:102EE0000001E7DD00C5EEF90150300E08E10901EF
:102EF000EFB70AD0EFA108D0EFB9200E00010126EC
:102F000001C5FDF99ADD0901300EEE27EEC9FDF984
:102F1000000193DD12000901F56BF36B0A0EF46FEB
:102F2000F26BF16BF06BEF6BED51EE1105E1006AA6
:102F3000016A026A036A25D1F551F52BED25E96E88
:102F4000000EEE21EA6EEFC4F6F9F6512D080CE101
:102F5000010EF36FF551F52BED25E96E000EEE2114
:102F6000EA6EEFC4F6F90CD0F6512B0809E1F551E1
:102F7000F52BED25E96E000EEE21EA6EEFC4F6F9B1
:102F8000F6512F08D8B0E5D0F6513908D8A0E1D0D5
:102F9000F65130081EE1F551ED25E96E000EEE21E7
:102FA000EA6EEF50780809E0F551ED25E96E000E64
:102FB000EE21EA6EEF5058080CE1100EF46FF52B7D
:102FC000F551F52BED25E96E000EEE21EA6EEFC40A
:102FD000F6F9F4510A083FE1F6512F083BE2F651A9
:102FE000390838E3D890EF35F86FF035F96FF135DF
:102FF000FA6FF235FB6FEF35006EF035016EF1358B
:10300000026EF235036E00360136023603360036A4
:10301000013602360336F80E00160050F825EF6F21
:103020000150F921F06F0250FA21F16F0350FB219A
:10303000F26F300EF65DEF27000EF023F123F2233E
:10304000F551F52BED25E96E000EEE21EA6EEFC489
:10305000F6F9C2D77ED0F4511008D8A47AD0F65130
:10306000600806E2F6517A0803E3F651DF0B01D05F
:10307000F651F66FF6512F0803E2F651390806E2D1
:10308000F651400866E2F651460863E3F6512F0810
:1030900027E2F651390824E3EF35F86FF035F96F80
:1030A000F135FA6FF235FB6FF837F937FA37FB373E
:1030B000F837F937FA37FB37F837F937FA37FB378C
:1030C000F00EF817300EF65DF825EF6F000EF921BF
:1030D000F06F000EFA21F16F000EFB21F26F24D089
:1030E000EF35F86FF035F96FF135FA6FF235FB6FA8
:1030F000F837F937FA37FB37F837F937FA37FB374C
:10310000F837F937FA37FB37F00EF817410EF65D4E
:103110000A0FF825EF6F000EF921F06F000EFA216B
:10312000F16F000EFB21F26FF551F52BED25E96EE5
:10313000000EEE21EA6EEFC4F6F9F651600806E2E1
:10314000F6517A0803E3F651DF0B01D0F651F66F22
:1031500091D7F4510A080DE1F32D0BD0EF1FF01FAA
:10316000F11FF21FEF2BD8B4F02BD8B4F12BD8B449
:10317000F22BEFC900F5F0C901F5F1C902F5F2C96A
:1031800003F500011200006A016A0901F451D890A8
:10319000F5B1002600320132F5B3002600320132CB
:1031A000F5B5002600320132F5B7002600320132B3
:1031B000F5B9002600320132F5BB0026003201329B
:1031C000F5BD002600320132F5BF00260032013283
:1031D000000153EF19F00901F26BF06B0A0EF16F69
:1031E000EF6BED51EE1103E1000E016EBBD0F25119
:1031F000F22BED25E96E000EEE21EA6EEFC4F3F935
:10320000F3512D080CE1010EF06FF251F22BED2578
:10321000E96E000EEE21EA6EEFC4F3F90CD0F35123
:103220002B0809E1F251F22BED25E96E000EEE219B
:10323000EA6EEFC4F3F9F3512F08D8B08BD0F351F5
:103240003908D8A087D0F35130081EE1F251ED259E
:10325000E96E000EEE21EA6EEF50780809E0F251B7
:10326000ED25E96E000EEE21EA6EEF5058080CE1F4
:10327000100EF16FF22BF251F22BED25E96E000EDC
:10328000EE21EA6EEFC4F3F9F1510A081CE1F351A3
:103290002F0818E2F351390815E30A0EF46FEFC94D
:1032A000F5F9000170D7300E0901F35D0124EF6FCD
:1032B000F251F22BED25E96E000EEE21EA6EEFC41D
:1032C000F3F9E5D747D0F151100844E1F351600814
:1032D00006E2F3517A0803E3F351DF0B01D0F35117
:1032E000F36FF3512F0803E2F351390806E2F3516B
:1032F000400830E2F35146082DE3F3512F080CE269
:10330000F351390809E3EF39F46FF00EF417300E7A
:10331000F35DF425EF6F09D0EF39F46FF00EF41779
:10332000410EF35D0A0FF425EF6FF251F22BED25FC
:10333000E96E000EEE21EA6EEFC4F3F9F351600876
:1033400006E2F3517A0803E3F351DF0B01D0F351A6
:10335000F36FC7D7F02D04D0F1510A0801E1EF6DEA
:10336000EFC901F5000112000901E56BE96BE86B9B
:10337000E76BE66BEB6BEA6BEC6B000178510400DA
:103380000901E05102080AE0E35308E1080EEE6F7C
:10339000490EED6F000190EC10F00901010EDF5DA8
:1033A000EB0FD8B03CEF23F0150F000140EF23F0F6
:1033B0000901E0530EE1CCC93AF9CBC939F92E0E17
:1033C000F66E050EF76E000EF86E00012DEC15F08E
:1033D00009013CEF23F00901E053D8A4EAEF1DF006
:1033E000CCC93AF9CBC939F9340EF66E050EF76E31
:1033F000000EF86E050EF16F000141EC15F0E3C907
:10340000EEF9180E0901EF6F00016FEC15F00D0ECB
:103410000901FD6F00011DEC15F00A0E0901FD6F99
:1034200000011DEC15F00901E42D08D0CCC9EAF427
:10343000CBC9E9F40001CDEC15F007D0CCC9EAF412
:10344000CBC9E9F40001E2EC15F00901CDC9E9F4BA
:10345000CEC9EAF4EFC4EDF9ECC4EEF9ECC4EFF92F
:10346000ECC4F0F9CCC93AF9CBC939F93E0EF66E85
:10347000050EF76E000EF86E150EF16F000141ECAF
:1034800015F0050EE96EF0C9F4F9EFC9F3F9EEC9CC
:10349000F2F9EDC9F1F943EC16F00D0E0901FD6FDB
:1034A00000011DEC15F00A0E0901FD6F00011DEC75
:1034B00015F00901E42D08D0CCC9EAF4CBC9E9F430
:1034C0000001CDEC15F007D0CCC9EAF4CBC9E9F482
:1034D0000001E2EC15F0040E0901CD25E96E000EA5
:1034E000CE21EA6EEFC4EDF9ECC4EEF9ECC4EFF9CD
:1034F000ECC4F0F9CCC93AF9CBC939F95C0EF66ED7
:10350000050EF76E000EF86E0C0EF16F000141EC27
:1035100015F0050EE96EF0C9F4F9EFC9F3F9EEC93B
:10352000F2F9EDC9F1F943EC16F00D0E0901FD6F4A
:1035300000011DEC15F00A0E0901FD6F00011DECE4
:1035400015F00901E42D08D0CCC9EAF4CBC9E9F49F
:103550000001CDEC15F007D0CCC9EAF4CBC9E9F4F1
:103560000001E2EC15F0080E0901CD25E96E000E10
:10357000CE21EA6EEFC4EDF9CCC93AF9CBC939F9DD
:10358000720EF66E050EF76E000EF86E0D0EF16FF0
:10359000000141EC15F0010E0901EE6F200EFD6FE8
:1035A00000011DEC15F00901EE2FF8D7EDC9EEF979
:1035B000170EEF6F00016FEC15F00D0E0901FD6F96
:1035C00000011DEC15F00A0E0901FD6F00011DEC54
:1035D00015F00901E42D08D0CCC9EAF4CBC9E9F40F
:1035E0000001CDEC15F007D0CCC9EAF4CBC9E9F461
:1035F0000001E2EC15F0090E0901CD25E96E000E7F
:10360000CE21EA6EECC4EEF9ED52EFC4EDF9CCC96F
:103610003AF9CBC939F9880EF66E050EF76E000E31
:10362000F86E080EF16F000141EC15F0010EE96E25
:10363000EEC9F0F9EDC9EFF9CEEC16F00D0E090167
:10364000FD6F00011DEC15F00A0E0901FD6F000170
:103650001DEC15F00901E42D08D0CCC9EAF4CBC962
:10366000E9F40001CDEC15F007D0CCC9EAF4CBC9E0
:10367000E9F40001E2EC15F00B0E0901CD25E96E2D
:10368000000ECE21EA6EECC4EEF9ED52EFC4EDF976
:10369000CCC93AF9CBC939F99A0EF66E050EF76E18
:1036A000000EF86E0C0EF16F000141EC15F0010EEA
:1036B000E96EEEC9F0F9EDC9EFF9CEEC16F00D0E9A
:1036C0000901FD6F00011DEC15F00A0E0901FD6FE7
:1036D00000011DEC15F00901E42D08D0CCC9EAF475
:1036E000CBC9E9F40001CDEC15F007D0CCC9EAF460
:1036F000CBC9E9F40001E2EC15F00D0E0901CD256E
:10370000E96E000ECE21EA6EEFC4EDF9CCC93AF9AC
:10371000CBC939F9B00EF66E050EF76E000EF86ED5
:10372000120EF16F000141EC15F0010E0901EE6F70
:10373000200EFD6F00011DEC15F00901EE2FF8D7EA
:10374000EDC9EEF9170EEF6F00016FEC15F00D0EDD
:103750000901FD6F00011DEC15F00A0E0901FD6F56
:1037600000011DEC15F00901E42D08D0CCC9EAF4E4
:10377000CBC9E9F40001CDEC15F007D0CCC9EAF4CF
:10378000CBC9E9F40001E2EC15F00E0E0901CD25DC
:10379000E96E000ECE21EA6EEFC4EDF9CCC93AF91C
:1037A000CBC939F9CA0EF66E050EF76E000EF86E2B
:1037B000100EF16F000141EC15F0EDC9EEF9130E9A
:1037C0000901EF6F00014DEC17F00D0E0901FD6FBF
:1037D00000011DEC15F00A0E0901FD6F00011DEC42
:1037E00015F00901E42D08D0CCC9EAF4CBC9E9F4FD
:1037F0000001CDEC15F007D0CCC9EAF4CBC9E9F44F
:103800000001E2EC15F0CCC93AF9CBC939F9E20E66
:10381000F66E050EF76E000EF86E0C0E0901F16FD4
:10382000000141EC15F0F60EF66E050EF76E000E77
:10383000F86E2DEC15F00D0E0901FD6F00011DEC69
:1038400015F00A0E0901FD6F00011DEC15F00901CC
:10385000E42D08D0CCC9EAF4CBC9E9F40001CDECE1
:1038600015F007D0CCC9EAF4CBC9E9F40001E2ECC9
:1038700015F00F0E0901CD25016E000ECE21036E4D
:1038800001C5E9F4EA6E000EEFB0010EED6FCCC990
:103890003AF9CBC939F9000EF66E060EF76E000E36
:1038A000F86E170EF16F000141EC15F0EDC9EEF95D
:1038B000180E0901EF6F00016FEC15F00D0E0901F4
:1038C000FD6F00011DEC15F00A0E0901FD6F0001EE
:1038D0001DEC15F00901E42D08D0CCC9EAF4CBC9E0
:1038E000E9F40001CDEC15F007D0CCC9EAF4CBC95E
:1038F000E9F40001E2EC15F00F0E0901CD25016E8F
:10390000000ECE21036E01C5E9F4EA6E000EEFB49D
:10391000010EED6FCCC93AF9CBC939F9200EF66E1C
:10392000060EF76E000EF86E130EF16F000141ECFB
:1039300015F0EDC9EEF9180E0901EF6F00016FECFB
:1039400015F00D0E0901FD6F00011DEC15F00A0EBA
:103950000901FD6F00011DEC15F00901E42D08D0EF
:10396000CCC9EAF4CBC9E9F40001CDEC15F007D0DD
:10397000CCC9EAF4CBC9E9F40001E2EC15F0090185
:10398000CFC9E9F4D0C9EAF4EFC4EDF9ECC4EEF91B
:10399000ECC4EFF9ECC4F0F9CCC93AF9CBC939F968
:1039A0003C0EF66E060EF76E000EF86E070EF16F07
:1039B000000141EC15F0050EE96EF0C9F4F9EFC90C
:1039C000F3F9EEC9F2F9EDC9F1F943EC16F00D0E79
:1039D0000901FD6F00011DEC15F00A0E0901FD6FD4
:1039E00000011DEC15F00901E42D08D0CCC9EAF462
:1039F000CBC9E9F40001CDEC15F007D0CCC9EAF44D
:103A0000CBC9E9F40001E2EC15F0040E0901CF2561
:103A1000E96E000ED021EA6EEFC4EDF9ECC4EEF9C8
:103A2000ECC4EFF9ECC4F0F9CCC93AF9CBC939F9D7
:103A30004C0EF66E060EF76E000EF86E0F0EF16F5E
:103A4000000141EC15F0050EE96EF0C9F4F9EFC97B
:103A5000F3F9EEC9F2F9EDC9F1F943EC16F00D0EE8
:103A60000901FD6F00011DEC15F00A0E0901FD6F43
:103A700000011DEC15F00901E42D08D0CCC9EAF4D1
:103A8000CBC9E9F40001CDEC15F007D0CCC9EAF4BC
:103A9000CBC9E9F40001E2EC15F0080E0901CF25CD
:103AA000E96E000ED021EA6EEFC4EDF9ECC4EEF938
:103AB000ECC4EFF9ECC4F0F9CCC93AF9CBC939F947
:103AC000640EF66E060EF76E000EF86E0E0EF16FB7
:103AD000000141EC15F0050EE96EF0C9F4F9EFC9EB
:103AE000F3F9EEC9F2F9EDC9F1F943EC16F00D0E58
:103AF0000901FD6F00011DEC15F00A0E0901FD6FB3
:103B000000011DEC15F00901E42D08D0CCC9EAF440
:103B1000CBC9E9F40001CDEC15F007D0CCC9EAF42B
:103B2000CBC9E9F40001E2EC15F00C0E0901CF2538
:103B3000E96E000ED021EA6EEFC4EDF9ECC4EEF9A7
:103B4000ECC4EFF9ECC4F0F9CCC93AF9CBC939F9B6
:103B50007C0EF66E060EF76E000EF86E0F0EF16F0D
:103B6000000141EC15F0050EE96EF0C9F4F9EFC95A
:103B7000F3F9EEC9F2F9EDC9F1F943EC16F00D0EC7
:103B80000901FD6F00011DEC15F00A0E0901FD6F22
:103B900000011DEC15F00901E42D08D0CCC9EAF4B0
:103BA000CBC9E9F40001CDEC15F007D0CCC9EAF49B
:103BB000CBC9E9F40001E2EC15F0CCC93AF9CBC964
:103BC00039F9940EF66E060EF76E000EF86E2DECB7
:103BD00015F009013CEF23F00901E05311E1010E5A
:103BE00008010F6FCCC93AF9CBC939F99A0EF66EB4
:103BF000060EF76E000EF86E00012DEC15F00901AF
:103C00003CEF23F00901E02D24D0CCC93AF9CBC90F
:103C100039F9A60EF66E060EF76E000EF86E050E5A
:103C2000F16F000141EC15F0E3C9EEF9180E09013E
:103C3000EF6F00016FEC15F0AD0EF66E060EF76E2D
:103C4000000EF86E060E0901F16F000141EC15F04F
:103C500009013CEF23F00901E02D35D0CDC9E9F48D
:103C6000CEC9EAF4EFC4EDF9ECC4EEF9ECC4EFF917
:103C7000ECC4F0F9CCC93AF9CBC939F9B40EF66EF7
:103C8000060EF76E000EF86E150EF16F000141EC96
:103C900015F0050EE96EF0C9F4F9EFC9F3F9EEC9B4
:103CA000F2F9EDC9F1F943EC16F0CF0EF66E060EFF
:103CB000F76E000EF86E060E0901F16F000141EC7F
:103CC00015F047D00901E051020842E1E32D40D050
:103CD000E2C9EEF9E1C9EDF900018BEC17F003C57B
:103CE000E9F902C5E8F901C5E7F900C5E6F90901F6
:103CF000CDC9E9F4CEC9EAF4E6C9EFF4E7C9ECF4BA
:103D0000E8C9ECF4E9C9ECF4CDC9E9F4CEC9EAF4A8
:103D1000EFC4F1F9ECC4F2F9ECC4F3F9ECC4F4F932
:103D2000CCC93AF9CBC939F9050EE96E000143EC6B
:103D300016F0DC0EF66E060EF76E000EF86E060E2E
:103D40000901F16F000141EC15F0010E0901E56F69
:103D5000000109013CEF23F00901E02D37D0040EEA
:103D6000CD25E96E000ECE21EA6EEFC4EDF9ECC46C
:103D7000EEF9ECC4EFF9ECC4F0F9CCC93AF9CBC9CF
:103D800039F9E40EF66E060EF76E000EF86E0C0EA4
:103D9000F16F000141EC15F0050EE96EF0C9F4F980
:103DA000EFC9F3F9EEC9F2F9EDC9F1F943EC16F0F8
:103DB000F60EF66E060EF76E000EF86E060E090190
:103DC000F16F000141EC15F04BD00901E051020800
:103DD00046E1E32D44D0E2C9EEF9E1C9EDF9000175
:103DE0008BEC17F003C5E9F902C5E8F901C5E7F95D
:103DF00000C5E6F9040E0901CD25E96E000ECE21BD
:103E0000EA6EE6C9EFF4E7C9ECF4E8C9ECF4E9C9F5
:103E1000ECF4040ECD25E96E000ECE21EA6EEFC45F
:103E2000F1F9ECC4F2F9ECC4F3F9ECC4F4F9CCC93F
:103E30003AF9CBC939F9050EE96E000143EC16F0E9
:103E4000040EF66E070EF76E000EF86E060E0901F0
:103E5000F16F000141EC15F0010E0901E56F000161
:103E600009013CEF23F00901E02D37D0080ECD25E4
:103E7000E96E000ECE21EA6EEFC4EDF9CCC93AF935
:103E8000CBC939F90C0EF66E070EF76E000EF86E00
:103E90000D0EF16F000141EC15F0010E0901EE6FFE
:103EA000200EFD6F00011DEC15F00901EE2FF8D773
:103EB000EDC9EEF9170EEF6F00016FEC15F01E0E55
:103EC000F66E070EF76E000EF86E060E0901F16F22
:103ED000000141EC15F04AD00901E051020845E12A
:103EE000E32D43D0E2C9EEF9E1C9EDF90001EBECB5
:103EF00018F0036A0150E8BE03060901EA6F03C522
:103F0000EBF9080ECD25E96E000ECE21EA6EEAC966
:103F1000EFF4080ECD25E96E000ECE21EA6EEFC457
:103F2000EDF9CCC93AF9CBC939F9010EEE6F200E83
:103F3000FD6F00011DEC15F00901EE2FF8D7EDC95A
:103F4000EEF9170EEF6F00016FEC15F02B0EF66E09
:103F5000070EF76E000EF86E060E0901F16F0001F4
:103F600041EC15F0010E0901E56F0001090184D350
:103F70000901E02D30D0090ECD25E96E000ECE21CD
:103F8000EA6EECC4EEF9ED52EFC4EDF9CCC93AF9A2
:103F9000CBC939F9320EF66E070EF76E000EF86EC9
:103FA000080EF16F000141EC15F0010EE96EEEC94B
:103FB000F0F9EDC9EFF9CEEC16F0400EF66E070EF3
:103FC000F76E000EF86E060E0901F16F000141EC6C
:103FD00015F044D00901E05102083FE1E32D3DD046
:103FE000E2C9EEF9E1C9EDF90001EBEC18F0036A62
:103FF0000150E8BE03060901EA6F03C5EBF9090E9B
:10400000CD25E96E000ECE21EA6EEBC9ECF4ED523F
:10401000EAC9EFF4090ECD25E96E000ECE21EA6E55
:10402000ECC4F0F9ED52EFC4EFF9CCC93AF9CBC9C1
:1040300039F9010EE96E0001CEEC16F04E0EF66E67
:10404000070EF76E000EF86E060E0901F16F000103
:1040500041EC15F0010E0901E56F000109010CD3D7
:104060000901E02D30D00B0ECD25E96E000ECE21DA
:10407000EA6EECC4EEF9ED52EFC4EDF9CCC93AF9B1
:10408000CBC939F9560EF66E070EF76E000EF86EB4
:104090000C0EF16F000141EC15F0010EE96EEEC956
:1040A000F0F9EDC9EFF9CEEC16F0680EF66E070EDA
:1040B000F76E000EF86E060E0901F16F000141EC7B
:1040C00015F044D00901E05102083FE1E32D3DD055
:1040D000E2C9EEF9E1C9EDF90001EBEC18F0036A71
:1040E0000150E8BE03060901EA6F03C5EBF90B0EA8
:1040F000CD25E96E000ECE21EA6EEBC9ECF4ED524F
:10410000EAC9EFF40B0ECD25E96E000ECE21EA6E62
:10411000ECC4F0F9ED52EFC4EFF9CCC93AF9CBC9D0
:1041200039F9010EE96E0001CEEC16F0760EF66E4E
:10413000070EF76E000EF86E060E0901F16F000112
:1041400041EC15F0010E0901E56F0001090194D25F
:104150000901E02D37D00D0ECD25E96E000ECE21E0
:10416000EA6EEFC4EDF9CCC93AF9CBC939F97E0E44
:10417000F66E070EF76E000EF86E120EF16F00016C
:1041800041EC15F0010E0901EE6F200EFD6F0001EC
:104190001DEC15F00901EE2FF8D7EDC9EEF9170E59
:1041A000EF6F00016FEC15F0950EF66E070EF76ECF
:1041B000000EF86E060E0901F16F000141EC15F0DA
:1041C00045D00901E051020840E1E32D3ED0E2C9AB
:1041D000EEF9E1C9EDF90001EBEC18F001C5ECF9DD
:1041E0000D0E0901CD25E96E000ECE21EA6EECC957
:1041F000EFF40D0ECD25E96E000ECE21EA6EEFC470
:10420000EDF9CCC93AF9CBC939F9010EEE6F200EA0
:10421000FD6F00011DEC15F00901EE2FF8D7EDC977
:10422000EEF9170EEF6F00016FEC15F0A10EF66EB0
:10423000070EF76E000EF86E060E0901F16F000111
:1042400041EC15F0010E0901E56F0001090114D2DE
:104250000901E02D24D0CCC93AF9CBC939F9A80E0F
:10426000F66E070EF76E000EF86E0C0EF16F000181
:1042700041EC15F0C00EF66E070EF76E000EF86EEC
:104280002DEC15F0B90EF66E070EF76E000EF86EF7
:10429000060E0901F16F000141EC15F00901ECD1A6
:1042A0000901E02D2DD00E0ECD25E96E000ECE2198
:1042B000EA6EEFC4EDF9CCC93AF9CBC939F9CA0EA7
:1042C000F66E070EF76E000EF86E100EF16F00011D
:1042D00041EC15F0EDC9EEF9130E0901EF6F000185
:1042E0004DEC17F0DF0EF66E070EF76E000EF86E4F
:1042F000060E0901F16F000141EC15F039D00901FA
:10430000E051020834E1E32D32D0E2C9EEF9E1C90F
:10431000EDF90001EBEC18F001C5ECF90E0E090106
:10432000CD25E96E000ECE21EA6EECC9EFF40E0E3B
:10433000CD25E96E000ECE21EA6EEFC4EEF9CCC9B0
:104340003AF9CBC939F9130EEF6F00014DEC17F0B4
:10435000EB0EF66E070EF76E000EF86E060E0901F4
:10436000F16F000141EC15F0010E0901E56F00014C
:10437000090182D10901E02D32D00F0ECD25016E49
:10438000000ECE21036E01C5E9F4EA6E000EEFB017
:10439000010EED6FCCC93AF9CBC939F9F20EF66EC0
:1043A000070EF76E000EF86E170EF16F000141EC6C
:1043B00015F0EDC9EEF9180E0901EF6F00016FEC71
:1043C00015F00E0EF66E080EF76E000EF86E060E65
:1043D0000901F16F000141EC15F04DD00901E051E8
:1043E000020848E1E32D46D0E2C9EEF9E1C9EDF952
:1043F0000001EBEC18F001C5ECF90F0E0901CD2519
:10440000016E000ECE21036E01C5EDF9EE6FECB129
:1044100006D0EEC9EAF4EDC9E9F4EF9005D0EEC993
:10442000EAF4EDC9E9F4EF800F0ECD25016E000E20
:10443000CE21036E01C5E9F4EA6E000EEFB0010E65
:10444000ED6FCCC93AF9CBC939F9EE6F180EEF6FA1
:1044500000014DEC17F01B0EF66E080EF76E000E05
:10446000F86E060E0901F16F000141EC15F0010E26
:104470000901E56F00010901FFD00901E02D32D0EB
:104480000F0ECD25016E000ECE21036E01C5E9F49D
:10449000EA6E000EEFB2010EED6FCCC93AF9CBC94E
:1044A00039F9220EF66E080EF76E000EF86E060E43
:1044B000F16F000141EC15F0EDC9EEF9180E09019C
:1044C000EF6F00016FEC15F02D0EF66E080EF76E13
:1044D000000EF86E060E0901F16F000141EC15F0B7
:1044E00048D00901E051020843E1E32D41D0E2C97F
:1044F000EEF9E1C9EDF90001EBEC18F001C5ECF9BA
:104500000901EC2D08D00F0ECD25E96E000ECE214D
:10451000EA6EEF8207D00F0ECD25E96E000ECE2198
:10452000EA6EEF920F0ECD25016E000ECE21036EC6
:1045300001C5E9F4EA6E000EEFB2010EED6FCCC9D1
:104540003AF9CBC939F9EE6F180EEF6F00014DEC57
:1045500017F0390EF66E080EF76E000EF86E060EA6
:104560000901F16F000141EC15F0010E0901E56F41
:104570000001090181D00901E02D32D00F0ECD25B7
:10458000016E000ECE21036E01C5E9F4EA6E000E45
:10459000EFB4010EED6FCCC93AF9CBC939F9400E31
:1045A000F66E080EF76E000EF86E130EF16F000136
:1045B00041EC15F0EDC9EEF9180E0901EF6F00019D
:1045C0006FEC15F0580EF66E080EF76E000EF86ED2
:1045D000060E0901F16F000141EC15F048D0090108
:1045E000E051020843E1E32D41D0E2C9EEF9E1C90F
:1045F000EDF90001EBEC18F001C5ECF90901EC2D27
:1046000008D00F0ECD25E96E000ECE21EA6EEF84A4
:1046100007D00F0ECD25E96E000ECE21EA6EEF9485
:104620000F0ECD25016E000ECE21036E01C5E9F4FB
:10463000EA6E000EEFB4010EED6FCCC93AF9CBC9AA
:1046400039F9EE6F180EEF6F00014DEC17F0650EA3
:10465000F66E080EF76E000EF86E060E0901F16F89
:10466000000141EC15F0010E0901E56F000109019F
:1046700003D0090101D00901E5C901F500011200CB
:10468000E824F76AF736A10FF66E460EF722000E01
:10469000F86EFB6E0A00F550FA6E0800F550F96EE0
:1046A000B033D633D83B043C563C583D663E703F51
:1046B00060405041A04274437A4476457246764643
:1046C000764676467646764650420901B46BB56B1F
:1046D000B66B08010453D8B47AD0046B090EEA6EA5
:1046E000B70EE96E006A026A140E016E0001ABECAF
:1046F00005F0050E0901CC6FAC0ECB6F090ECE6F25
:10470000B60ECD6F090ED06FB70ECF6F000108EC5B
:1047100014F001C5B5F90901B55358E0060ECC6F88
:10472000420ECB6F080ECE6F490ECD6F390ECF6F94
:10473000080ED06FD16BD26B390ED36F080ED46FC9
:10474000D56BD66B390ED76F080ED86FD96BDA6B75
:10475000390EDB6F080EDC6FDD6BDE6BB5C9DFF980
:10476000B6C9E0F9090EE26FB70EE16F73C8E3F95D
:10477000010EE46F0001B4EC19F001C5B4F90901B0
:10478000B45308E0080ECC6F490ECB6F0001CCEC9F
:104790000CF00901060EEA6E420EE96E0001CDEC46
:1047A00015F0060EEA6E420EE96E006A026A960E77
:1047B000016EABEC05F0050EEA6EAC0EE96E006A18
:1047C000026A960E016EABEC05F009010801055373
:1047D000D8B47AD0056B090EEA6EB70EE96E006A9E
:1047E000026A140E016E0001ABEC05F0060E090121
:1047F000CC6FD80ECB6F090ECE6FB60ECD6F090EF3
:10480000D06FB70ECF6F000108EC14F001C5B5F9F9
:104810000901B55358E0070ECC6F6E0ECB6F080E32
:10482000CE6F490ECD6F390ECF6F080ED06FD16BA2
:10483000D26B390ED36F080ED46FD56BD66B390E91
:10484000D76F080ED86FD96BDA6B390EDB6F080E95
:10485000DC6FDD6BDE6BB5C9DFF9B6C9E0F9090EB7
:10486000E26FB70EE16F73C8E3F9020EE46F000167
:10487000B4EC19F001C5B4F90901B45308E0080E0D
:10488000CC6F490ECB6F0001CCEC0CF00901070E88
:10489000EA6E6E0EE96E0001E2EC15F0070EEA6EAC
:1048A0006E0EE96E006A026A960E016EABEC05F0C0
:1048B000060EEA6ED80EE96E006A026A960E016E66
:1048C000ABEC05F009010801000112000801745366
:1048D000D8B405D10901CA533CE10801EE93EC912B
:1048E000ED93EE95EC95EC97ED97EE97EC93ED95B7
:1048F000F397010E0901CB6F0B0ECC6FCD6BC9C9BD
:10490000CEF90001D7EC11F0020E0901CB6F0B0EAE
:10491000CC6FCD6BC9C9CEF90001D7EC11F0030EF5
:104920000901CB6F0B0ECC6FCD6BC9C9CEF900015D
:10493000D7EC11F0040E0901CB6F0B0ECC6FC8C978
:10494000CDF9C9C9CEF90001D7EC11F00801C7D0E3
:104950000901CA51020839E10801935325E1090E02
:10496000936F92531FE1050E926F915319E1090E57
:10497000916F905313E1050E906F8F530DE1090E67
:104980008F6F8E5307E18E6B8F6B906B916B926B79
:10499000936B01D08E0701D08F0701D0900701D013
:1049A000910701D0920701D09307EC93ED85F3971F
:1049B00009010FA103D00801F38709010F5302E099
:1049C000000E01D0010E0F6F04D00801EC83ED95AD
:1049D0000901C9530AE10801EE83EC81ED83EE85FC
:1049E000EC95EC97ED97EE970901C92D0AD00801D7
:1049F000EE93EC91ED93EE95EC85EC87ED87EE87E9
:104A0000090108018E5337E18F5335E1EC91ED93A5
:104A1000EE95EC87ED87EE87010E0901CB6F90C80C
:104A2000CCF9CD6BC9C9CEF90001D7EC11F0020E5B
:104A30000901CB6F91C8CCF9CD6BC9C9CEF9000182
:104A4000D7EC11F0030E0901CB6F92C8CCF9CD6BF6
:104A5000C9C9CEF90001D7EC11F0040E0901CB6FE2
:104A600093C8CCF9C8C9CDF9C9C9CEF90001D7ECB2
:104A700011F034D00801EC81ED83EE85EC97ED97D1
:104A8000EE97010E0901CB6F8EC8CCF9CD6BC9C969
:104A9000CEF90001D7EC11F0020E0901CB6F8FC8DF
:104AA000CCF9CD6BC9C9CEF90001D7EC11F0030EDA
:104AB0000901CB6F90C8CCF9CD6BC9C9CEF9000103
:104AC000D7EC11F0040E0901CB6F91C8CCF9C8C91D
:104AD000CDF9C9C9CEF90001D7EC11F008010001E8
:104AE00012000901BC6BBB6BBE6BBD6BC06BBF6BB7
:104AF000C26BC16BC46BC36B010EC56FC66BC76F56
:104B0000060EBE6F710EBD6F090EC06F9C0EBF6F9B
:104B10000001785104000801725303E0010E016E98
:104B200000D1BE8AC280050E0901D56F000167EC75
:104B300006F078510400080E0301F56FF66BFA6B6E
:104B4000EF6B100EEE6FE76B940EF36F820ED76F64
:104B5000030EF86F820ED76F940EF36F060E0401EA
:104B6000006F050E0901D56F000167EC06F0010E1C
:104B70000901C56F000178510400020E0301EC6FBA
:104B8000020E0901C86FC60EDF6F000152EC11F072
:104B90000901C82FF8D70301F3810000F3B1FED754
:104BA000EBC3BCF9EAC3BBF90901BC51BE5D0AE322
:104BB00003E1BD51BB5D06E2C62BC651040801E20C
:104BC000C56B01D0C66BC55302E1C29068D0010E1F
:104BD0000301EC6F020E0901C86FC60EDF6F000102
:104BE00052EC11F00901C82FF8D70301F38100003E
:104BF000F3B1FED7EBC3C2F9EAC3C1F90901C32B74
:104C0000D8B4C42B08010A5337E00A6B595306E1A4
:104C10005A5304E15B5302E15C5313E0FF0E592742
:104C2000D8A05A27D8A05B27D8A05C27742D09D01C
:104C3000010E0901C86FC96B020ECA6F000146DE82
:104C400008015D5306E15E5304E15F5302E16053E6
:104C500013E0FF0E5D27D8A05E27D8A05F27D8A05D
:104C60006027742D09D0010E0901C86FC96F020EAB
:104C7000CA6F00012BDE08010901C45127080FE3A8
:104C800003E1C3510F080BE3C55309E0C251C05DF6
:104C900006E3D8A46FD7BF51C15DD8A06BD7C4516C
:104CA000260805E2FF0A05E1C3510F0802E3C553D8
:104CB00003E1C290C76B20D0C80ED56F000167EC2E
:104CC00006F0010E0301EC6F020E0901C86FC60E5B
:104CD000DF6F000152EC11F00901C82FF8D7030172
:104CE000F3810000F3B1FED7EBC3C2F9EAC3C1F907
:104CF000C290010E0901C76FBE9A000178510400ED
:104D0000C2900301F39F000EF86F0401006F086F5B
:104D1000106F186F206F0301D76B0901C7C901F528
:104D2000080100011200785104000901BD6BC1881F
:104D3000210E006E002EFED7F80EC116BB51000AE0
:104D4000000105E0010A0EE07E0A15E01FD009010E
:104D5000BC2D02D0C18002D0030EC112010EBD6F66
:104D600016D000010901BC2D01D001D0C182010E75
:104D7000BD6F0DD000010901BC2D02D0C18402D04D
:104D8000050EC112010EBD6F02D000010901BD2D3B
:104D90001AD0000178510400210E006E002EFED7BB
:104DA000C19878510400500E0901D56F000167ECDD
:104DB00006F0C188210E006E002EFED77851040047
:104DC000F80EC1160901000112007851040001EC2F
:104DD00011F0D8900901D535DA6FDC6F000122ECB3
:104DE00011F064EC11F0015205E1A8EC11F0000E95
:104DF000016E42D0D9C9DAF90901DA2BDA07D8B441
:104E000006D0DF69000152EC11F00901F7D7D8C9CB
:104E1000DFF9000152EC11F0D6C9DCF922EC11F0F7
:104E200064EC11F0015205E1A8EC11F0000E016EE6
:104E300023D0D9C9DAF90901DA2BDA07D8B406D0B8
:104E4000DF69000152EC11F00901F7D7D8C9DFF989
:104E5000000152EC11F0D7C9DCF922EC11F064EC3E
:104E600011F0015205E1A8EC11F0000E016E04D022
:104E7000A8EC11F0010E016E12000901C06BBEC951
:104E8000C0F9BF2D01D0C08D000178510400BDC90B
:104E9000D5F9C0C9D6F9BFC9D7F9030E0901D96F31
:104EA000E80ED86F000191DF015012008E0E006EE7
:104EB000C2C901F5C1C902F5036A015209E102C57F
:104EC00001F5026A080E005E015202E1006A08D094
:104ED000D89001BE04D0023601360006F9D7019EF3
:104EE00012000901C451D8B471D0006EC851D8B4B1
:104EF0006DD0002604E3810E002668E204D07F0E08
:104F0000005E64E363E0C5C9CCF9C951CC1BC58F11
:104F1000C98FC751CB03F4C4CEF9C651CA03F4C438
:104F200003F5F3C4CDF9CB03F350CE27F450CD23D2
:104F3000000E0322C751CA03F350CE27F450CD23ED
:104F4000000E026A03220222C551CB03F350CD2783
:104F5000F4500322000E0222C551CA03F350032667
:104F6000F4500222000E016A0122C751C903F35016
:104F7000CD27F4500322000E02220122C651C9039C
:104F8000F3500326F4500222000E0122C551C9033A
:104F9000F3500226F4500122002A01BE05D0CD377D
:104FA0000336023601360006000ECDAF0AD0032AC2
:104FB00002220122015005E1025003E1035001E108
:104FC000002ACCBF018ECCAF019E04D0006A016ADA
:104FD000026A036A000112008E0E006E0901D551AB
:104FE000005ED6C902F5D7C901F5028E005209E06C
:104FF000D890025202E1015204E002320132002E46
:10500000F7D7D6AF05D0011E021E012AD8B4022A56
:10501000000112000901C56B00017851040008016C
:105020007453D8B4A0D0036A0901C251D40FE96EF9
:10503000080E0320EA6EEFC4C4F9C12D38D0080170
:10504000E7990901C4AF03D00801E7890901080104
:10505000E79B0901C4AD03D00801E78B09010801F2
:10506000E79D0901C4AB03D00801E78D09010801E0
:10507000E79F0901C4A903D00801E78F09010801CE
:10508000E69D0901C4A703D00801E68D09010801C6
:10509000E6990901C4A503D00801E68909010801C0
:1050A000E69B0901C4A303D00801E68B0901C151A5
:1050B000020838E10801E9990901C4AF03D00801E9
:1050C000E98909010801E99B0901C4AD03D0080180
:1050D000E98B09010801E99D0901C4AB03D008016E
:1050E000E98D09010801E99F0901C4A903D008015C
:1050F000E98F09010801E89D0901C4A703D008014F
:10510000E88D09010801E8990901C4A503D0080147
:10511000E88909010801E89B0901C4A303D008013B
:10512000E88B0901C32D1ED0800E0801946F956B8A
:10513000E6C896F8E7C897F8E8C898F8E9C899F873
:1051400002019699060E8C6F7C0E8F6F0901D16B50
:10515000080ED36F940ED26F00011AEC06F001C551
:10516000C5F909010801000112000901BF6BC06BFC
:1051700000017851040008017453D8B493D0090198
:10518000BE530FE1DFC8BFF9DFC8C0F9C46BC36B02
:10519000080EC26FC16BC56B00011DEC07F067D034
:1051A0000901BB517F0840E0C26BBBC9C1F90001D6
:1051B0007DDE03C5C7F902C5C6F901C5C5F900C53D
:1051C000C4F9CD0E0901CB6FCC0ECA6F4C0EC96F5E
:1051D0007B0EC86F000185DE03C5D8F902C5D7F97B
:1051E00001C5D6F900C5D5F9F7DE01C5BFF9BBC9C0
:1051F000F4F90A0E0901F56F000159EC15F000C52C
:10520000C0F9010E0901C16FBFC9C2F9C36B00012A
:1052100001DF020E0901C16FC0C9C2F9BDC9C3F9DE
:105220000001F8DE24D00901BC5311E0010EC16F6A
:10523000C26BC36B0001EEDE020E0901C16F0E0EE0
:10524000C26FBDC9C3F90001E5DE11D00901010E2D
:10525000C16F0C0EC26FC36B0001DCDE020E0901D0
:10526000C16F0D0EC26FBDC9C3F90001D3DE0901C4
:10527000BB530CE0C46BC36B080EC26FC16B010E55
:10528000C56F00011DEC07F00AD00901C46BC36BA8
:10529000080EC26FC16BC56B00011DEC07F07851A1
:1052A0000400080100011200785104007851040044
:1052B000080163517F0B0901B86F08016351800B2E
:1052C0000901B96BE8BEB9810801725305E0010E0E
:1052D0000901BA6F06D00801000103DC01C5BAF963
:1052E0000901B8517F0A0001D8B459D07E0AD8B458
:1052F00061D0030AD8B468D0010AD8B470D0060AC5
:10530000D8B46DD0020AD8B46AD00E0AD8B467D027
:10531000020AD8B464D0060AD8B461D0020AD8B45C
:105320005ED01E0AD8B45BD0020AD8B458D0060AA0
:1053300056E0020A54E00E0A52E0020A50E0060A61
:105340004EE0020A4CE01B0AD8B489D0020AD8B455
:1053500086D00E0AD8B483D0020AD8B480D0060A08
:10536000D8B47DD0020AD8B47AD01E0AD8B477D087
:10537000020AD8B474D0060AD8B471D0020AD8B4DC
:105380006ED00E0AD8B46BD0020AD8B468D0060A20
:10539000D8B465D0020A63E03E0A61E078D0090122
:1053A000BA2D07D07F0EBB6FB9C9BCF90001BBDCB9
:1053B00009016ED00901BA2D06D0BB6BB9C9BCF981
:1053C0000001B1DC090164D00901BA2D07D0010E3A
:1053D000BB6FB9C9BCF90001A6DC090159D00901AC
:1053E000BA2D3CD00801722D25D057AF23D009012A
:1053F000B8510308D8B402D008011CD0030EB85D20
:10540000036A160FE96E080E0320EA6EEFC4BBF9BB
:10541000B95302E0000E01D0010EBC6FBBC9BDF94B
:10542000010EBE6FBCC9BFF9000127DD01C5BAF985
:1054300014D00801030E0901B85D036A160FE96E66
:10544000080E0320EA6EEFC4BDF9010EBE6FB9C9A4
:10545000BFF9000112DD01C5BAF9090119D009012E
:10546000BA2D13D0030EB85D036A160FE96E080E4D
:105470000320EA6EEFC4BDF9020EBE6FB9C9BFF9D1
:105480000001FBDC01C5BAF9090102D000010901E4
:10549000B7531AE063C864F80801636B0901B95394
:1054A0000AE0B8C9BBF9010EBC6FBD6FBE6F000149
:1054B0005CDE08D00901BB6BBC6B010EBD6FBE6F1B
:1054C000000153DE19D00901B9530AE07F0EBB6F0A
:1054D000010EBC6FBD6FBE6F000147DE09D0090130
:1054E0007F0EBB6FBC6B010EBD6FBE6F00013DDE5A
:1054F0000801636B646B0001785104000901BAC9AB
:1055000001F500011200010E0901B66F000178518A
:105510000400080157AF10D036C8E9F437C8EAF4E0
:10552000EFC463F80901B76B0001BEDE015203E16D
:10553000000E016EB8D00801B5C9B7F90901B72B43
:10554000B707D8B406D0D569000167EC06F00901A9
:10555000F7D7B4C9D5F9000167EC06F0785104001B
:10556000010E0901B66FB6510801655D53E30901EB
:10557000B65108013625E96E000E3721EA6EEF506C
:105580008009636FB6C9B7F900018EDE015203E1ED
:10559000000E016E88D0B5C9B7F90901B72BB7075E
:1055A000D8B406D0D569000167EC06F00901F7D739
:1055B000B4C9D5F9000167EC06F07851040009017F
:1055C000B65108013625E96E000E3721EA6EEFC4A8
:1055D00063F8B6C9B7F9000167DE015203E1000EB6
:1055E000016E61D0B5C9B7F90901B72BB707D8B4B7
:1055F00006D0D569000167EC06F00901F7D7B4C9F8
:10560000D5F9000167EC06F0785104000901B62BCA
:10561000AAD7080157AF11D036C8E9F437C8EAF461
:10562000EF508009636F0901B76B00013DDE015245
:1056300003E1000E016E37D00801B5C9B7F90901C1
:10564000B72BB707D8B406D0D569000167EC06F0D0
:105650000901F7D7B4C9D5F9000167EC06F0785114
:1056600004000901BB6BBC6B010EBD6FBE6F000176
:105670007CDDB5C9B7F90901B72BB707D8B406D097
:10568000D569000167EC06F00901F7D7B4C9D5F96F
:10569000000167EC06F0785104000801636B646B4D
:1056A000010E016E000112000901B4C9E9F4B5C987
:1056B000EAF4EF6AEC6AEC6AEC6A040EB425E96E6F
:1056C000000EB521EA6EEF6AEC6AEC6AEC6A080E2D
:1056D000B425E96E000EB521EA6EEF6AEC6AEC6A59
:1056E000EC6A0C0EB425E96E000EB521EA6EEF6A85
:1056F000EC6AEC6AEC6A000112000901C06BBF6B36
:10570000C16BC06BBF6BC05324E1BF51360821E3AE
:10571000110EBF25C26F000EC021C36FD6C4C4F9DD
:10572000D69EC3C944F0C2C943F0380E0001456F8C
:10573000416B408146510901C4BFD68EAA0805E1DC
:10574000BFC9C1F9C1C901F506D0BF2BD8B4C02B60
:10575000DAD7000E016E0001BAEF2BF00901B76B2A
:10576000B66BB96BB86BBA6BBB6BBC6BBE6BBD6B0E
:105770000001C3D701C5BCF9110E0901BC25BF6FDB
:10578000D6C400F5D69E0001446B436F380E456FBA
:105790004669030E416F550E426FAA0E426F40815B
:1057A00040B1FED70050D612010E0901BC25C06FD2
:1057B000F46F370EF56F000159EC15F000C5BCF918
:1057C000110E0901BC25BF6FD6C400F5D69E00019D
:1057D000446B436F380E456FAA0E466F030E416F40
:1057E000550E426FAA0E426F408140B1FED7005065
:1057F000D612B5C9BEF9B4C9BDF90901BC51110D24
:10580000F350480FB86FB96BD8B0B92BB76BB66B04
:10581000B7532FE1B6510F082CE3B651BD25016EE9
:10582000B751BE2101C5E9F4EA6EEFC4BBF9B85126
:10583000B625BF6FB951B721C06FD6C400F5D69E4B
:10584000E8C444F0BFC943F0380E0001456FBBC93E
:1058500046F0030E416F550E426FAA0E426F408113
:1058600040B1FED70050D6120901B62BD8B4B72BE1
:10587000CFD7B5C9D5F9B4C9D4F9D76B100ED66F47
:105880000001D7EC0BF001C5BAF9100E0901B825DB
:10589000BF6F000EB921C06FD6C400F5D69EE8C414
:1058A00044F0BFC943F0380E0001456FBAC946F055
:1058B000030E416F550E426FAA0E426F408140B1F8
:1058C000FED70050D612000E016EB5EF38F0080179
:1058D0007453D8B494D10901B451020803E108010A
:1058E0008D2B090108018D510A081AE18D6B8C2B53
:1058F0008C510A0815E18C6B8B2B8B510A0810E137
:105900008B6B8A2B8A510A080BE18A6B892B895190
:105910000A0806E1090E896F8A6F8B6F8C6F8D6F95
:10592000FB81036A8951D40FE96E080E0320EA6EE9
:10593000EFC4B6F9FB9F0901B6AF03D00801FB8F96
:1059400009010801FB9D0901B6AD03D00801FB8DDB
:1059500009010801FB970901B6AB03D00801FB87D9
:1059600009010801FB930901B6A903D00801FB83D3
:1059700009010801FB950901B6A703D00801FB85C1
:1059800009010801FB9B0901B6A503D00801FB8BA7
:1059900009010801FB990901B6A303D00801FB899D
:1059A0000901036A08018A51D40FE96E080E032029
:1059B000EA6EEFC4B6F9FA9F0901B6AF03D0080149
:1059C000FA8F09010801FA9D0901B6AD03D008015B
:1059D000FA8D09010801FA970901B6AB03D0080155
:1059E000FA8709010801FA930901B6A903D0080151
:1059F000FA8309010801FA950901B6A703D0080145
:105A0000FA8509010801FA9B0901B6A503D008012E
:105A1000FA8B09010801FA990901B6A303D008011C
:105A2000FA890901036A08018B51D40FE96E080E47
:105A30000320EA6EEFC4B6F9F99F0901B6AF03D0AF
:105A40000801F98F09010801F99D0901B6AD03D0DC
:105A50000801F98D09010801F9970901B6AB03D0D6
:105A60000801F98709010801F9930901B6A903D0D2
:105A70000801F98309010801F9950901B6A703D0C6
:105A80000801F98509010801F99B0901B6A503D0B0
:105A90000801F98B09010801F9990901B6A303D09E
:105AA0000801F9890901036A08018C51D40FE96ED4
:105AB000080E0320EA6EEFC4B6F9F89F0901B6AFED
:105AC00003D00801F88F09010801F89D0901B6AD5E
:105AD00003D00801F88D09010801F8970901B6AB58
