:020000040000fa
:080000003ef2040000000000c4
:020000040000fa
:0400080052e20000c0
:020000040000fa
:04000c0092e200007c
:020000040000fa
:04001000cee200003c
:020000040000fa
:0400140070e2000096
:020000040000fa
:04001800b0e2000052
:020000040000fa
:04001c0048f900009f
:020000040000fa
:04002000ece200000e
:020000040000fa
:0400240048f9000097
:020000040000fa
:0400280048f9000093
:020000040000fa
:04002c0048f900008f
:020000040000fa
:0400300048f900008b
:020000040000fa
:0400340072f6000060
:020000040000fa
:0400380048f9000083
:020000040000fa
:04003c0048f900007f
:020000040000fa
:0400400048f900007b
:020000040000fa
:04004400acf4000018
:020000040000fa
:0400480048f9000073
:020000040000fa
:04004c0048f900006f
:020000040000fa
:0400500048f900006b
:020000040000fa
:04005400c0e4000004
:020000040000fa
:0400580074e400004c
:020000040000fa
:04005c0052f5000059
:020000040000fa
:0400600048f900005b
:020000040000fa
:0400640048f9000057
:020000040000fa
:0400680048f9000053
:020000040000fa
:04006c0048f900004f
:020000040000fa
:0400700048f900004b
:020000040000fa
:04007400d0e50000d3
:020000040000fa
:0400780048f9000043
:020000040000fa
:04007c0048f900003f
:020000040000fa
:0400800048f900003b
:020000040000fa
:0400840048f9000037
:020000040000fa
:0400880048f9000033
:020000040000fa
:04008c0048f900002f
:020000040000fa
:0400900048f900002b
:020000040000fa
:0400940048f9000027
:020000040000fa
:0400980048f9000023
:020000040000fa
:04009c0048f900001f
:020000040000fa
:0400a00048f900001b
:020000040000fa
:0400a40048f9000017
:020000040000fa
:0400a80048f9000013
:020000040000fa
:0400ac0048f900000f
:020000040000fa
:0400b00048f900000b
:020000040000fa
:0400b40048f9000007
:020000040000fa
:0400b80048f9000003
:020000040000fa
:0400bc0048f90000ff
:020000040000fa
:0400c00048f90000fb
:020000040000fa
:0400c40048f90000f7
:020000040000fa
:0400c80048f90000f3
:020000040000fa
:0400cc0048f90000ef
:020000040000fa
:0400d00048f90000eb
:020000040000fa
:0400d40048f90000e7
:020000040000fa
:0400d80048f90000e3
:020000040000fa
:0400dc0048f90000df
:020000040000fa
:0400e00048f90000db
:020000040000fa
:0400e40048f90000d7
:020000040000fa
:0400e80048f90000d3
:020000040000fa
:0400ec0048f90000cf
:020000040000fa
:0400f00048f90000cb
:020000040000fa
:0400f40048f90000c7
:020000040000fa
:0400f80048f90000c3
:020000040000fa
:0400fc0048f90000bf
:020000040000fa
:0401000048f90000ba
:020000040000fa
:0401040048f90000b6
:020000040000fa
:0401080048f90000b2
:020000040000fa
:04010c0048f90000ae
:020000040000fa
:0401100048f90000aa
:020000040000fa
:0401140048f90000a6
:020000040000fa
:0401180048f90000a2
:020000040000fa
:04011c0048f900009e
:020000040000fa
:0401200048f900009a
:020000040000fa
:0401240048f9000096
:020000040000fa
:0401280048f9000092
:020000040000fa
:04012c0018e50000d2
:020000040000fa
:0401300048f900008a
:020000040000fa
:0401340048f9000086
:020000040000fa
:0401380048f9000082
:020000040000fa
:04013c0048f900007e
:020000040000fa
:0401400048f900007a
:020000040000fa
:0401440048f9000076
:020000040000fa
:0401480048f9000072
:020000040000fa
:04014c0048f900006e
:020000040000fa
:0401500048f900006a
:020000040000fa
:0401540048f9000066
:020000040000fa
:0401580048f9000062
:020000040000fa
:04015c0048f900005e
:020000040000fa
:0401600048f900005a
:020000040000fa
:0401640048f9000056
:020000040000fa
:0401680048f9000052
:020000040000fa
:04016c00c6e50000e4
:020000040000fa
:040170006ee5000038
:020000040000fa
:0401740022e5000080
:020000040000fa
:0401780048f9000042
:020000040000fa
:04017c0048f900003e
:020000040000fa
:0401800048f900003a
:020000040000fa
:0401840048e200004d
:020000040000fa
:04018800e4e10000ae
:020000040000fa
:04018c0098e10000f6
:020000040000fa
:0401900048f900002a
:020000040000fa
:0401940048f9000026
:020000040000fa
:0401980048f9000022
:020000040000fa
:04019c0048f900001e
:020000040000fa
:0401a00048f900001a
:020000040000fa
:0401a40048f9000016
:020000040000fa
:0401a80048f9000012
:020000040000fa
:0401ac0048f900000e
:020000040000fa
:0401b00048f900000a
:020000040000fa
:0401b40048f9000006
:020000040000fa
:0401b80048f9000002
:020000040000fa
:0401bc0048f90000fe
:020000040000fa
:0401c00048f90000fa
:020000040000fa
:0401c40048f90000f6
:020000040000fa
:0401c80048f90000f2
:020000040000fa
:0401cc0048f90000ee
:020000040000fa
:0401d00048f90000ea
:020000040000fa
:0401d40048f90000e6
:020000040000fa
:0401d80048f90000e2
:020000040000fa
:0401dc0048f90000de
:020000040000fa
:0401e00048f90000da
:020000040000fa
:0401e40048f90000d6
:020000040000fa
:0401e80048f90000d2
:020000040000fa
:0401ec0048f90000ce
:020000040000fa
:0401f00048f90000ca
:020000040000fa
:0401f40048f90000c6
:020000040000fa
:0401f80048f90000c2
:020000040000fa
:0401fc0048f90000be
:020000040000fa
:0440080052e2000080
:020000040000fa
:04400c0092e200003c
:020000040000fa
:04401000cee20000fc
:020000040000fa
:0440140070e2000056
:020000040000fa
:04401800b0e2000012
:020000040000fa
:04401c0048f900005f
:020000040000fa
:04402000ece20000ce
:020000040000fa
:0440240048f9000057
:020000040000fa
:0440280048f9000053
:020000040000fa
:04402c0048f900004f
:020000040000fa
:0440300048f900004b
:020000040000fa
:0440340072f6000020
:020000040000fa
:0440380048f9000043
:020000040000fa
:04403c0048f900003f
:020000040000fa
:0440400048f900003b
:020000040000fa
:04404400acf40000d8
:020000040000fa
:0440480048f9000033
:020000040000fa
:04404c0048f900002f
:020000040000fa
:0440500048f900002b
:020000040000fa
:04405400c0e40000c4
:020000040000fa
:0440580074e400000c
:020000040000fa
:04405c0052f5000019
:020000040000fa
:0440600048f900001b
:020000040000fa
:0440640048f9000017
:020000040000fa
:0440680048f9000013
:020000040000fa
:04406c0048f900000f
:020000040000fa
:0440700048f900000b
:020000040000fa
:04407400d0e5000093
:020000040000fa
:0440780048f9000003
:020000040000fa
:04407c0048f90000ff
:020000040000fa
:0440800048f90000fb
:020000040000fa
:0440840048f90000f7
:020000040000fa
:0440880048f90000f3
:020000040000fa
:04408c0048f90000ef
:020000040000fa
:0440900048f90000eb
:020000040000fa
:0440940048f90000e7
:020000040000fa
:0440980048f90000e3
:020000040000fa
:04409c0048f90000df
:020000040000fa
:0440a00048f90000db
:020000040000fa
:0440a40048f90000d7
:020000040000fa
:0440a80048f90000d3
:020000040000fa
:0440ac0048f90000cf
:020000040000fa
:0440b00048f90000cb
:020000040000fa
:0440b40048f90000c7
:020000040000fa
:0440b80048f90000c3
:020000040000fa
:0440bc0048f90000bf
:020000040000fa
:0440c00048f90000bb
:020000040000fa
:0440c40048f90000b7
:020000040000fa
:0440c80048f90000b3
:020000040000fa
:0440cc0048f90000af
:020000040000fa
:0440d00048f90000ab
:020000040000fa
:0440d40048f90000a7
:020000040000fa
:0440d80048f90000a3
:020000040000fa
:0440dc0048f900009f
:020000040000fa
:0440e00048f900009b
:020000040000fa
:0440e40048f9000097
:020000040000fa
:0440e80048f9000093
:020000040000fa
:0440ec0048f900008f
:020000040000fa
:0440f00048f900008b
:020000040000fa
:0440f40048f9000087
:020000040000fa
:0440f80048f9000083
:020000040000fa
:0440fc0048f900007f
:020000040000fa
:0441000048f900007a
:020000040000fa
:0441040048f9000076
:020000040000fa
:0441080048f9000072
:020000040000fa
:04410c0048f900006e
:020000040000fa
:0441100048f900006a
:020000040000fa
:0441140048f9000066
:020000040000fa
:0441180048f9000062
:020000040000fa
:04411c0048f900005e
:020000040000fa
:0441200048f900005a
:020000040000fa
:0441240048f9000056
:020000040000fa
:0441280048f9000052
:020000040000fa
:04412c0018e5000092
:020000040000fa
:0441300048f900004a
:020000040000fa
:0441340048f9000046
:020000040000fa
:0441380048f9000042
:020000040000fa
:04413c0048f900003e
:020000040000fa
:0441400048f900003a
:020000040000fa
:0441440048f9000036
:020000040000fa
:0441480048f9000032
:020000040000fa
:04414c0048f900002e
:020000040000fa
:0441500048f900002a
:020000040000fa
:0441540048f9000026
:020000040000fa
:0441580048f9000022
:020000040000fa
:04415c0048f900001e
:020000040000fa
:0441600048f900001a
:020000040000fa
:0441640048f9000016
:020000040000fa
:0441680048f9000012
:020000040000fa
:04416c00c6e50000a4
:020000040000fa
:044170006ee50000f8
:020000040000fa
:0441740022e5000040
:020000040000fa
:0441780048f9000002
:020000040000fa
:04417c0048f90000fe
:020000040000fa
:0441800048f90000fa
:020000040000fa
:0441840048e200000d
:020000040000fa
:04418800e4e100006e
:020000040000fa
:04418c0098e10000b6
:020000040000fa
:0441900048f90000ea
:020000040000fa
:0441940048f90000e6
:020000040000fa
:0441980048f90000e2
:020000040000fa
:04419c0048f90000de
:020000040000fa
:0441a00048f90000da
:020000040000fa
:0441a40048f90000d6
:020000040000fa
:0441a80048f90000d2
:020000040000fa
:0441ac0048f90000ce
:020000040000fa
:0441b00048f90000ca
:020000040000fa
:0441b40048f90000c6
:020000040000fa
:0441b80048f90000c2
:020000040000fa
:0441bc0048f90000be
:020000040000fa
:0441c00048f90000ba
:020000040000fa
:0441c40048f90000b6
:020000040000fa
:0441c80048f90000b2
:020000040000fa
:0441cc0048f90000ae
:020000040000fa
:0441d00048f90000aa
:020000040000fa
:0441d40048f90000a6
:020000040000fa
:0441d80048f90000a2
:020000040000fa
:0441dc0048f900009e
:020000040000fa
:0441e00048f900009a
:020000040000fa
:0441e40048f9000096
:020000040000fa
:0441e80048f9000092
:020000040000fa
:0441ec0048f900008e
:020000040000fa
:0441f00048f900008a
:020000040000fa
:0441f40048f9000086
:020000040000fa
:0441f80048f9000082
:020000040000fa
:0441fc0048f900007e
:020000040000fa
:105000003ef204000000000000000000020000006a
:105010000000000002000000020000000400000088
:0c50200000000000000000000000000084
:020000040000fa
:10502c0054450000434e000049440000524f00001c
:10503c0042540000253800002e3800007300000098
:10504c00424c0000455f0000436f00006e6600009c
:10505c006967000075720000652000004b4f00006e
:10506c000d0a0000004200004c4500005f430000a8
:10507c006f6e0000666900006775000072650000c5
:10508c00204f00004b0d00000a000000424c0000b5
:10509c0045200000465700003d5b000025730000d2
:1050ac005d0d00000a00000041620000696c000008
:1050bc00697400006f200000494e0000542000006d
:1050cc007375000020500000696e00002042000043
:1050dc004c450000204c0000494e00004b0d0000d8
:1050ec000a0000004469000073610000626c00005b
:1050fc0065200000494e000054200000424c000086
:10510c00452000004c4900004e4b00002050000090
:10511c00494e00000d0a000000200000506f0000f6
:10512c007374000069630000697000006174000012
:10513c006100000000410000706500007274000006
:10514c007572000061000000436800006975000082
:10515c00737500007261000000520000696300006a
:10516c0065760000757400006f200000436f00002e
:10517c006d6100006e6400006f2000006469000027
:10518c00205b000025730000257300005d200000eb
:10519c007375000020560000257500000d0a0000f4
:1051ac00005600002575000020540000696d0000b9
:1051bc00655f00004f700000656e0000202000004d
:1051cc002020000020200000205b0000256c000047
:1051dc00755d00000d0a00000056000025750000ea
:1051ec00205600006f6c0000756d0000655f0000bc
:1051fc004f700000656e0000202000002020000091
:10520c00205b0000257500005d0d00000a00000009
:10521c005625000075200000506f000073740000cc
:10522c00706f00006e650000645f00004f7000003e
:10523c00656e0000202000005b250000755d0000fd
:10524c000d0a0000005600002575000020700000bb
:10525c00656e0000646900006e6700005f6100000d
:10526c0063740000696f00006e200000205b00007a
:10527c00257500005d0d00000a0000005269000059
:10528c006365000076750000746f000020630000f9
:10529c006f6d0000616e0000646f0000205b000009
:1052ac00257800005d20000050610000796c000042
:1052bc006f610000645b0000257300005d2000003e
:1052cc006c7500006e670000686500007a7a00005b
:1052dc00612000005b250000755d0000206400006b
:1052ec006120000047570000204c00006f72000046
:1052fc00610d00000a000000436f00006d610000aa
:10530c006e6400006f2000004368000069750000a7
:10531c007375000072610000207400007574000049
:10532c0074650000206c00006520000076610000b0
:10533c006c7600006f6c0000650d00000a00000028
:10534c0064650000636f0000646500005f7000001e
:10535c00617900006c6f0000616400002063000044
:10536c006f6d00006d6100006e640000205b00003a
:10537c00257800005d20000064610000746100006d
:10538c00206d0000697300006d6100007463000003
:10539c00682000005b250000735d00000d0a000012
:1053ac00004300006f6d0000616e0000646f000030
:1053bc0020630000686900007573000075720000be
:1053cc0061200000766100006c7600006f6c0000bc
:1053dc00612000005b250000755d0000207200005c
:1053ec00657000006c7900003d5b000025780000c2
:1053fc005d2000000d0a0000004300006f6d0000ee
:10540c00616e0000646f0000204500006e610000ba
:10541c00626c0000652f000064690000736100007d
:10542c00626c000065200000424c0000452000002a
:10543c0028410000302900000d0a00000064000023
:10544c00656300006f640000655f00007061000020
:10545c00796c00006f61000064200000636f000035
:10546c006d6d0000616e0000642000005b25000083
:10547c00755d000020640000617400006120000074
:10548c006d690000736d00006174000063680000ba
:10549c00212100000d0a0000004200004c450000d4
:1054ac00204500006e610000626c0000653d00004c
:1054bc00256400000d0a000000500000726f00000f
:1054cc0063650000737300006f200000636f0000c1
:1054dc006d6100006e6400006f20000053450000f9
:1054ec00545f0000414400005220000028300000ae
:1054fc0078380000422900000d0a0000004400002a
:10550c00454600005f410000445200005f4f000020
:10551c004e0000006d610000632000007365000008
:10552c007420000061640000722000006f6e0000a7
:10553c0000440000454600005f410000445200005a
:10554c005f4f000046460000006d000061630000e4
:10555c00207300006574000020610000647200007c
:10556c00206f000066660000002500006c750000ce
:10557c00006d000061630000207300006176000084
:10558c0065000000507200006f630000657300003e
:10559c00736f0000206300006f6d0000616e0000ef
:1055ac00646f0000204300006f6e0000666900000d
:1055bc00726d000065640000206d000065730000d2
:1055cc0073610000676500002063000079630000d0
:1055dc006c65000020280000307800003841000085
:1055ec00290d00000a000000253200002e320000b8
:1055fc0075000000507200006f63000065730000be
:10560c00736f0000206300006f6d0000616e00007e
:10561c00646f0000204500006e6400006e6f000097
:10562c006465000020770000616b000065200000bd
:10563c007570000020630000796300006c65000049
:10564c002028000038320000290d00000a0000005c
:10565c00536500006e640000204900006e74000069
:10566c0065720000766100006c3d0000257500003d
:10567c000d0a000000500000726f0000636500000e
:10568c00737300006f200000636f00006d610000f9
:10569c006e6400006f200000456e0000646e000018
:1056ac006f640000652000007465000073740000d6
:1056bc00206100006c610000726d0000206300002e
:1056cc00796300006c650000202800003078000031
:1056dc0038340000290d00000a0000002575000078
:1056ec0000500000726f00006365000073730000cf
:1056fc006f200000636f00006d6100006e6400009d
:10570c006f200000416c0000617200006d200000f1
:10571c00656e0000616200006c6500002f64000083
:10572c0069730000616200006c65000020280000b5
:10573c003078000038360000290d00000a00000007
:10574c00507200006f63000065730000736f0000ff
:10575c00206300006f6d0000616e0000646f00003c
:10576c002072000065730000657400002063000067
:10577c006f7500006e740000657200002028000038
:10578c003078000038380000290d00000a000000b5
:10579c00496d0000707500006c7300006f200000f4
:1057ac00636f00006e74000065670000676900009d
:1057bc006f2000007375000020560000616c000023
:1057cc00766f00006c61000020250000752c000035
:1057dc00206300006f6e000074610000746f0000a5
:1057ec007265000020610000747400007561000097
:1057fc006c650000205b0000257500005d0d00004d
:10580c000a00000043680000656300006b5f000045
:10581c00536500006e7300006f720000693a00005f
:10582c0020530000656e0000736f0000726500006d
:10583c005f3100005f4c000065760000656c000075
:10584c003d5b0000256400005d20000053650000f6
:10585c006e7300006f720000655f0000325f000025
:10586c004c650000766500006c3d00005b25000077
:10587c00645d00000d0a0000004300006865000034
:10588c00636b00005f53000074610000746f0000d4
:10589c00566100006c7600006f6c0000653a0000e9
:1058ac0020200000475f0000437500006d7500006c
:1058bc006c61000074690000766500005f530000a5
:1058cc007461000074750000735f0000563d0000a9
:1058dc005b250000645d00000d0a00000041000023
:1058ec006c6c0000617200006d65000020430000cc
:1058fc00616200006c6500002043000075740000bc
:10590c002041000074740000697600006f0d0000e7
:10591c000a000000416c00006c610000726d000018
:10592c006520000043610000626c000065200000ef
:10593c0043750000742000004e6f00006e200000c4
:10594c004174000074690000766f00000d0a0000bd
:10595c00004100006c6c0000617200006d6500007d
:10596c0020530000706f000072740000656c000022
:10597c006c6f000020410000747400006976000018
:10598c006f0d00000a000000416c00006c6100000b
:10599c00726d000065200000537000006f720000f3
:1059ac00746500006c6c00006f2000004e6f0000ee
:1059bc006e2000004174000074690000766f0000d6
:1059cc000d0a0000004900006d7000006f730000ac
:1059dc00746f00002063000068690000757300009c
:1059ec007572000061200000562500006420000044
:1059fc007065000072200000616c00006c6100009a
:105a0c00726d000065200000537000006f72000082
:105a1c00746500006c6c00006f2000006f200000ab
:105a2c0043610000626c00006520000043550000db
:105a3c00542000004174000074690000766f00006f
:105a4c000d0a0000004900006d7000006f7300002b
:105a5c00746f00002063000068690000757300001b
:105a6c0075720000612000005625000064200000c3
:105a7c007065000072200000536300006164000038
:105a8c00656e00007a61000020540000656d000016
:105a9c00706f00000d0a0000004900006d700000de
:105aac006f730000746f00002063000068690000d1
:105abc00757300007572000061200000562500000f
:105acc006420000070650000722000005363000029
:105adc0061640000656e00007a61000020560000d1
:105aec006f6c0000756d0000650d00000a00000071
:105afc004f74000061610000004100006270000002
:105b0c0000420000697300007461000062690000cb
:105b1c006c650000004d00006f7400006f72000097
:105b2c00697a00007a61000074610000004f000087
:105b3c006e0000004f660000660000003156000049
:105b4c005f50000032340000563100002e3200004d
:105b5c00375f000030320000303300003236000076
:105b6c000046000057200000506900006320000030
:105b7c0056650000723a000020250000730d0000ed
:105b8c000a0000002d2d00002d2d00002d2d0000f1
:105b9c002d50000061720000616d00006574000002
:105bac00726900002052000061640000696f0000ff
:105bbc002d2d00002d2d00002d2d00002d0d000091
:105bcc000a00000044450000554900002041000037
:105bdc0044440000523a000020250000730d0000e0
:105bec000a00000044410000444400005220000020
:105bfc0041440000445200003a200000257300008c
:105c0c000d0a000000410000505000004b45000000
:105c1c00593a000020250000730d00000a00000016
:105c2c004e5700004b5300004b450000593a000002
:105c3c0020250000730d00000a00000041500000f8
:105c4c00505300004b450000593a0000202500003d
:105c5c00730d00000a000000415000005045000088
:105c6c00554900002041000044440000523a000015
:105c7c0020250000730d00000a00000041640000a4
:105c8c00617000007469000076650000204400001b
:105c9c006174000061200000526100007465000016
:105cac003a200000257300000d0a0000005000008f
:105cbc006f720000743a000020250000730d000084
:105ccc000a0000004e450000545700004f520000df
:105cdc004b2000004a4f0000494e00003a200000c3
:105cec00257300000d0a000000480000572000003a
:105cfc0045550000493a000020250000730d0000b6
:105d0c000a0000004e650000747700006f720000fe
:105d1c006b200000494400003a200000257300006d
:105d2c000d0a0000005000007772000020560000a1
:105d3c00616c0000756500003a20000025730000be
:105d4c000d0a00000052000065740000726900002a
:105d5c00657300003a200000257300000d0a000056
:105d6c00004400004353000020280000455400006c
:105d7c005349000020440000757400007920000095
:105d8c0043790000636c0000652900003a20000094
:105d9c00257300000d0a0000004400005220000092
:105dac00566100006c750000653a0000202500006b
:105dbc00730d00000a0000002d2d00002d2d000099
:105dcc002d2d00002d50000061720000616d00004f
:105ddc0065740000726900002044000065760000c4
:105dec0069630000652d00002d2d00002d2d000095
:105dfc002d2d00000d0a000000530000656e000000
:105e0c0064200000496e000074650000727600008a
:105e1c00616c0000202800007365000063290000fd
:105e2c003a200000256c0000750d00000a000000ef
:105e3c004341000050200000546800007220000014
:105e4c00286d0000562900003a200000257500003e
:105e5c000d0a0000004e0000756d0000206300006c
:105e6c006f7500006e74000065720000733a0000dc
:105e7c0020250000640d00000a0000004e75000093
:105e8c006d200000766100006c76000065730000e8
:105e9c003a200000256400000d0a0000004d0000af
:105eac00696e0000566400006442000061740000da
:105ebc003a200000257500000d0a0000004100008a
:105ecc006c610000726d00002042000061740000e3
:105edc003a200000257500000d0a00000056000055
:105eec006464000020420000617400003a2000004d
:105efc00257500000d0a000000560000616c0000c2
:105f0c00766500002074000079700000653a00008e
:105f1c0020250000730d00000a0000004361000002
:105f2c00626c0000652000004375000074200000c6
:105f3c006469000073610000626900006c69000014
:105f4c0074610000746f00002c200000416c000094
:105f5c006c610000726d0000652000005370000041
:105f6c006f720000746500006c6c00006f20000004
:105f7c006469000073610000626900006c690000d4
:105f8c0074610000746f00000d0a000000430000f3
:105f9c00616200006c650000204300007574000015
:105fac00206400006973000061620000696c0000ed
:105fbc0069740000617400006f2c00002041000027
:105fcc006c6c0000617200006d65000020530000d5
:105fdc00706f000072740000656c00006c6f000044
:105fec0020610000626900006c69000074610000af
:105ffc00746f00000d0a0000004300006162000095
:10600c006c650000204300007574000020610000e6
:10601c00626900006c69000074610000746f00001c
:10602c002c200000416c00006c610000726d0000bf
:10603c0065200000537000006f7200007465000052
:10604c006c6c00006f20000064690000736100003c
:10605c00626900006c69000074610000746f0000dc
:10606c000d0a000000430000616200006c65000036
:10607c00204300007574000020610000626900007c
:10608c006c69000074610000746f00002c2000002b
:10609c00416c00006c610000726d00006520000016
:1060ac00537000006f720000746500006c6c00008f
:1060bc006f20000061620000696c000069740000d0
:1060cc00617400006f0d00000a00000045720000b2
:1060dc00726f000072650000204c000065740000b7
:1060ec0074750000726100002041000062690000bc
:1060fc006c690000746100007a6900006f6e00002a
:10610c0065200000616c00006c610000726d000085
:10611c006920000043610000626c000065200000f3
:10612c0063750000742000002d20000053700000e7
:10613c006f720000746500006c6c00006f0d000045
:10614c000a000000414400004320000025730000b9
:10615c000d0a0000004100004443000020440000f0
:10616c00656c000061790000202800006d73000050
:10617c00293a000020250000750d00000a000000df
:10618c00566100006c76000065730000205300001f
:10619c0074610000747500007320000054650000e9
:1061ac00737400003a200000257300000d0a0000f3
:1061bc0000530000656e0000736f000072730000e6
:1061cc0020630000796300006c650000202800004b
:1061dc0073650000632900003a200000257500005b
:1061ec000d0a000000430000464d0000204d000049
:1061fc005347000020430000594c0000452000008c
:10620c003a20000025750000207300006563000033
:10621c006f6e0000646900000d0a00000041000070
:10622c006c610000726d0000732000004368000078
:10623c00656300006b200000696e0000746500004f
:10624c0072760000616c000020280000736500006d
:10625c00632900003a200000257500000d0a00009b
:10626c0000560000616c0000766500002073000091
:10627c00746100007475000073200000696e0000ea
:10628c007465000072760000616c0000202800002c
:10629c0073650000632900003a200000257500009a
:1062ac000d0a0000004300006f6d0000706c0000d0
:1062bc00657400006520000050610000796c0000de
:1062cc006f6100006420000063790000636c0000c3
:1062dc00652000002873000065630000293a000067
:1062ec0020250000750d00000a000000425400003b
:1062fc004c4500003a200000257300000d0a0000f8
:10630c0000430000464d0000204d000053470000a4
:10631c003a200000257500000d0a0000004d000019
:10632c004f5400004f520000204400005552000012
:10633c0041540000494f00004e3a00002025000057
:10634c007520000073650000636f00006e64000030
:10635c00690d00000a000000507500006c7300000d
:10636c00656400007572000061740000696f0000c4
:10637c006e3a000020250000752000006d690000b9
:10638c006c6c00006973000065630000730d000005
:10639c000a0000006d6100006320000074780000aa
:1063ac00207500006e6300006e6600002031000056
:1063bc002030000030300000303000003000000091
:1063cc006d610000632000007478000020750000ef
:1063dc006e6300006e660000202500007520000032
:1063ec00006d000061630000207400007820000044
:1063fc00756e0000636e0000662000003120000006
:10640c00006d000061630000207400007820000023
:10641c00756e0000636e00006620000032350000cf
:10642c0035200000004c00006f720000612000005d
:10643c006f750000742000006f6600002053000090
:10644c006c65000065700000204b00004f0d0000d3
:10645c000a00000052450000534500005420000083
:10646c004c4f000052410000204600006f720000ab
:10647c0020570000616b0000657500007020000063
:10648c0045720000726f000072200000436f000024
:10649c006e7300006563000075740000697600007f
:1064ac006520000052650000736500007420000038
:1064bc003d2000005b250000645d00000d0a00001b
:1064cc00006d00006163000020670000657400002f
:1064dc00206400006e63000074720000004600002f
:1064ec006f7500006e640000204d000053470000e3
:1064fc00206900006e200000646f0000776e0000c1
:10650c006c6900006e6b00003d5b0000256c0000a8
:10651c00755d00000d0a0000006d00006163000055
:10652c002067000065740000206400006e630000aa
:10653c007472000020450000525200004f520000bf
:10654c000d0a0000006d0000616300002066000071
:10655c006f72000063650000454e00004142000070
:10656c004c450000006d00006163000020660000d7
:10657c006f72000063650000454e00004142000050
:10658c004c45000020450000525200004f520000c4
:10659c000d0a0000006d0000616300002066000021
:1065ac006f72000063650000454e00004142000020
:1065bc004c450000204f00004b0d00000a0000006d
:1065cc005245000053450000542000004c4f000081
:1065dc005241000020620000656600006f720000ee
:1065ec0065200000536500006e640000204d000023
:1065fc00736700002e200000436f00006e730000d4
:10660c006563000075740000697600006520000069
:10661c005265000073650000742000003d200000ee
:10662c005b250000645d00000d0a0000004c0000ba
:10663c004f5200004120000052450000534500001d
:10664c00542000004b4f000021210000210d0000c0
:10665c000a00000045720000726f000072690000b1
:10666c00206300006f6e000073650000637500000e
:10667c007469000076690000202000005478000046
:10668c003d5b0000256400005d0d00000a00000069
:10669c0045720000726f00007269000020630000f8
:1066ac006f6e000073650000637500007469000074
:1066bc0076690000202000004d6f0000647500001a
:1066cc006c6f00003d5b0000256400005d0d000058
:1066dc000a0000004e6f000072650000706c000034
:1066ec0079200000636f00006e730000656300008a
:1066fc007574000069760000692000004d6f000081
:10670c00647500006c6f00003d5b000025640000a8
:10671c005d0d00000a000000496e00006974000065
:10672c005f4c00006f720000615f00004d6f000055
:10673c00647500006c650000204f00004b0d0000dc
:10674c000a000000496e0000697400005f4c0000f4
:10675c006f720000615f00004d6f000064750000f7
:10676c006c650000204b00004f0d00000a0000007b
:10677c004a6f0000696e00005f4700006174000002
:10678c006577000061790000204f00004b0d000080
:10679c000a0000004a6f0000696e00005f470000ad
:1067ac00617400006577000061790000204b0000e7
:1067bc004f0d00000a000000524500005345000038
:1067cc00542000004c4f0000524100002066000095
:1067dc006f720000204500007863000065650000c2
:1067ec00642000004d410000585f00004e52000034
:1067fc004f5f0000545800005f45000052520000eb
:10680c004f5200002e200000436f00006e730000fa
:10681c006563000075740000697600006520000057
:10682c005265000073650000742000003d200000dc
:10683c005b250000645d00000d0a000000540000a0
:10684c00782000004f4b00000d0a0000005400009f
:10685c00782000004f4b00002e20000052650000f5
:10686c006365000069760000656400002064000028
:10687c006f7700006e6c0000696e00006b3d0000cd
:10688c005b250000735d00000d0a00000054000041
:10689c00782000004b4f0000203a000042550000c9
:1068ac00535900000d0a000000540000782000002d
:1068bc004b4f0000203a00004c4f000052410000aa
:1068cc005f4900004e560000414c00004944000056
:1068dc005f4c0000454e000047480000540d00007e
:1068ec000a00000054780000204b00004f200000ec
:1068fc003a4c00004f520000415f0000494e00002e
:10690c00564100004c490000445f0000434c00001d
:10691c0041530000530d00000a00000054780000a1
:10692c00204b00004f2000003a4c00004f5200005a
:10693c00415f0000494e0000564100004c490000e8
:10694c00445f000050410000524100004d0d00001a
:10695c000a00000054780000204b00004f2000007b
:10696c003a4c00004f520000415f000046520000bc
:10697c00414d0000455f0000434f0000554e0000a4
:10698c0054450000525f000045520000520d0000bb
:10699c000a00000054780000204b00004f2000003b
:1069ac003a4c00004f520000415f00004b45000084
:1069bc00595300005f4e00004f5400005f49000027
:1069cc004e490000540d00000a00000054780000ed
:1069dc00204b00004f2000003a4c00004f520000aa
:1069ec00415f00004d410000435f0000504100003a
:1069fc0055530000454400000d0a000000540000ef
:106a0c00782000004b4f0000203a00004c4f000053
:106a1c00524100005f4d0000554c000054490000ed
:106a2c0043410000535400005f4b000045590000e7
:106a3c00535f000045520000520d00000a00000098
:106a4c0054780000204b00004f2000003a4c00000e
:106a5c004f520000415f00004e4f00005f460000a7
:106a6c0052450000455f0000434800000d0a00003d
:106a7c0000540000782000004b4f0000203a00002a
:106a8c004c4f0000524100005f4a00004f4900008b
:106a9c004e5f000045520000520d00000a0000003d
:106aac0054780000204b00004f2000003a4c0000ae
:106abc004f520000415f0000534900004c4500005c
:106acc004e5400005f450000525200000d0a0000b9
:106adc0000540000782000004b4f0000203a0000ca
:106aec004c4f0000524100005f470000454e000033
:106afc0045520000414c00005f450000525200001e
:106b0c000d0a000000540000782000004b4f0000dc
:106b1c00203a00004c4f0000524100005f4d000035
:106b2c00414300005f450000525200000d0a000076
:106b3c0000540000782000004b4f0000203a000069
:106b4c004c4f0000524100005f540000494d0000c2
:106b5c00454f0000555400005f45000052520000a4
:106b6c000d0a000000540000782000004b4f00007c
:106b7c00203a00004c4f0000524100005f550000cd
:106b8c004e4b00004e4f0000574e00005f4500007a
:106b9c00525200000d0a0000004200006174000017
:106bac007465000072690000613d00005b25000007
:106bbc00645d00000d0a0000005200004553000007
:106bcc0045540000204c00004f52000041200000b2
:106bdc0062650000666f00007265000020530000c3
:106bec006c650000657000002052000065730000a9
:106bfc0065740000203d0000205b0000256400004f
:106c0c005d0d00000a0000004c4f000052410000d6
:106c1c00205200004553000045540000204f000056
:106c2c004b0d00000a0000005245000053450000c7
:106c3c00542000004c4f0000524100002066000020
:106c4c006f7200002045000078630000656500004d
:106c5c00642000004d410000585f00004e520000bf
:106c6c004f5f00004e4f00005f5200004550000087
:106c7c004c5900005f450000525200004f5200007a
:106c8c002e200000436f00006e730000656300004f
:106c9c0075740000697600006520000052650000e4
:106cac0073650000742000003d2000005b2500008f
:106cbc00645d00000d0a00000041000070650000da
:106ccc00727400007572000061200000506f0000ab
:106cdc007374000069630000697000006174000047
:106cec006120000056250000750d00000a00000010
:106cfc0054650000737400005f480000575f00008b
:106d0c007363000068650000646100003a200000b5
:106d1c004e6f000074200000696d0000706c000064
:106d2c00656d0000656e0000746500006420000055
:106d3c0079650000740d00000a0000002425000095
:106d4c00752c0000302c0000302c0000302c000082
:106d5c00302c0000302c0000302c000030230000c0
:106d6c0000240000257500002c3000002c300000a1
:106d7c002c3000002c3000002c3000002c30000097
:106d8c002c3000002c3000002c3000002c30000087
:106d9c002c3000002c3000002c3000002c30000077
:106dac002c3000002c3000002c3000002c30000067
:106dbc002c3000002c3000002c3000002c30000057
:106dcc002300000024330000302c00002573000049
:106ddc002c250000752c0000257500002c250000ca
:106dec00752c0000257500002c250000752c00006a
:106dfc00257500002c2500007523000000240000e0
:106e0c00333300002c310000303000002c310000f6
:106e1c00303000002c310000303000002c310000ec
:106e2c00303000002c310000303000002c310000dc
:106e3c00303000002c310000303000002c310000cc
:106e4c00303000002c310000303000002c310000bc
:106e5c00303000002c310000303000002c310000ac
:106e6c0030300000230000002d31000032380000cb
:106e7c000073000066310000320000003132000067
:106e8c00350000003100000024250000752c0000a6
:106e9c004e4f00004b2300000052000065700000b4
:106eac006c7900003a5b0000257300005d0d00005a
:106ebc000a000000434f00004d4100004e4400000a
:106ecc004f200000505200004f470000200d0000e2
:106edc000a000000434f00004d4100004e440000ea
:106eec004f20000043490000434c00004943000080
:106efc00412000000d0a0000002400002575000050
:106f0c002c4f00004b230000004200004c450000b9
:106f1c0020500000494e000020250000752c000078
:106f2c00257500002c250000752c0000257500002f
:106f3c000d0a0000004200004c45000020410000fa
:106f4c005050000020250000752c00002575000015
:106f5c002c250000752c0000257500000d0a000082
:106f6c0000560000256400003a200000417000002b
:106f7c0065720000746100000d0a000000560000ec
:106f8c00256400003a200000496e000020410000fa
:106f9c00706500007274000075720000610d0000d5
:106fac000a00000020560000256400003a20000072
:106fbc0045720000726f00007265000020410000f5
:106fcc00706500007274000075720000610d0000a5
:106fdc000a00000056250000643a00002041000021
:106fec007065000072740000757200006120000072
:106ffc00206100006e6e0000756c00006c6100007a
:10700c0074610000207000006572000020430000d5
:10701c00616200006c650000206300007574000064
:10702c002f6100006c6c0000617200006d65000047
:10703c0020730000706f000072740000656c00001b
:10704c006c6f000020610000747400006976000011
:10705c006f0d00000a00000056250000643a000085
:10706c00204300006869000075730000610d00008a
:10707c000a00000056250000643a00002049000078
:10708c006e200000436800006975000073750000f5
:10709c0072610000202800004d6f0000746f00002a
:1070ac00726900007a7a00006174000061290000a6
:1070bc000d0a000000560000256400003a20000074
:1070cc0045720000726f00007265000020430000e2
:1070dc00686900007573000075720000610d000096
:1070ec000a0000005625000064200000284d000016
:1070fc004f5400004f520000495a00005a41000002
:10710c00544100002920000041700000657200000d
:10711c00746100000d0a0000005600002564000098
:10712c00202800004d4f0000544f00005249000031
:10713c005a5a00004154000041290000204300002d
:10714c006869000075730000610d00000a00000002
:10715c002d2d00002d2d00002d2d00002d2d0000bb
:10716c002d2d00002d2d00002d2d00002d2d0000ab
:10717c002d2d00002d2d00002d2d00002d2d00009b
:10718c002d2d00002d2d00002d2d00002d2d00008b
:10719c000d0a0000002d000020200000202000001f
:1071ac00202000002020000020530000544100004b
:1071bc005254000020200000257300002020000005
:1071cc002020000020200000202000002d0d0000b9
:1071dc000a000000566f00006c740000616700002c
:1071ec00652000004f4b00000d0a00000056000007
:1071fc006f6c00007461000067650000204b00009c
:10720c004f0d00000a440000657600006963000021
:10721c0065200000537400006f7000007065000062
:10722c00640d00000a0000004c6100007374000043
:10723c00205200006573000074610000727400003d
:10724c002063000061750000736500003d5b000069
:10725c00256400005d200000257300000d0a00006d
:10726c00004700005f42000061740000746500007c
:10727c00727900005f4c000065760000656c0000c0
:10728c005f7400006d700000283100003262000055
:10729c0069740000293d00005b250000755d00004d
:1072ac0020420000617400007465000072790000d7
:1072bc005f4c000065760000656c00003d5b0000d3
:1072cc00256400005d2000000d0a00000043000052
:1072dc0068650000636b00005f4900006e69000088
:1072ec00745f000045450000707200006f6d000077
:1072fc00204f00004b0d00000a0000004368000006
:10730c00656300006b5f0000496e0000697400004b
:10731c005f45000045700000726f00006d2000009a
:10732c004b4f00000d0a00000045000045500000c6
:10733c00524f00004d2000004e4f00005420000022
:10734c00464f0000554e0000440d00000a0000009e
:10735c002d2d00002d2d0000454500005052000041
:10736c004f4d00002044000041540000412d00000e
:10737c002d2d00002d0d00000a000000436f0000b1
:10738c006e740000617400006f72000065200000d4
:10739c00566100006c7600006f6c000061200000ec
:1073ac00256400003d5b0000257500005d0d0000ac
:1073bc000a00000041620000696c00006974000062
:1073cc00617400006f200000494e00005420000042
:1073dc00434f00004e540000256400000d0a0000cd
:1073ec00004400006973000061620000696c0000d9
:1073fc0069740000617400006f200000494e0000a9
:10740c0054200000434f00004e540000256400003f
:10741c000d0a000000570000616900007420000094
:10742c00436f00006e660000696700002f54000077
:10743c0065730000742000006d6f0000646500002f
:10744c002c2000002831000035200000736500005e
:10745c00637300002e2900000d0a00000054000088
:10746c00696d0000652000006f750000742000003d
:10747c00436f00006e660000696700002f54000027
:10748c0065730000742000006d6f000064650000df
:10749c000d0a0000004300006f6e000066690000da
:1074ac006775000072610000746900006f6e000067
:1074bc00206d00006f64000065200000284f000064
:1074cc00207400006f2000006578000069740000d3
:1074dc00290d00000a000000456e00006420000029
:1074ec00436f00006e66000069670000206d0000ad
:1074fc006f640000650d00000a0000005465000078
:10750c00737400002048000057200000284f000032
:10751c00207400006f200000657800006974000082
:10752c00290d00000a000000526500007365000080
:10753c00742000004d6f0000647500006c6f00003b
:10754c00204c00006f720000612000004f4b0000c7
:10755c000d0a000000520000657300006574000005
:10756c00204d00006f640000756c00006f2000005f
:10757c004c6f000072610000204b00004f0d0000aa
:10758c000a0000007379000073200000726500008f
:10759c007365000074000000436f00006e6600000d
:1075ac006967000075720000617a0000696f000065
:1075bc006e65000020540000657200006d690000cb
:1075cc006e61000074610000202d0000204400005a
:1075dc0065760000696300006520000041740000be
:1075ec0074690000766f00000d0a00000042000074
:1075fc004c450000204300006f6e00006e650000db
:10760c0063740000656400000d0a00000042000075
:10761c004c4500002044000069730000636f0000bb
:10762c006e6e00006563000074650000640d000060
:10763c000a000000526500006365000069760000d6
:10764c0065640000204200004c4500002042000010
:10765c0041440000204d0000657300007361000080
:10766c00676500005b250000735d00000d0a0000db
:10767c00005200006563000065690000766500003b
:10768c0064200000424c00004520000052610000c4
:10769c00772000004d6500007373000061670000e7
:1076ac00655b0000257300005d0d00000a00000002
:1076bc0065720000726f00007265000020640000ab
:1076cc0069200000545800002f6c0000696e000007
:1076dc006b2f0000696e000069740000204c0000e4
:1076ec006f720000612000006f20000073750000b5
:1076fc007065000072610000746f0000204d000086
:10770c004158000020520000455300004554000031
:10771c00532000004c4f0000524100002c20000070
:10772c006e6f00006e200000726500007365000033
:10773c00747400006f200000545000004c0d0000c9
:10774c000a00000052650000736500007420000000
:10775c004c6f000072610000206300006f6e00002f
:10776c0073650000637500007469000076690000a1
:10777c00205b0000256400005d0d00000a00000085
:10778c004c6f000072610000204e00006f6e000014
:10779c0020660000756e00007a6900006f6e0000b4
:1077ac00612000002d200000436800006975000076
:1077bc00646f000020560000616c0000766f0000c2
:1077cc006c610000203100000d0a00000025000053
:1077dc00303200002e320000753a000025300000d7
:1077ec00322e0000327500003a25000030320000c5
:1077fc002e320000753a00002025000030320000c7
:10780c002e320000752f000025300000322e0000b3
:10781c00327500002f250000303200002e3200009f
:10782c00750d00000a0000004e6500007373000027
:10783c00756e000020450000727200006f7200002f
:10784c00650d00000a00000050720000696d000018
:10785c006f20000045720000726f0000726500001e
:10786c00204400006f7000006f2000004d7300007a
:10787c00672000006520000050720000696d000058
:10788c006120000064690000204c00006f72000051
:10789c00615300006c650000657000000d0a00006b
:1078ac0000500000726900006d6f00002045000060
:1078bc00727200006f720000652000007072000090
:1078cc00696d00006120000064690000204d00001b
:1078dc00736700000d0a0000005000007269000080
:1078ec006d6f000020450000727200006f72000086
:1078fc0065200000646f0000706f000020490000dc
:10790c006e690000745f00004c6f00007261000033
:10791c005f4d00006f640000756c0000650d000089
:10792c000a00000050720000696d00006f2000001a
:10793c0045720000726f0000726500002064000048
:10794c006f7000006f2000004a6f0000696e00002d
:10795c005f470000617400006577000061790000ea
:10796c000d0a000000540000696d0000656f0000f6
:10797c0075740000206300006f6e00006e650000df
:10798c0073730000696f00006e65000020420000f8
:10799c004c4500000d0a0000005300006574000007
:1079ac002041000050500000204b00006579000081
:1079bc00207400006f200000203000002c200000fc
:1079cc00302c0000203000002c200000300d000076
:1079dc000a000000646f0000776e00006c69000004
:1079ec006e6b00003d5b0000257300005d0d000018
:1079fc000a0000004f70000065720000617a000000
:107a0c00696f00006e690000207400007261000054
:107a1c00205b0000256c0000755d000020730000e9
:107a2c00656300006f6e0000646900000d0a0000c1
:107a3c000000000065650000707200006f6d0000b2
:107a4c005f77000072690000746500005f610000e0
:107a5c006e6400005f63000068650000636b0000eb
:107a6c002045000045700000726f00006d52000050
:107a7c00656100006420000045520000524f000078
:107a8c00520d00000a0000006565000070720000d5
:107a9c006f6d00005f770000726900007465000074
:107aac005f6100006e6400005f63000068650000a9
:107abc00636b00002045000045700000726f0000f1
:107acc006d570000726900007465000020450000cd
:107adc00525200004f5200000d0a000000450000f9
:107aec00525200004f520000205700005249000033
:107afc00544500002045000045500000524f000046
:107b0c004d0d00000a000000566100006c6f000073
:107b1c00726500003a2000005b250000735d0000d8
:107b2c00205300006372000069740000746f000041
:107b3c00206300006f720000726500007474000016
:107b4c00616d0000656e0000746500000d0a000098
:107b5c00006100007a7a000065720000616d00001f
:107b6c00656e0000746f0000206e0000756d0000e3
:107b7c00657200006f200000746f000074610000db
:107b8c006c650000207300006372000069740000d3
:107b9c0074750000726500000d0a0000007300008f
:107bac0063720000697600006f20000044450000fd
:107bbc00465f000046570000564500005253000037
:107bcc00494f00004e500000494300000d0a0000d0
:107bdc0000310000565f00005032000034560000a7
:107bec00312e0000323700005f30000032300000d0
:107bfc00333200003600000073630000726900002d
:107c0c00766f000020440000454600005f530000e2
:107c1c00454e0000444900004e54000045520000ff
:107c2c00564100004c0d00000a00000030300000ee
:107c3c0031320000303000003030000000730000a2
:107c4c0063720000697600006f2000004341000061
:107c5c00504d0000565f0000570d00000a00000058
:107c6c00313600003030000030000000736300003b
:107c7c0072690000766f000020500000554c000027
:107c8c005345000044550000524100005449000087
:107c9c004f4e00005f5700000d0a000000730000fb
:107cac0063720000697600006f20000044450000fc
:107cbc00465f00004d4f0000544f0000524400003e
:107ccc005552000041540000494f00004e5f000027
:107cdc00544900004d4500000d0a000000730000df
:107cec0063720000697600006f20000044450000bc
:107cfc00465f000041440000520d00000a000000e5
:107d0c007363000072690000766f0000204400006d
:107d1c00454600005f560000414c000056450000ef
:107d2c0054590000504500000d0a0000007300007b
:107d3c0063720000697600006f200000444500006b
:107d4c00465f00004144000043440000454c0000e5
:107d5c00415900000d0a00000035000030300000d1
:107d6c000073000063720000697600006f20000051
:107d7c00434f00004e530000545f00004445000088
:107d8c0056450000554900000d0a00000035000062
:107d9c003132000033340000353600003738000033
:107dac004230000030300000303000003000000065
:107dbc007363000072690000766f000020430000be
:107dcc004f4e0000535400005f4400004556000025
:107ddc0041440000445200000d0a0000003800002d
:107dec004230000030300000303000003000000025
:107dfc007363000072690000766f0000204300007e
:107e0c004f4e0000535400005f41000050500000e2
:107e1c00534b0000455900000d0a000000300000d3
:107e2c0031320000333400003536000037380000a2
:107e3c003941000042430000444500004630000038
:107e4c003132000033340000353600003738000082
:107e5c003941000042430000444500004600000048
:107e6c007363000072690000766f0000204300000d
:107e7c004f4e0000535400005f4100005050000072
:107e8c0045550000490d00000a0000003636000080
:107e9c00353500003434000033330000323200003a
:107eac0031310000414100004242000000730000eb
:107ebc0063720000697600006f2000004f540000d0
:107ecc00414100005f4300004f4e0000535400003e
:107edc005f410000505000004b450000590d000060
:107eec000a0000007363000072690000766f0000e6
:107efc00204300004f4e0000535400005f4e000022
:107f0c00574b0000534b0000455900000d0a000070
:107f1c000073000063720000697600006f2000009f
:107f2c0044450000465f00004e4300004f550000e2
:107f3c004e54000045520000530d00000a00000092
:107f4c007363000072690000766f0000204400002b
:107f5c00454600005f4e0000554d000056410000a4
:107f6c004c560000455300000d0a00000073000041
:107f7c0063720000697600006f2000004445000029
:107f8c00465f0000564100004c560000455300006f
:107f9c005441000054550000530d00000a0000002d
:107fac007363000072690000766f000020440000cb
:107fbc00454600005f430000414200004c45000074
:107fcc0043550000540d00000a00000073630000cc
:107fdc0072690000766f00002044000045460000e6
:107fec005f41000044430000454e00004142000048
:107ffc004c4500000d0a0000007300006372000085
:10800c00697600006f2000005644000044420000d6
:10801c00415400000d0a000000320000383000000e
:10802c00300000007363000072690000766f00007e
:10803c00204d0000494e0000564400004442000010
:10804c00415400000d0a00000032000030300000e6
:10805c00300000007363000072690000766f00004e
:10806c00204100004c410000524d000042410000f4
:10807c00540d00000a0000007363000072690000d8
:10808c00766f000020440000454600005f4e000063
:10809c00554d000052450000545200004945000067
:1080ac00530d00000a0000007363000072690000a9
:1080bc00766f0000204e0000574b00004944000032
:1080cc000d0a000000730000637200006976000066
:1080dc006f200000504f0000525400005f5700000a
:1080ec000d0a000000300000303100000073000069
:1080fc0063720000697600006f20000044450000a8
:10810c00465f000043590000434c0000450d000041
:10811c000a0000007363000072690000766f0000b3
:10812c0020440000435300000d0a000000730000bf
:10813c0063720000697600006f2000004e4500005d
:10814c00545700004f5200004b5f00004a4f000094
:10815c00494e00005f54000059500000450d0000ce
:10816c000a0000007363000072690000766f000063
:10817c0020440000454600005f4300004f4e0000c5
:10818c0046490000524d0000454400005f4d000080
:10819c00534700000d0a00000073000063720000da
:1081ac00697600006f20000048570000455500001c
:1081bc00490d00000a0000007363000072690000a2
:1081cc00766f000020440000454600005f4100002f
:1081dc004c410000524d0000535f00004359000019
:1081ec00434c0000450d00000a0000003030000038
:1081fc0030310000363000003030000000730000d9
:10820c0063720000697600006f2000004445000096
:10821c00465f0000564100004c56000045530000dc
:10822c0054410000545500005343000059430000d2
:10823c004c4500000d0a00000030000030330000f7
:10824c00303000003030000030000000736300005c
:10825c0072690000766f0000204400004546000063
:10826c005f500000415900004c4f00004144000099
:10827c0043590000434c0000450d00000a0000006b
:10828c007363000072690000766f000020440000e8
:10829c00454600005f420000544c0000455f000062
:1082ac00454e0000414200004c4500000d0a000004
:1082bc000073000063720000697600006f200000fc
:1082cc0044450000465f0000445200005f56000029
:1082dc00414c0000554500000d0a000000730000e1
:1082ec0063720000697600006f20000044450000b6
:1082fc00465f000050570000525f000056410000de
:10830c004c550000450d00000a000000736300008e
:10831c0072690000766f00002044000045460000a2
:10832c005f4300004f4e0000464d000053470000d5
:10833c005f430000594300004c4500000d0a00004b
:10834c0000450000727200006f720000692000008e
:10835c00696e0000204900006e690000745f000027
:10836c0045450000505200004f4d00000d0a000022
:10837c00006d000061630000207300006574000054
:10838c00206400006576000065750000692000001f
:10839c00006d000061630000207300006574000034
:1083ac0020640000657600006164000064720000c7
:1083bc00200000006d610000632000007365000068
:1083cc007420000061700000706b00006579000083
:1083dc00200000006d610000632000007365000048
:1083ec00742000006e7700006b7300006b6500005a
:1083fc0079200000006d0000616300002073000014
:10840c00657400002061000070700000736b000048
:10841c0065790000200000006d6100006320000001
:10842c00736500007420000061700000706500002e
:10843c0075690000200000006d61000063200000e1
:10844c0073650000742000007265000074780000f1
:10845c00200000006d6100006320000073650000c7
:10846c0074200000647200002000000072610000a3
:10847c00646900006f200000736500007420000028
:10848c00707700007220000000530000657200003d
:10849c00696100006c2000007265000063650000db
:1084ac0069760000656400003a2000005b2500003e
:1084bc00735d00000d0a0000004300006f6e0000a9
:1084cc0066690000672000006d6f000064650000a5
:1084dc0020250000730d00000a0000004f4b000027
:1084ec0000540000696d0000656f00007574000099
:1084fc000d0a000000250000730d00000a000000aa
:10850c0045520000524f0000522000000045000070
:10851c006e74000065720000696e00006720000038
:10852c00436f00006e66000069670000206d00005c
:10853c006f640000650d00000a0000004f4b000046
:10854c000d0a000000410000542b000053450000b0
:10855c004e440000494e00005445000052560000a5
:10856c00414c00003d200000202000002020000095
:10857c0020000000000000000000000000000000cf
:10858c0000410000542b0000534500004e440000f5
:10859c00494e00005445000052560000414c00006a
:1085ac003d3f0000202000002020000020000000a3
:1085bc00000000000000000000000000004100006e
:1085cc00542b000043410000504d0000563d00006c
:1085dc003f20000020200000202000002009000087
:1085ec00202000000000000000000000000000003f
:1085fc00000000000000000000410000542b0000af
:10860c0043410000504d0000563d0000202000006a
:10861c00202000002020000020200000202000004e
:10862c0020200000200000000000000000000000de
:10863c000000000000410000542b000050550000c9
:10864c004c530000454400005552000041540000ba
:10865c00494f00004e3d00003f200000202000004c
:10866c0020000000000000000000000000000000de
:10867c0000410000542b0000505500004c530000ea
:10868c00454400005552000041540000494f000081
:10869c004e3d0000202000002020000020000000a3
:1086ac00000000000000000000000000004100007d
:1086bc00542b00004d4f0000544f0000524400005a
:1086cc005552000041540000494f00004e3d00003f
:1086dc003f200000202000002000000000000000cf
:1086ec00000000000000000000410000542b0000be
:1086fc004d4f0000544f00005244000055520000f2
:10870c0041540000494f00004e3d00002020000065
:10871c0020200000200000000000000000000000ed
:10872c000000000000410000542b000041440000f8
:10873c00523d00003f2000002020000020200000bf
:10874c002009000020200000202000002020000034
:10875c00000000000000000000000000000000000d
:10876c0000410000542b000041440000523d000029
:10877c0020200000202000002020000020200000ed
:10878c0020200000202000002020000020000000fd
:10879c00000000000000000000000000004100008c
:1087ac00542b0000564100004c560000455400006c
:1087bc0059500000453d00003f20000020200000e3
:1087cc0020200000202000002000000000000000fd
:1087dc00000000000000000000410000542b0000cd
:1087ec00564100004c560000455400005950000002
:1087fc00453d00002020000020200000202000002b
:10880c0020200000200000000000000000000000fc
:10881c000000000000410000542b00004144000007
:10882c0043440000454c0000415900003d3f00000e
:10883c00202000002020000020200000202000002c
:10884c0020000000000000000000000000000000fc
:10885c0000410000542b0000414400004344000040
:10886c00454c0000415900003d2000002020000034
:10887c00202000002020000020200000200000000c
:10888c00000000000000000000000000004100009b
:10889c00542b000044450000554900003d3f0000aa
:1088ac0020200000202000002020000009200000d3
:1088bc00202000002020000020000000000000000c
:1088cc00000000000000000000410000542b0000dc
:1088dc0044450000554900003d20000020200000c8
:1088ec00202000002020000020200000202000007c
:1088fc00202000002000000000000000000000000c
:10890c000000000000410000542b00004441000016
:10891c0044440000523d00003f2000002020000095
:10892c002020000020090000202000000000000092
:10893c00000000000000000000000000000000002b
:10894c0000410000542b000044410000444400004e
:10895c00523d0000202000002020000020200000bc
:10896c00202000002020000020200000200000001b
:10897c0000000000000000000000000000410000aa
:10898c00542b000041500000504b00004559000092
:10899c003d3f00002020000020200000202000008f
:1089ac000920000020000000000000000000000072
:1089bc00000000000000000000410000542b0000eb
:1089cc0041500000504b0000455900003d20000074
:1089dc00202000002020000020200000202000008b
:1089ec00202000002000000000000000000000001b
:1089fc000000000000410000542b00004e57000006
:108a0c004b5300004b450000593d00003f20000037
:108a1c002020000020200000200900002020000061
:108a2c00000000000000000000000000000000003a
:108a3c0000410000542b00004e5700004b53000027
:108a4c004b450000593d0000202000002020000074
:108a5c00202000002020000020200000200000002a
:108a6c0000000000000000000000000000410000b9
:108a7c00542b000041500000505300004b450000a7
:108a8c00593d00003f200000202000002020000065
:108a9c002009000020200000000000000000000061
:108aac00000000000000000000410000542b0000fa
:108abc0041500000505300004b450000593d000050
:108acc00202000002020000020200000202000009a
:108adc00202000002000000000000000000000002a
:108aec000000000000410000542b00004150000029
:108afc0050450000554900003d3f0000202000007b
:108b0c002020000020200000092000002000000090
:108b1c000000000000000000000000000000000049
:108b2c0000410000542b0000415000005045000053
:108b3c00554900003d2000002020000020200000ae
:108b4c002020000020200000202000002000000039
:108b5c0000000000000000000000000000410000c8
:108b6c00542b00004e5500004d4300004f550000a3
:108b7c004e54000045520000533d00003f200000c1
:108b8c002020000020200000200000000000000039
:108b9c00000000000000000000410000542b000009
:108bac004e5500004d4300004f5500004e54000040
:108bbc0045520000533d0000202000002020000002
:108bcc002020000020000000000000000000000039
:108bdc000000000000410000542b00004e55000026
:108bec004d560000414c000056450000533d00001e
:108bfc003f2000002020000020200000202000004a
:108c0c002000000000000000000000000000000038
:108c1c0000410000542b00004e5500004d56000042
:108c2c00414c000056450000533d00002020000040
:108c3c002020000020200000202000002000000048
:108c4c0000000000000000000000000000410000d7
:108c5c00542b0000564100004c56000045530000b8
:108c6c005441000054550000533d00003f200000cb
:108c7c002020000020200000200000000000000048
:108c8c00000000000000000000410000542b000018
:108c9c00564100004c560000455300005441000062
:108cac0054550000533d00002020000020200000ff
:108cbc002020000020000000000000000000000048
:108ccc000000000000410000542b00004341000054
:108cdc00424c000045430000555400003d3f00004d
:108cec00202000002020000020200000092000008f
:108cfc002000000000000000000000000000000048
:108d0c0000410000542b000043410000424c000085
:108d1c0045430000555400003d2000002020000079
:108d2c002020000020200000202000002000000057
:108d3c0000000000000000000000000000410000e6
:108d4c00542b000041440000434f00004e3d0000f6
:108d5c003f200000202000002020000020200000e8
:108d6c002020000020200000200000000000000057
:108d7c00000000000000000000410000542b000027
:108d8c0041440000434f00004e3d000020200000f5
:108d9c0020200000202000002020000020200000c7
:108dac002020000020000000000000000000000057
:108dbc000000000000410000542b00004d49000051
:108dcc004e5600004444000042410000543d000057
:108ddc003f20000020200000202000002020000068
:108dec002000000000000000000000000000000057
:108dfc0000410000542b00004d4900004e5600006d
:108e0c004444000042410000543d0000202000007a
:108e1c002020000020200000202000002000000066
:108e2c0000000000000000000000000000410000f5
:108e3c00542b0000414c0000415200004d420000f8
:108e4c00415400003d3f0000202000002020000085
:108e5c002020000020200000200000000000000066
:108e6c00000000000000000000410000542b000036
:108e7c00414c0000415200004d42000041540000a2
:108e8c003d200000202000002020000020200000b9
:108e9c002020000020000000000000000000000066
:108eac000000000000410000542b0000524500005f
:108ebc005452000049450000533d00003f20000083
:108ecc002020000020200000202000002020000096
:108edc002000000000000000000000000000000066
:108eec0000410000542b0000524500005452000079
:108efc0049450000533d00002020000020200000c8
:108f0c002020000020200000202000002000000075
:108f1c000000000000000000000000000041000004
:108f2c00542b00004e5700004b490000443d0000fc
:108f3c003f2000002020000020200000200900001d
:108f4c0020200000000000000000000000000000d5
:108f5c00000000000000000000410000542b000045
:108f6c004e5700004b490000443d000020200000fb
:108f7c0020200000202000002020000020200000e5
:108f8c002020000020000000000000000000000075
:108f9c000000000000410000542b0000564400006b
:108fac0044420000415400003d3f000020200000de
:108fbc0020200000202000000920000020000000dc
:108fcc000000000000000000000000000000000095
:108fdc0000410000542b00005644000044420000a5
:108fec00415400003d200000202000002020000003
:108ffc002020000020200000202000002000000085
:10900c000000000000000000000000000041000013
:10901c00542b0000504f0000525400003d3f000004
:10902c002020000020200000202000002020000034
:10903c002020000020200000200000000000000084
:10904c00000000000000000000410000542b000054
:10905c00504f0000525400003d2000002020000022
:10906c0020200000202000002020000020200000f4
:10907c002020000020000000000000000000000084
:10908c000000000000410000542b0000444300008d
:10909c00533d00003f200000202000002020000055
:1090ac0020090000202000002020000020200000cb
:1090bc0000000000000000000000000000000000a4
:1090cc0000410000542b000044430000533d0000bd
:1090dc002020000020200000202000002020000084
:1090ec002020000020200000202000002000000094
:1090fc000000000000000000000000000041000023
:10910c00542b00004e4a00004d3d00003f20000053
:10911c002020000020200000202000002020000043
:10912c002020000020200000200000000000000093
:10913c00000000000000000000410000542b000063
:10914c004e4a00004d3d0000202000002020000071
:10915c002020000020200000202000002020000003
:10916c002020000020000000000000000000000093
:10917c000000000000410000542b0000434600009a
:10918c004d3d00003f20000020200000202000006a
:10919c0020200000202000002020000020200000c3
:1091ac002000000000000000000000000000000093
:1091bc0000410000542b0000434600004d3d0000d0
:1091cc002020000020200000202000002020000093
:1091dc0020200000202000002020000020000000a3
:1091ec000000000000000000000000000041000032
:1091fc00542b000043590000434c0000453d000037
:10920c003f2000002020000020200000200900004a
:10921c002020000000000000000000000000000002
:10922c00000000000000000000410000542b000072
:10923c0043590000434c0000453d00002020000035
:10924c002020000020200000202000002020000012
:10925c0020200000200000000000000000000000a2
:10926c000000000000410000542b00004857000093
:10927c0045550000493d00003f2000002020000023
:10928c0020200000202000002009000020200000e9
:10929c0000000000000000000000000000000000c2
:1092ac0000410000542b00004857000045550000b9
:1092bc00493d00002020000020200000202000005c
:1092cc002009000020200000000000000000000029
:1092dc000000000000000000000000000041000041
:1092ec00542b0000414c0000415200004d53000033
:1092fc005f430000594300004c4500003d3f000017
:10930c0020090000202000000000000000000000e8
:10931c00000000000000000000410000542b000081
:10932c00414c0000415200004d5300005f430000cf
:10933c00594300004c4500003d2000002020000057
:10934c0020200000000000000000000000000000d1
:10935c000000000000410000542b000056410000aa
:10936c004c56000045530000544100005455000079
:10937c0053430000594300004c4500003d3f0000a2
:10938c0020000000000000000000000000000000b1
:10939c0000410000542b0000564100004c560000c8
:1093ac004553000054410000545500005343000045
:1093bc00594300004c4500003d20000020000000f7
:1093cc000000000000000000000000000041000050
:1093dc00542b000050410000594c00004f4100003c
:1093ec0044430000594300004c4500003d3f000041
:1093fc0020200000092000002000000000000000d8
:10940c00000000000000000000410000542b000090
:10941c0050410000594c00004f41000044430000f3
:10942c00594300004c4500003d2000002020000066
:10943c0020200000200000000000000000000000c0
:10944c000000000000410000542b000042540000ba
:10945c004c4500003d3f000020200000092000008a
:10946c00200900000920000020000000000000007e
:10947c0000000000000000000000000000000000e0
:10948c0000410000542b0000425400004c450000e9
:10949c003d200000202000002020000020200000a3
:1094ac0020200000202000002020000020000000d0
:1094bc00000000000000000000000000004100005f
:1094cc00542b0000445200003d3f000020200000bf
:1094dc0009200000200900000920000020000000e5
:1094ec000000000000000000000000000000000070
:1094fc00000000000000000000410000542b0000a0
:10950c00445200003d2000002020000020200000dc
:10951c00202000002020000020200000202000003f
:10952c0020200000200000000000000000000000cf
:10953c000000000000410000542b000050570000b8
:10954c00523d00003f2000002009000020200000b8
:10955c0009090000202000000000000000000000ad
:10956c0000000000000000000000000000000000ef
:10957c0000410000542b000050570000523d0000e9
:10958c0020200000202000002020000020200000cf
:10959c0020200000202000002020000020000000df
:1095ac00000000000000000000000000004100006e
:1095bc00542b0000434600004d430000594c000062
:1095cc00453d00003f200000200900002020000045
:1095dc000920000020000000000000000000000036
:1095ec00000000000000000000410000542b0000af
:1095fc00434600004d430000594c0000453d00001f
:10960c00202000002020000020200000202000004e
:10961c0020200000200000000000000000000000de
:10962c000000000000410000542b000046570000d1
:10963c005645000052530000494f00004e3d0000bb
:10964c003f20000020090000202000000000000046
:10965c0000000000000000000000000000000000fe
:10966c0000410000542b00004657000056450000f6
:10967c0052530000494f00004e3d000020200000d6
:10968c0020200000202000002020000020000000ee
:10969c0000000000000000000000000000000000be
:1096ac004c6f0000726100005f730000656e00007b
:1096bc00645f00004d73000067200000756e0000b1
:1096cc00657800007065000063740000656400003c
:1096dc002072000065730000706f00006e73000054
:1096ec00653a00005b250000735d00000d0a000068
:1096fc0000250000313300002e31000033730000d0
:10970c000048000061720000642000004c6f0000f3
:10971c007261000020520000657300006574000047
:10972c00204f00004b200000465700003a2000005c
:10973c005b250000735d00000d0a0000004800006e
:10974c0061720000642000004c6f00007261000028
:10975c00205200006573000065740000204b00006f
:10976c004f0d00000a000000536500006e740000ed
:10977c003a2000005b250000735d000020520000c1
:10978c00656300006569000076650000643a0000be
:10979c005b250000735d00000d0a000000690000ed
:1097ac006e760000616c0000696400005f70000060
:1097bc0061720000616d0000006f00006b00000022
:1097cc007379000073200000736c00006565000065
:1097dc00700000006d6100006320000067650000f0
:1097ec007420000073740000617400007573000035
:1097fc00004c00004f520000413a0000206d000068
:10980c006163000020670000657400002073000095
:10981c00746100007475000073200000436f000039
:10982c006465000020250000752000005b25000009
:10983c00735d00000d0a0000004c00004f52000048
:10984c00413a0000206d00006163000020670000b9
:10985c0065740000207300007461000074750000d2
:10986c00732000004e4f00005420000049440000bb
:10987c004c45000021200000436f0000646500008f
:10988c0020250000752000005b250000735d0000a2
:10989c000d0a0000007300007973000020730000b3
:1098ac006c65000065700000203200003539000046
:1098bc00323000003030000030300000300000004a
:1098cc0073790000732000006765000074200000ad
:1098dc007665000072000000536500006e640000a5
:1098ec003a2000005b250000735d00000d0a0000ab
:1098fc00006d0000616300005f740000785f000081
:10990c006f6b000000610000636300006570000075
:10991c0074650000640000006d610000635f00006e
:10992c0072780000200000006d61000063200000d0
:10993c006765000074200000646e00006374000012
:10994c00720000007379000073200000676500004e
:10995c007420000068770000657500006900000045
:10996c006d61000063200000666f000072630000f0
:10997c00654500004e410000424c000045000000cf
:10998c003430000030300000006d000061630000d6
:10999c0020730000657400002072000078640000e1
:1099ac00656c000061790000312000002573000017
:1099bc00003000003030000030300000303000004b
:1099cc00300000006d610000632000007365000032
:1099dc00742000006465000076610000646400007f
:1099ec0072200000257300000030000030300000b1
:1099fc0030300000303000003030000030300000db
:109a0c0030300000303000003030000030300000ca
:109a1c0030300000303000003030000030300000ba
:109a2c003030000030300000300000006d6100006c
:109a3c006320000073650000742000006e77000046
:109a4c006b7300006b65000079200000257300002b
:109a5c00006d00006163000020730000657400005d
:109a6c002061000070700000736b000065790000cd
:109a7c0020250000730000006d61000063200000d1
:109a8c007365000074200000737900006e630000a1
:109a9c0020330000340000006d61000063200000e2
:109aac007365000074200000727800003220000002
:109abc003020000038360000393500003235000007
:109acc0030300000300000006d61000063200000a9
:109adc0067650000742000007278000032200000de
:109aec0038360000380000006d6100006320000073
:109afc006765000074200000727800006465000047
:109b0c006c61000079310000006d000061630000a1
:109b1c00206700006574000020720000786400006b
:109b2c00656c000061790000320000006d6100007e
:109b3c006320000073650000742000006164000065
:109b4c00722000006f6e0000006d00006163000069
:109b5c002073000065740000206100006472000036
:109b6c00206f000066660000007200006164000057
:109b7c00696f000020730000657400002073000002
:109b8c00662000007366000031300000006d00009c
:109b9c006163000020730000657400002063000006
:109bac006820000064630000796300006c650000ad
:109bbc002030000020390000006d000061630000bf
:109bcc002073000065740000206300006820000012
:109bdc0064630000796300006c65000020310000b4
:109bec0020390000006d000061630000207300004c
:109bfc0065740000206300006820000064630000ae
:109c0c00796300006c6500002032000020390000f0
:109c1c00006d00006163000020730000617600009d
:109c2c00650000006d610000632000006a6f000099
:109c3c00696e0000206100006270000000000000ee
:109c4c006d610000632000006a6f0000696e000007
:109c5c00206f00007461000061000000696e00005c
:109c6c00766100006c690000645f000070610000a8
:109c7c00726100006d0000006e6f00005f660000f6
:109c8c0072650000655f000063680000006e0000f4
:109c9c006f7400005f6a00006f6900006e65000061
:109cac006400000066720000616d0000655f0000da
:109cbc00636f0000756e000074650000725f000039
:109ccc0065720000725f0000726500006a6f000030
:109cdc00696e00005f6e0000656500006465000041
:109cec0064000000736900006c6500006e74000075
:109cfc000062000075730000790000006d610000c7
:109d0c00635f000070610000757300006564000003
:109d1c00006900006e760000616c00006964000050
:109d2c005f64000061740000615f00006c650000fe
:109d3c006e000000696e0000766100006c69000026
:109d4c00645f0000636c000061730000730000002e
:109d5c006d7500006c740000696300006173000095
:109d6c00745f00006b650000797300005f6e00008b
:109d7c006f7400005f7300006574000000650000e4
:109d8c007272000000640000656e000069650000de
:109d9c00640000006d610000635f000065720000ec
:109dac007200000034ce00000400000042ce00001f
:109dbc00090000004dce00000a00000058ce000043
:109dcc000500000078ce00000b0000007fce0000e4
