:04000000F2EF4EF0DD
:08000800046ED8CF05F0E0CF33
:1000100006F00001E9CF0CF0EACF07F0E1CF08F0DD
:10002000E2CF09F0D9CF0AF0DACF0BF0F3CF12F01C
:10003000F4CF13F0FACF14F0F5CF15F0F6CF16F099
:10004000F7CF17F000C00EF001C00FF002C010F0A3
:1000500003C011F09DA030EF00F09EB00CEF0CF04B
:100060009DA236EF00F09EB251EF0CF0F2A83CEFEB
:1000700000F0F2B219EF0BF0F0A642EF00F0F0B092
:1000800040EF0BF0F0A848EF00F0F0B25FEF0BF09C
:10009000F2A64EEF00F0F2B05DEF0CF09DAA54EF27
:1000A00000F09EBAA9EF0BF0A3AA5AEF00F0A4BA91
:1000B000C6EF0BF0F0AA60EF00F0F0B48AEF0BF09F
:1000C0000EC000F00FC001F010C002F011C003F02C
:1000D0000CC0E9FF07C0EAFF078E08C0E1FF09C0B6
:1000E000E2FF0AC0D9FF0BC0DAFF12C0F3FF13C052
:1000F000F4FF14C0FAFF15C0F5FF16C0F6FF17C0D5
:10010000F7FF045006C0E0FF05C0D8FF10001C0F29
:10011000F66E010EF7220900F550120041542B53E0
:10012000454E44494E54455256414C3D20202020D6
:100130002020000000000000000041542B53454ED9
:1001400044494E54455256414C3D3F2020202020EA
:10015000000000000000000041542B4341504D5668
:100160003D3F20202020202009202000000000000A
:1001700000000000000041542B4341504D563D20EB
:1001800020202020202020202020202000000000EF
:100190000000000041542B50554C534544555241EA
:1001A00054494F4E3D3F2020202000000000000019
:1001B000000041542B50554C53454455524154492D
:1001C0004F4E3D20202020200000000000000000B5
:1001D00041542B4D4F544F524455524154494F4E68
:1001E0003D3F20202020000000000000000041547E
:1001F0002B4D4F544F524455524154494F4E3D2080
:1002000020202020000000000000000041542B416D
:1002100044523D3F20202020202009202020202063
:100220002000000000000000000041542B41445217
:100230003D202020202020202020202020202020A1
:10024000000000000000000041542B56414C564570
:10025000545950453D3F20202020202020200000E0
:1002600000000000000041542B56414C56455459A3
:1002700050453D202020202020202020000000008C
:100280000000000041542B41444344454C41593D3A
:100290003F202020202020202020000000000000FF
:1002A000000041542B41444344454C41593D2020DA
:1002B000202020202020202000000000000000003E
:1002C00041542B444555493D3F2020202020200902
:1002D00020202020202000000000000000004154C9
:1002E0002B444555493D202020202020202020203F
:1002F00020202020000000000000000041542B447A
:10030000414444523D3F202020202020092020004D
:100310000000000000000000000041542B44414454
:1003200044523D202020202020202020202020205A
:10033000000000000000000041542B4150504B458C
:10034000593D3F20202020202009202000000000CF
:1003500000000000000041542B4150504B45593DD6
:10036000202020202020202020202020000000000D
:100370000000000041542B4E574B534B45593D3F15
:100380002020202020200920200000000000000064
:10039000000041542B4E574B534B45593D202020D4
:1003A000202020202020202000000000000000004D
:1003B00041542B415050534B45593D3F2020202064
:1003C000202009202000000000000000000041540F
:1003D0002B415050534B45593D20202020202020B8
:1003E00020202020000000000000000041542B418C
:1003F00050504555493D3F202020202020092020F5
:100400000000000000000000000041542B4150504B
:100410004555493D2020202020202020202020203C
:10042000000000000000000041542B4E554D434F8A
:10043000554E544552533D3F20202020202000009F
:1004400000000000000041542B4E554D434F554EC7
:10045000544552533D202020202020200000000041
:100460000000000041542B4E554D56414C5645530B
:100470003D3F202020202020202000000000000000
:10048000000041542B4E554D56414C5645533D208E
:10049000202020202020202000000000000000005C
:1004A00041542B56414C56455354415455533D3FAE
:1004B00020202020202000000000000000004154E7
:1004C0002B56414C56455354415455533D20202002
:1004D00020202020000000000000000041542B4399
:1004E00041424C454355543D3F20202020202009C7
:1004F0002020000000000000000041542B43414236
:100500004C454355543D20202020202020202020F1
:10051000000000000000000041542B4144434F4EB6
:100520003D3F2020202020202020202020200000CF
:1005300000000000000041542B4144434F4E3D2039
:10054000202020202020202020202020000000002B
:100550000000000041542B4D494E56444442415442
:100560003D3F20202020202020200000000000000F
:10057000000041542B4D494E5644444241543D20C5
:10058000202020202020202000000000000000006B
:1005900041542B414C41524D4241543D3F2020207B
:1005A00020202020202000000000000000004154F6
:1005B0002B414C41524D4241543D202020202020CF
:1005C00020202020000000000000000041542B5299
:1005D0004554524945533D3F2020202020202020D3
:1005E0002020000000000000000041542B52455420
:1005F000524945533D20202020202020202020202B
:10060000000000000000000041542B4E574B4944AD
:100610003D3F202020202020092020000000000055
:1006200000000000000041542B4E574B49443D2030
:10063000202020202020202020202020000000003A
:100640000000000041542B5644444241543D3F2099
:1006500020202020200920200000000000000000B1
:10066000000041542B5644444241543D2020202058
:10067000202020202020202000000000000000007A
:1006800041542B504F52543D3F2020202020202009
:100690002020202020200000000000000000415405
:1006A0002B504F52543D202020202020202020205D
:1006B00020202020000000000000000041542B44B6
:1006C00043533D3F202020202020092020202020AF
:1006D0002000000000000000000041542B44435360
:1006E0003D202020202020202020202020202020ED
:1006F000000000000000000041542B4E4A4D3D3FD9
:100700002020202020202020202020202020000029
:1007100000000000000041542B4E4A4D3D20202097
:100720002020202020202020202020200000000049
:100730000000000041542B43464D3D3F2020202027
:100740002020202020202020202000000000000069
:10075000000041542B43464D3D20202020202020E6
:100760002020202020202020000000000000000089
:1007700041542B4359434C453D3F2020202020200D
:10078000092020000000000000000000000041548B
:100790002B4359434C453D20202020202020202061
:1007A00020202020000000000000000041542B48C1
:1007B000574555493D3F202020202020202009205A
:1007C0002000000000000000000041542B48574565
:1007D00055493D2020202020202009202000000015
:1007E000000000000000000041542B4341424C45F2
:1007F0004355544359434C453D3F200920200000B8
:1008000000000000000041542B4341424C45435539
:10081000544359434C453D20202020200000000037
:100820000000000041542B56414C5645535441544E
:1008300055534359434C453D3F2000000000000004
:10084000000041542B56414C564553544154555386
:100850004359434C453D20200000000000000000AB
:1008600041542B5041594C4F41444359434C453D11
:100870003F2020092020000000000000000041541B
:100880002B5041594C4F41444359434C453D202046
:1008900020202020000000000000000041542B42D6
:1008A000544C453D3F20200920200909202000000C
:1008B0000000000000000000000041542B42544C96
:1008C000453D2020202020202020202020202020E6
:1008D000000000000000000041542B44523D3F2026
:1008E000200920200909202000000000000000004D
:1008F00000000000000041542B44523D20202020E5
:100900002020202020202020202020200000000067
:100910000000000041542B5057523D3F2020092039
:100920002009092020000000000000000000000055
:10093000000041542B5057523D20202020202020E1
:1009400020202020202020200000000000000000A7
:1009500041542B43464D43594C453D3F20200920EF
:100960002009202000000000000000000000415489
:100970002B43464D43594C453D202020202020202C
:1009800020202020000000000000000041542B46E1
:100990005756455253494F4E3D3F202009202000D5
:1009A0000000000000000000000041542B46575694
:1009B000455253494F4E3D2020202020202020200A
:1009C0000000F76AD20FF66E090EF7220900F55003
:1009D00012004552524F5220575249544520454526
:1009E00050524F4D2000F76AF60FF66E090EF722AF
:1009F0000900F550120034565F5331315F6B3830C7
:100A00000000F76A120FF66E0A0EF7220900F55081
:100A1000120030303132303030300000F76A2C0FA5
:100A2000F66E0A0EF7220900F5501200313630300A
:100A30003000F76A420FF66E0A0EF7220900F550F1
:100A4000120038300000F76A560FF66E0A0EF722D1
:100A50000900F5501200313230303000F76A6C0F67
:100A6000F66E0A0EF7220900F55012003100F76AFF
:100A70007E0FF66E0A0EF7220900F55012003000C4
:100A8000F76A900FF66E0A0EF7220900F550120071
:100A900035303000F76AA40FF66E0A0EF72209000F
:100AA000F5501200303030303030303030303030AF
:100AB000303030300000F76AC60FF66E0A0EF722AB
:100AC0000900F55012003030303030303030000046
:100AD000F76AE00FF66E0A0EF7220900F5501200D1
:100AE0003031323334353637383941424344454664
:100AF0003031323334353637383941424344454654
:100B00000000F76A120FF66E0B0EF7220900F5507F
:100B100012003636353534343333323231314141D7
:100B200042420000F76A340FF66E0B0EF7220900FE
:100B3000F5501200323030303000F76A4A0FF66E4E
:100B40000B0EF7220900F550120032383030300019
:100B5000F76A600FF66E0B0EF7220900F5501200CF
:100B60003200F76A720FF66E0B0EF7220900F5508D
:100B7000120031330000F76A860FF66E0B0EF72273
:100B80000900F550120030303100F76A9A0FF66E06
:100B90000B0EF7220900F55012003030303136309C
:100BA00030300000F76AB40FF66E0B0EF722090022
:100BB000F550120030303330303030300000F76AFA
:100BC000CE0FF66E0B0EF7220900F55012003030F2
:100BD0000000F76AE20FF66E0B0EF7220900F550DF
:100BE000120031350000F76AF60FF66E0B0EF72291
:100BF0000900F55012006D6163207365742064650F
:100C0000766575692000F76A160FF66E0C0EF722EE
:100C10000900F55012006D616320736574206465EE
:100C20007661646472200000F76A380FF66E0C0E6D
:100C3000F7220900F55012006D616320736574207E
:100C40006170706B65792000F76A580FF66E0C0EB4
:100C5000F7220900F55012006D616320736574205E
:100C60006E776B736B6579200000F76A7A0FF66E0A
:100C70000C0EF7220900F55012006D6163207365B8
:100C80007420617070736B6579200000F76A9C0FA7
:100C9000F66E0C0EF7220900F55012006D6163200C
:100CA000736574206170706575692000F76ABC0F08
:100CB000F66E0C0EF7220900F55012006D616320EC
:100CC00073657420726574782000F76ADA0FF66E27
:100CD0000C0EF7220900F55012006D616320736558
:100CE000742064722000F76AF60FF66E0C0EF7227D
:100CF0000900F5501200726164696F2073657420F9
:100D0000707772200000F76A160FF66E0D0EF7224C
:100D10000900F5501200465720506963205665724D
:100D20003A200000F76A340FF66E0D0EF722090024
:100D3000F55012004445554920414444523A2000A0
:100D4000F76A500FF66E0D0EF7220900F5501200EB
:100D5000444144445220414444523A200000F76A3E
:100D60006E0FF66E0D0EF7220900F550120041507D
:100D70005045554920414444523A2000F76A8C0FAF
:100D8000F66E0D0EF7220900F55012004150504B3F
:100D90004559203A2000F76AA60FF66E0D0EF7228D
:100DA0000900F55012004E574B534B45593A20005D
:100DB000F76AC00FF66E0D0EF7220900F55012000B
:100DC000415050534B45593A2000F76ADA0FF66EFE
:100DD0000D0EF7220900F550120053656E6420696C
:100DE0006E74657276616C3A2000F76AFA0FF66EDF
:100DF0000D0EF7220900F55012004E756D20636F3D
:100E0000756E746572733A200000F76A1A0FF66EF9
:100E10000E0EF7220900F55012004E756D20766116
:100E20006C7665733A200000F76A380FF66E0E0E86
:100E3000F7220900F550120056616C76652074792E
:100E400070653A200000F76A560FF66E0E0EF72214
:100E50000900F55012004361626C65206375743AB5
:100E60002000F76A720FF66E0E0EF7220900F55099
:100E7000120041444320456E61626C653A200000D7
:100E8000F76A900FF66E0E0EF7220900F550120069
:100E90004144432044656C61793A2000F76AAC0F05
:100EA000F66E0E0EF7220900F550120056616C76B0
:100EB0006573205374617475733A2000F76ACC0F20
:100EC000F66E0E0EF7220900F5501200536572738C
:100ED0006F7273206379636C653A2000F76AEC0FD8
:100EE000F66E0E0EF7220900F55012004D736720C2
:100EF000436F6E663A200000F76A080FF66E0F0E19
:100F0000F7220900F550120052657472696573206A
:100F10003A200000F76A240FF66E0F0EF722090040
:100F2000F55012004361626C652063757420696E30
:100F300074657276616C3A200000F76A4A0FF66EAB
:100F40000F0EF7220900F550120056616C766520ED
:100F500073746174757320696E74657276616C3A2E
:100F60002000F76A720FF66E0F0EF7220900F55097
:100F700012005061796C6F6164206379636C653A2B
:100F80002000F76A920FF66E0F0EF7220900F55057
:100F9000120042544C453A200000F76AAA0FF66E40
:100FA0000F0EF7220900F550120043464D204D5315
:100FB000473A2000F76AC40FF66E0F0EF7220900B9
:100FC000F55012004E4554574F524B204A4F494E50
:100FD0003A200000F76AE40FF66E0F0EF7220900C0
:100FE000F5501200436F6E666967206D6F6465008F
:100FF000F76A000FF66E100EF7220900F550120086
:101000004F4B0000F76A140FF66E100EF72209001E
:10101000F55012004552524F52200000F76A2C0F33
:10102000F66E100EF7220900F55012006D61632074
:1010300073657420616472206F6E0000F76A4C0F54
:10104000F66E100EF7220900F55012004445465F77
:101050004144525F4F4E0000F76A680FF66E100E63
:10106000F7220900F55012006D616320736574204A
:10107000616472206F666600F76A880FF66E100E64
:10108000F7220900F55012004445465F4144525F83
:101090004F464600F76AA40FF66E100EF7220900BD
:1010A000F55012006D616320736176650000F76A88
:1010B000BE0FF66E100EF7220900F550120073797C
:1010C0007320666163746F72795245534554000012
:1010D000F76AE00FF66E100EF7220900F5501200C5
:1010E000737973206765742076657200F76AFC0F68
:1010F000F66E100EF7220900F55012007379732076
:1011000067657420687765756900F76A1A0FF66E6F
:10111000110EF7220900F550120068776575693ADB
:101120002000F76A320FF66E110EF7220900F55013
:1011300012006D616320666F726365454E41424CDB
:101140004500F76A520FF66E110EF7220900F550AE
:1011500012006D61632073657420727864656C6140
:101160007931203430303000F76A780FF66E110E86
:10117000F7220900F55012006D6163207365742039
:1011800073796E6320333400F76A980FF66E110E90
:10119000F7220900F55012006D6163207365742019
:1011A00072783220302038363935323530303000E0
:1011B000F76AC00FF66E110EF7220900F550120003
:1011C0006D61632073657420636820646379636C68
:1011D000652030203900F76AE60FF66E110EF7220F
:1011E0000900F55012006D61632073657420636817
:1011F00020646379636C652031203900F76A0C0F35
:10120000F66E120EF7220900F55012006D61632090
:1012100073657420636820646379636C6520322091
:101220003900F76A320FF66E120EF7220900F550F8
:1012300012006D6163206765742061720000F76AB7
:101240004E0FF66E120EF7220900F55012006D6176
:1012500063206A6F696E206162700000F76A6C0F2C
:10126000F66E120EF7220900F55012006D61632030
:10127000747820756E636E6620312000F76A8C0FDB
:10128000F66E120EF7220900F55012005620626128
:1012900074743A2020202000F76AA80FF66E120E10
:1012A000F7220900F5501200436F756E74657220C5
:1012B000313A202020202000F76AC80FF66E120E67
:1012C000F7220900F55012004361626C6520435516
:1012D00054200000F76AE40FF66E120EF7220900A0
:1012E000F55012004361626C65204E4F2043555407
:1012F0002000F76A020FF66E130EF7220900F55070
:1013000012005374617475732076616C7665204F9A
:1013100050454E200000F76A260FF66E130EF72296
:101320000900F55012005374617475732076616C76
:10133000766520434C4F53452000F76A4A0FF66EFE
:10134000130EF7220900F5501200537461727420D5
:10135000696E766572746572204F50454E207661D5
:101360006C7665200000F76A760FF66E130EF72292
:101370000900F55012004F70656E2076616C76653D
:101380002C20563A2000F76A960FF66E130EF722BD
:101390000900F55012004572726F72206F70656E11
:1013A0002C20563A20202000F76AB80FF66E130E54
:1013B000F7220900F5501200537461727420696EAF
:1013C00076657274657220434C4F53452076616C8C
:1013D00076652000F76AE40FF66E130EF722090017
:1013E000F5501200436C6F73652076616C76652C46
:1013F00020563A200000F76A060FF66E140EF72208
:101400000900F55012004572726F7220636C6F73A1
:10141000652C20563A2020200000F76A2A0FF66E2D
:10142000140EF7220900F5501200414443205641A2
:101430004C5545203A20202020200000F76A4C0F10
:10144000F66E140EF7220900F5501200524553545F
:101450004152542043415553453A2020202020003A
:10146000F76A700FF66E140EF7220900F55012009D
:101470005761697420436F6E6669672F5465737492
:10148000204D6F64652C2031352073656320242046
:101490000000F76AA20FF66E140EF7220900F5504D
:1014A0001200436F6E66696775726174696F6E20B2
:1014B0006D6F64652000F76AC60FF66E140EF72292
:1014C0000900F55012004F20746F20657869742070
:1014D0000000F76AE20FF66E140EF7220900F550CD
:1014E000120054657374204857200000F76AFC0FFF
:1014F000F66E140EF7220900F550120054696D655E
:10150000206F757420436F6E666967206D6F646528
:101510000000F76A220FF66E150EF7220900F5504B
:101520001200456E6420436F6E666967206D6F64BC
:101530006500F76A420FF66E150EF7220900F550A6
:1015400012004641494C20425245414B204F5045E4
:10155000524154494F4E0000F76A680FF66E150E5F
:10156000F7220900F55012004F4B20425245414BE3
:10157000204F5045524154494F4E0000F76A8C0F9E
:10158000F66E150EF7220900F55012006D6163200A
:1015900067657420646E63747200F76AAA0FF66E52
:1015A000150EF7220900F5501200524E20455252F6
:1015B0004F522043415553453A202020202000001F
:1015C000F76AD00FF66E150EF7220900F5501200DB
:1015D000524E205458204552524F522043415553A9
:1015E000453A202020202000F76AF80FF66E150EED
:1015F000F7220900F550120073797320736C65654A
:1016000070203235393230303030303000006D618A
:101610006320747820756E636E6620257520000047
:101620006D616320747820756E636E662032353587
:101630002000F29201019D3D06D09E3D04D0DC5178
:10164000020801E3DC2B9D2BD8B49E2B0201C15371
:1016500002E1C25311E0C151D8B4C207C107C1535E
:101660000BE1C25309E1B46BB36BB26B010EB16F06
:10167000080E0101DD6F0201F292000160EF00F03F
:10168000F09001019F2BD8B4A02B0201C35302E1BB
:10169000C45311E0C351D8B4C407C307C3530BE10B
:1016A000C45309E1B86BB76BB66B010EB56F180E7A
:1016B0000101DD6F0201F090000160EF00F0F09297
:1016C000010198531BE1A12BD8B4A22B0201C553F1
:1016D00002E1C65311E0C551D8B4C607C507C553CA
:1016E0000BE1C65309E1BC6BBB6BBA6B010EB96F62
:1016F000280E0101DD6F020109D0010181A603D08E
:10170000810E996F02D0800E996F0201F092000154
:1017100060EF00F0F0940101A32BD8B4A42B0201D8
:10172000C75302E1C85311E0C751D8B4C807C7076F
:10173000C7530BE1C85309E1C06BBF6BBE6B010E11
:10174000BD6F380E0101DD6F0201F094000160EF02
:1017500000F0255095080AE32550252A036A2A0F30
:10176000E96E000E0320EA6EAECFEFFFAECF23F09E
:10177000010E0101256F9E9A000160EF00F0A4A800
:10178000FED7030130C379FF0001120068C167F181
:1017900069C168F16AC169F17ACF6AF1BAA2FED76C
:1017A0006AC130F3ECDF0101665195080BE3665125
:1017B000662B036A2B0FE96E020E0320EA6E6AC1E4
:1017C000EFFF01D0666B6A510A0821E169510D08EB
:1017D0001EE1010E726FDF5310E16851430803E010
:1017E0006851630802E1020E726F6851540803E009
:1017F0006851740802E1030E726F68514F0803E0EC
:1018000068516F0802E1040E726F696B01D0726B50
:10181000A49A000160EF00F09E9001016E5306E172
:101820006F5304E1705302E1715308E0FF0E6E271D
:10183000D8A06F27D8A07027D8A071276E2D0CD004
:101840006F530AE1705308E1715306E1B6C1CFFF4F
:10185000B5C1CEFF000004D0800ECF6ECE6A00006E
:101860009B5301E09B07BD5302E1BE5304E0BD5111
:10187000D8B4BE07BD07D85306E1D95304E1DA5303
:1018800002E1DB5308E0FF0ED827D8A0D927D8A063
:10189000DA27D8A0DB27010EB46F9E90000160EF1D
:1018A00000F00400265202E1275204E02650D8B48A
:1018B000270626069E9260EF00F00400815000008B
:1018C000F29060EF00F0C69E9E9609C3C9FF020E1B
:1018D000C6BE05D0C7B4FED7000EC5BC010E016E52
:1018E0001200C580C5B0FED70D0E006E002EFED7CB
:1018F00006C309F3E8DF012C03D00101E92B000145
:101900000D0E006E002EFED707C309F3DCDF012C9D
:1019100003D00101E92B00010D0E006E002EFED751
:1019200008C309F3D0DF012C03D00101E92B00012A
:101930000D0E006E002EFED7C584C5B4FED7210E55
:10194000006E002EFED71200030EEA6E1B0EE96E2B
:10195000EF500DE0020E016E006A002EFED7012E40
:10196000FBD7970E006E002EFED7EF2EF3D7120096
:10197000016A026A006A036A03010C5102E10B5119
:1019800018E0100E0D6FD89009370A37003603366D
:101990000C51035C02E10B51005C07E30B51005E4C
:1019A000D8A003060C51035ED880013602360D2FF5
:1019B000EAD7000112000201ED6BEC6B0301086B2A
:1019C0000751085D14E20400010E1B6F0001BCDF2B
:1019D000C282C2B2FED7C4500201EC27000EED2332
:1019E0000D0E006E002EFED70301082BE9D7EDC2C5
:1019F0000AF3ECC209F30C6B07C30BF30001B8DF69
:101A000002C0EDF201C0ECF2ECC2EEF20201EEC255
:101A100001F000011200040012C315F311C314F306
:101A20000301136B1051135D39E2F2CF17F3F29EED
:101A300015C375FF14C374FF7F9C7F9E7F80735016
:101A400017BFF28E166F16511F0803E216517E085B
:101A50000EE2F2CF17F3F29E15C375FF14C374FFA5
:101A60007F9C7F9E7F80735017BFF28E166F036A34
:101A70001351670FE96E020E0320EA6E16C3EFFFE3
:101A8000036A1351EA0FE96E010E0320EA6E16C3D2
:101A9000EFFF142BD8B4152B132BC4D7036A1351A3
:101AA000670FE96E020E0320EA6EEF6A0001120072
:101AB0000400030119510408D8A485D01A6B02014F
:101AC0002A6BC00E296F04002AC2EAFF2951292B74
:101AD000D8B42A2BE96EEFCF26F2265321E0265107
:101AE0000A081EE026510D081BE003011A513B08AD
:101AF000D8B002D0020114D0BAA2FED7196AF2BE41
:101B0000198EF29E26C230F3000139DE19BEF28E24
:101B1000050E03011B6F000117DF03011A2B0201E1
:101B200026530EE026510A080BE026510D0808E066
:101B300003011A513B08D8A002D00201C4D7020108
:101B4000040003011A6B02012A6B2A0E296F04009C
:101B50002AC2EAFF2951292BD8B42A2BE96EEFCFEC
:101B600026F2265321E026510A081EE026510D08D0
:101B70001BE003011A513B08D8B002D0020114D077
:101B8000BAA2FED7196AF2BE198EF29E26C230F3AF
:101B90000001F5DD19BEF28E050E03011B6F000179
:101BA000D3DE03011A2B020126530EE026510A0848
:101BB0000BE026510D0808E003011A513B08D8A09C
:101BC00002D00201C4D7020104000301195302E04C
:101BD000192D42D01A6B010E02012A6FEA0E296FED
:101BE00004002AC2EAFF2951292BD8B42A2BE96E16
:101BF000EFCF26F2265321E026510A081EE0265197
:101C00000D081BE003011A513B08D8B002D00201B5
:101C100014D0BAA2FED7196AF2BE198EF29E26C25D
:101C200030F30001ACDD19BEF28E050E03011B6F0F
:101C300000018ADE03011A2B020126530EE0265111
:101C40000A080BE026510D0808E003011A513B0871
:101C5000D8A002D00201C4D7020104000301192D4B
:101C600001D003D0195103083BE11A6B040018C3DB
:101C7000EAFF1751172BD8B4182BE96EEFCF26F2D5
:101C80000201265321E026510A081EE026510D08C4
:101C90001BE003011A513B08D8B002D0020114D056
:101CA000BAA2FED7196AF2BE198EF29E26C230F38E
:101CB000000165DD19BEF28E050E03011B6F0001E8
:101CC00043DE03011A2B020126530BE026510A08BA
:101CD00008E026510D0805E003011A513B08C6E251
:101CE00002010400265306E026510A0803E02651AB
:101CF0000D0826E1BAA2FED7196AF2BE198EF29E2D
:101D00000A0E0301306F00013ADD19BEF28E0400A5
:101D1000050E03011B6F000117DEBAA2FED7196A78
:101D2000F2BE198EF29E0D0E0301306F000127DD09
:101D300019BEF28E050E03011B6F000105DE0201C4
:101D400000011200040012C316F311C315F30301BE
:101D5000136B1051135D32E204001651036E1551DE
:101D6000152BD8B4162B176F03C018F3036A135141
:101D7000670FE96E020E0320EA6EEFCF19F3F250FF
:101D8000006EF29E18C375FF17C374FF19C373FF6B
:101D90007F9C7F9E7F840F01550E7E6EAA0E7E6E05
:101DA0007F827FB2FED77F940050F212420E006E07
:101DB000002EFED700000301132BCBD712C316F35E
:101DC00011C315F3146B136B1051135D24E2036AF6
:101DD0001351670FE96E020E0320EA6EEFCF17F37F
:101DE0001651036E1551152BD8B4162B186F03C05E
:101DF00019F3F2CF1AF3F29E19C375FF18C374FFDB
:101E00007F9C7F9E7F8073501ABFF28E175D01E02A
:101E1000142B132BD9D71453D8B489D0040012C370
:101E200016F311C315F3136B1051135D32E2040066
:101E30001651036E1551152BD8B4162B176F03C00E
:101E400018F3036A1351670FE96E020E0320EA6E5E
:101E5000EFCF19F3F250006EF29E18C375FF17C34F
:101E600074FF19C373FF7F9C7F9E7F840F01550E03
:101E70007E6EAA0E7E6E7F827FB2FED77F94005068
:101E8000F212420E006E002EFED700000301132B4B
:101E9000CBD712C316F311C315F3146B136B105188
:101EA000135D25E20400036A1351670FE96E020E09
:101EB0000320EA6EEFCF17F31651036E1551152B61
:101EC000D8B4162B186F03C019F3F2CF1AF3F29E91
:101ED00019C375FF18C374FF7F9C7F9E7F8073506A
:101EE0001ABFF28E175D01E0142B132BD8D7040014
:101EF00014531DE0010EEA6EEA0EE96E000E0001B9
:101F0000E1EC04F00A000900F550EE6E0009FBE177
:101F1000020E0301186F670E176F196B0001C8DD01
:101F2000640E03011B6F00010FDD0400030114C3E5
:101F30008BF2145304E1010E016E03D002D0000EA7
:101F4000016E000112000400010E03010F5DB60FC7
:101F5000D8B0D5EF13F04A0F0001D7EF13F00A0EF7
:101F60000301106F010E126FF40E116F000153DDAB
:101F70000301D5EF13F00A0E0301106F010E126F6B
:101F8000F40E116F0001DEDE0301D5EF13F0050E34
:101F90000301106F010E126FFE0E116F00013BDD89
:101FA0000301D5EF13F0050E0301106F010E126F40
:101FB000FE0E116F0001C6DE0301D5EF13F0030E14
:101FC0000301106F020E126F030E116F000123DD6B
:101FD0000301D5EF13F0030E0301106F020E126F11
:101FE000030E116F0001AEDE0301D5EF13F0050EF5
:101FF0000301106F020E126F060E116F00010BDD50
:102000000301D5EF13F0050E0301106F020E126FDE
:10201000060E116F000196DE0301D5EF13F0010EDD
:102020000301106F020E126F0B0E116F0001F3DC33
:102030000301D5EF13F0010E0301106F020E126FB2
:102040000B0E116F00017EDE0301D5EF13F0010EC0
:102050000301106F020E126F0C0E116F0001DBDC1A
:102060000301D5EF13F0010E0301106F020E126F82
:102070000C0E116F000166DE030197D3060E0301FB
:10208000106F020E126F0D0E116F0001C4DC030100
:102090008CD3060E0301106F020E126F0D0E116F1E
:1020A000000150DE030181D3100E0301106F020EF8
:1020B000126F130E116F0001AEDC030176D3100E08
:1020C0000301106F020E126F130E116F00013ADE42
:1020D00003016BD3080E0301106F020E126F230E63
:1020E000116F000198DC030160D3080E0301106F2B
:1020F000020E126F230E116F000124DE030155D36F
:10210000200E0301106F020E126F2B0E116F0001D3
:1021100082DC03014AD3200E0301106F020E126FFE
:102120002B0E116F00010EDE03013FD3200E0301C1
:10213000106F020E126F4B0E116F00016CDC030169
:1021400034D3200E0301106F020E126F4B0E116F6D
:102150000001F8DD030129D3200E0301106F020EE8
:10216000126F6B0E116F000156DC03011ED3200E9F
:102170000301106F020E126F6B0E116F0001E2DD92
:10218000030113D3100E0301106F020E126F8B0E9A
:10219000116F000140DC030108D3100E0301106F22
:1021A000020E126F8B0E116F0001CCDD0301FDD208
:1021B000010E0301106F020E126F9B0E116F0001D2
:1021C0002ADC0301F2D2010E0301106F020E126F1E
:1021D0009B0E116F0001B6DDF29CF29EF2BEFDD7A0
:1021E00001019E6B9D6BA06B9F6BA26BA16BA46B9F
:1021F000A36BF2CF10F3F29E756A350E746E7F9C5E
:102200007F9E7F807350030110BFF28E0101AF6F7C
:102210003C0EAF250301106FF250006EF29E756AFE
:1022200010C374FF736A7F9C7F9E7F840F01550EDD
:102230007E6EAA0E7E6E7F827FB2FED77F940050A4
:10224000F212640E0101AF250301106FF250006E0F
:10225000F29E756A10C374FF736A7F9C7F9E7F84B1
:102260000F01550E7E6EAA0E7E6E7F827FB2FED764
:102270007F940050F2128C0E0101AF250301106F04
:10228000F250006EF29E756A10C374FF736A7F9CF1
:102290007F9E7F840F01550E7E6EAA0E7E6E7F821A
:1022A0007FB2FED77F940050F212B40E0101AF2529
:1022B0000301106FF250006EF29E756A10C374FF36
:1022C000736A7F9C7F9E7F840F01550E7E6EAA0EDF
:1022D0007E6E7F827FB2FED77F940050F212DC0EBA
:1022E0000101AF250301106FF250006EF29E756A76
:1022F00010C374FF736A7F9C7F9E7F840F01550E0D
:102300007E6EAA0E7E6E7F827FB2FED77F940050D3
:10231000F212040E0101AF250301106F010E116FBF
:10232000D8B0112BF250006EF29E11C375FF10C38E
:1023300074FF736A7F9C7F9E7F840F01550E7E6EB3
:10234000AA0E7E6E7F827FB2FED77F940050F2127B
:102350002C0E0101AF250301106F010E116FD8B0D3
:10236000112BF250006EF29E11C375FF10C374FF63
:10237000736A7F9C7F9E7F840F01550E7E6EAA0E2E
:102380007E6E7F827FB2FED77F940050F212540E91
:102390000101AF250301106F010E116FD8B0112B91
:1023A000F250006EF29E11C375FF10C374FF736A82
:1023B0007F9C7F9E7F840F01550E7E6EAA0E7E6EDF
:1023C0007F827FB2FED77F940050F212C00EF212CD
:1023D0000301EBD1010E0301106F020E126F9C0E70
:1023E000116F00010BEC0DF00301DFD1010E0301B1
:1023F000106F020E126F9C0E116F0001A3DC03011F
:10240000D4D1010E0301106F020E126F9D0E116FD9
:1024100000010BEC0DF00301C8D1010E0301106F98
:10242000020E126F9D0E116F00018CDC0301BDD1F5
:10243000010E0301106F020E126F9E0E116F00014C
:102440000BEC0DF00301B1D1010E0301106F020E70
:10245000126F9E0E116F000175DC0301A6D1010EF3
:102460000301106F020E126F9F0E116F00010BEC33
:102470000DF003019AD1010E0301106F020E126FCD
:102480009F0E116F00015EDC03018FD1040E03016A
:10249000106F020E126FA00E116F00010BEC0DF009
:1024A000030183D1040E0301106F020E126FA00E00
:1024B000116F000147DC030178D1040E0301106F96
:1024C000020E126FA40E116F00010BEC0DF0030150
:1024D0006CD1040E0301106F020E126FA40E116F67
:1024E000000130DC030161D1010E0301106F020E07
:1024F000126FA80E116F00010BEC0DF0030155D106
:10250000010E0301106F020E126FA80E116F000171
:1025100019DC03014AD1020E0301106F126FA90EDC
:10252000116F00010BEC0DF003013FD1020E03010E
:10253000106F126FA90E116F000104DC030135D179
:10254000050E0301106F020E126FAB0E116F00012A
:102550000BEC0DF0030129D1050E0301106F020EE3
:10256000126FAB0E116F0001A2EC0EF003011DD132
:10257000030E0301106F020E126FB00E116F0001F7
:102580000BEC0DF0030111D1030E0301106F020ECD
:10259000126FB00E116F0001A2EC0EF0030105D115
:1025A000010E0301106F020E126FB30E116F0001C6
:1025B0000BEC0DF00301F9D0010E0301106F020EB8
:1025C000126FB30E116F0001A2EC0EF00301EDD0FB
:1025D000010E0301106F020E126FB40E116F000195
:1025E0000BEC0DF00301E1D0010E0301106F020EA0
:1025F000126FB40E116F0001A2EC0EF00301D5D0E2
:10260000010E0301106F020E126FB50E116F000163
:102610000BEC0DF00301C9D0010E0301106F020E87
:10262000126FB50E116F0001A2EC0EF00301BDD0C8
:10263000080E0301106F020E126FB60E116F00012B
:102640000BEC0DF00301B1D0080E0301106F020E68
:10265000126FB60E116F0001A2EC0EF00301A5D0AF
:102660000A0E0301106F020E126FC60E116F0001E9
:102670000BEC0DF0030199D00A0E0301106F020E4E
:10268000126FC60E116F0001A2EC0EF003018DD087
:102690000A0E0301106F020E126FD00E116F0001AF
:1026A0000BEC0DF0030181D00A0E0301106F020E36
:1026B000126FD00E116F0001A2EC0EF0030175D065
:1026C000020E0301106F126FDA0E116F00010BEC96
:1026D0000DF003016AD0020E0301106F126FDA0EC3
:1026E000116F0001A2EC0EF003015FD0010E030197
:1026F000106F020E126FDC0E116F00010BEC0DF06B
:10270000030153D0010E0301106F020E126FDC0E95
:10271000116F0001A2EC0EF0030147D0010E03017E
:10272000106F020E126FDD0E116F00010BEC0DF039
:1027300003013BD0010E0301106F020E126FDD0E7C
:10274000116F0001A2EC0EF003012FD0020E030165
:10275000106F126FDE0E116F00010BEC0DF0030114
:1027600024D0020E0301106F126FDE0E116F0001F4
:10277000A2EC0EF0030119D0100E0301106F020E2F
:10278000126FE20E116F00010BEC0DF003010DD082
:10279000100E0301106F020E126FE20E116F000196
:1027A000A2EC0EF0030101D0030100011200E824A5
:1027B000F76AF736C90FF66E270EF7220A00F550B2
:1027C000FA6E0800F550F96E5E1F761F8E1FA61F69
:1027D000BE1FD61FEE1F06201E2036204E2066206C
:1027E0007C209220A820BE20D420EA20002116219F
:1027F0002C21422158216E2184219A21B021C62109
:10280000D423EC2302241A24302448245E24762482
:102810008C24A424BA24D224E824002516252C25AF
:102820004025582570258825A025B825D025E825E0
:102830000026182630264826A827A82760267826AE
:102840009026A826C026D626EC2604271C27342747
:102850004C276227A827A82778279027F2CF03F3D1
:10286000F29E756A0A0E746E7F9C7F9E7F80735005
:10287000030103BFF28E8108D8A443D1F2CF04F341
:10288000F29E756A0B0E746E7F9C7F9E7F807350E4
:1028900004BFF28E4208D8A434D1F2CF05F3F29EE1
:1028A000756A0C0E746E7F9C7F9E7F80735005BF8F
:1028B000F28E2408D8A425D1F2CF06F3F29E756AD1
:1028C0000D0E746E7F9C7F9E7F80735006BFF28ECC
:1028D0001808D8A416D1F2CF07F3F29E756A0E0E2F
:1028E000746E7F9C7F9E7F80735007BFF28EC308FB
:1028F000D8A407D10400F2CF03F3F29E756A350E17
:10290000746E7F9C7F9E7F80735003BFF28E0101A7
:10291000AF6F640EAF250301036FF2CF04F3F29E95
:10292000756A03C374FF7F9C7F9E7F80735004BFD2
:10293000F28E0101746F9E6B74C19DF19DC19EF179
:102940009D6B3C0EAF250301036FF2CF04F3F29EA3
:10295000756A03C374FF7F9C7F9E7F80735004BFA2
:10296000F28E0101746F74519D27000E9E23B40EE8
:10297000AF250301036FF2CF04F3F29E756A03C320
:1029800074FF7F9C7F9E7F80735004BFF28E010195
:10299000746FA06B74C19FF19FC1A0F19F6B8C0EEF
:1029A000AF250301036FF2CF04F3F29E756A03C3F0
:1029B00074FF7F9C7F9E7F80735004BFF28E010165
:1029C000746F74519F27000EA023040EAF250301DE
:1029D000036F010E046FD8B0042BF2CF05F3F29E03
:1029E00004C375FF03C374FF7F9C7F9E7F80735079
:1029F00005BFF28E0101746FA26B74C1A1F1A1C178
:102A0000A2F1A16BDC0EAF250301036FF2CF04F33B
:102A1000F29E756A03C374FF7F9C7F9E7F80735014
:102A200004BFF28E0101746F7451A127000EA2231E
:102A3000540EAF250301036F010E046FD8B0042BB1
:102A4000F2CF05F3F29E04C375FF03C374FF7F9CAE
:102A50007F9E7F80735005BFF28E0101746FA46B5F
:102A600074C1A3F1A3C1A4F1A36B2C0EAF25030184
:102A7000036F010E046FD8B0042BF2CF05F3F29E62
:102A800004C375FF03C374FF7F9C7F9E7F807350D8
:102A900005BFF28E0101746F7451A327000EA423A9
:102AA000F2CF03F3F29E020E756EE10E746E7F9C00
:102AB0007F9E7F807350030103BFF28E0101746F0C
:102AC000BB6B74C1BAF1BAC1BBF1BA6BF2CF03F3FD
:102AD000F29E020E756EE00E746E7F9C7F9E7F806C
:102AE0007350030103BFF28E0101746F7451BA2752
:102AF000000EBB23BBC1B9F1BAC1B8F130EF19F078
:102B00000301F250006EF29E756A0A0E746E810E19
:102B1000736E7F9C7F9E7F840F01550E7E6EAA0E82
:102B20007E6E7F827FB2FED77F940050F212F2CF8A
:102B300000F0F29E756A0B0E746E420E736E7F9CEF
:102B40007F9E7F84550E7E6EAA0E7E6E7F827FB240
:102B5000FED77F940050F212F2CF00F0F29E756A19
:102B60000C0E746E240E736E7F9C7F9E7F84550EB8
:102B70007E6EAA0E7E6E7F827FB2FED77F9400505B
:102B8000F212F2CF00F0F29E756A0D0E746E180EFE
:102B9000736E7F9C7F9E7F84550E7E6EAA0E7E6E26
:102BA0007F827FB2FED77F940050F212F2CF00F006
:102BB000F29E756A0E0E746EC30E736E7F9C7F9EBE
:102BC0007F84550E7E6EAA0E7E6E7F827FB2FED708
:102BD0007F940050F2120400F2CF00F0F29E756A6A
:102BE000320E746E736A7F9C7F9E7F84550E7E6E5C
:102BF000AA0E7E6E7F827FB2FED77F940050F212C3
:102C0000F2CF00F0F29E756A330E746E736A7F9C89
:102C10007F9E7F84550E7E6EAA0E7E6E7F827FB26F
:102C2000FED77F940050F212F2CF00F0F29E756A48
:102C3000340E746E736A7F9C7F9E7F84550E7E6E09
:102C4000AA0E7E6E7F827FB2FED77F940050F21272
:102C50000400F2CF00F0F29E756A350E746E736A4E
:102C60007F9C7F9E7F84550E7E6EAA0E7E6E7F8235
:102C70007FB2FED77F940050F212020EEA6E670E0A
:102C8000E96E000E0001F3EC04F00A000900F550B3
:102C9000EE6E0009FBE14A0E03010F6F0001A3EC89
:102CA0000FF0020EEA6E670EE96E000E01EC05F001
:102CB0000A000900F550EE6E0009FBE1020E030167
:102CC0000F6F0001A3EC0FF0020EEA6E670EE96EC3
:102CD000000E0EEC05F00A000900F550EE6E00093A
:102CE000FBE1040E03010F6F0001A3EC0FF0020ED5
:102CF000EA6E670EE96E000E19EC05F00A00090095
:102D0000F550EE6E0009FBE1060E03010F6F0001A6
:102D1000A3EC0FF0020EEA6E670EE96E000E23ECD4
:102D200005F00A000900F550EE6E0009FBE1080EFF
:102D300003010F6F0001A3EC0FF00400020EEA6E16
:102D4000670EE96E000E2EEC05F00A000900F55042
:102D5000EE6E0009FBE10A0E03010F6F0001A3EC08
:102D60000FF0020EEA6E670EE96E000E37EC05F00A
:102D70000A000900F550EE6E0009FBE10C0E03019C
:102D80000F6F0001A3EC0FF0020EEA6E670EE96E02
:102D9000000E40EC05F00A000900F550EE6E000947
:102DA000FBE10E0E03010F6F0001A3EC0FF0020E0A
:102DB000EA6E670EE96E000E4AEC05F00A000900A3
:102DC000F550EE6E0009FBE1100E03010F6F0001DC
:102DD000A3EC0FF0020EEA6E670EE96E000E5BECDC
:102DE00005F00A000900F550EE6E0009FBE1120E35
:102DF00003010F6F0001A3EC0FF0020EEA6E670EE5
:102E0000E96E000E68EC05F00A000900F550EE6E60
:102E10000009FBE1180E03010F6F0001A3EC0FF096
:102E20000400020EEA6E670EE96E000E81EC05F0FA
:102E30000A000900F550EE6E0009FBE11A0E0301CD
:102E40000F6F0001A3EC0FF0020EEA6E670EE96E41
:102E5000000E68EC05F00A000900F550EE6E00095E
:102E6000FBE1140E03010F6F0001A3EC0FF0020E43
:102E7000EA6E670EE96E000E68EC05F00A000900C4
:102E8000F550EE6E0009FBE1140E03010F6F000117
:102E9000A3EC0FF0020EEA6E670EE96E000E68EC0E
:102EA00005F00A000900F550EE6E0009FBE1160E70
:102EB00003010F6F0001A3EC0FF0020EEA6E670E24
:102EC000E96E000E2EEC05F00A000900F550EE6EDA
:102ED0000009FBE11C0E03010F6F0001A3EC0FF0D2
:102EE000020EEA6E670EE96E000E2EEC05F00A0087
:102EF0000900F550EE6E0009FBE11E0E03010F6F95
:102F00000001A3EC0FF0020EEA6E670EE96E000EF0
:102F100037EC05F00A000900F550EE6E0009FBE100
:102F2000200E03010F6F0001A3EC0FF0020EEA6EFA
:102F3000670EE96E000E37EC05F00A000900F55047
:102F4000EE6E0009FBE1220E03010F6F0001A3ECFE
:102F50000FF0020EEA6E670EE96E000E2EEC05F021
:102F60000A000900F550EE6E0009FBE1240E030192
:102F70000F6F0001A3EC0FF0020EEA6E670EE96E10
:102F8000000E92EC05F00A000900F550EE6E000903
:102F9000FBE1260E03010F6F0001A3EC0FF0020E00
:102FA000EA6E670EE96E000E9DEC05F00A0009005E
:102FB000F550EE6E0009FBE1280E03010F6F0001D2
:102FC000A3EC0FF0020EEA6E670EE96E000EA8EC9D
:102FD00005F00A000900F550EE6E0009FBE12A0E2B
:102FE00003010F6F0001A3EC0FF00400020EEA6E64
:102FF000670EE96E000EB1EC05F00A000900F5500D
:10300000EE6E0009FBE12C0E03010F6F0001A3EC33
:103010000FF0020EEA6E670EE96E000EBBEC05F0D3
:103020000A000900F550EE6E0009FBE1300E0301C5
:103030000F6F0001A3EC0FF0020EEA6E670EE96E4F
:10304000000E01EC05F00A000900F550EE6E0009D3
:10305000FBE1380E03010F6F0001A3EC0FF0020E2D
:10306000EA6E670EE96E000E37EC05F00A00090003
:10307000F550EE6E0009FBE1320E03010F6F000107
:10308000A3EC0FF0020EEA6E670EE96E000E37EC4D
:1030900005F00A000900F550EE6E0009FBE1340E60
:1030A00003010F6F0001A3EC0FF0020EEA6E670E32
:1030B000E96E000E37EC05F00A000900F550EE6EDF
:1030C0000009FBE1360E03010F6F0001A3EC0FF0C6
:1030D000020EEA6E670EE96E000E2EEC05F00A0095
:1030E0000900F550EE6E0009FBE10A0E03010F6FB7
:1030F0000001A3EC0FF00400020EEA6E670EE96E09
:10310000000EC5EC05F00A000900F550EE6E00094E
:10311000FBE13C0E03010F6F0001A3EC0FF0020E68
:10312000EA6E670EE96E000ED2EC05F00A000900A7
:10313000F550EE6E0009FBE13E0E03010F6F00013A
:10314000A3EC0FF0020EEA6E670EE96E000EDFECE4
:1031500005F00A000900F550EE6E0009FBE1400E93
:1031600003010F6F0001A3EC0FF0020EEA6E670E71
:10317000E96E000E37EC05F00A000900F550EE6E1E
:103180000009FBE1420E03010F6F0001A3EC0FF0F9
:10319000020EEA6E670EE96E000E37EC05F00A00CB
:1031A0000900F550EE6E0009FBE1440E03010F6FBC
:1031B0000001A3EC0FF0020EEA6E670EE96E000E3E
:1031C000E9EC05F00A000900F550EE6E0009FBE19C
:1031D000460E03010F6F0001A3EC0FF00400030E75
:1031E0000101BB6F840EBA6FBBC1B9F1BAC1B8F1AE
:1031F000BAC174F1036AF250006EF29E020E756E4F
:10320000E00E746E74C173FF7F9C7F9E7F840F01FC
:10321000550E7E6EAA0E7E6E7F827FB2FED77F94A1
:103220000050F2120301036B0101BB510101746FE5
:10323000F250006EF29E020E756EE10E746E74C155
:1032400073FF7F9C7F9E7F840F01550E7E6EAA0EBA
:103250007E6E7F827FB2FED77F940050F212010112
:10326000010E016E00011200DDC2EAFFDCC2E9FFBF
:1032700014C3EFFFE92AD8B4EA2AEF6A0201DC2B73
:10328000D8B4DD2B00011200EACF0DF3E9CF0CF327
:1032900003010639F009086F0827E20F096F320FA2
:1032A0000B6F06510F0B092709270B27E90F0A6F30
:1032B0000A270A2705390F0B0A270B270A370B376E
:1032C0000B1F0B3705510F0B0B270837070E076F26
:1032D0000A0E0A070B27FDE309070A27FDE3080783
:1032E0000927FDE307070827FDE3030EEA6E070E33
:1032F000E96E070E0C150C9DE926000EEA22E95036
:103300000B0804E1EA50030801E10C8DEF50006E58
:1033100008E10CBD06D00CB915D00CB702D0200EB8
:1033200003D00C870C99300E0026EACF06F3E9CFC4
:1033300005F300C014F3000197DF06C3EAFF05C3DD
:10334000E9FF0301EE500CADDAD7000112000301D2
:10335000055303E10451FA0825E205C30AF304C347
:1033600009F30C6B0A0E0B6F0001B8EC0CF002C0F5
:1033700005F301C004F304000A0E03011B6F0001F2
:10338000A4EC0CF003010451D8B40507040704535E
:10339000D8B402D00001EFD70553D8B402D0000151
:1033A000EAD712D005C306F3062B0607D8B406D019
:1033B0001B690001A4EC0CF00301F7D704C31BF355
:1033C0000001A4EC0CF00301040000011200030151
:1033D0000E51016A0D5D03E20DC300F00CD0006ACE
:1033E000080E0F6F0D3700360E51005CD8B0006E1E
:1033F00001360F2FF7D70001120001500BC30DF358
:10340000640E03010E6F0001E2DF00C00BF30150F8
:10341000300E08E103010CA30FD00CB70DD00CB98E
:10342000200E04D003010C970C990C81012601C0D9
:1034300014F3000119DF03010BC30DF30A0E0E6F25
:103440000001C5DF00C00BF30150300E08E103019D
:103450000CB70AD00CA108D00CB9200E000101262F
:1034600001C014F301DF0301300E0B270BC314F36B
:103470000001FADE12008B8494940400020E030112
:103480001B6F0001A4EC0CF0070E926EC050C00B35
:103490003F09C06EC09EC2800F015C51800B5C6F03
:1034A000070E5D6FC196C198C18A0D0E006E002E89
:1034B000FED7000E016EC250830B0110C26E000ECB
:1034C000016EC150F80B0110C16E82C105F381C1BC
:1034D00004F300013CDF050E0301076F0001DBEC84
:1034E0000CF001C064F104008B949494C2900F011D
:1034F0005C51800B5C6F000E5D6FC196C198C19AE4
:103500000301032D2ED0010EEA6EEA0EE96E000EC5
:1035100000010DEC0AF00A000900F550EE6E0009FA
:10352000FBE1010E0201DD6FF90EDC6F64C10BF3EC
:103530001B0E03010C6F000160DF020E0301186F08
:10354000670E176F196B000158EC0DF0020E0301A6
:10355000046FFA0E1B6F0001A4EC0CF00301042FA2
:10356000F8D704000001120010C312F30FC311F3C7
:1035700012C3EAFF030111C3E9FFEF5206E0112B6A
:10358000D8B4122B0001F4D703010F51115D006E66
:1035900010511259036E00C001F0026E00011200BA
:1035A000036A03010F51670FE96E020E0320EA6EF2
:1035B000EFCF11F311512F0802E3000E01D0010EDD
:1035C000126F1151390802E2000E01D0010E1215DE
:1035D00003E0300E115D106F1151600802E3000E20
:1035E00001D0010E126F1151660802E2000E01D0E7
:1035F000010E121504E0610E115D0A0F106F1151DA
:10360000400802E3000E01D0010E126F115146086E
:1036100002E2000E01D0010E121504E0410E115D10
:103620000A0F106F1051016E000112000301226B8E
:10363000236B010E246FDA6AD96A030E276F1A0E04
:10364000266F030EEA6E1E0EE96E27C3E2FF26C345
:10365000E1FF24C325F3D890E550EE02F350222376
:10366000F4502323252FF7D722C3DEFF23C322F3F1
:10367000236BD8B0232B262BD8B4272B242B2451F3
:103680000508DFE10001120003010B6B0A6B096BF7
:10369000086B020E106F670E0F6F000165DF01C02F
:1036A0000DF303010D51030802E2030E0D5F0E6BD3
:1036B0000D510E5D44E20EC30FF3000171DF01C036
:1036C0000CF303010E510D5DFF0F040DF350036A5F
:1036D0008C0FE96E020E0320EA6EEFCF00F0ECCF04
:1036E00001F0ECCF02F0ECCF03F003C016F302C000
:1036F00015F301C014F300C013F3EACF18F3E9CFB8
:1037000017F31D6B1C6B1B6B0CC31AF303C021F367
:1037100002C020F301C01FF300C01EF3000186DFCA
:1037200018C3EAFF17C3E9FF00500301082701503F
:10373000092302500A2303500B230E2BB9D708C3C9
:1037400000F009C301F00AC302F00BC303F000014B
:10375000120003010B6B0A6B096B086B020E106FF2
:10376000670E0F6F000100DF01C00DF303010E6B48
:103770000D510E5D44E20EC30FF3000111DF01C0D5
:103780000CF303010E510D5DFF0F040DF350036A9E
:103790008C0FE96E020E0320EA6EEFCF00F0ECCF43
:1037A00001F0ECCF02F0ECCF03F003C016F302C03F
:1037B00015F301C014F300C013F3EACF18F3E9CFF7
:1037C00017F31D6B1C6B1B6B0CC31AF303C021F3A7
:1037D00002C020F301C01FF300C01EF3000126DF6A
:1037E00018C3EAFF17C3E9FF00500301082701507F
:1037F000092302500A2303500B230E2BB9D708C309
:1038000000F009C301F00AC302F00BC303F000018A
:10381000F7EF1DF00400100E0301106F020E126F7F
:10382000E20E116F00010BEC0DF0010EEA6EEA0ED4
:10383000E96E000E83EC06F00A000900F550EE6E0A
:103840000009FBE1020E0301186F670E176F010EEE
:10385000196F000158EC0DF0100E0301106F020EED
:10386000126F130E116F00010BEC0DF0010EEA6EDA
:10387000EA0EE96E000E92EC06F00A000900F5501F
:10388000EE6E0009FBE1020E0301186F670E176F61
:10389000010E196F000158EC0DF0080E0301106FB6
:1038A000020E126F230E116F00010BEC0DF0010ED2
:1038B000EA6EEA0EE96E000EA0EC06F00A000900BE
:1038C000F550EE6E0009FBE1020E0301186F670E62
:1038D000176F010E196F000158EC0DF0100E030167
:1038E000106F020E126F8B0E116F00010BEC0DF0BA
:1038F000010EEA6EEA0EE96E000EAFEC06F00A0069
:103900000900F550EE6E0009FBE1020E0301186F8D
:10391000670E176F010E196F000158EC0DF0200EA5
:103920000301106F020E126F2B0E116F00010BECD2
:103930000DF0010EEA6EEA0EE96E000EBEEC06F026
:103940000A000900F550EE6E0009FBE1020E0301CA
:10395000186F670E176F010E196F000158EC0DF00C
:10396000200E0301106F020E126F4B0E116F00013B
:103970000BEC0DF0010EEA6EEA0EE96E000ECBECD8
:1039800006F00A000900F550EE6E0009FBE1020E98
:103990000301186F670E176F010E196F000158ECC5
:1039A0000DF0200E0301106F020E126F6B0E116FDF
:1039B00000010BEC0DF0010EEA6EEA0EE96E000E4E
:1039C000D8EC06F00A000900F550EE6E0009FBE1A4
:1039D000020E0301186F670E176F010E196F0001B9
:1039E00058EC0DF00A0E0301106F010E126FF40E69
:1039F000116F00010BEC0DF047DE03C07AF102C03D
:103A000079F101C078F100C077F101017A3379339F
:103A1000783377337A337933783377333F0E7A17C5
:103A20007A530CE179530AE1785308E177510E0893
:103A300005E37A6B796B786B0F0E776F010EEA6E88
:103A4000EA0EE96E000E0001E5EC06F00A0009003E
:103A5000F550EE6E0009FBE1020E0301186F670ED0
:103A6000176F010E196F000158EC0DF0010E0301E4
:103A7000106F020E126F9B0E116F00010BEC0DF018
:103A800003DE00C07BF1010EEA6EEA0EE96E000E65
:103A9000F5EC06F00A000900F550EE6E0009FBE1B6
:103AA000020E0301186F670E176F010E196F0001E8
:103AB00058EC0DF0010E0301106F020E126F9C0EF8
:103AC000116F00010BEC0DF0DFDD00C07CF1010E89
:103AD000EA6EEA0EE96E000E05EC07F00A00090036
:103AE000F550EE6E0009FBE1020E0301186F670E40
:103AF000176F010E196F000158EC0DF00400010E54
:103B00000301106F020E126F0C0E116F00010BEC0F
:103B10000DF0BADD00C07DF1010EEA6EEA0EE96E2D
:103B2000000E14EC07F00A000900F550EE6E0009D3
:103B3000FBE1020E0301186F670E176F010E196F7C
:103B4000000158EC0DF0010E0301106F020E126F10
:103B50009E0E116F00010BEC0DF096DD00C07EF1A2
:103B6000010EEA6EEA0EE96E000E23EC07F00A0081
:103B70000900F550EE6E0009FBE1020E0301186F1B
:103B8000670E176F010E196F000158EC0DF0010E52
:103B90000301106F020E126F9F0E116F00010BECEC
:103BA0000DF072DD00C07FF1010EEA6EEA0EE96EE3
:103BB000000E31EC07F00A000900F550EE6E000926
:103BC000FBE1020E0301186F670E176F010E196FEC
:103BD000000158EC0DF00400060E0301106F020EF8
:103BE000126F0D0E116F00010BEC0DF0B2D501C07C
:103BF00082F100C081F10101825306E1815109087F
:103C000003E3826B500E816F010EEA6EEA0EE96EDD
:103C1000000E000140EC07F00A000900F550EE6EBE
:103C20000009FBE1020E0301186F670E176F010E0A
:103C3000196F000158EC0DF0010E0301106F020E18
:103C4000126F9D0E116F00010BEC0DF01DDD00C019
:103C500080F1010EEA6EEA0EE96E000E4EEC07F0FE
:103C60000A000900F550EE6E0009FBE1020E0301A7
:103C7000186F670E176F010E196F000158EC0DF0E9
:103C8000080E0301106F020E126FB60E116F0001C5
:103C90000BEC0DF0F9DC01C084F100C083F10101EF
:103CA00084338333843383333F0E8417845306E194
:103CB00083510E0803E3846B0F0E836F010EEA6ECF
:103CC000EA0EE96E000E00015EEC07F00A00090042
:103CD000F550EE6E0009FBE1020E0301186F670E4E
:103CE000176F010E196F000158EC0DF0010E030162
:103CF000106F020E126FB50E116F00010BEC0DF07C
:103D0000C3DC00C08FF1010EEA6EEA0EE96E000E10
:103D10006EEC07F00A000900F550EE6E0009FBE1B9
:103D2000020E0301186F670E176F010E196F000165
:103D300058EC0DF0010E0301106F020E126FA80E69
:103D4000116F00010BEC0DF09FDC00C090F1010E33
:103D5000EA6EEA0EE96E000E7CEC07F00A0009003C
:103D6000F550EE6E0009FBE1020E0301186F670EBD
:103D7000176F010E196F000158EC0DF00A0E0301C8
:103D8000106F020E126FC60E116F00010BEC0DF0DA
:103D90007BDC03C007F302C006F301C005F300C0DB
:103DA00004F3030105310101926F030104310101A4
:103DB000916F923391333F0E9217925306E19151D6
:103DC000010803E3926B020E916F010EEA6EEA0E98
:103DD000E96E000E00018AEC07F00A000900F550B8
:103DE000EE6E0009FBE1020E0301186F670E176FFC
:103DF000010E196F000158EC0DF00A0E0301106F4F
:103E0000020E126FD00E116F00010BEC0DF03CDCB6
:103E100003C007F302C006F301C005F300C004F3BA
:103E2000030105310101946F030104310101936F16
:103E3000943393333F0E9417945306E193510E0835
:103E400003E3946B0F0E936F010EEA6EEA0EE96EB8
:103E5000000E00019DEC07F00A000900F550EE6E1F
:103E60000009FBE1020E0301186F670E176F010EC8
:103E7000196F000158EC0DF0020E0301106F126F64
:103E8000DA0E116F00010BEC0DF044EC1BF000C0DA
:103E90008EF1010EEA6EEA0EE96E000EB1EC07F04B
:103EA0000A000900F550EE6E0009FBE1020E030165
:103EB000186F670E176F010E196F000158EC0DF0A7
:103EC000010E0301106F020E126FDC0E116F000164
:103ED0000BEC0DF044EC1BF000C098F1010EEA6E03
:103EE000EA0EE96E000EC1EC07F00A000900F55079
:103EF000EE6E0009FBE1020E0301186F670E176FEB
:103F0000010E196F000158EC0DF0010E0301106F46
:103F1000020E126FB50E116F00010BEC0DF044ECA8
:103F20001BF000C09CF1010EEA6EEA0EE96E000E75
:103F3000CDEC07F00A000900F550EE6E0009FBE138
:103F4000020E0301186F670E176F010E196F000143
:103F500058EC0DF0010E0301106F020E126FB40E3B
:103F6000116F00010BEC0DF044EC1BF000C0C0F130
:103F7000010EEA6EEA0EE96E000EDAEC07F00A00B6
:103F80000900F550EE6E0009FBE1020E0301186F07
:103F9000670E176F010E196F000158EC0DF0050E3A
:103FA0000301106F020E126F060E116F00010BEC71
:103FB0000DF044EC1BF003C007F302C006F301C090
:103FC00005F300C004F304C3B7F1010E0301106F41
:103FD000126B090E116F00010BEC0DF0020E0301C4
:103FE000086FFA0E1B6F0001A4EC0CF00301082F00
:103FF000F8D70400020E086FFA0E1B6F0001A4EC44
:104000000CF00301082FF8D70400020E086FFA0E17
:104010001B6F0001A4EC0CF00301082FF8D704007B
:10402000000112009EAAFED7ABCF20F0AECF01F068
:1040300020A202D0AB98AB8812000301086B055197
:10404000085D2CE20400898A929A07C309F3092BC0
:104050000907D8B406D01B690001A4EC0CF00301D9
:10406000F7D706C31BF30001A4EC0CF0899A929ACF
:1040700007C309F30301092B0907D8B406D01B694C
:104080000001A4EC0CF00301F7D706C31BF30001F9
:10409000A4EC0CF004000301082BD1D7000112009E
:1040A0009EA8FED7AD6E12000301126B04001251E0
:1040B000122B036AC00FE96E000E0320EA6EEFCFE9
:1040C0000EF3ACA2FED7420E006E002EFED700000B
:1040D0000E510001E5DF036A03011251C00FE96EC2
:1040E000000E0320EA6EEF52E1E10D0E0001D8DF71
:1040F000420E006E002EFED700000A0ED1DF256AA8
:1041000003010F6B0DC311F30CC310F30101256BF9
:1041100003011051D8B4110710070B2D1CD02550E6
:10412000010818E2040E255C036A2A0FE96E000EEE
:104130000320EA6EEF506F080DE1030E255C036A61
:104140002A0FE96E000E0320EA6EEF506B0802E1C1
:10415000010E0F6F05D02550010802E2010E0F6F0E
:104160000A0E1B6F0001A4EC0CF0040003011053B5
:1041700002E1115302E00F53CCE00201AD6B2A5073
:10418000690826E12B506E0823E12C50760820E1C7
:104190002D5061081DE12E506C081AE12F5069085E
:1041A00017E13050640814E131505F0811E13250DA
:1041B00070080EE1335061080BE13450720808E1D9
:1041C0003550610805E136506D0802E1040EAD6F0F
:1041D00003010B2D19D0040E255C036A2A0FE96E2A
:1041E000000E0320EA6EEF506F080EE1030E255C0F
:1041F000036A2A0FE96E000E0320EA6EEF506B0887
:1042000003E1010E016E0FD00B530BE1255209E0C3
:104210001E0E1B6F0001A4EC0CF0010E016E0301D9
:1042200002D0000E016E000112000301066B0400B3
:1042300005C3EAFF0451042BD8B4052BE96EEFCF78
:1042400026F20651062B036AEA0FE96E010E0320DF
:10425000EA6E26C2EFFF020126530BE026510A0840
:1042600008E026510D0805E0030106513B08E0E295
:10427000020126510A0803E026510D080BE1030153
:104280000607036A0651EA0FE96E010E0320EA6E83
:10429000EF6A02010001D0EF21F089869296C80EE4
:1042A00003011B6F0001A4EC0CF089969296040E9A
:1042B0000301046FFA0E1B6F0001A4EC0CF0030164
:1042C000042FF8D704000201AC6BE06BDF6B040035
:1042D000EA6AC00EE96E000E000157EC08F00A0011
:1042E0000900F550EE6E0009FBE103010B6B130EA4
:1042F0000D6F880E0C6F0001D7DE01C06DF1040058
:104300000301032D65D0EA6AC00EE96E000E0001BC
:1043100068EC08F00A000900F550EE6E0009FBE1B8
:1043200003010B6B0D6BFA0E0C6F0001BDDE01C0BB
:104330006DF101016D5305E10201DF81AC2B0BD062
:1043400001010301186B2A0E176F030E196F00018C
:1043500058EC0DF002010400EA6AC00EE96E000E8E
:10436000000176EC08F00A000900F550EE6E000935
:10437000FBE103010B6B0D6BFA0E0C6F000194DE79
:1043800001C06DF101016D5305E10201DF83AC2B2A
:104390001ED001010301056B2A0E046F000145D7F1
:1043A000010EEA6EEA0EE96E000E85EC08F00A00D6
:1043B0000900F550EE6E0009FBE10301186B2A0EAF
:1043C000176F010E196F000158EC0DF00201030187
:1043D0000001120003010D510F03F3CF01F0F4CFE0
:1043E00000F01003F35000260E510F03F35000208D
:1043F000026E000112000301086B046B066B0400DF
:10440000086B056B0400036A05512B0FE96E020E61
:104410000320EA6EEFCF09F30E6B04C30DF3106BAC
:104420001E0E0F6F0001D6DF02C00BF301C00AF3AE
:10443000030105510124016E000E0220036E01509C
:1044400003C0F7FF000187EC00F0016E0301095D76
:1044500003E105511D0803E2010E086F01D0052B91
:1044600009513D0805E0085303E105511D08CAE262
:10447000082D01D0042B09513D0806E004514908DC
:1044800003E3082D01D0BBD709513D0848E1036A79
:1044900005512B0FE96E020E0320EA6EEF503F0824
:1044A00004E1010E0425066F3AD0020E0425066FC2
:1044B000076B0751072B036A670F016E020E032279
:1044C00003C00BF30551052B036A2B0FE96E020E97
:1044D0000320EA6EEFCF0CF30BC3EAFF01C0E9FF44
:1044E0000CC3EFFF036A05512B0FE96E020E032088
:1044F000EA6EEF500D080BE0010E0525036A2B0F45
:10450000E96E020E0320EA6EEF500A08D2E1036A58
:104510000751670FE96E020E0320EA6EEF6A065339
:1045200004E1000E016E03D002D006C301F00001C9
:1045300017EF23F0010EEA6EEA0EE96E000EEAECC8
:1045400007F00A000900F550EE6E0009FBE1020ECB
:104550000301186F670E176F196B000158EC0DF00F
:104560000201A86B0101726B666B040072510408B2
:104570001AE1010E0201A86FEA6EEA0EE96E000E62
:104580000001F8EC07F00A000900F550EE6E000992
:10459000FBE1020E0301186F670E176F196B000124
:1045A00058EC0DF00101722D8ED0898A640E030142
:1045B0001B6F0001A4EC0CF0899A929A01017251D0
:1045C00004081BE1010E0201A86FEA6EEA0EE96E13
:1045D000000E0001F8EC07F00A000900F550EE6E3D
:1045E0000009FBE1020E0301186F670E176F196BCC
:1045F000000158EC0DF064D0010102012B5141087B
:1046000014E12C51540811E12D514C080EE12E51AA
:1046100053080BE12F510D0808E130510A0805E15C
:1046200000010AEC1CF04CD002010001E4D601C0EC
:1046300003F3030103532DE003C30FF30001A3ECC5
:104640000FF003010351010B0BE0020E186F670E10
:10465000176F030E196F000158EC0DF018D003010D
:10466000010EEA6EEA0EE96E000E0001F8EC07F0AA
:104670000A000900F550EE6E0009FBE1020E03018D
:10468000186F670E176F196B000158EC0DF018D0FA
:104690000301010EEA6EEA0EE96E000E000102EC63
:1046A00008F00A000900F550EE6E0009FBE1020E69
:1046B0000301186F670E176F196B000158EC0DF0AE
:1046C0000101666B726B0201A853D8A402D00101EC
:1046D0004CD700014FEF51F08E0E006E08C301F071
:1046E00007C302F0036A015209E102C001F0026A45
:1046F000080E005E015202E1006A08D0D89001BEA7
:1047000004D0023601360006F9D7019E12000301DB
:104710001451D8B471D0006E1851D8B46DD00026A1
:1047200004E3810E002668E204D07F0E005E64E39D
:1047300063E015C31CF319511C1B158F198F1751FA
:104740001B03F4CF1EF316511A03F4CF03F0F3CF7B
:104750001DF31B03F3501E27F4501D23000E0322EC
:1047600017511A03F3501E27F4501D23000E026A3E
:104770000322022215511B03F3501D27F45003227C
:10478000000E022215511A03F3500326F4500222A0
:10479000000E016A012217511903F3501D27F4502E
:1047A0000322000E0222012216511903F3500326A0
:1047B000F4500222000E012215511903F350022673
:1047C000F4500122002A01BE05D01D3703360236FF
:1047D00001360006000E1DAF0AD0032A0222012274
:1047E000015005E1025003E1035001E1002A1CBF22
:1047F000018E1CAF019E04D0006A016A026A036A3E
:104800000001120003010B51D8B4A5D0176F0F514E
:10481000D8B4A1D0175F05E37F0E1727D8B09BD07F
:1048200006D0810E175FD8A096D0D8B494D017C305
:1048300000F0016A026A036A166B0CC315F3158F48
:104840000DC314F30EC313F3190E176F1251135F38
:104850000DE2010E145F0AE2155F08E2165F06E240
:10486000162B152B142B1251132728D01151145F1E
:1048700012E2010E155F0FE2165F0DE2162B152BEB
:10488000115114271251132719E3142B17E1152B7B
:1048900015E1162B13D010518009155F0EE2010EA1
:1048A000165F0BE2162B10518009152711511427A2
:1048B000E9E3152BE7E1162BE5D70380172F01D08D
:1048C0000BD0D8901337143715371637D8900336D6
:1048D000023601361837BAD718A106D0D89001325F
:1048E00002320332183302D0000635E018BF1ED062
:1048F000D89013371437153716371251135F07E264
:10490000010E145F04E2155F02E2165F1AE3115113
:10491000145F05E2010E155F02E2165F12E310510B
:104920008009155F03E2010E165F0BE3032A09E11C
:10493000022A07E1012A05E1002A0DE001320232D4
:1049400003320CC317F31051171B17AF02D0018E9F
:1049500006D0019E04D0006A016A026A036A00015F
:104960001200800ED8A202D00301101B0301156BA8
:10497000166B0CC314F31051141B0B51D8B4DFD0B9
:10498000136F006E0F51D8B4E3D0135FD8B483D047
:104990003EE310C319F3198F11C318F312C317F3B1
:1049A000166BD8901933183317331633132FF8D7E3
:1049B00014AF03D01581E0D0159113911589030E22
:1049C000EA6E0E0EE96EEBD0159914BF0AD013A152
:1049D00013D01933183317331633002AD8B4C7D07D
:1049E0000BD019BF0CD0D890163717371837193796
:1049F0000006D8B4BCD0F5D7158D6DD0159D0CC36D
:104A000014F30CAF02D0198FABD0199FA9D00FC3EC
:104A100013F30FC300F00B51135F0CC319F3198F7D
:104A20000DC318F30EC317F3166BD8901933183350
:104A300017331633132FF8D714AF03D015839CD038
:104A400015931391158B030EEA6E120EE96EA7D023
:104A5000159B14BF0AD013A113D019331833173381
:104A60001633002AD8B483D00BD019BF0CD0D890FD
:104A700016371737183719370006D8B478D0F5D756
:104A8000158F29D0159F10C314F310AF02D0198FC2
:104A900067D0199F65D010C319F3198F11C318F38C
:104AA00012C317F314AF04D0199F158565D015955F
:104AB000166B1391030EEA6E0E0EE96E70D014BFE2
:104AC0001CD00CC314F313A106D0193318331733B9
:104AD0001633002A4CE016AF0BD0172B09E1182B28
:104AE00007E1192B05E1193318331733002A3FE08A
:104AF00015BD84D715BFC6D71CD0800E191B19AFA2
:104B000004D03AD010C314F30AD00CC314F31953D1
:104B100006E1185304E1175302E1006A21D019BFDE
:104B200008D0D8901637173718371937002EF7D70F
:104B30001ED014AF02D0198F13D0199F11D00FC3FC
:104B400000F010C319F311C318F312C317F308D000
:104B50000BC300F00CC319F30DC318F30EC317F306
:104B600019C301F018C302F017C303F034D0006A70
:104B7000016A026A036A2FD0166B171F181F191FCC
:104B8000161F162B05E1172B03E1182B01E1192B3A
:104B900015B112D715B354D715B589D7B3D7EF5080
:104BA000172705E3182B03E1192BD8B41381ED5215
:104BB000EF50182703E3192BD8B41381ED52EF50AF
:104BC000EFBE01D0800A1927D8B0138115B9FCD6E1
:104BD00015BB3ED774D70001120003011451B6086B
:104BE000146F036A15C318F3158FD8901533163355
:104BF00017330332023201320032142FF6D718AFC6
:104C00000BD0001E011E021E031E002AD8B4012A6A
:104C1000D8B4022AD8B4032A000184EF26F0D8B20F
:104C200004D0030EEA6E1C0EE96E006A016A026A85
:104C3000036A03011C6B1D6B1E6B1F6B1B511A114A
:104C4000191118112CE0200E206FD8901437153749
:104C5000163717371C371D371E371F371B511F5D7F
:104C600008E11A511E5D05E119511D5D02E118515F
:104C70001C5D0FE318511C5F1951D8A0193D1D5F31
:104C80001A51D8A01A3D1E5F1B51D8A01B3D1F5FB3
:104C9000D8800036013602360336202FD6D71CC303
:104CA000EFFF1DC3ECFF1EC3ECFF1FC3ECFF0001B1
:104CB0001200E95003010C6F0B510E6F1BE00AC389
:104CC00017F309C316F308C315F307C314F31B6BDB
:104CD0001A6B200E196F820E186F000118DD03C0C9
:104CE0000AF302C009F301C008F300C007F303018F
:104CF0000E2FE5D70AC317F309C316F308C315F33C
:104D000007C314F3000169D703C00AF302C009F313
:104D100001C008F300C007F303010AAF0DD00C0770
:104D20000C8B071F081F091F0A1F072BD8B4082B5D
:104D3000D8B4092BD8B40A2B3B0E136F9A0E126FFE
:104D4000CA0E116F106B0A0E0E6F0B51D8B40C2BDC
:104D5000D882030EEA6E070EE96E0AC317F309C381
:104D600016F308C315F307C314F313C31BF312C3DD
:104D70001AF311C319F310C318F3000150DF0150E7
:104D8000005213E103010B290E5DD8A402D00001EB
:104D90000CD00C510DE00F0B0E5D01E044E20CBF96
:104DA00042D00CBD05D0200E37D0200E03010C17C9
:104DB0000CAB0FD00C9B0B51D8A40C0700500C6F00
:104DC0002D0E146F000134EC19F003010C51006E2C
:104DD0000C6B0B510E5D0DE100500C6F2E0E146F1D
:104DE000000134EC19F003010C51006E200E0C1779
:104DF000000E300E0CAB10D00C9B0B51D8A40C073E
:104E000000500C6F2D0E146F000134EC19F00301EB
:104E10000C51006E0C6B300E002600C014F3000124
:104E200034EC19F00301D89213C317F312C316F32D
:104E300011C315F310C314F31B6B1A6B196B0A0E15
:104E4000186F0001ECDE03C013F302C012F301C0BF
:104E500011F300C010F303010E2F7AD700011200E6
:104E60000301086B63C107F3000136DC6F0E030119
:104E7000176F120E166F030E156F800E146F03C09E
:104E80001BF302C01AF301C019F300C018F30001AC
:104E90003EDC03C00AF302C009F301C008F300C0FE
:104EA00007F303C017F302C016F301C015F300C0E7
:104EB00014F303011B6B1A6B200E196F850E186F0C
:104EC000000125DC03C00AF302C009F301C008F3A6
:104ED00000C007F303C00EF302C00DF301C00CF3D2
:104EE00000C00BF30301126B7C0E116F030E106FE9
:104EF0008C0E0F6F000186DC03C00AF302C009F3B9
:104F000001C008F300C007F3D89203C00EF302C03B
:104F10000DF301C00CF300C00BF3CD0E0301126FB3
:104F2000CC0E116F4C0E106F7B0E0F6F000119DD50
:104F300003C0F8F202C0F7F201C0F6F200C0F5F2C9
:104F4000010EEA6EEA0EE96E000E3EEC09F00A0070
:104F50000900F550EE6E0009FBE1010E0201DD6F64
:104F6000F20EDC6F010EE96EF8C20AF3F7C209F324
:104F7000F6C208F3F5C207F303010B6F000199DED7
:104F8000020E0301186F670E176F196B000158ECC2
:104F90000DF01200070E926E898E929E020E030192
:104FA0001B6F0001A4EC0CF0C050C00B3F09C06E99
:104FB000C09EC2800F015C51800B5C6F020E5D6F62
:104FC000C196C198C18A040E016EC250830B0110B4
:104FD000C26E000E016EC150F80B0110C16E420E80
:104FE000006E002EFED70000020E0301076F0001C5
:104FF000DBEC0CF001C063F133DF0A0E0201F96F44
:10500000898A929A020E0301076F0001DBEC0CF013
:1050100001C063F104000201F95306E10A0EF96FC1
:1050200000011EDF07D00201320E03011B6F0001D9
:10503000A4EC0CF0899A929A0301055302E10653FD
:1050400004E00551D8B406070507010163516F0854
:105050000CE303010553D8B402D00201D1D70653A3
:10506000D8B402D00201CCD70101899E929EC29091
:105070000F015C51800B5C6F000E5D6FC196C19893
:10508000C19A000112000400400E0301066F1A0EBF
:10509000076F600E086F000171EC0CF00400070E42
:1050A000926E898E929E020E03011B6F0001A4EC8A
:1050B0000CF0C050C00B3F09C06EC09EC2800F01F3
:1050C0005C51800B5C6F060E5D6FC196C198C18A02
:1050D000010E03011B6F0001A4EC0CF0040E016E25
:1050E000C250830B0110C26E000E016EC150F80B4E
:1050F0000110C16E210E006E002EFED7660E01015A
:10510000636F050E0301076F0001DBEC0CF001C0BB
:1051100063F1010163516608D8B0A3D00201F06BBE
:10512000EF6BF26BF16B0400040E016EC250830B47
:105130000110C26E000E016EC150F80B0110C16E5D
:10514000210E006E002EFED7050E0301076F000131
:10515000DBEC0CF001C063F10101635165080BE366
:10516000400E0301066F1A0E076F086B000171EC09
:105170000CF03CD00101080E016EC250830B0110EF
:10518000C26E000E016EC150F80B0110C16E210EEF
:10519000006E002EFED7050E0301076F0001DBEC49
:1051A0000CF00201F06B01C0EFF2F12BD8B4F22B3E
:1051B000F2510108D8B002D0000118D006E1F15137
:1051C0008F08D8B002D0000111D0010163516608E8
:1051D000D8A002D000010AD00201F053D8B402D006
:1051E000000104D0EF5198089EE200010201F05343
:1051F00003E1EF51980834E2F251010831E303E191
:10520000F1518F082DE3010163516608D8A002D047
:10521000020126D00201F26BF16B640E03011B6FD9
:105220000001A4EC0CF0050E0301076F0001DBEC9C
:105230000CF001C0F3F20201F05307E1F351EF5D0E
:1052400004E2F06BF3C2EFF203D0F26B140EF16FD5
:10525000F12BD8B4F22BF25303E1F1510E08DDE249
:105260000101400E0301066F1A0E076F086B000163
:1052700071EC0CF00400899E929EC2900F015C516B
:10528000800B5C6F000E5D6FC196C198C19A0201E0
:10529000F251000805E2FF0A08E1F151900805E328
:1052A00001016351650806E30201000E016E05D09D
:1052B00004D00101010E016E02010001A8EF29F0E6
:1052C0000101B751090802E30C0EB76F0301076B28
:1052D0000101B7510301075D0FE2066B0651090892
:1052E00009E30400640E1B6F0001A4EC0CF0030141
:1052F000062BF4D7072BECD70400000112000101A4
:10530000802D03D0966B080E956F7D53D8A42BD1BA
:10531000D85312E1D95310E1DA530EE1DB530CE11B
:10532000DB6B090EDA6FE30ED96F400ED86F020EF9
:105330000201F46F0BD00101DB6B090EDA6FE30E93
:10534000D96F400ED86F010E0201F46F00019BD699
:10535000012C01D10201D85140081DE1400E03018A
:10536000066F0A0E076F010E086F000171EC0CF05A
:10537000500E03011B6F0001A4EC0CF0400E030162
:10538000066F0A0E076F086B000171EC0CF0010E3E
:105390000101D26F0201D85150081DE1400E0301F6
:1053A000066F0A0E076F040E086F000171EC0CF017
:1053B000500E03011B6F0001A4EC0CF0400E030122
:1053C000066F0A0E076F086B000171EC0CF0010EFE
:1053D0000101D36F0201D85160081DE1400E0301A5
:1053E000066F0A0E076F100E086F000171EC0CF0CB
:1053F000500E03011B6F0001A4EC0CF0400E0301E2
:10540000066F0A0E076F086B000171EC0CF0010EBD
:105410000101D46F0201D85170081DE1400E030153
:10542000066F0A0E076F400E086F000171EC0CF05A
:10543000500E03011B6F0001A4EC0CF0400E0301A1
:10544000066F0A0E076F086B000171EC0CF0010E7D
:105450000101D56F0201D8531CE1400E0301066F14
:105460000A0E076F020E086F000171EC0CF0500E6F
:1054700003011B6F0001A4EC0CF0400E0301066F4A
:105480000A0E076F086B000171EC0CF00101D26B82
:105490000201D85110081CE1400E0301066F0A0EEC
:1054A000076F080E086F000171EC0CF0500E03013D
:1054B0001B6F0001A4EC0CF0400E0301066F0A0EF6
:1054C000076F086B000171EC0CF00101D36B020156
:1054D000D85120081CE1400E0301066F0A0E076F29
:1054E000200E086F000171EC0CF0500E03011B6FD1
:1054F0000001A4EC0CF0400E0301066F0A0E076FCA
:10550000086B000171EC0CF00101D46B0201D85161
:1055100030081CE1400E0301066F0A0E076F800E73
:10552000086F000171EC0CF0500E03011B6F0001BD
:10553000A4EC0CF0400E0301066F0A0E076F086B17
:10554000000171EC0CF00101D56B0201010E0301A9
:10555000056F03D000010301056B0201F407F4534A
:10556000D8A4F4D601017D2D68D00201D851400B9A
:105570002FE0D851300B2BE1010E0101D26F400E0C
:105580000301066F1A0E076F200E086F000171EC01
:105590000CF0400E0301066F0A0E076F010E086F34
:1055A000000171EC0CF08CDE400E0301066F1A0E48
:1055B000076F086B000171EC0CF0400E0301066FE1
:1055C0000A0E076F086B000171EC0CF0020131D07C
:1055D000D851300B2EE10101D26B400E0301066F52
:1055E0001A0E076F200E086F000171EC0CF0400ED0
:1055F0000301066F0A0E076F020E086F000171ECBF
:105600000CF05EDE400E0301066F1A0E076F086B8A
:10561000000171EC0CF0400E0301066F0A0E076FDB
:10562000086B000171EC0CF00201B46BB36BB26B50
:10563000B16B010E0301056F0101030105C301F008
:10564000000112000301066B0551065D1FE2040014
:10565000FA0E1B6F0001A4EC0CF00400FA0E03011B
:105660001B6F0001A4EC0CF00400FA0E03011B6F89
:105670000001A4EC0CF00400FA0E03011B6F000102
:10568000A4EC0CF004000301062BDED7000112008D
:105690000301066B040E056F00017CDC0301046B43
:1056A000066B040E056F000175DC04000301086B36
:1056B00063C107F300016CEC23F06F0E0301176F59
:1056C000120E166F030E156F800E146F03C01BF3BE
:1056D00002C01AF301C019F300C018F3000187ECEF
:1056E00023F003C008F302C007F301C006F300C0B3
:1056F00005F303C017F302C016F301C015F300C091
:1057000014F303011B6B1A6B200E196F850E186FB3
:10571000000187EC23F003C008F302C007F301C0C7
:1057200006F300C005F303C00EF302C00DF301C081
:105730000CF300C00BF30301126B7C0E116F030E10
:10574000106F8C0E0F6F000102EC24F003C008F301
:1057500002C007F301C006F300C005F3D89203C0EE
:105760000EF302C00DF301C00CF300C00BF3CD0E1D
:105770000301126FCC0E116F4C0E106F7B0E0F6F6A
:105780000001B1EC24F003C0F8F202C0F7F201C04E
:10579000F6F200C0F5F2010EEA6EEA0EE96E000EB6
:1057A0003EEC09F00A000900F550EE6E0009FBE13D
:1057B000010E0201DD6FF20EDC6F010EE96EF8C220
:1057C0000AF3F7C209F3F6C208F3F5C207F30301BF
:1057D0000B6F000159EC26F0020E0301186F670EE3
:1057E000176F196B000158EC0DF0020E0301056FE5
:1057F000FA0E1B6F0001A4EC0CF00301052FF8D783
:105800000400010EEA6EEA0EE96E000E00014CEC97
:1058100009F00A000900F550EE6E0009FBE1010EE7
:105820000201DD6FF50EDC6F100EE96E9EC106F30E
:105830009DC105F3000144EC19F0020E0301186F3D
:10584000670E176F196B000158EC0DF0020E030183
:10585000056FFA0E1B6F0001A4EC0CF00301052F7D
:10586000F8D704008B8A9388020E1B6F0001A4EC0A
:105870000CF081A817D0010EEA6EEA0EE96E000E58
:105880005CEC09F00A000900F550EE6E0009FBE13E
:10589000020E0301186F670E176F196B000158ECA9
:1058A0000DF016D0010EEA6EEA0EE96E000E6AECFB
:1058B00009F00A000900F550EE6E0009FBE1020E46
:1058C0000301186F670E176F196B000158EC0DF08C
:1058D0008B9A949A020E0301056FFA0E1B6F00015A
:1058E000A4EC0CF00301052FF8D70400400E066F5E
:1058F000100E076F0F0E086F000171EC0CF0010E17
:1059000003011B6F0001A4EC0CF0400E0301066FB5
:105910001A0E076F100E086F000171EC0CF0050EE7
:1059200003011B6F0001A4EC0CF081AA17D0010E3B
:10593000EA6EEA0EE96E000E79EC09F00A00090041
:10594000F550EE6E0009FBE1020E0301186F670EC1
:10595000176F196B000158EC0DF016D0010EEA6EAE
:10596000EA0EE96E000E8BEC09F00A000900F55012
:10597000EE6E0009FBE1020E0301186F670E176F50
:10598000196B000158EC0DF0400E0301066F1A0E62
:10599000076F086B000171EC0CF0020E0301056F3C
:1059A000FA0E1B6F0001A4EC0CF00301052FF8D7D1
:1059B0000400010E0101D76FEA6EEA0EE96E000ED7
:1059C00000019DEC09F00A000900F550EE6E000997
:1059D000FBE1020E0301186F670E176F196B0001D0
:1059E00058EC0DF0898A929A04000301036B03516D
:1059F0000108D8A018D1400E0201D86F00017FDC49
:105A0000012C83D0899A929AF0C208F3EFC207F36F
:105A10006CEC23F06F0E0301176F120E166F030E5E
:105A2000156F800E146F03C01BF302C01AF301C080
:105A300019F300C018F3000187EC23F003C008F34A
:105A400002C007F301C006F300C005F303C00EF364
:105A500002C00DF301C00CF300C00BF30301126B85
:105A6000116B7F0E106F860E0F6F000102EC24F099
:105A700003C008F302C007F301C006F300C005F33A
:105A800003C017F302C016F301C015F300C014F3EE
:105A900003011B6B1A6B400E196F820E186F000109
:105AA00087EC23F003C0F8F202C0F7F201C0F6F26F
:105AB00000C0F5F2010EEA6EEA0EE96E000EB3ECDC
:105AC00009F00A000900F550EE6E0009FBE1010E35
:105AD0000201DD6FF90EDC6F010EE96EF8C20AF308
