:04000000E3EF4FF0EB
:08000800046ED8CF05F0E0CF33
:1000100006F00001E9CF0CF0EACF07F0E1CF08F0DD
:10002000E2CF09F0D9CF0AF0DACF0BF0F3CF12F01C
:10003000F4CF13F0FACF14F0F5CF15F0F6CF16F099
:10004000F7CF17F000C00EF001C00FF002C010F0A3
:1000500003C011F00E01C2A131EF00F0CAB1E8EF08
:100060000BF0C2A937EF00F0CAB9DEEF0CF0C5AB58
:100070003DEF00F0CDBB12EF0CF0C5AF43EF00F049
:10008000CDBF32EF0CF0C6A149EF00F0CEB186EF44
:100090000CF0C6A34FEF00F0CEB3CEEF0CF00EC0C5
:1000A00000F00FC001F010C002F011C003F00CC04E
:1000B000E9FF07C0EAFF078E08C0E1FF09C0E2FFC1
:1000C0000AC0D9FF0BC0DAFF12C0F3FF13C0F4FF60
:1000D00014C0FAFF15C0F5FF16C0F6FF17C0F7FFF2
:1000E000045006C0E0FF05C0D8FF1000FA0FF66EFE
:1000F000000EF7220900F550120041542B53454ED3
:1001000044494E54455256414C3D20202020202049
:10011000000000000000000041542B53454E4449AC
:100120004E54455256414C3D3F2020202020000097
:1001300000000000000041542B4341504D563D3F0C
:1001400020202020202009202000000000000000A6
:100150000000000041542B4341504D563D202020CB
:10016000202020202020202020200000000000004F
:10017000000041542B50554C53454455524154496D
:100180004F4E3D3F202020200000000000000000D6
:1001900041542B50554C53454455524154494F4EB0
:1001A0003D202020202000000000000000004154DD
:1001B0002B4D4F544F524455524154494F4E3D3FA1
:1001C00020202020000000000000000041542B4DA2
:1001D0004F544F524455524154494F4E3D202020D8
:1001E0002020000000000000000041542B41445238
:1001F0003D3F2020202020200920202020202000FA
:10020000000000000000000041542B4144523D20FA
:10021000202020202020202020202020202000001E
:1002200000000000000041542B56414C56455459E3
:1002300050453D3F202020202020202000000000AD
:100240000000000041542B56414C5645545950452E
:100250003D20202020202020202000000000000041
:10026000000041542B41444344454C41593D3F20FB
:10027000202020202020202000000000000000007E
:1002800041542B41444344454C41593D20202020BA
:100290002020202020200000000000000000415409
:1002A0002B444555493D3F20202020202009202077
:1002B00020202020000000000000000041542B44BA
:1002C0004555493D2020202020202020202020208E
:1002D0002020000000000000000041542B44414455
:1002E00044523D3F202020202020092020000000F3
:1002F000000000000000000041542B4441444452DF
:100300003D20202020202020202020202020000010
:1003100000000000000041542B4150504B45593D16
:100320003F20202020202009202000000000000085
:100330000000000041542B4150504B45593D2020B6
:10034000202020202020202020200000000000006D
:10035000000041542B4E574B534B45593D3F2020F5
:1003600020202020092020000000000000000000C4
:1003700041542B4E574B534B45593D2020202020B4
:100380002020202020200000000000000000415418
:100390002B415050534B45593D3F202020202020D9
:1003A00009202000000000000000000041542B4103
:1003B0005050534B45593D20202020202020202004
:1003C0002020000000000000000041542B4150504C
:1003D0004555493D3F2020202020200920200000B5
:1003E000000000000000000041542B4150504555D2
:1003F000493D2020202020202020202020200000F7
:1004000000000000000041542B4E554D434F554E07
:10041000544552533D3F2020202020200000000062
:100420000000000041542B4E554D434F554E54454E
:1004300052533D20202020202020000000000000FA
:10044000000041542B4E554D56414C5645533D3FAF
:10045000202020202020202000000000000000009C
:1004600041542B4E554D56414C5645533D2020206E
:100470002020202020200000000000000000415427
:100480002B56414C56455354415455533D3F202023
:1004900020202020000000000000000041542B56C6
:1004A000414C56455354415455533D202020202063
:1004B0002020000000000000000041542B43414276
:1004C0004C454355543D3F2020202020200920202A
:1004D000000000000000000041542B4341424C4505
:1004E0004355543D202020202020202020200000A3
:1004F00000000000000041542B4144434F4E3D3F5B
:10050000202020202020202020202020000000006B
:100510000000000041542B4144434F4E3D20202019
:10052000202020202020202020200000000000008B
:10053000000041542B4D494E5644444241543D3FE6
:1005400020202020202020200000000000000000AB
:1005500041542B4D494E5644444241543D202020A5
:100560002020202020200000000000000000415436
:100570002B414C41524D4241543D3F2020202020F0
:1005800020202020000000000000000041542B41EA
:100590004C41524D4241543D20202020202020201B
:1005A0002020000000000000000041542B52455460
:1005B000524945533D3F202020202020202020204C
:1005C000000000000000000041542B5245545249E5
:1005D00045533D20202020202020202020200000E6
:1005E00000000000000041542B4E574B49443D3F52
:1005F00020202020202009202000000000000000F2
:100600000000000041542B4E574B49443D20202010
:10061000202020202020202020200000000000009A
:10062000000041542B5644444241543D3F20202079
:100630002020200920200000000000000000000011
:1006400041542B5644444241543D20202020202038
:100650002020202020200000000000000000415445
:100660002B504F52543D3F2020202020202020207E
:1006700020202020000000000000000041542B50EA
:100680004F52543D202020202020202020202020B8
:100690002020000000000000000041542B44435380
:1006A0003D3F202020202020092020202020200045
:1006B000000000000000000041542B4443533D2043
:1006C000202020202020202020202020202000006A
:1006D00000000000000041542B4E4A4D3D3F2020B9
:1006E000202020202020202020202020000000008A
:1006F0000000000041542B4E4A4D3D202020202078
:1007000020202020202020202020000000000000A9
:10071000000041542B43464D3D3F20202020202007
:1007200020202020202020200000000000000000C9
:1007300041542B43464D3D202020202020202020C6
:100740002020202020200000000000000000415454
:100750002B4359434C453D3F202020202020092099
:1007600020000000000000000000000041542B4366
:1007700059434C453D2020202020202020202020AF
:100780002020000000000000000041542B48574585
:1007900055493D3F202020202020202009202000F6
:1007A000000000000000000041542B485745554907
:1007B0003D202020202020200920200000000000D3
:1007C00000000000000041542B4341424C4543557A
:1007D000544359434C453D3F200920200000000070
:1007E0000000000041542B4341424C4543555443C3
:1007F00059434C453D2020202020000000000000EF
:10080000000041542B56414C5645535441545553C6
:100810004359434C453D3F200000000000000000CC
:1008200041542B56414C564553544154555343590A
:10083000434C453D202000000000000000004154D2
:100840002B5041594C4F41444359434C453D3F2067
:1008500020092020000000000000000041542B501F
:1008600041594C4F41444359434C453D20202020A1
:100870002020000000000000000041542B42544C96
:10088000453D3F20200920200909202000000000CC
:10089000000000000000000041542B42544C453D34
:1008A0002020202020202020202020202020000088
:1008B00000000000000041542B44523D3F2020091D
:1008C0002020090920200000000000000000000096
:1008D0000000000041542B44523D202020202020C5
:1008E00020202020202020202020000000000000C8
:1008F000000041542B5057523D3F20200920200931
:10090000092020000000000000000000000000009E
:1009100041542B5057523D202020202020202020C1
:100920002020202020200000000000000000415472
:100930002B43464D43594C453D3F2020092020097B
:1009400020200000000000000000000041542B4364
:10095000464D43594C453D2020202020202020207A
:100960002020000000000000000041542B46575694
:10097000455253494F4E3D3F2020092020000000A2
:10098000000000000000000041542B46575645521D
:1009900053494F4E3D2020202020202020200000C1
:1009A000F76AB00FF66E090EF7220900F550120033
:1009B0004552524F522057524954452045455052B6
:1009C0004F4D2000F76AD40FF66E090EF72209008A
:1009D000F5501200565F32315F544553545F545006
:1009E0004C3530313000F76AF60FF66E090EF722FB
:1009F0000900F55012003030313332303030000011
:100A0000F76A100FF66E0A0EF7220900F550120071
:100A1000313630303000F76A260FF66E0A0EF722B4
:100A20000900F550120038300000F76A3A0FF66EF0
:100A30000A0EF7220900F550120031323030300032
:100A4000F76A500FF66E0A0EF7220900F5501200F1
:100A50003100F76A620FF66E0A0EF7220900F550B0
:100A600012003000F76A740FF66E0A0EF7220900C2
:100A7000F550120035303000F76A880FF66E0A0E16
:100A8000F7220900F550120030303030303030306D
:100A900030303030303030300000F76AAA0FF66E58
:100AA0000A0EF7220900F550120030303030303095
:100AB00030300000F76AC40FF66E0A0EF722090004
:100AC000F55012003031323334353637383941423F
:100AD0004344454630313233343536373839414274
:100AE000434445460000F76AF60FF66E0A0EF722F9
:100AF0000900F5501200363635353434333332328E
:100B00003131414142420000F76A180FF66E0B0E78
:100B1000F7220900F5501200323030303000F76A09
:100B20002E0FF66E0B0EF7220900F5501200323828
:100B300030303000F76A440FF66E0B0EF7220900D2
:100B4000F55012003200F76A560FF66E0B0EF722C0
:100B50000900F550120031330000F76A6A0FF66E93
:100B60000B0EF7220900F550120030303100F76A01
:100B70007E0FF66E0B0EF7220900F5501200303092
:100B80003132303030300000F76A980FF66E0B0EBD
:100B9000F7220900F5501200303030313630303055
:100BA0000000F76AB20FF66E0B0EF7220900F5503F
:100BB000120030303330303030300000F76ACC0F64
:100BC000F66E0B0EF7220900F550120030300000CF
:100BD000F76AE00FF66E0B0EF7220900F5501200CF
:100BE00031350000F76AF40FF66E0B0EF72209009C
:100BF000F55012006D61632073657420646576653D
:100C000075692000F76A140FF66E0C0EF7220900C2
:100C1000F55012006D616320736574206465766120
:100C2000646472200000F76A360FF66E0C0EF7222D
:100C30000900F55012006D616320736574206170C6
:100C4000706B65792000F76A560FF66E0C0EF7226E
:100C50000900F55012006D616320736574206E7792
:100C60006B736B6579200000F76A780FF66E0C0ED7
:100C7000F7220900F55012006D616320736574203E
:100C8000617070736B6579200000F76A9A0FF66ED9
:100C90000C0EF7220900F55012006D616320736598
:100CA00074206170706575692000F76ABA0FF66E7E
:100CB0000C0EF7220900F55012006D616320736578
:100CC0007420726574782000F76AD80FF66E0C0EE7
:100CD000F7220900F55012006D61632073657420DE
:100CE00064722000F76AF40FF66E0C0EF72209000A
:100CF000F5501200726164696F207365742070771B
:100D000072200000F76A140FF66E0D0EF72209002C
:100D1000F5501200465720506963205665723A20FC
:100D20000000F76A320FF66E0D0EF7220900F5503B
:100D300012004445554920414444523A2000F76A84
:100D40004E0FF66E0D0EF7220900F55012004441C9
:100D500044445220414444523A200000F76A6C0F48
:100D6000F66E0D0EF7220900F55012004150504565
:100D7000554920414444523A2000F76A8A0FF66EE2
:100D80000D0EF7220900F55012004150504B455905
:100D9000203A2000F76AA40FF66E0D0EF722090024
:100DA000F55012004E574B534B45593A2000F76A05
:100DB000BE0FF66E0D0EF7220900F55012004150DD
:100DC00050534B45593A2000F76AD80FF66E0D0E76
:100DD000F7220900F550120053656E6420696E74A5
:100DE000657276616C3A2000F76AF80FF66E0D0EA8
:100DF000F7220900F55012004E756D20636F756E75
:100E0000746572733A200000F76A180FF66E0E0EC2
:100E1000F7220900F55012004E756D2076616C7650
:100E200065733A200000F76A360FF66E0E0EF72251
:100E30000900F550120056616C7665207479706572
:100E40003A200000F76A540FF66E0E0EF7220900E2
:100E5000F55012004361626C65206375743A20009E
:100E6000F76A700FF66E0E0EF7220900F5501200A9
:100E700041444320456E61626C653A200000F76A88
:100E80008E0FF66E0E0EF7220900F5501200414447
:100E9000432044656C61793A2000F76AAA0FF66E28
:100EA0000E0EF7220900F550120056616C7665733C
:100EB000205374617475733A2000F76ACA0FF66E96
:100EC0000E0EF7220900F5501200536572736F720F
:100ED00073206379636C653A2000F76AEA0FF66E57
:100EE0000E0EF7220900F55012004D736720436F74
:100EF0006E663A200000F76A060FF66E0F0EF722B4
:100F00000900F550120052657472696573203A2029
:100F10000000F76A220FF66E0F0EF7220900F55057
:100F200012004361626C652063757420696E74659C
:100F30007276616C3A200000F76A480FF66E0F0E69
:100F4000F7220900F550120056616C766520737423
:100F50006174757320696E74657276616C3A2000F5
:100F6000F76A700FF66E0F0EF7220900F5501200A7
:100F70005061796C6F6164206379636C653A20001D
:100F8000F76A900FF66E0F0EF7220900F550120067
:100F900042544C453A200000F76AA80FF66E0F0E37
:100FA000F7220900F550120043464D204D53473AB1
:100FB0002000F76AC20FF66E0F0EF7220900F550F7
:100FC00012004E4554574F524B204A4F494E3A203B
:100FD0000000F76AE20FF66E0F0EF7220900F550D7
:100FE0001200436F6E666967206D6F646500F76A73
:100FF000FE0FF66E0F0EF7220900F55012004F4B50
:101000000000F76A120FF66E100EF7220900F55075
:1010100012004552524F52200000F76A2A0FF66E16
:10102000100EF7220900F55012006D616320736500
:101030007420616472206F6E0000F76A4A0FF66ECA
:10104000100EF7220900F55012004445465F414456
:10105000525F4F4E0000F76A660FF66E100EF722D1
:101060000900F55012006D6163207365742061649E
:1010700072206F666600F76A860FF66E100EF72212
:101080000900F55012004445465F4144525F4F4607
:101090004600F76AA20FF66E100EF7220900F5500F
:1010A00012006D616320736176650000F76ABC0F02
:1010B000F66E100EF7220900F55012006D616320E4
:1010C00073657420727864656C61793120343030D6
:1010D0003000F76AE20FF66E100EF7220900F550A5
:1010E00012004641494C20425245414B204F504549
:1010F000524154494F4E0000F76A080FF66E110E28
:10110000F7220900F55012006D61632067657420B5
:10111000646E63747200F76A260FF66E110EF72282
:101120000900F550120073797320666163746F7261
:101130007952455345540000F76A480FF66E110E78
:10114000F7220900F55012006D616320666F72632B
:1011500065454E41424C4500F76A680FF66E110E28
:10116000F7220900F5501200737973206765742027
:1011700076657200F76A840FF66E110EF722090089
:10118000F55012004552524F5220496E69745F4C1F
:10119000696E6B5F47617465776179200000F76A5B
:1011A000AE0FF66E110EF7220900F55012004F4BEC
:1011B00020496E69745F4C696E6B5F476174657737
:1011C00061792000F76AD40FF66E110EF72209003C
:1011D000F55012006D61632073657420646576615B
:1011E0006464722030303030303030300000F76AC4
:1011F000FE0FF66E110EF7220900F55012006D6118
:101200006320736574206E776B736B657920303063
:1012100030303030303030303030303030303030CE
:10122000303030303030303030303030303000001E
:10123000F76A400FF66E120EF7220900F550120001
:101240006D61632073657420617070736B657920C4
:10125000303030303030303030303030303030308E
:10126000303030303030303030303030303030307E
:101270000000F76A820FF66E120EF7220900F55091
:1012800012006D6163207365742073796E6320337F
:101290003400F76AA20FF66E120EF7220900F5501D
:1012A00012006D61632073657420727832203020E3
:1012B00038363935323530303000F76ACA0FF66EBD
:1012C000120EF7220900F55012006D61632073655C
:1012D0007420636820646379636C65203020390072
:1012E000F76AF00FF66E120EF7220900F5501200A1
:1012F0006D61632073657420636820646379636C37
:10130000652031203900F76A160FF66E130EF722AA
:101310000900F55012006D616320736574206368E5
:1013200020646379636C652032203900F76A3C0FD2
:10133000F66E130EF7220900F55012006D6163205E
:101340006765742061720000F76A580FF66E130E1D
:10135000F7220900F55012006D6163206A6F696E13
:10136000206162700000F76A760FF66E130EF722A6
:101370000900F55012006D6163206A6F696E206F7D
:1013800074616100F76A940FF66E130EF72209007C
:10139000F55012004552524F52204C696E6B5F4718
:1013A0006174657761792000F76AB80FF66E130EE5
:1013B000F7220900F55012004F4B204C696E6B5F0D
:1013C00047617465776179200000F76ADA0FF66E7D
:1013D000130EF7220900F55012006D616320747836
:1013E00020756E636E6620312000F76AFA0FF66E84
:1013F000130EF7220900F550120056206261747432
:101400003A2020202000F76A160FF66E140EF722FD
:101410000900F5501200436F756E74657220313A01
:10142000202020202000F76A360FF66E140EF722D7
:101430000900F55012004361626C65204355542049
:101440000000F76A520FF66E140EF7220900F550ED
:1014500012004361626C65204E4F204355542000BA
:10146000F76A700FF66E140EF7220900F55012009D
:101470005374617475732076616C7665204F5045A6
:101480004E200000F76A940FF66E140EF722090042
:10149000F55012005374617475732076616C766533
:1014A00020434C4F53452000F76AB80FF66E140ED8
:1014B000F7220900F5501200537461727420696EAE
:1014C000766572746572204F50454E2076616C7659
:1014D00065200000F76AE40FF66E140EF72209008B
:1014E000F55012004F70656E2076616C76652C2089
:1014F000563A2000F76A040FF66E150EF72209001F
:10150000F55012004572726F72206F70656E2C205C
:10151000563A20202000F76A260FF66E150EF722A5
:101520000900F5501200537461727420696E76657B
:101530007274657220434C4F53452076616C76651A
:101540002000F76A520FF66E150EF7220900F550CB
:101550001200436C6F73652076616C76652C2056A3
:101560003A200000F76A740FF66E150EF722090094
:10157000F55012004572726F7220636C6F73652CA8
:1015800020563A2020200000F76A980FF66E150EBC
:10159000F7220900F550120042617474206C6576E0
:1015A000656C203A202020202000F76ABA0FF66EE2
:1015B000150EF7220900F55012004F4B20575249E3
:1015C00054494E4720454550524F4D200000F76A80
:1015D000DE0FF66E150EF7220900F5501200455287
:1015E000524F522057524954494E47204545505278
:1015F0004F4D2000F76A040FF66E160EF722090011
:10160000F550120052455354415254204341555312
:10161000453A202020202000F76A280FF66E160E8B
:10162000F7220900F55012005761697420436F6E6C
:101630006669672F54657374204D6F64652C203183
:1016400035207365632024200000F76A5A0FF66E78
:10165000160EF7220900F5501200436F6E66696797
:1016600075726174696F6E206D6F64652000F76A32
:101670007E0FF66E160EF7220900F55012004F206D
:10168000746F2065786974200000F76A9A0FF66E0F
:10169000160EF7220900F5501200546573742048A5
:1016A00057200000F76AB40FF66E160EF7220900F5
:1016B000F550120054696D65206F757420436F6E8C
:1016C000666967206D6F64650000F76ADA0FF66E71
:1016D000160EF7220900F5501200456E6420436F84
:1016E0006E666967206D6F646500F76AFA0FF66EC3
:1016F000160EF7220900F5501200444F4E455F5078
:10170000554C53455F54504C35303130202000004B
:10171000F76A200FF66E170EF7220900F550120037
:101720004573656775692052535420636F6E20546A
:10173000504C353031302000F76A480FF66E170EE6
:10174000F7220900F5501200524E204552524F52D6
:101750002043415553453A20202020200000F76ABD
:101760006E0FF66E170EF7220900F5501200524E5A
:10177000205458204552524F522043415553453A28
:10178000202020202000F76A960FF66E170EF72211
:101790000900F550120073797320736C6565702031
:1017A0003235393230303030303000006D616320F6
:1017B000747820756E636E662025752000006D615B
:1017C0006320747820756E636E6620323535200094
:1017D00000010E01CA9102012F3D06D0303D04D018
:1017E0006E51020801E36E2B2F2BD8B4302B03016E
:1017F000575302E1585311E05751D8B458075707CF
:1018000057530BE1585309E14A6B496B486B010E82
:10181000476F080E02016F6F03010E01CA910001AC
:101820004FEF00F00001295095080AE32950292ABA
:10183000036A2F0FE96E000E0320EA6E99CFEFFFC7
:1018400099CF27F0010E01015C6F0E01CD9B0001C5
:101850004FEF00F00E01CDADFED7C6C39AFE0E01CC
:10186000000112000001F8C1F7F1F9C1F8F1FAC165
:10187000F9F199CEFAF10E019EA3FED7FAC1C6F393
:101880000001E8DF0101F65195080BE3F651F62B54
:10189000036ABA0FE96E020E0320EA6EFAC1EFFF87
:1018A00001D0F66BFA510A0829E1F9510D0826E139
:1018B000010E0201046F715314E10101F851430854
:1018C00003E0F851630804E1020E0201046F010114
:1018D000F851540803E0F851740804E1030E0201C2
:1018E000046F0101F8514F0803E0F8516F0804E15B
:1018F000040E0201046F0101F96B03D00201046BB5
:1019000001010E01CD9F00014FEF00F000010E011B
:10191000CB910201005306E1015304E1025302E1BD
:10192000035308E0FF0E0027D8A00127D8A0022704
:10193000D8A00327002D0CD001530AE1025308E17F
:10194000035306E148C2CEFF47C2CDFF000004D0DA
:10195000800ECE6ECD6A00002D5301E02D074F534F
:1019600002E1505304E04F51D8B450074F076A5377
:1019700006E16B5304E16C5302E16D5308E0FF0E86
:101980006A27D8A06B27D8A06C27D8A06D27010E96
:10199000466F0E01CE9100014FEF00F000010E01E5
:1019A000D25104002A5202E12B5204E02A50D8B44A
:1019B0002B062A06CE9300014FEF00F000010E0126
:1019C000D2510400CA9900014FEF00F06D6163200D
:1019D000747820756E636E66203139392000050EEB
:1019E00003019E5F09E3030EEA6E9E0EE96EEF505F
:1019F00003E000D0EF2EFED700011200030EEA6EC6
:101A0000B10EE96EEF500EE0030E016E006A002E7B
:101A1000FED7012EFBD7E30E006E002EFED700008E
:101A2000EF2EF2D71200016A026A006A036A03010C
:101A3000A35102E1A25118E0100EA46FD890A03774
:101A4000A13700360336A351035C02E1A251005CCA
:101A500007E3A251005ED8A00306A351035ED8801D
:101A600001360236A42FEAD70001120003019F6B52
:101A70003E6B3D6B9F6B9E519F5D16E20E01D251F6
:101A80000400608260B2FED76080000060B0FED7C4
:101A9000645003013D27000E3E23130E006E002EFE
:101AA000FED700D09F2BE7D73EC3A1F33DC3A0F3E1
:101AB000A36B9EC3A2F30001B6DF02C03EF301C0D8
:101AC0003DF33DC33FF303013FC301F000011200AA
:101AD0000E01D2510400070E886E838E889E010E7F
:101AE0000301B16F00018ADF820E0F01316F030E17
:101AF000586F060E116F000E196F216F080E5A6F86
:101B00005B6B576B200E5C6F666A900E606E010E09
:101B10005F6F010E0301B16F000170DF030E03015F
:101B20009E6F0001A3DF01C040F3839E889E609EEC
:101B3000000E0F01586F116F196F216F0001120015
:101B40000301A451016AA35D03E2A3C300F00CD01A
:101B5000006A080EA56FA3370036A451005CD8B008
:101B6000006E0136A52FF7D70001120073C3EAFFFC
:101B700072C3E9FF0301ABC3EFFFE92AD8B4EA2A35
:101B8000EF6A722BD8B4732B000112000150A1C36D
:101B9000A3F3640E0301A46F0001D2DF00C0A1F320
:101BA0000150300E08E10301A2A30FD0A2B70DD05F
:101BB000A2B9200E04D00301A297A299A281012606
:101BC00001C0ABF30001D2DF0301A1C3A3F30A0EEE
:101BD000A46F0001B5DF00C0A1F30150300E08E191
:101BE0000301A2B70AD0A2A108D0A2B9200E000119
:101BF000012601C0ABF3BADF0301300EA127A1C358
:101C0000ABF30001B3DF12000301A96BAB6BAA6B4E
:101C1000AC6B0E01D2510400A8C3ABF3A7C3AAF367
:101C20000301A96BA651A95D3DE2F2CFADF3F29E8F
:101C3000ABC37FFFAAC37EFF819C819E81808050C1
:101C4000819C818EADBFF28EAC6FAC511F0803E258
:101C5000AC517E0810E2F2CFADF3F29EABC37FFF32
:101C6000AAC37EFF819C819E81808050819C818E51
:101C7000ADBFF28EAC6F036AA951F60FE96E020E8A
:101C80000320EA6EACC3EFFF036AA951790FE96E36
:101C9000020E0320EA6EACC3EFFFAA2BD8B4AB2B25
:101CA000A92BC0D7036AA951F60FE96E020E0320D3
:101CB000EA6EEF6A000112000301B06B0E01D2510F
:101CC00004000301AF510408D8A48FD0B06B020107
:101CD000B96BC50EB86F0E01D25104000201B9C232
:101CE000EAFFB851B82BD8B4B92BE96EEFCFB5F2F3
:101CF000B55322E0B5510A081FE0B5510D081CE0AC
:101D00000301B0513B08D8B002D0020115D00E013A
:101D10009EA3FED7196AF2BE198EF29EB5C2C6F313
:101D2000000198DD19BEF28E050E0301B16F0001AE
:101D300065DE0301B02B0201B5530EE0B5510A0870
:101D40000BE0B5510D0808E00301B0513B08D8A0E5
:101D500002D00201C0D702010E01D25104000301DA
:101D6000B06B0201B96B2F0EB86F0E01D251040097
:101D70000201B9C2EAFFB851B82BD8B4B92BE96E49
:101D8000EFCFB5F2B55322E0B5510A081FE0B551C7
:101D90000D081CE00301B0513B08D8B002D002018D
:101DA00015D00E019EA3FED7196AF2BE198EF29EBF
:101DB000B5C2C6F300014EDD19BEF28E050E030159
:101DC000B16F00011BDE0301B02B0201B5530EE021
:101DD000B5510A080BE0B5510D0808E00301B051F8
:101DE0003B08D8A002D00201C0D702010E01D25197
:101DF00004000301AF5302E0AF2D46D0B06B020EDA
:101E00000201B96F790EB86F0E01D25104000201C0
:101E1000B9C2EAFFB851B82BD8B4B92BE96EEFCFED
:101E2000B5F2B55322E0B5510A081FE0B5510D08CF
:101E30001CE00301B0513B08D8B002D0020115D01C
:101E40000E019EA3FED7196AF2BE198EF29EB5C28C
:101E5000C6F30001FFDC19BEF28E050E0301B16F5F
:101E60000001CCDD0301B02B0201B5530EE0B551EA
:101E70000A080BE0B5510D0808E00301B0513B081A
:101E8000D8A002D00201C0D702010E01D251040035
:101E90000301AF2D01D003D0AF5103083FE1B06B78
:101EA0000E01D25104000301AEC3EAFFAD51AD2BC8
:101EB000D8B4AE2BE96EEFCFB5F20201B55322E0F4
:101EC000B5510A081FE0B5510D081CE00301B051DF
:101ED0003B08D8B002D0020115D00E019EA3FED758
:101EE000196AF2BE198EF29EB5C2C6F30001B2DCC9
:101EF00019BEF28E050E0301B16F00017FDD0301F3
:101F0000B02B0201B5530BE0B5510A0808E0B551FA
:101F10000D0805E00301B0513B08C2E202010E01C9
:101F2000D25104000201B55306E0B5510A0803E09E
:101F3000B5510D082AE10E019EA3FED7196AF2BE23
:101F4000198EF29E0A0E0301C66F000183DC19BED2
:101F5000F28E0E01D2510400050E0301B16F000193
:101F60004DDD0E019EA3FED7196AF2BE198EF29EB8
:101F70000D0E0301C66F00016DDC19BEF28E050E59
:101F80000301B16F00013ADD0201000112000301FB
:101F9000A96BAA6BAC6BAB6B0E01D2510400A8C34A
:101FA000ACF3A7C3ABF30301A96BA651A95D37E25C
:101FB0000E01D25104000301AC51036EAB51AB2BA7
:101FC000D8B4AC2BAD6F03C0AEF3036AA951F60FC2
:101FD000E96E020E0320EA6EEFCFAFF3F250006E0F
:101FE000F29EAEC37FFFADC37EFFAFC380FF819C77
:101FF000819E81840F01550E826EAA0E826E8182AF
:1020000081B2FED78194819C818E0050F212630EC2
:10201000006E002EFED700D00301A92BC6D7A8C39F
:10202000ACF3A7C3ABF3AA6BA96BA651A95D26E2DB
:10203000036AA951F60FE96E020E0320EA6EEFCF94
:10204000ADF3AC51036EAB51AB2BD8B4AC2BAE6F30
:1020500003C0AFF3F2CFB0F3F29EAFC37FFFAEC3C6
:102060007EFF819C819E81808050819C818EB0BF4B
:10207000F28EAD5D01E0AA2BA92BD7D7AA53D8B415
:102080009BD00E01D2510400A8C3ACF3A7C3ABF39D
:102090000301A96BA651A95D37E20E01D2510400DC
:1020A0000301AC51036EAB51AB2BD8B4AC2BAD6F6D
:1020B00003C0AEF3036AA951F60FE96E020E0320C6
:1020C000EA6EEFCFAFF3F250006EF29EAEC37FFF29
:1020D000ADC37EFFAFC380FF819C819E81840F01D1
:1020E000550E826EAA0E826E818281B2FED78194D5
:1020F000819C818E0050F212630E006E002EFED77E
:1021000000D00301A92BC6D7A8C3ACF3A7C3ABF378
:10211000AA6BA96BA651A95D2AE20E01D251040057
:10212000036A0301A951F60FE96E020E0320EA6E5D
:10213000EFCFADF3AC51036EAB51AB2BD8B4AC2B9E
:10214000AE6F03C0AFF3F2CFB0F3F29EAFC37FFF29
:10215000AEC37EFF819C819E81808050819C818E58
:10216000B0BFF28EAD5D01E0AA2BA92BD3D70E0133
:10217000D25104000301AA531FE0020EEA6E790E49
:10218000E96E000E0001D0EC04F00A000900F550E1
:10219000EE6E0009FBE1020E0301AE6FF60EAD6FAD
:1021A000AF6B000189DD640E0301B16F000126DC15
:1021B0000E01D25104000301AAC31AF3AA5304E189
:1021C000010E016E03D002D0000E016E000112005C
:1021D0000E01D2510400010E0301A55DB60FD8B067
:1021E00034EF15F04A0F000136EF15F00A0E030127
:1021F000A66F010EA86FF40EA76F000105DD0301A5
:1022000034EF15F00A0E0301A66F010EA86FF40E4D
:10221000A76F0001BCDE030134EF15F0050E0301CA
:10222000A66F010EA86FFE0EA76F0001EDDC030183
:1022300034EF15F0050E0301A66F010EA86FFE0E18
:10224000A76F0001A4DE030134EF15F0030E0301B4
:10225000A66F020EA86F030EA76F0001D5DC030165
:1022600034EF15F0030E0301A66F020EA86F030EE4
:10227000A76F00018CDE030134EF15F0050E03019A
:10228000A66F020EA86F060EA76F0001BDDC03014A
:1022900034EF15F0050E0301A66F020EA86F060EAF
:1022A000A76F000174DE030134EF15F0010E030186
:1022B000A66F020EA86F0B0EA76F0001A5DC03012D
:1022C00034EF15F0010E0301A66F020EA86F0B0E7E
:1022D000A76F00015CDE030134EF15F0010E03016E
:1022E000A66F020EA86F0C0EA76F00018DDC030114
:1022F00034EF15F0010E0301A66F020EA86F0C0E4D
:10230000A76F000144DE030134EF15F0060E030150
:10231000A66F020EA86F0D0EA76F000175DC0301FA
:10232000A3D3060E0301A66F020EA86F0D0EA76FB2
:1023300000012DDE030198D3100E0301A66F020EDB
:10234000A86F130EA76F00015FDC03018DD3100E81
:102350000301A66F020EA86F130EA76F000117DE10
:10236000030182D3080E0301A66F020EA86F230E8D
:10237000A76F000149DC030177D3080E0301A66FA4
:10238000020EA86F230EA76F000101DE03016CD3BC
:10239000200E0301A66F020EA86F2B0EA76F00017F
:1023A00033DC030161D3200E0301A66F020EA86F78
:1023B0002B0EA76F0001EBDD030156D3200E0301A6
:1023C000A66F020EA86F4B0EA76F00011DDC030164
:1023D0004BD3200E0301A66F020EA86F4B0EA76F02
:1023E0000001D5DD030140D3200E0301A66F020ECC
:1023F000A86F6B0EA76F000107DC030135D3200E19
:102400000301A66F020EA86F6B0EA76F0001BFDD60
:1024100003012AD3100E0301A66F020EA86F8B0EC4
:10242000A76F000104EC0EF003011ED3100E030190
:10243000A66F020EA86F8B0EA76F0001A8DD030127
:1024400013D3010E0301A66F020EA86F9B0EA76F98
:10245000000104EC0EF0030107D3010E0301A66F87
:10246000020EA86F9B0EA76F000191DDF29CF29EF9
:10247000F2BEFDD70201306B2F6B326B316B346BC8
:10248000336B366B356BF2CFA6F3F29E7F6A350E57
:102490007E6E819C819E81808050819C818E030113
:1024A000A6BFF28E0201416F3C0E41250301A66FCB
:1024B000F250006EF29E7F6AA6C37EFF806A819C06
:1024C000819E81840F01550E826EAA0E826E8182DA
:1024D00081B2FED78194819C818E0050F212640EED
:1024E000020141250301A66FF250006EF29E7F6A41
:1024F000A6C37EFF806A819C819E81840F01550E58
:10250000826EAA0E826E818281B2FED78194819CF6
:10251000818E0050F2128C0E020141250301A66F3C
:10252000F250006EF29E7F6AA6C37EFF806A819C95
:10253000819E81840F01550E826EAA0E826E818269
:1025400081B2FED78194819C818E0050F212B40E2C
:10255000020141250301A66FF250006EF29E7F6AD0
:10256000A6C37EFF806A819C819E81840F01550EE7
:10257000826EAA0E826E818281B2FED78194819C86
:10258000818E0050F212DC0E020141250301A66F7C
:10259000F250006EF29E7F6AA6C37EFF806A819C25
:1025A000819E81840F01550E826EAA0E826E8182F9
:1025B00081B2FED78194819C818E0050F212040E6C
:1025C000020141250301A66F010EA76FD8B0A72B0A
:1025D000F250006EF29EA7C37FFFA6C37EFF806A03
:1025E000819C819E81840F01550E826EAA0E826E9F
:1025F000818281B2FED78194819C818E0050F2123B
:102600002C0E020141250301A66F010EA76FD8B061
:10261000A72BF250006EF29EA7C37FFFA6C37EFFDA
:10262000806A819C819E81840F01550E826EAA0E64
:10263000826E818281B2FED78194819C818E00500E
:10264000F212540E020141250301A66F010EA76F7D
:10265000D8B0A72BF250006EF29EA7C37FFFA6C38F
:102660007EFF806A819C819E81840F01550E826E5F
:10267000AA0E826E818281B2FED78194819C818E66
:102680000050F212C00EF2120301EED1010E03014E
:10269000A66F020EA86F9C0EA76F000104EC0EF04F
:1026A0000301E2D1010E0301A66F020EA86F9C0E7A
:1026B000A76F00016CDC0301D7D1010E0301A66FE7
:1026C000020EA86F9D0EA76F000104EC0EF003012F
:1026D000CBD1010E0301A66F020EA86F9D0EA76F4E
:1026E000000155DC0301C0D1010E0301A66F020EEB
:1026F000A86F9E0EA76F000104EC0EF00301B4D189
:10270000010E0301A66F020EA86F9E0EA76F0001B7
:102710003EDC0301A9D1010E0301A66F020EA86FD2
:102720009F0EA76F000104EC0EF003019DD1010E76
:102730000301A66F020EA86F9F0EA76F000127DC92
:10274000030192D1040E0301A66F020EA86FA00E22
:10275000A76F000104EC0EF0030186D1040E030103
:10276000A66F020EA86FA00EA76F000110DC030178
:102770007BD1040E0301A66F020EA86FA40EA76FF3
:10278000000104EC0EF003016FD1040E0301A66FEB
:10279000020EA86FA40EA76F0001C7EC0FF0030193
:1027A00063D1010E0301A66F020EA86FA80EA76FDA
:1027B000000104EC0EF0030157D1010E0301A66FD6
:1027C000020EA86FA80EA76F0001C7EC0FF003015F
:1027D0004BD1020E0301A66FA86FA90EA76F0001CF
:1027E00004EC0EF0030140D1020E0301A66FA86FA6
:1027F000A90EA76F0001C7EC0FF0030135D1050E3C
:102800000301A66F020EA86FAB0EA76F000104ECC8
:102810000EF0030129D1050E0301A66F020EA86F69
:10282000AB0EA76F0001C7EC0FF003011DD1030E23
:102830000301A66F020EA86FB00EA76F000104EC93
:102840000EF0030111D1030E0301A66F020EA86F53
:10285000B00EA76F0001C7EC0FF0030105D1010E08
:102860000301A66F020EA86FB30EA76F000104EC60
:102870000EF00301F9D0010E0301A66F020EA86F3E
:10288000B30EA76F0001C7EC0FF00301EDD0010EEE
:102890000301A66F020EA86FB40EA76F000104EC2F
:1028A0000EF00301E1D0010E0301A66F020EA86F26
:1028B000B40EA76F0001C7EC0FF00301D5D0010ED5
:1028C0000301A66F020EA86FB50EA76F000104ECFE
:1028D0000EF00301C9D0010E0301A66F020EA86F0E
:1028E000B50EA76F0001C7EC0FF00301BDD0080EB5
:1028F0000301A66F020EA86FB60EA76F000104ECCD
:102900000EF00301B1D0080E0301A66F020EA86FEE
:10291000B60EA76F0001C7EC0FF00301A5D00A0E99
:102920000301A66F020EA86FC60EA76F000104EC8C
:102930000EF0030199D00A0E0301A66F020EA86FD4
:10294000C60EA76F0001C7EC0FF003018DD00A0E71
:102950000301A66F020EA86FD00EA76F000104EC52
:102960000EF0030181D00A0E0301A66F020EA86FBC
:10297000D00EA76F0001C7EC0FF0030175D0020E57
:102980000301A66FA86FDA0EA76F000104EC0EF02A
:1029900003016AD0020E0301A66FA86FDA0EA76FBB
:1029A0000001C7EC0FF003015FD0010E0301A66F19
:1029B000020EA86FDC0EA76F000104EC0EF00301FD
:1029C00053D0010E0301A66F020EA86FDC0EA76F95
:1029D0000001C7EC0FF0030147D0010E0301A66F01
:1029E000020EA86FDD0EA76F000104EC0EF00301CC
:1029F0003BD0010E0301A66F020EA86FDD0EA76F7C
:102A00000001C7EC0FF003012FD0020E0301A66FE7
:102A1000A86FDE0EA76F000104EC0EF0030124D0B6
:102A2000020E0301A66FA86FDE0EA76F0001C7ECB0
:102A30000FF0030119D0100E0301A66F020EA86F4C
:102A4000E20EA76F000104EC0EF003010DD0100E92
:102A50000301A66F020EA86FE20EA76F0001C7EC7C
:102A60000FF0030101D0030100011200E824F76A0E
:102A7000F736870FF66E2A0EF7220A00F550FA6E27
:102A80000800F550F96EEC2104221C2234224C225D
:102A900064227C229422AC22C422DC22F4220C2365
:102AA000222338234E2364237A239023A623BC2396
:102AB000D223E823FE2314242C2442245A248C26D7
:102AC000A426BA26D226E826002716272E27442732
:102AD0005C2772278A27A227BA27D227E827FE2752
:102AE00016282E2846285E2876288E28A628BE2856
:102AF000D628EE280629662A662A1E2936294E2956
:102B000066297E299429AA29C229DA29F2290A2AC2
:102B1000202A662A662A362A4E2AF2CF9AF3F29E95
:102B20007F6A0A0E7E6E819C819E81808050819C8E
:102B3000818E03019ABFF28E1B6FF2CF9AF3F29E41
:102B40007F6A0B0E7E6E819C819E81808050819C6D
:102B5000818E9ABFF28E1C6FF2CF9AF3F29E7F6A3B
:102B60000C0E7E6E819C819E81808050819C818E26
:102B70009ABFF28E1D6FF2CF9AF3F29E7F6A0D0E0E
:102B80007E6E819C819E81808050819C818E9ABFC7
:102B9000F28E1E6FF2CF9AF3F29E7F6A0E0E7E6E59
:102BA000819C819E81808050819C818E9ABFF28E13
:102BB0001F6F1B518108D8A430D11C514208D8A4E2
:102BC0002CD11D512408D8A428D11E511808D8A4EE
:102BD00024D11F51C308D8A420D10E01D251040022
:102BE000F2CF9AF3F29E7F6A350E7E6E819C819EB3
:102BF00081808050819C818E03019ABFF28E0201F8
:102C0000416F640E412503019A6FF2CF9BF3F29E50
:102C10007F6A9AC37EFF819C819E81808050819CC7
:102C2000818E9BBFF28E0201066F306B06C22FF2BF
:102C30002FC230F22F6B3C0E412503019A6FF2CF69
:102C40009BF3F29E7F6A9AC37EFF819C819E818066
:102C50008050819C818E9BBFF28E0201066F0651CF
:102C60002F27000E3023B40E412503019A6FF2CFB7
:102C70009BF3F29E7F6A9AC37EFF819C819E818036
:102C80008050819C818E9BBFF28E0201066F326B59
:102C900006C231F231C232F2316B8C0E4125030192
:102CA0009A6FF2CF9BF3F29E7F6A9AC37EFF819C5C
:102CB000819E81808050819C818E9BBFF28E02011B
:102CC000066F06513127000E3223040E4125030101
:102CD0009A6F010E9B6FD8B09B2BF2CF9CF3F29EA4
:102CE0009BC37FFF9AC37EFF819C819E8180805021
:102CF000819C818E9CBFF28E0201066F346B06C2EE
:102D000033F233C234F2336BDC0E412503019A6F88
:102D1000F2CF9BF3F29E7F6A9AC37EFF819C819ED5
:102D200081808050819C818E9BBFF28E0201066F54
:102D300006513327000E3423540E412503019A6FA8
:102D4000010E9B6FD8B09B2BF2CF9CF3F29E9BC3DE
:102D50007FFF9AC37EFF819C819E81808050819CF1
:102D6000818E9CBFF28E0201066F366B06C235F271
:102D700035C236F2356B2C0E412503019A6F010ED8
:102D80009B6FD8B09B2BF2CF9CF3F29E9BC37FFF2F
:102D90009AC37EFF819C819E81808050819C818E20
:102DA0009CBFF28E0201066F06513527000E3623B6
:102DB000F2CF9AF3F29E020E7F6EE10E7E6E819C40
:102DC000819E81808050819C818E03019ABFF28E0A
:102DD0000201066F4D6B06C24CF24CC24DF24C6BB9
:102DE000F2CF9AF3F29E020E7F6EE00E7E6E819C11
:102DF000819E81808050819C818E03019ABFF28EDA
:102E00000201066F06514C27000E4D234DC24BF2B6
:102E10004CC24AF2D7EF1AF00301F250006EF29E54
:102E20007F6A0A0E7E6E810E806E819C819E8184F7
:102E30000F01550E826EAA0E826E818281B2FED77C
:102E40008194819C818E0050F212F2CF00F0F29EAC
:102E50007F6A0B0E7E6E420E806E819C819E818405
:102E6000550E826EAA0E826E818281B2FED7819447
:102E7000819C818E0050F212F2CF00F0F29E7F6AA8
:102E80000C0E7E6E240E806E819C819E8184550E78
:102E9000826EAA0E826E818281B2FED78194819C5D
:102EA000818E0050F212F2CF00F0F29E7F6A0D0E7A
:102EB0007E6E180E806E819C819E8184550E826E7E
:102EC000AA0E826E818281B2FED78194819C818E0E
:102ED0000050F212F2CF00F0F29E7F6A0E0E7E6E6C
:102EE000C30E806E819C819E8184550E826EAA0ED7
:102EF000826E818281B2FED78194819C818E005046
:102F0000F2120E01D2510400F250006EF29E7F6A5E
:102F1000320E7E6E806A819C819E81840F01550EE7
:102F2000826EAA0E826E818281B2FED78194819CCC
:102F3000818E0050F212F2CF00F0F29E7F6A330EC3
:102F40007E6E806A819C819E8184550E826EAA0E5F
:102F5000826E818281B2FED78194819C818E0050E5
:102F6000F212F2CF00F0F29E7F6A340E7E6E806A1B
:102F7000819C819E8184550E826EAA0E826E818212
:102F800081B2FED78194819C818E0050F2120E0195
:102F9000D2510400F250006EF29E7F6A350E7E6EB2
:102FA000806A819C819E81840F01550E826EAA0EDB
:102FB000826E818281B2FED78194819C818E005085
:102FC000F212020EEA6EF60EE96E000E0001E2EC5D
:102FD00004F00A000900F550EE6E0009FBE14A0E0C
:102FE0000301A56F0001E8EC10F0020EEA6EF60E88
:102FF000E96E000EF3EC04F00A000900F550EE6EE5
:103000000009FBE1020E0301A56F0001E8EC10F0DE
:10301000020EEA6EF60EE96E000E00EC05F00A00F4
:103020000900F550EE6E0009FBE1040E0301A56FE7
:103030000001E8EC10F0020EEA6EF60EE96E000EEA
:103040000BEC05F00A000900F550EE6E0009FBE1FB
:10305000060E0301A56F0001E8EC10F0020EEA6E07
:10306000F60EE96E000E15EC05F00A000900F550A9
:10307000EE6E0009FBE1080E0301A56F0001E8EC0C
:1030800010F00E01D2510400020EEA6EF60EE96E47
:10309000000E000120EC05F00A000900F550EE6E6C
:1030A0000009FBE10A0E0301A56F0001E8EC10F036
:1030B000020EEA6EF60EE96E000E29EC05F00A002B
:1030C0000900F550EE6E0009FBE10C0E0301A56F3F
:1030D0000001E8EC10F0020EEA6EF60EE96E000E4A
:1030E00032EC05F00A000900F550EE6E0009FBE134
:1030F0000E0E0301A56F0001E8EC10F0020EEA6E5F
:10310000F60EE96E000E3CEC05F00A000900F550E1
:10311000EE6E0009FBE1100E0301A56F0001E8EC63
:1031200010F0020EEA6EF60EE96E000E4DEC05F0A0
:103130000A000900F550EE6E0009FBE1120E0301D2
:10314000A56F0001E8EC10F0020EEA6EF60EE96ED3
:10315000000E5AEC05F00A000900F550EE6E000969
:10316000FBE1180E0301A56F0001E8EC10F00E0161
:10317000D2510400020EEA6EF60EE96E000E000156
:1031800073EC05F00A000900F550EE6E0009FBE152
:103190001A0E0301A56F0001E8EC10F00E01D251E8
:1031A0000400020EEA6EF60EE96E000E00015AEC03
:1031B00005F00A000900F550EE6E0009FBE1140E5F
:1031C0000301A56F0001E8EC10F0020EEA6EF60EA6
:1031D000E96E000E5AEC05F00A000900F550EE6E9B
:1031E0000009FBE1160E0301A56F0001E8EC10F0E9
:1031F000020EEA6EF60EE96E000E20EC05F00A00F3
:103200000900F550EE6E0009FBE11C0E0301A56FED
:103210000001E8EC10F0020EEA6EF60EE96E000E08
:1032200020EC05F00A000900F550EE6E0009FBE104
:103230001E0E0301A56F0001E8EC10F0020EEA6E0D
:10324000F60EE96E000E29EC05F00A000900F550B3
:10325000EE6E0009FBE1200E0301A56F0001E8EC12
:1032600010F0020EEA6EF60EE96E000E29EC05F083
:103270000A000900F550EE6E0009FBE1220E030181
:10328000A56F0001E8EC10F0020EEA6EF60EE96E92
:10329000000E29EC05F00A000900F550EE6E000959
:1032A000FBE1240E0301A56F0001E8EC10F0020E13
:1032B000EA6EF60EE96E000E84EC05F00A000900D5
:1032C000F550EE6E0009FBE1260E0301A56F00012B
:1032D000E8EC10F0020EEA6EF60EE96E000E8FECCE
:1032E00005F00A000900F550EE6E0009FBE1280E1A
:1032F0000301A56F0001E8EC10F0020EEA6EF60E75
:10330000E96E000E9AEC05F00A000900F550EE6E29
:103310000009FBE12A0E0301A56F0001E8EC10F0A3
:103320000E01D2510400020EEA6EF60EE96E000E96
:103330000001A3EC05F00A000900F550EE6E00094B
:10334000FBE12C0E0301A56F0001E8EC10F0020E6A
:10335000EA6EF60EE96E000EADEC05F00A0009000B
:10336000F550EE6E0009FBE1300E0301A56F000180
:10337000E8EC10F0020EEA6EF60EE96E000EB7EC05
:1033800005F00A000900F550EE6E0009FBE1380E69
:103390000301A56F0001E8EC10F0020EEA6EF60ED4
:1033A000E96E000E29EC05F00A000900F550EE6EFA
:1033B0000009FBE1320E0301A56F0001E8EC10F0FB
:1033C000020EEA6EF60EE96E000E29EC05F00A0018
:1033D0000900F550EE6E0009FBE1340E0301A56F04
:1033E0000001E8EC10F0020EEA6EF60EE96E000E37
:1033F00029EC05F00A000900F550EE6E0009FBE12A
:10340000360E0301A56F0001E8EC10F0020EEA6E23
:10341000F60EE96E000E20EC05F00A000900F550EA
:10342000EE6E0009FBE10A0E0301A56F0001E8EC56
:1034300010F00E01D2510400020EEA6EF60EE96E93
:10344000000E0001C4EC05F00A000900F550EE6E14
:103450000009FBE13C0E0301A56F0001E8EC10F050
:10346000020EEA6EF60EE96E000ED1EC05F00A00CF
:103470000900F550EE6E0009FBE13E0E0301A56F59
:103480000001E8EC10F0020EEA6EF60EE96E000E96
:10349000DEEC05F00A000900F550EE6E0009FBE1D4
:1034A000400E0301A56F0001E8EC10F0020EEA6E79
:1034B000F60EE96E000E29EC05F00A000900F55041
:1034C000EE6E0009FBE1420E0301A56F0001E8EC7E
:1034D00010F0020EEA6EF60EE96E000E29EC05F011
:1034E0000A000900F550EE6E0009FBE1440E0301ED
:1034F000A56F0001E8EC10F0020EEA6EF60EE96E20
:10350000000EE8EC05F00A000900F550EE6E000927
:10351000FBE1460E0301A56F0001E8EC10F00E017F
:10352000D2510400030E02014D6F840E4C6F4DC248
:103530004BF24CC24AF24CC206F2036AF250006EE1
:10354000F29E020E7F6EE00E7E6E06C280FF819CB0
:10355000819E81840F01550E826EAA0E826E818239
:1035600081B2FED78194819C818E0050F2120301BA
:103570009A6B02014D510201066FF250006EF29EED
:10358000020E7F6EE10E7E6E06C280FF819C819EE0
:1035900081840F01550E826EAA0E826E818281B2E5
:1035A000FED78194819C818E0050F2120201010E9F
:1035B000016E00011200EACFA4F3E9CFA3F30301E7
:1035C0009D39F0099F6F9F27E20FA06F320FA26F06
:1035D0009D510F0BA027A027A227E90FA16FA127BC
:1035E000A1279C390F0BA127A227A137A237A21F21
:1035F000A2379C510F0BA2279F37070E9E6F0A0E12
:10360000A107A227FDE3A007A127FDE39F07A027AD
:10361000FDE39E079F27FDE3030EEA6E9E0EE96E13
:10362000070EA315A39DE926000EEA22E950A20881
:1036300004E1EA50030801E1A38DEF50006E08E1B8
:10364000A3BD06D0A3B916D0A3B702D0200E03D0D5
:10365000A387A399300E0026EACF9DF3E9CF9CF310
:1036600000C0ABF30001B6EC0DF09DC3EAFF9CC3B4
:10367000E9FF0301EE50A3ADD9D700011200A7C3A3
:10368000A9F3A6C3A8F3A9C3EAFF0301A8C3E9FFEE
:10369000EF5206E0A82BD8B4A92B0001F4D7030100
:1036A000A651A85D006EA751A959036E00C001F094
:1036B000026E000112000301A76BA86B036AA651FA
:1036C000F60FE96E020E0320EA6EEFCFA8F3A851C1
:1036D0002F0802E3000E01D0010EA96FA85139088E
:1036E00002E2000E01D0010EA91503E0300EA85D24
:1036F000A76FA851600802E3000E01D0010EA96F68
:10370000A851660802E2000E01D0010EA91504E0DE
:10371000610EA85D0A0FA76FA851400802E3000ED2
:1037200001D0010EA96FA851460802E2000E01D097
:10373000010EA91504E0410EA85D0A0FA76FA7515D
:10374000016E000112000301B86BB96B010EBA6F74
:10375000DA6AD96A030EBD6FB00EBC6F030EEA6E53
:10376000B40EE96EBDC3E2FFBCC3E1FFBAC3BBF355
:10377000D890E550EE02F350B823F450B923BB2F94
:10378000F7D7B8C3DEFFB9C3B8F3B96BD8B0B92B5C
:10379000BC2BD8B4BD2BBA2BBA510508DFE1000110
:1037A00012000301A26BA16BA06B9F6BA36BA46BB8
:1037B000A56BA26BA16BA06B9F6B020EA76FF60EA1
:1037C000A66F00015CDF01C0A4F30301A45103084C
:1037D00002E2030EA45FA56BA451A55D44E2A5C35C
:1037E000A6F3000168DF01C0A3F30301A551A45DA6
:1037F000FF0F040DF350036A200FE96E030E032040
:10380000EA6EEFCF00F0ECCF01F0ECCF02F0ECCF9E
:1038100003F003C0ADF302C0ACF301C0ABF300C0D2
:10382000AAF3EACFAFF3E9CFAEF3B36BB26BB16BF0
:10383000A3C3B0F303C0B7F302C0B6F301C0B5F33E
:1038400000C0B4F300017FDFAFC3EAFFAEC3E9FFFE
:10385000005003019F270150A0230250A1230350D1
:10386000A223A52BB9D79FC300F0A0C301F0A1C329
:1038700002F0A2C303F0000112000301A26BA16BCE
:10388000A06B9F6BA36BA46BA56BA26BA16BA06BD2
:103890009F6B020EA76FF60EA66F0001F0DE01C04F
:1038A000A4F30301A56BA451A55D44E2A5C3A6F34F
:1038B000000101DF01C0A3F30301A551A45DFF0FC7
:1038C000040DF350036A200FE96E030E0320EA6E25
:1038D000EFCF00F0ECCF01F0ECCF02F0ECCF03F033
:1038E00003C0ADF302C0ACF301C0ABF300C0AAF358
:1038F000EACFAFF3E9CFAEF3B36BB26BB16BA3C357
:10390000B0F303C0B7F302C0B6F301C0B5F300C013
:10391000B4F3000118DFAFC3EAFFAEC3E9FF005004
:1039200003019F270150A0230250A1230350A2238B
:10393000A52BB9D79FC300F0A0C301F0A1C302F02B
:10394000A2C303F000019DEF1EF003019E6B9D6B6F
:103950009C6B9B6B0E01D2510400100E0301A66FED
:10396000020EA86FE20EA76F000104EC0EF0020E2B
:10397000EA6E790EE96E000E82EC06F00A0009008C
:10398000F550EE6E0009FBE1020E0301AE6FF60E7C
:10399000AD6F010EAF6F00015CEC0EF0100E030175
:1039A000A66F020EA86F130EA76F000104EC0EF0B5
:1039B000020EEA6E790EE96E000E91EC06F00A0036
:1039C0000900F550EE6E0009FBE1020E0301AE6F37
:1039D000F60EAD6F010EAF6F00015CEC0EF0080E3D
:1039E0000301A66F020EA86F230EA76F000104EC5F
:1039F0000EF0020EEA6E790EE96E000E9FEC06F0F4
:103A00000A000900F550EE6E0009FBE1020E030109
:103A1000AE6FF60EAD6F010EAF6F00015CEC0EF0F5
:103A2000100E0301A66F020EA86F8B0EA76F000188
:103A300004EC0EF0020EEA6E790EE96E000EAEECAA
:103A400006F00A000900F550EE6E0009FBE1020ED7
:103A50000301AE6FF60EAD6F010EAF6F00015CECAF
:103A60000EF0200E0301A66F020EA86F2B0EA76F9B
:103A7000000104EC0EF0020EEA6E790EE96E000E03
:103A8000BDEC06F00A000900F550EE6E0009FBE1FE
:103A9000020E0301AE6FF60EAD6F010EAF6F0001A7
:103AA0005CEC0EF0200E0301A66F020EA86F4B0E09
:103AB000A76F000104EC0EF0020EEA6E790EE96EBB
:103AC000000ECAEC06F00A000900F550EE6E00097F
:103AD000FBE1020E0301AE6FF60EAD6F010EAF6F8C
:103AE00000015CEC0EF0200E0301A66F020EA86F21
:103AF0006B0EA76F000104EC0EF0020EEA6E790E59
:103B0000E96E000ED7EC06F00A000900F550EE6EE3
:103B10000009FBE1020E0301AE6FF60EAD6F010E60
:103B2000AF6F00015CEC0EF00A0E0301A66F010EF0
:103B3000A86FF40EA76F000104EC0EF032DE03C094
:103B40000CF202C00BF201C00AF200C009F202013D
:103B50000C330B330A3309330C330B330A33093379
:103B60003F0E0C170C530CE10B530AE10A5308E10A
:103B700009510E0805E30C6B0B6B0A6B0F0E096FF6
:103B8000020EEA6E790EE96E000E0001E4EC06F01A
:103B90000A000900F550EE6E0009FBE1020E030178
:103BA000AE6FF60EAD6F010EAF6F00015CEC0EF064
:103BB000010E0301A66F020EA86F9B0EA76F0001F6
:103BC00004EC0EF0EEDD00C00DF2020EEA6E790E8E
:103BD000E96E000EF4EC06F00A000900F550EE6EF6
:103BE0000009FBE1020E0301AE6FF60EAD6F010E90
:103BF000AF6F00015CEC0EF0010E0301A66F020E28
:103C0000A86F9C0EA76F000104EC0EF0CADD00C087
:103C10000EF2020EEA6E790EE96E000E04EC07F069
:103C20000A000900F550EE6E0009FBE1020E0301E7
:103C3000AE6FF60EAD6F010EAF6F00015CEC0EF0D3
:103C40000E01D2510400010E0301A66F020EA86FEF
:103C50000C0EA76F000104EC0EF0A3DD00C00FF204
:103C6000020EEA6E790EE96E000E13EC07F00A0000
:103C70000900F550EE6E0009FBE1020E0301AE6F84
:103C8000F60EAD6F010EAF6F00015CEC0EF0010E91
:103C90000301A66F020EA86F9E0EA76F000104EC31
:103CA0000EF07FDD00C010F2020EEA6E790EE96EB2
:103CB000000E22EC07F00A000900F550EE6E000934
:103CC000FBE1020E0301AE6FF60EAD6F010EAF6F9A
:103CD00000015CEC0EF0010E0301A66F020EA86F4E
:103CE0009F0EA76F000104EC0EF05BDD00C011F227
:103CF000020EEA6E790EE96E000E30EC07F00A0053
:103D00000900F550EE6E0009FBE1020E0301AE6FF3
:103D1000F60EAD6F010EAF6F00015CEC0EF00E0100
:103D2000D2510400060E0301A66F020EA86F0D0EFD
:103D3000A76F000104EC0EF0A0D501C014F200C082
:103D400013F20201145306E11351090803E3146B43
:103D5000500E136F020EEA6E790EE96E000E00012E
:103D60003FEC07F00A000900F550EE6E0009FBE198
:103D7000020E0301AE6FF60EAD6F010EAF6F0001C4
:103D80005CEC0EF0010E0301A66F020EA86F9D0EF3
:103D9000A76F000104EC0EF004DD00C012F2020E69
:103DA000EA6E790EE96E000E4DEC07F00A0009008C
:103DB000F550EE6E0009FBE1020E0301AE6FF60E48
:103DC000AD6F010EAF6F00015CEC0EF0080E030149
:103DD000A66F020EA86FB60EA76F000104EC0EF0DE
:103DE000E0DC01C016F200C015F2020116331533F3
:103DF000163315333F0E1617165306E115510E08EC
:103E000003E3166B0F0E156F020EEA6E790EE96E64
:103E1000000E00015DEC07F00A000900F550EE6E9F
:103E20000009FBE1020E0301AE6FF60EAD6F010E4D
:103E3000AF6F00015CEC0EF0010E0301A66F020EE5
:103E4000A86FB50EA76F000104EC0EF0AADC00C04D
:103E500021F2020EEA6E790EE96E000E6DEC07F0AB
:103E60000A000900F550EE6E0009FBE1020E0301A5
:103E7000AE6FF60EAD6F010EAF6F00015CEC0EF091
:103E8000010E0301A66F020EA86FA80EA76F000116
:103E900004EC0EF086DC00C022F2020EEA6E790E0F
:103EA000E96E000E7BEC07F00A000900F550EE6E9B
:103EB0000009FBE1020E0301AE6FF60EAD6F010EBD
:103EC000AF6F00015CEC0EF00A0E0301A66F020E4C
:103ED000A86FC60EA76F000104EC0EF062DC03C0F1
:103EE0009EF302C09DF301C09CF300C09BF303014D
:103EF0009C310201246F03019B310201236F2433A3
:103F000023333F0E2417020EEA6E790EE96E000E7F
:103F1000000189EC07F00A000900F550EE6E000977
:103F2000FBE1020E0301AE6FF60EAD6F010EAF6F37
:103F300000015CEC0EF00A0E0301A66F020EA86FE2
:103F4000D00EA76F000104EC0EF02BDC03C09EF333
:103F500002C09DF301C09CF300C09BF303019C31A0
:103F60000201266F03019B310201256F26332533A1
:103F70003F0E2617265306E125510E0803E3266B54
:103F80000F0E256F020EEA6E790EE96E000E00012B
:103F90009CEC07F00A000900F550EE6E0009FBE109
:103FA000020E0301AE6FF60EAD6F010EAF6F000192
:103FB0005CEC0EF0020E0301A66FA86FDA0EA76F7D
:103FC000000104EC0EF0D1EC1BF000C020F2020E58
:103FD000EA6E790EE96E000EB0EC07F00A000900F7
:103FE000F550EE6E0009FBE1020E0301AE6FF60E16
:103FF000AD6F010EAF6F00015CEC0EF0010E03011E
:10400000A66F020EA86FDC0EA76F000104EC0EF085
:10401000D1EC1BF000C02AF2020EEA6E790EE96EB6
:10402000000EC0EC07F00A000900F550EE6E000922
:10403000FBE1020E0301AE6FF60EAD6F010EAF6F26
:1040400000015CEC0EF0010E0301A66F020EA86FDA
:10405000B50EA76F000104EC0EF0D1EC1BF000C010
:104060002EF2020EEA6E790EE96E000ECCEC07F02D
:104070000A000900F550EE6E0009FBE1020E030193
:10408000AE6FF60EAD6F010EAF6F00015CEC0EF07F
:10409000010E0301A66F020EA86FB40EA76F0001F8
:1040A00004EC0EF0D1EC1BF000C052F2020EEA6EEE
:1040B000790EE96E000ED9EC07F00A000900F55000
:1040C000EE6E0009FBE1020E0301AE6FF60EAD6F5E
:1040D000010EAF6F00015CEC0EF0050E0301A66F40
:1040E000020EA86F060EA76F000104EC0EF0D1ECD3
:1040F0001BF003C09EF302C09DF301C09CF300C0FF
:104100009BF39BC349F2010E0301A66FA86B090E36
:10411000A76F000104EC0EF0020E03019F6FFA0E70
:10412000B16F0001FEEC0CF003019F2FF8D70E01D8
:10413000D2510400020E03019F6FFA0EB16F00010D
:10414000FEEC0CF003019F2FF8D70E01D2510400B2
:10415000020E03019F6FFA0EB16F0001FEEC0CF02E
:1041600003019F2FF8D70E01D25104000001120065
:104170000E01CDABFED79DCF20F099CF01F020A24C
:1041800002D09D989D880001120003019F6B9C51F5
:104190009F5D31E20E01D2510400838A889A9EC34A
:1041A000A0F30301A02BA007D8B406D0B169000189
:1041B000FEEC0CF00301F7D79DC3B1F30001FEEC58
:1041C0000CF0839A889A9EC3A0F30301A02BA0074A
:1041D000D8B406D0B1690001FEEC0CF00301F7D7AA
:1041E0009DC3B1F30001FEEC0CF00E01D2510400AE
:1041F00003019F2BCCD70001120003019B5303E165
:104200009A51FA0827E29BC3A1F39AC3A0F3A36BC8
:104210000A0EA26F000113EC0DF002C09BF301C067
:104220009AF30E01D25104000A0E0301B16F00018E
:10423000FEEC0CF003019A51D8B49B079A079A53ED
:10424000D8B402D00001EDD79B53D8B402D00001FE
:10425000E8D712D09BC39CF39C2B9C07D8B406D004
:10426000B1690001FEEC0CF00301F7D79AC3B1F37A
:104270000001FEEC0CF003010E01D251040000011C
:1042800012000E01CDA9FED70301A9C39AFF0001B8
:1042900012000301786B9A53D8B4B7D0010E786F2F
:1042A000296A2F6A306A050E9B6F0E01D2510400F5
:1042B000F29CF29EF2BEFDD79D9E006AF2BE008087
:1042C000F29E550EA06FAA0EA06FA09100B0F28EC4
:1042D000FD6B006AF2BE0080F29E550EA06FAA0E22
:1042E000A06FA08100B0F28E8A9C859C03019B5137
:1042F00005080BE1020E9C6FAE0E9E6F0001EFEC05
:104300000CF003019C2FF8D721D09B5104080BE13E
:10431000050E9C6F4C0E9E6F0001EFEC0CF003013C
:104320009C2FF8D713D09B5103080BE1030E9C6F11
:10433000680E9E6F0001EFEC0CF003019C2FF8D784
:1043400005D0E40E006E002EFED700D0858C006AEA
:10435000F2BE0080F29E550E0E01A06FAA0EA06F55
:10436000A09100B0F28E090EFD6F006AF2BE0080CF
:10437000F29E550EA06FAA0EA06FA08100B0F28E23
:104380009D8E9D8E9D889E8A900E9D6E480E9F6E7E
:10439000260E9E6E330E9B6E9C6AA00EC56FCDAB33
:1043A00008D00001E5DE01C027F00E01D251040063
:1043B000F6D79DA201D09D98C00EF212296A010E77
:1043C0000301B16F0001FEEC0CF0550E0301A96F63
:1043D000000157DF1E0E0301B16F0001FEEC0CF06F
:1043E00003019B072F506F0805E130506B0802E175
:1043F000786B06D00A0EB16F0001FEEC0CF00301E1
:104400009B5303E0782D01D050D70E01D251040008
:104410000301782D1ED0020EEA6E790EE96E000EB1
:10442000000169EC08F00A000900F550EE6E000981
:10443000FBE1010E0301796F020EAE6FF60EAD6F58
:10444000AF6B00015CEC0EF02180010E0301796F6F
:1044500001D0796B000112000301A46BA56BA76B5F
:10446000A66BA86BA86B0E01D25104000301A851E2
:10447000A82B036AC50FE96E000E0320EA6EEFCF8A
:10448000A4F39EA2FED7630E006E002EFED700D0CE
:10449000A4C3A9F30001F5DE036A0301A851C50F07
:1044A000E96E000E0320EA6EEF52DDE10D0EA96FFA
:1044B0000001E7DE630E006E002EFED700D00A0E6C
:1044C0000301A96F0001DDDE296A0301A56BA3C307
:1044D000A7F3A2C3A6F301015C6B0301A651D8B4F4
:1044E000A707A607A12D1CD02950010818E2040E29
:1044F000295C036A2F0FE96E000E0320EA6EEF506D
:104500006F080DE1030E295C036A2F0FE96E000EA0
:104510000320EA6EEF506B0802E1010EA56F05D093
:104520002950010802E2010EA56F0A0EB16F0001C9
:10453000FEEC0CF00E01D25104000301A65302E17F
:10454000A75302E0A553CAE0036A29502F0FE96E72
:10455000000E0320EA6EEF6A456B2F50690826E1D2
:1045600030506E0823E13150760820E13250610866
:104570001DE133506C081AE13450690817E13550D9
:10458000640814E136505F0811E1375070080EE1FD
:10459000385061080BE13950720808E13A5061085F
:1045A00005E13B506D0802E1040E456FA12D19D0C5
:1045B000040E295C036A2F0FE96E000E0320EA6ED9
:1045C000EF506F080EE1030E295C036A2F0FE96EAE
:1045D000000E0320EA6EEF506B0803E1010E016E3E
:1045E0000FD0A1530BE1295209E01E0EB16F00015B
:1045F000FEEC0CF0010E016E030102D0000E016E04
:104600000001120003019B6B83868896C80EB16F70
:104610000001FEEC0CF00E01D25104008396889646
:10462000020E03019C6FFA0EB16F0001FEEC0CF05C
:1046300003019C2FF8D70E01D2510400020E030192
:104640009C6FFA0EB16F0001FEEC0CF003019C2F81
:10465000F8D70E01D2510400020E03019C6FFA0E2E
:10466000B16F0001FEEC0CF003019C2FF8D70E0196
:10467000D2510400020E03019C6FFA0EB16F0001CB
:10468000FEEC0CF003019C2FF8D70E01D251040070
:1046900003019B6B9B5195080AE3036A9B512F0F03
:1046A000E96E000E0320EA6EEF6A9B2BF3D79B6B3B
:1046B0009B5195080AE3036A9B51C50FE96E000EF2
:1046C0000320EA6EEF6A9B2BF3D7296A0E01D251C1
:1046D00004000301446B776B766B9B6B9B519508D1
:1046E0000AE3036A9B512F0FE96E000E0320EA6E66
:1046F000EF6A9B2BF3D70E01D2510400EA6AC50E74
:10470000E96E000E00017CEC08F00A000900F5508B
:10471000EE6E0009FBE10301A16BA36B0F0EA26F0C
:1047200000019ADE01C0FFF10E01D2510400EA6AD5
:10473000C50EE96E000E00018BEC08F00A000900BE
:10474000F550EE6E0009FBE10301A16B010EA36FB2
:10475000F40EA26F000180DE01C0FFF10E01D25104
:1047600004000101FF5303E10301442B0101EA6A44
:10477000C50EE96E000E00019CEC08F00A0009006D
:10478000F550EE6E0009FBE1010E0301A16FA36B72
:104790000F0EA26F000160DE01C0FFF10101FF53A7
:1047A00003E10301442B01010E01D2510400030176
:1047B0009A2D2DD0EA6AC50EE96E000E0001ACEC10
:1047C00008F00A000900F550EE6E0009FBE1030154
:1047D000A16B030EA36F200EA26F00013DDE01C08E
:1047E000FFF10E01D25104000101FF5303E1030167
:1047F000442B01010301AE6B2F0EAD6F030EAF6FA3
:1048000000015CEC0EF00E01D25104000301445390
:1048100011E0020EEA6E790EE96E000E0001BAECAC
:1048200008F00A000900F550EE6E0009FBE1218254
:104830000FD00301020EEA6E790EE96E000E000140
:10484000CFEC08F00A000900F550EE6E0009FBE11C
:10485000020E0301AE6FF60EAD6FAF6B00015CECA4
:104860000EF012000301A351A503F3CF01F0F4CF22
:1048700000F0A603F3500026A451A503F350002036
:10488000026E0001120003019F6BA06B9B6B9D6B7E
:104890000E01D251040003019F6B9C6B0E01D2519B
:1048A0000400036A03019C51BA0FE96E020E032053
:1048B000EA6EEFCFA0F3A46B9BC3A3F3A66B1E0E0F
:1048C000A56F0001CFDF02C0A2F301C0A1F3030175
:1048D0009C510124016E000E0220036E015003C0A2
:1048E000F7FF000176EC00F0016E0301A05D03E12B
:1048F0009C511D0803E2010E9F6F01D09C2BA0511B
:104900003D0805E09F5303E19C511D08C7E29F2D20
:1049100001D09B2BA0513D0806E09B51490803E3C1
:104920009F2D01D0B5D7A0513D0848E1036A9C51A5
:10493000BA0FE96E020E0320EA6EEF503F0804E161
:10494000010E9B259D6F3AD0020E9B259D6F9E6B9D
:104950009E519E2B036AF60F016E020E032203C0C6
:10496000A2F39C519C2B036ABA0FE96E020E03203E
:10497000EA6EEFCFA3F3A2C3EAFF01C0E9FFA3C32E
:10498000EFFF036A9C51BA0FE96E020E0320EA6E34
:10499000EF500D080BE0010E9C25036ABA0FE96E7B
:1049A000020E0320EA6EEF500A08D2E1036A9E511C
:1049B000F60FE96E020E0320EA6EEF6A9D5304E1E2
:1049C000000E016E03D002D09DC301F000016EEF16
:1049D00025F003019A6B020EEA6E790EE96E000E65
:1049E0000001E9EC07F00A000900F550EE6E00093D
:1049F000FBE1020E0301AE6FF60EAD6FAF6B00016F
:104A00005CEC0EF003013C6B0201046B0101F66BE0
:104A10000E01D25104000201045104081BE1010EF1
:104A200003013C6F020EEA6E790EE96E000E000182
:104A3000F7EC07F00A000900F550EE6E0009FBE103
:104A4000020E0301AE6FF60EAD6FAF6B00015CECB2
:104A50000EF00201042D8FD0838A640E0301B16F22
:104A60000001FEEC0CF0839A889A020104510408BC
:104A70001CE1010E03013C6F020EEA6E790EE96E35
:104A8000000E0001F7EC07F00A000900F550EE6E89
:104A90000009FBE1020E0301AE6FF60EAD6FAF6BC6
:104AA00000015CEC0EF063D00201BA51410814E140
:104AB000BB51540811E1BC514C080EE1BD515308E3
:104AC0000BE1BE510D0808E1BF510A0805E10001E4
:104AD000A5EC1CF04CD002010001D5D601C09AF320
:104AE00003019A532DE09AC3A5F30001E8EC10F0FE
:104AF00003019A51010B0BE0020EAE6FF60EAD6F83
:104B0000030EAF6F00015CEC0EF018D00301020E33
:104B1000EA6E790EE96E000E0001F7EC07F00A006C
:104B20000900F550EE6E0009FBE1020E0301AE6FC5
:104B3000F60EAD6FAF6B00015CEC0EF018D0030108
:104B4000020EEA6E790EE96E000E000101EC08F02B
:104B50000A000900F550EE6E0009FBE1020E0301A8
:104B6000AE6FF60EAD6FAF6B00015CEC0EF00101A5
:104B7000F66B0201046B03013C53D8A402D001017F
:104B800047D70001ADEF54F08E0E006E9FC301F0C9
:104B90009EC302F0036A015209E102C001F0026AF9
:104BA000080E005E015202E1006A08D0D89001BEF2
:104BB00004D0023601360006F9D7019E1200030127
:104BC000AB51D8B471D0006EAF51D8B46DD00026BF
:104BD00004E3810E002668E204D07F0E005E64E3E9
:104BE00063E0ACC3B3F3B051B31BAC8FB08FAE5125
:104BF000B203F4CFB5F3AD51B103F4CF03F0F3CF6B
:104C0000B4F3B203F350B527F450B423000E0322DB
:104C1000AE51B103F350B527F450B423000E026A2D
:104C200003220222AC51B203F350B427F450032202
:104C3000000E0222AC51B103F3500326F4500222BD
:104C4000000E016A0122AE51B003F350B427F450B4
:104C50000322000E02220122AD51B003F3500326BD
:104C6000F4500222000E0122AC51B003F350022690
:104C7000F4500122002A01BE05D0B43703360236B3
:104C800001360006000EB4AF0AD0032A0222012228
:104C9000015005E1025003E1035001E1002AB3BFD6
:104CA000018EB3AF019E04D0006A016A026A036AF2
:104CB000000112000301A251D8B4A5D0AE6FA651D5
:104CC000D8B4A1D0AE5F05E37F0EAE27D8B09BD09D
:104CD00006D0810EAE5FD8A096D0D8B494D0AEC323
:104CE00000F0016A026A036AAD6BA3C3ACF3AC8F38
:104CF000A4C3ABF3A5C3AAF3190EAE6FA951AA5F63
:104D00000DE2010EAB5F0AE2AC5F08E2AD5F06E2C6
:104D1000AD2BAC2BAB2BA951AA2728D0A851AB5F48
:104D200012E2010EAC5F0FE2AD5F0DE2AD2BAC2BDA
:104D3000A851AB27A951AA2719E3AB2B17E1AC2B3C
:104D400015E1AD2B13D0A7518009AC5F0EE2010E27
:104D5000AD5F0BE2AD2BA7518009AC27A851AB2763
:104D6000E9E3AC2BE7E1AD2BE5D70380AE2F01D013
:104D70000BD0D890AA37AB37AC37AD37D8900336C5
:104D800002360136AF37BAD7AFA106D0D89001327C
:104D900002320332AF3302D0000635E0AFBF1ED07F
:104DA000D890AA37AB37AC37AD37A951AA5F07E225
:104DB000010EAB5F04E2AC5F02E2AD5F1AE3A85103
:104DC000AB5F05E2010EAC5F02E2AD5F12E3A751FB
:104DD0008009AC5F03E2010EAD5F0BE3032A09E13A
:104DE000022A07E1012A05E1002A0DE00132023220
:104DF0000332A3C3AEF3A751AE1BAEAF02D0018EF8
:104E000006D0019E04D0006A016A026A036A0001AA
:104E10001200800ED8A202D00301A71B0301AC6BC5
:104E2000AD6BA3C3ABF3A751AB1BA251D8B4DFD07A
:104E3000AA6F006EA651D8B4E3D0AA5FD8B483D0CD
:104E40003EE3A7C3B0F3B08FA8C3AFF3A9C3AEF3DB
:104E5000AD6BD890B033AF33AE33AD33AA2FF8D7A4
:104E6000ABAF03D0AC81E0D0AC91AA91AC89030E7A
:104E7000EA6EA50EE96EEBD0AC99ABBF0AD0AAA141
:104E800013D0B033AF33AE33AD33002AD8B4C7D06C
:104E90000BD0B0BF0CD0D890AD37AE37AF37B037EE
:104EA0000006D8B4BCD0F5D7AC8D6DD0AC9DA3C3F3
:104EB000ABF3A3AF02D0B08FABD0B09FA9D0A6C345
:104EC000AAF3A6C300F0A251AA5FA3C3B0F3B08FA8
:104ED000A4C3AFF3A5C3AEF3AD6BD890B033AF337B
:104EE000AE33AD33AA2FF8D7ABAF03D0AC839CD091
:104EF000AC93AA91AC8B030EEA6EA90EE96EA7D013
:104F0000AC9BABBF0AD0AAA113D0B033AF33AE3342
:104F1000AD33002AD8B483D00BD0B0BF0CD0D8901A
:104F2000AD37AE37AF37B0370006D8B478D0F5D745
:104F3000AC8F29D0AC9FA7C3ABF3A7AF02D0B08F83
:104F400067D0B09F65D0A7C3B0F3B08FA8C3AFF34D
:104F5000A9C3AEF3ABAF04D0B09FAC8565D0AC9520
:104F6000AD6BAA91030EEA6EA50EE96E70D0ABBFD1
:104F70001CD0A3C3ABF3AAA106D0B033AF33AE337A
:104F8000AD33002A4CE0ADAF0BD0AE2B09E1AF2B17
:104F900007E1B02B05E1B033AF33AE33002A3FE079
:104FA000ACBD84D7ACBFC6D71CD0800EB01BB0AF91
:104FB00004D03AD0A7C3ABF30AD0A3C3ABF3B0532A
:104FC00006E1AF5304E1AE5302E1006A21D0B0BF65
:104FD00008D0D890AD37AE37AF37B037002EF7D7FF
:104FE0001ED0ABAF02D0B08F13D0B09F11D0A6C3EC
:104FF00000F0A7C3B0F3A8C3AFF3A9C3AEF308D0C2
:10500000A2C300F0A3C3B0F3A4C3AFF3A5C3AEF330
:10501000B0C301F0AFC302F0AEC303F034D0006AF6
:10502000016A026A036A2FD0AD6BAE1FAF1FB01FBB
:10503000AD1FAD2B05E1AE2B03E1AF2B01E1B02B92
:10504000ACB112D7ACB354D7ACB589D7B3D7EF5006
:10505000AE2705E3AF2B03E1B02BD8B4AA81ED5204
:10506000EF50AF2703E3B02BD8B4AA81ED52EF5035
:10507000EFBE01D0800AB027D8B0AA81ACB9FCD667
:10508000ACBB3ED774D7000112000301AB51B60888
:10509000AB6F036AACC3AFF3AC8FD890AC33AD3316
:1050A000AE330332023201320032AB2FF6D7AFAF4C
:1050B0000BD0001E011E021E031E002AD8B4012AB6
:1050C000D8B4022AD8B4032A0001DCEF28F0D8B201
:1050D00004D0030EEA6EB30EE96E006A016A026A3A
:1050E000036A0301B36BB46BB56BB66BB251B1110C
:1050F000B011AF112CE0200EB76FD890AB37AC37A2
:10510000AD37AE37B337B437B537B637B251B65D12
:1051100008E1B151B55D05E1B051B45D02E1AF51B7
:10512000B35D0FE3AF51B35FB051D8A0B03DB45FF2
:10513000B151D8A0B13DB55FB251D8A0B23DB65F74
:10514000D8800036013602360336B72FD6D7B3C320
:10515000EFFFB4C3ECFFB5C3ECFFB6C3ECFF000137
:105160001200E9500301A36FA251A56F1BE0A1C378
:10517000AEF3A0C3ADF39FC3ACF39EC3ABF3B26B6E
:10518000B16B200EB06F820EAF6F000118DD03C04F
:10519000A1F302C0A0F301C09FF300C09EF303017E
:1051A000A52FE5D7A1C3AEF3A0C3ADF39FC3ACF366
:1051B0009EC3ABF3000169D703C0A1F302C0A0F303
:1051C00001C09FF300C09EF30301A1AF0DD0A30760
:1051D000A38B9E1F9F1FA01FA11F9E2BD8B49F2B88
:1051E000D8B4A02BD8B4A12B3B0EAA6F9A0EA96FEE
:1051F000CA0EA86FA76B0A0EA56FA251D8B4A32B35
:10520000D882030EEA6E9E0EE96EA1C3AEF3A0C370
:10521000ADF39FC3ACF39EC3ABF3AAC3B2F3A9C370
:10522000B1F3A8C3B0F3A7C3AFF3000150DF01503F
:10523000005213E10301A229A55DD8A402D0000108
:105240000CD0A3510DE00F0BA55D01E044E2A3BF1C
:1052500042D0A3BD05D0200E37D0200E0301A317E6
:10526000A3AB0FD0A39BA251D8A4A3070050A36F58
:105270002D0EAB6F0001B6EC0DF00301A351006ED3
:10528000A36BA251A55D0DE10050A36F2E0EAB6F75
:105290000001B6EC0DF00301A351006E200EA31720
:1052A000000E300EA3AB10D0A39BA251D8A4A3072D
:1052B0000050A36F2D0EAB6F0001B6EC0DF0030193
:1052C000A351006EA36B300E002600C0ABF30001AB
:1052D000B6EC0DF00301D892AAC3AEF3A9C3ADF3A7
:1052E000A8C3ACF3A7C3ABF3B26BB16BB06B0A0E40
:1052F000AF6F0001ECDE03C0AAF302C0A9F301C046
:10530000A8F300C0A7F30301A52F7AD7000112006C
:1053100003019F6B40C39EF3000136DC6F0E030157
:10532000AE6F120EAD6F030EAC6F800EAB6F03C08D
:10533000B2F302C0B1F301C0B0F300C0AFF300019B
:105340003EDC03C0A1F302C0A0F301C09FF300C084
:105350009EF303C0AEF302C0ADF301C0ACF300C0D6
:10536000ABF30301B26BB16B200EB06F850EAF6F64
:10537000000125DC03C0A1F302C0A0F301C09FF32C
:1053800000C09EF303C0A5F302C0A4F301C0A3F3C1
:1053900000C0A2F30301A96B7C0EA86F030EA76FD8
:1053A0008C0EA66F000186DC03C0A1F302C0A0F33F
:1053B00001C09FF300C09EF3D89203C0A5F302C0C2
:1053C000A4F301C0A3F300C0A2F3CD0E0301A96FA3
:1053D000CC0EA86F4C0EA76F7B0EA66F000119DDD7
:1053E00003C08DF302C08CF301C08BF300C08AF3BD
:1053F000020EEA6E790EE96E000EF5EC09F00A0075
:105400000900F550EE6E0009FBE1020E0301736F17
:10541000810E726F010EE96E8DC3A1F38CC3A0F3F0
:105420008BC39FF38AC39EF3A26F00019ADE020E24
:105430000301AE6FF60EAD6FAF6B00015CEC0EF0CA
:105440001200070E886E838E889E020E0301B16FD4
:105450000001FEEC0CF0820E0F01316F030E586F4D
:10546000060E116F000E196F216F080E5A6F5B6BDD
:10547000576B200E5C6F666A900E606E010E5F6F58
:10548000630E006E002EFED700D0020E03019E6F49
:10549000000136EC0DF001C040F33ADF0A0E0301C3
:1054A0008E6F838A889A020E9E6F000136EC0DF093
:1054B00001C040F30E01D251040003018E5306E1F6
:1054C0000A0E8E6F000124DF06D00301320EB16F89
:1054D0000001FEEC0CF0839A889A03019C5302E1D0
:1054E0009D5304E09C51D8B49D079C0740516F0820
:1054F00004E39C53D6E19D53D4E1839E889E609E35
:10550000000E0F01586F116F196F216F000112000B
:105510000E01D25104000301866B9E0E856F0E01B1
:10552000D25104000301866B856B838C85840E0148
:10553000D2510400070E886E838E889E020E0301EE
:10554000B16F0001FEEC0CF0820E0F01316F030E03
:10555000586F060E116F000E196F216F080E5A6FEB
:105560005B6B576B200E5C6F666A900E606E010E6F
:105570005F6F310E006E002EFED700D0660E030165
:10558000406F030E9E6F000136EC0DF001C040F33A
:105590000301405166084DE2866B856B886B876B13
:1055A0000E01D2510400010E0F015F6F310E006E2B
:1055B000002EFED700D0030E03019E6F000136ECD3
:1055C0000DF001C040F303014051650803E3839CE3
:1055D000859429D0020E0F015F6F020E03019D6FAB
:1055E000F90E9E6F0001EFEC0CF003019D2FF8D730
:1055F000030E9E6F000136EC0DF00301866B01C0B7
:1056000085F3872BD8B4882B885127080CE303E156
:1056100087510F0808E34051660805E2865303E10D
:1056200085519D08BDE2640EB16F0001FEEC0CF0E7
:105630000301839C85940E01D2510400839E889EB1
:10564000609E000E0F01586F116F196F216F0301DB
:105650008851260805E2FF0A06E18751100803E396
:105660004051650804E3000E016E03D002D0010E24
:10567000016E00018EEF2BF003019D6B9E6B02010A
:105680004951090802E30C0E496F03019E6B0201A8
:10569000495103019E5D12E29D6B9D5109080CE387
:1056A0000E01D2510400640E0301B16F0001FEEC43
:1056B0000CF003019D2BF1D79E2BE9D70E01D2519F
:1056C00004000001120003019C6B0201122D03D0A3
:1056D000286B080E276F0F53D8A480D06A5312E1AD
:1056E0006B5310E16C530EE16D530CE16D6B090EC1
:1056F0006C6FE30E6B6F400E6A6F010E0301896FD2
:105700000BD002016D6B090E6C6FE30E6B6F400ED8
:105710006A6F010E0301896F0001FAD6012C58D07F
:1057200003016E5140080BE18586500EB16F0001F8
:10573000FEEC0CF08596010E0201646F03016E51C0
:10574000500807E10E01D2510400010E0201656FFD
:1057500003016E51600807E10E01D2510400010EF1
:105760000201666F03016E51700807E10E01D2510C
:105770000400010E0201676F03016E530AE1858880
:10578000500EB16F0001FEEC0CF085980201646BC5
:1057900003016E51100806E10E01D251040002010E
:1057A000656B03016E51200806E10E01D251040021
:1057B0000201666B03016E51300806E10E01D25101
:1057C00004000201676B0301010E9C6F03D000010E
:1057D00003019C6B890789539FE102010F2D29D09A
:1057E00003016E51400B10E06E51300B0CE1010EC5
:1057F0000201646F838C858600013EDF839C859463
:1058000085968598030112D06E51300B0FE102018D
:10581000646B838C858800012FDF839C859485963B
:10582000859803014A6B496B486B476B010E9C6F6F
:10583000020103019CC301F00001120003019D6BF2
:105840009D6B9C519D5D2AE20E01D2510400FA0E1F
:105850000301B16F0001FEEC0CF00E01D251040007
:10586000FA0E0301B16F0001FEEC0CF00E01D251F3
:105870000400FA0E0301B16F0001FEEC0CF00E0102
:10588000D2510400FA0E0301B16F0001FEEC0CF0DE
:105890000E01D251040003019D2BD3D70001120049
:1058A00003019A6B9B6B9D6B040E9C6F0001C9DD1D
:1058B00003019B6B9D6B040E9C6F0001C2DD0E010A
:1058C000D251040003019F6B40C39EF30001C4EC5E
:1058D00025F06F0E0301AE6F120EAD6F030EAC6FAD
:1058E000800EAB6F03C0B2F302C0B1F301C0B0F3DE
:1058F00000C0AFF30001DFEC25F003C09FF302C04E
:105900009EF301C09DF300C09CF303C0AEF302C040
:10591000ADF301C0ACF300C0ABF30301B26BB16BEC
:10592000200EB06F850EAF6F0001DFEC25F003C0D5
:105930009FF302C09EF301C09DF300C09CF303C01F
:10594000A5F302C0A4F301C0A3F300C0A2F30301B6
:10595000A96B7C0EA86F030EA76F8C0EA66F0001BB
:105960005AEC26F003C09FF302C09EF301C09DF3E2
:1059700000C09CF3D89203C0A5F302C0A4F301C0F9
:10598000A3F300C0A2F3CD0E0301A96FCC0EA86F44
:105990004C0EA76F7B0EA66F000109EC27F003C029
:1059A0008DF302C08CF301C08BF300C08AF3020EAA
:1059B000EA6E790EE96E000EF5EC09F00A000900B6
:1059C000F550EE6E0009FBE1020E0301736F810ECC
:1059D000726F010EE96E8DC3A1F38CC3A0F38BC36C
:1059E0009FF38AC39EF3A26F0001B1EC28F0020E70
:1059F0000301AE6FF60EAD6FAF6B00015CEC0EF005
:105A0000020E03019C6FFA0EB16F0001FEEC0CF068
:105A100003019C2FF8D70E01D2510400020EEA6E4A
:105A2000790EE96E000E000103EC0AF00A0009008D
:105A3000F550EE6E0009FBE1020E0301736F840E58
:105A4000726F100EE96E30C29DF32FC29CF30001FD
:105A5000DBEC1AF0020E0301AE6FF60EAD6FAF6B0A
:105A600000015CEC0EF0020E03019C6FFA0EB16FA8
:105A70000001FEEC0CF003019C2FF8D70E01D2516F
:105A80000400858A8A9A8988020E0301B16F000199
:105A9000FEEC0CF08EA817D0020EEA6E790EE96EBD
:105AA000000E13EC0AF00A000900F550EE6E000932
:105AB000FBE1020E0301AE6FF60EAD6FAF6B00019E
:105AC0005CEC0EF016D0020EEA6E790EE96E000E56
:105AD00021EC0AF00A000900F550EE6E0009FBE126
