:0600000080315C280000C5
:080008008301803140017708FB
:10001000A0007808A1007908A2007A08A3000730A0
:10002000850016308400001C1B28073085000C302A
:100030008400001830280730850016308400001E28
:100040002728073085000C308400001A3228200849
:10005000F7002108F8002208F9002308FA00090037
:1000600080313428803140284E010C104001A40A10
:100070000130A5004E010C104001803140012728BD
:100080000B138B138B1B4128FF307E013F06BF05EE
:100090004E010C124001803140012728203085009C
:1000A0000B308400000803195B285230F700F70B6F
:1000B0005728800B55280800510192018F019101AA
:1000C000930160308D004001A801A7017E01B801B5
:1000D000C301CE0153019101920193019001950159
:1000E00096019701940104304001920041011E10D5
:1000F0009E1000307E01B800C300CE0046018E1372
:1001000092134301900144018C018D018C01000088
:10011000073050018D0015308C000C086400030876
:100120001839F700770CF800F80CF80C1F30F805B8
:100130000310140D0439F8041308F700931C77100A
:10014000023094003F30930078084001A8007708FF
:10015000A7004E010C100B1416140C1040011212C3
:10016000181250010C0864004001A401A901921268
:100170009812A9012908093C031CE028121218163C
:100180001830F700F70BC228C528121218123230A7
:10019000AB004E2050010C086400400112121816EA
:1001A0001830F700F70BD228D52812121812323067
:1001B000AB004E2050010C0864004001A90ABA2887
:1001C000A501C0308B04A401A50150010C086400F6
:1001D0004001250B4229A5012408273C031C1729AF
:1001E0001E30A600A6030530AB004E2050010C08BF
:1001F000640040010C1DFF28A608031DF2285001D1
:100200000C0864004E010C105330F700F70B062960
:100210004001121218161830F700F70B0D2910299B
:100220001212181250010C08640041294001A40167
:10023000921298160230AA00FA30AB004E20AA0B98
:100240001C2950010C08640002304001AA00FA3059
:10025000AB004E20AA0B2729121218161830F700EF
:10026000F70B302933291212181250010C086400C0
:100270004001921298126430AB004E2050010C08DD
:100280006400400163000000000000000000000066
:1002900000004001E528000000000000400163006C
:020000040001F9
:0A000E00EC3FBF3FDF3FFF1FFF3F45
:00000001FF
;PIC16LF15345
;CRC=0869  CREATED="30-set-25 11:03"
